:020000041FFFDC
:10080000000000003DD9FF1F100C0020440C002008
:100810009018002000000000000000000000000010
:1008200000000000000000000000000000000000C8
:1008300000000000000000000000000000000000B8
:1008400000000000000000000000000000000000A8
:100850000000000000000000000000000000000098
:100860000000000000000000000000000000000088
:100870000000000000000000000000000000000078
:100880000000000000000000000000000000000068
:100890000000000000000000000000000000000058
:1008A0000000000000000000000000000000000048
:1008B0000000000000000000000000000000000038
:1008C0000000000000000000000000000000000028
:1008D0000000000000000000000000000000000018
:1008E0000000000000000000000000000000000008
:1008F00000000000000000000000000000000000F8
:1009000000000000000000000000000000000000E7
:1009100000000000000000000000000000000000D7
:1009200000000000000000000000000000000000C7
:1009300000000000000000000000000000000000B7
:1009400000000000000000000000000000000000A7
:100950000000000000000000000000000000000097
:100960000000000000000000000000000000000087
:100970000000000000000000000000000000000077
:100980000000000000000000000000000000000067
:100990005DB7FF1FF1B7FF1F3DECFF1F0000000018
:1009A0000000000000000000000000000000000047
:1009B0000000000000000000000000000000000037
:1009C0000000000000000000000000000000000027
:1009D0000000000000000000000000000000000017
:1009E0000000000000000000000000000000000007
:1009F00000000000000000000000000000000000F7
:100A000000000000000000000000000000000000E6
:100A100000000000000000000000000000000000D6
:100A200000000000000000000000000000000000C6
:100A300000000000000000000000000000000000B6
:100A400000000000000000000000000000000000A6
:100A50000000000000000000000000000000000096
:100A60000000000000000000000000000000000086
:100A70000000000000000000000000000000000076
:100A80000000000000000000000000000000000066
:100A90000000000000000000000000000000000056
:100AA0000000000000000000000000000000000046
:100AB0000000000000000000000000000000000036
:100AC0000000000000000000000000000000000026
:100AD0000000000000000000000000000000000016
:100AE0000000000000000000000000000000000006
:100AF00000000000000000000000000000000000F6
:100B000000000000000000000000000000000000E5
:100B100000000000000000000000000000000000D5
:100B200000000000000000000000000000000000C5
:100B300000000000000000000000000000000000B5
:100B400000000000000000000000000000000000A5
:100B50000000000000000000000000000000000095
:100B60000000000000000000000000000000000085
:100B700025BEFF1F00000000000000000000000074
:100B80000000000000000000000000000000000065
:100B90000000000000000000000000000000000055
:100BA000000000000000000000000000B9AAFF1FC4
:100BB000000000000000000049AAFF1F81AAFF1FDB
:100BC00031AAFF1F0000000000000000000000002C
:100BD0000000000000000000000000000000000015
:100BE0000000000000000000000000000000000005
:100BF0000000000065A9FF1F0000000000000000C9
:0C0C000001FF01FF01FF01FF41000000A7
:020000041FFFDC
:10480000485A0020D548FF1FDD48FF1FDF48FF1F23
:104810000000000000000000000000000000000098
:10482000000000000000000000000000E148FF1F41
:104830000000000000000000E348FF1FE548FF1FE4
:104840000000000000000000000000000000000068
:104850000000000000000000000000000000000058
:104860000000000000000000000000000000000048
:104870000000000000000000000000000000000038
:104880000000000000000000000000000000000028
:104890000000000000000000000000000000000018
:1048A0000000000000000000000000000000000008
:1048B00000000000000000000000000000000000F8
:1048C0000348854600F09AFC0048004769D7FF1F5F
:1048D000485A00200448804704480047FEE7FEE7A6
:1048E000FEE7FEE7FEE7FEE7D570FF1FC148FF1FAA
:1048F00003460B439B0703D009E008C9121F08C0F9
:10490000042AFAD203E00B780370401C491C521EA3
:10491000F9D27047D2B201E00270401C491EFBD2AE
:1049200070470022F6E710B513460A4604461946BA
:10493000FFF7F0FF204610BD30B5044600200346C7
:1049400000E05B1C934203D2E05CCD5C401BF8D0DE
:1049500030BD0321001D401E037812021A43491E78
:10496000F9D510467047F8B502464A40D40F4200C8
:104970004B0052085B089A4202D202460846114692
:104980004A0023D0C30D4A00DDB2120EAD1A202D0D
:1049900035DA49020126490AF6058A19002C00D0A9
:1049A000524220214F1B1146B9402A411018C20D16
:1049B0009A4221D0002C17D0012D08DCDA05801A8C
:1049C000D20F8019D207DBB200F080FBF8BDDA0508
:1049D000801A012340001B06C01880185A42801814
:1049E000CA0F1043490007E04908C2071143DA051E
:1049F000801A80194008801800F060FBF8BD610043
:104A00000122511A001BF7E70122D2075140AAE701
:104A10000122D2075040A6E7024670B54A40D30FA4
:104A2000DB0740002DD04A002AD0010E140E0002F0
:104A300012020919400A520A8418E5010446544337
:104A4000000A120A2E045043A4194219200CC5432F
:104A5000AA18120C0125AD03521C521912047F39F9
:104A6000240400D0521C104301D44000491EC2B29D
:104A70000C06C0092018401C4008802A02D003E020
:104A8000002070BD40084000002900DA00201843D3
:104A900070BD70B502464A40D50F40004A00ED0790
:104AA00040085208002814D0002A12D0C40DD30D9B
:104AB00041020120C0055202490A520AE41A0918AB
:104AC00012187D34914201D3641C00E04900002C8F
:104AD00001DA002070BD0023914201D3891A0343FB
:104AE000400849000028F7D100290AD0914202D19C
:104AF0000121C90705E0914201D2012101E0012114
:104B0000C943E005C018401900F0D8FA70BD420052
:104B100005D04200120E52428A4201DB002070474B
:104B2000C905081870470000F0B507460846584008
:104B300087B0C00F049048000E465900400849084D
:104B4000BC1A884105D2384631461E4617460B46E8
:104B500002465800400810434CD0300D03904005E9
:104B60005900400D490D0590401A0290402872DA14
:104B700018030121000B09050843019004980092D5
:104B8000002805D0019952420020884100920190EE
:104B9000029840210A1A0199009800F05BFA054634
:104BA0000C466B4607CB00F076FAC0197141039AA8
:104BB0000E0D0023D71756401A467A40164344D0AC
:104BC000049A002A2DD0029A012A039A15DC1205B4
:104BD000C01A914101263605001C7141D20F059E75
:104BE000D2070093019202962A46234600F0B4FAB7
:104BF00007B0F0BD38463146FAE71605224A0F469F
:104C0000B218C01AB74101210905001C4F41001814
:104C10007F41114618187941E20F10436D19644124
:104C200013E0E2076D0815436408C2071443039AB2
:104C300001261205C01A91413605001C7141CE07AC
:104C4000400830434908C01851412A46234600F025
:104C500076FACDE7FFE7049801224000C117121A47
:104C600000238B4104983146C417381AA141EEE75E
:104C700030B40124E407634030BC55E730B401246C
:104C8000E407614030BC4FE70000E0FFF0B51FB41F
:104C900088B00B990998002448400999C00F490031
:104CA00049080991C0070B990090490049080B91E8
:104CB00009990898A64608431CD00B990A980843FE
:104CC00018D0099801244000420D4800410D099870
:104CD00024050003000B204309900B980003000BF0
:104CE00020430B9050181C49401800220190144694
:104CF000104605E0002001460DB0F0BD032801DAA2
:104D0000034600E003239C46C11A0AAE0AE05F0096
:104D100008ADED5B4F00F75B7D430027AA187C418F
:104D2000491C5B1E6145F2DD410004AB5A5221046F
:104D3000120C0A43240C401C0828DFDB0198029067
:104D40000099704601910090059B049A0799069876
:104D500000F002FAD0E700000DFCFFFFF0B50C46B2
:104D60005C4085B0E40FE40703944C00002664081F
:104D700059009446490802460296224321D06246D1
:104D80000A431ED06200570D4A000E032303550D3F
:104D9000012402462C492405781B1B0B360B4018B6
:104DA00023432643614600901C46501AB44103D366
:104DB0000098401C009002E0921800985B41002887
:104DC00003DA0020014605B0F0BD002001210905ED
:104DD0000746864611E064461D46141BB54106D3BE
:104DE0006546521BB341744607430C43A646CD07A4
:104DF00040084908284392185B4105460D43EAD113
:104E00001046184313D0604619465040714008437D
:104E100006D06046101AB34106D20122002306E0F4
:104E200000220123DB0702E00122D2435310009845
:104E300074460105381C6141029C039D00196941BB
:104E400000F07DF9BFE70000FD03000070B54B00E6
:104E50005B0803430BD04B005C0D002633466542D4
:104E6000B341D417AD1AA34102DB0020014670BD47
:104E700012053018514170BDC217C10F504010B516
:104E80004018CA079623002100F020F910BD10B584
:104E900000229623114600F019F910BD0EB5C21775
:104EA000C10F5040CA0740180021054B02930192E0
:104EB00000910A460B4600F04FF903B000BD000018
:104EC000330400000EB505490291002100910A4605
:104ED0000B46019100F040F903B000BD330400001F
:104EE000410040020122400AD205090E80187F29A4
:104EF00001DA00207047962903DC9622511AC84037
:104F000070479639884070474A0009030123090B0E
:104F10001B051943094B10B5520D9A4201DA0020C6
:104F200010BD064B34339A4203DC9A1A00F0A2F803
:104F300010BD03495118884010BD0000FF03000058
:104F4000CDFBFFFFC20FD207400040080BD0C10DC0
:104F50000723DB01C91840020905400A1143C208B2
:104F600040071143704700200146704710B50029E3
:104F700004DB0124E40740428C412146002B04DB82
:104F80001C460123DB075242A3418B4200D18242DF
:104F900010BD0000CB0FDB07490010B549080246E1
:104FA0000A4307D00A0D07240903E401090B121B69
:104FB000002A01DC002010BDC900440F0C43C100D1
:104FC000E018D205801800F079F810BD0122D20750
:104FD000002800DB101A002900DB511A81427047BB
:104FE0000122D207002800DB101A002900DB511A29
:104FF00088427047F0B51FB40646002082B00546CF
:105000004024019100901BE0019922460F46304652
:1050100000F030F8049A059B801A994110D310468D
:105020001946224600F016F8361A8F41019722469B
:1050300001200021009F00F00DF838184D4100902C
:105040002046641E0028DFDC019B0098294632467A
:1050500007B0F0BD10B5202A04DB0146203A91408C
:10506000002010BD914020239C1A0346E3401943C1
:10507000904010BD10B5202A04DB0846203AD040ED
:10508000002110BD0B46D340D0402024A21A9140ED
:105090000843194610BD10B5202A06DBCB17084679
:1050A000203A1041C1170B4306E00B461341D04094
:1050B0002024A21A91400843194610BD002904DAA1
:1050C000401C490001D140084000704770B40024E2
:1050D000050C05D11024000402D1002921D011248F
:1050E000050E01D100020834050F01D10001241D75
:1050F000850F01D18000A41C002801DB4000641C46
:10510000002908D020252E1B0D46F540A14000D0D7
:1051100001212943084301061B1B000ADB1D02D5A0
:10512000002070BC7047DB05181880180029F8DAD9
:10513000401C4900F5D170BC40084000704710B5D4
:10514000002B08DA0024401C614192185B411A438D
:1051500001D14008400010BDF0B51FB482B0054633
:105160000C0003D0084602F047F802E002F044F8D1
:1051700020300246009021462846FFF76BFF049B33
:10518000059A04460F4618431143084314D01846A5
:1051900010431BD0009840210A1A18460599FFF7C2
:1051A00069FF05460E46009A05990498FFF752FFDD
:1051B000084305D0012004E02046394607B0F0BD81
:1051C0000020C11705430E432C43374300990E9826
:1051D0006305401A7905E40A00220C43FD0A0A30EF
:1051E00002D500200146E9E70105101969410C9C30
:1051F0000D9D00196941FFF7A2FFDFE7064C01256D
:10520000064E05E0E36807CC2B430C3C984710346E
:10521000B442F7D3FFF758FB401800209018002045
:1052200070B58C180578401C6B075B0F01D10378B3
:10523000401C2A1106D10278401C03E006780E704B
:10524000401C491C5B1EF9D12B0705D40023521EBC
:105250000DD40B70491CFAE70378401CCB1A921C42
:1052600003E01D780D70491C5B1C521EF9D5A1424C
:10527000D8D3002070BD000003B40148019001BDE7
:105280006902000003B40148019001BD7181000072
:1052900003B40148019001BDB142010003B40148CB
:1052A000019001BDD542010003B40148019001BD48
:1052B000593A010003B40148019001BDED3C0100E1
:1052C00003B40148019001BD1910000003B4014866
:1052D000019001BDC93A010003B40148019001BD2C
:1052E0005518000003B40148019001BD811700006A
:1052F00003B40148019001BDC13C010003B4014861
:10530000019001BDA53C010003B40148019001BD1D
:105310003917000003B40148019001BD39140000A1
:1053200003B40148019001BD1117000003B4014806
:10533000019001BDF13E010003B40148019001BD9F
:105340001B3D010003B40148019001BD7114000030
:1053500003B40148019001BDC131000003B401480C
:10536000019001BDC912000003B40148019001BDC4
:105370003D42010003B40148019001BD5D190000E8
:1053800003B40148019001BD3518000003B4014881
:10539000019001BDC118000003B40148019001BD96
:1053A0003515000003B40148019001BD411700000C
:1053B00003B40148019001BDE915000003B40148A0
:1053C000019001BD897B000003B40148019001BD3B
:1053D000D520000003B40148019001BDA5E50000FF
:1053E00003B40148019001BDC91F000003B4014886
:1053F000019001BDB51E000003B40148019001BD3C
:105400003D1C000003B40148019001BD0D1D0000CA
:1054100003B40148019001BD8306000003B40148B4
:10542000019001BD0143010003B40148019001BD99
:10543000E120000003B40148019001BDED3A0100F4
:1054400003B40148019001BDF53C010003B40148DB
:10545000019001BD5D3F010003B40148019001BD11
:10546000DD21000003B40148019001BD517100002D
:1054700003B40148019001BD9D19010003B4014826
:10548000019001BD3921010003B40148019001BD23
:105490008D44010003B40148019001BD5590000006
:1054A00003B40148019001BD7D3A010003B40148F5
:1054B000019001BD913F010003B40148019001BD7D
:1054C000A942010003B40148019001BD79420100E5
:1054D00003B40148019001BDD136000003B4014876
:1054E000019001BD01E6000003B40148019001BD37
:1054F000BD07000003B40148019001BD891C0000F4
:1055000003B40148019001BDE907000003B401485C
:10551000019001BD6D07000003B40148019001BD79
:10552000FD0E000003B40148019001BD2D0E0000E6
:1055300003B40148019001BD3D07000003B40148D8
:10554000019001BD211A000003B40148019001BD82
:10555000050E000003B40148019001BD892200003E
:1055600003B40148019001BD610E000003B401487D
:10557000019001BD9D0E000003B40148019001BDE2
:10558000D50E000003B40148019001BD610F000079
:1055900003B40148019001BD9502000003B4014825
:1055A000019001BD3543010003B40148019001BDE4
:1055B000E997000003B40148019001BD3D98000047
:1055C00003B40148019001BDE58D000003B401481A
:1055D000019001BD4977010003B40148019001BD6C
:1055E000E91D010003B40148019001BD1120010033
:1055F00003B40148019001BD4920010003B40148F2
:10560000019001BDF504010003B40148019001BD02
:105610004112010003B40148019001BDFD0A0100DF
:1056200003B40148019001BDD90E010003B4014843
:10563000019001BDCD1C010003B40148019001BDE2
:105640004956010003B40148019001BD8D3C0100A1
:1056500003B40148019001BDE55B000003B40148BB
:10566000019001BDE129000003B40148019001BD92
:105670009937000003B40148019001BD51140000A6
:1056800003B40148019001BD091F000003B40148A3
:10569000019001BDA579000003B40148019001BD4E
:1056A0004103000003B40148019001BDF161000015
:1056B00030B50023094D0CE00C785B1C24092C5DEF
:1056C00004700C78DBB22407240F2C5D4470801C1E
:1056D000491C9342F0D3002030BD00003619002051
:1056E00010B50549054801F07FF80348044A082130
:1056F000083001F03FFA10BD88190020FFFF0000BC
:1057000060170020F0B585B00E46054614216846A6
:10571000FFF707F904200543A806800F01D03020C9
:1057200005436F46280A787003243946BD70E807A0
:1057300002D0F078C8700424A80702D53079385513
:10574000641C680716D52448C079002806D0A8052F
:1057500001D5307D00E0707A502105E0A80501D523
:10576000307D00E0707A642148436421FFF784FDB6
:105770003855641C280702D5B07A3855641CE806F1
:1057800006D5F088000A3855B079641C3855641C79
:10579000A80603D5307A3855641CE4B2680603D5F0
:1057A000F07B3855641CE4B2280603D5307C3855AC
:1057B000641CE4B2E80503D5B07C3855641CE4B23F
:1057C000A80503D5707D3855641CE4B268460470A2
:1057D00007F07AFC05B0F0BDC8180020FEB5994C62
:1057E0000A25607A21460427897A01280ED00328E9
:1057F0001BD120462026007D0B00FFF743FD0B7ACE
:10580000818C9CA7B7C2D2DEFDF77A000B00FFF7B0
:1058100039FD120A0D141F24292F34394045494FF0
:10582000555B6167EF0A03F053FBFEBD08F028FEED
:10583000182009F053FD022018E0002009F04EFD69
:10584000032023E001218903207DFFF721FDFEBD18
:10585000182009F07DFCA772E3E0002009F078FC35
:10586000052013E0182009F027FC0620A072D8E0DC
:10587000002009F021FC072008E0182009F032FC84
:105880000820F3E7002009F02DFC0920A0720A226D
:10589000D8E7182009F03EFDA572C2E0002009F00B
:1058A00039FDFEBD6421002003F07CFB0C2023E0C9
:1058B0006421782003F076FB0D201DE06421F020A8
:1058C00003F070FB0E2017E06421382003F05AFB30
:1058D0000F2011E06421382003F054FB10200BE06E
:1058E00059A003C800900191684607F0EDFB112014
:1058F00002E003F0C7FA01207D22A0721201A1E7A5
:1059000008F0BEFD6421002003F04CFB0220A072D1
:10591000E08A208385E07D220121D2008903FFF700
:10592000B7FC208B002856D0401E0004000C2083BA
:1059300051D103205EE046A20221142001F0C8FAF2
:105940006421782003F02EFBA7725FE07D22012105
:10595000D2008903FFF79CFC208B00283BD0401E1F
:105960000004000C208336D1052043E039A2022137
:10597000142001F0ADFA6421F02003F013FB06209F
:1059800019E07D220121D2008903FFF781FC208BE1
:10599000002820D0401E0004000C20831BD10720CB
:1059A00028E02DA20221142001F092FA642138206F
:1059B00003F0E8FA0820A07228E07D220121D2003D
:1059C0008903FFF765FC208B002804D0401E0004EB
:1059D000000C20830DD080B2FFF759FA0246002355
:1059E00002212420009603F030F9FEBD1CE003E004
:1059F00024E00920A072F8E718A20221142001F087
:105A000067FA6421202003F0BDFAA572E08A2083A2
:105A1000FFF73DFA0246002302212420009603F0FE
:105A200014F97D22D2000DE7208B002804D0401EFF
:105A30000004000C208301D080B2E9E7002001F0CF
:105A400093F90000C81800200500030000000000C2
:105A5000473A0000423A0000433A0000573A00003B
:105A600000B585B014216846FEF75BFF10486A4612
:105A7000C178117001795170417A9170817AD17039
:105A8000C1881171090A5171017A9171C17BD1717B
:105A9000017C1172807C50720A21032001F0BEFA51
:105AA000002802D0002005B000BD0120FBE7000067
:105AB0002820002001207047FEB5294C00252570C4
:105AC000A571E5716572274809F01EFC7F20264903
:105AD000C005086000F0CCFD012105224903207DAE
:105AE000FFF7D6FB214E6946304600F05FFB684663
:105AF0000078012806D1684605706A4601213046C3
:105B000000F090FC1021207DFFF7C8FB1848C570FD
:105B100018A003C80190029101A807F0D5FA0AF075
:105B2000A9FA6079012805D007F01EFA657008F01F
:105B3000D1FE0AE00021152005F090FB002007F0BF
:105B400075F80121152005F089FBFF210131207D29
:105B5000FFF7A4FB01214902207DFFF79FFBFEBD5B
:105B6000C8180020000020412C1900200503000067
:105B7000282000200500030000000000F8B502F016
:105B800001F90AF05FFA4E4C4E4D01272770694625
:105B9000284600F00BFB68460078002806D16846CE
:105BA00007706A460121284600F03CFC6078002816
:105BB00002D1677008F03AFDA7717D22D200102152
:105BC000207DFFF765FB6079002601281CD03E4A46
:105BD0000121207DFFF75CFB08F07CFE394AFF21A4
:105BE000EE320131207DFFF753FB384D68780428F1
:105BF00001D3022068700024C0B202280ED0012810
:105C000010D0032812D017E02E4A0121DD32207D6A
:105C1000FFF73EFB2A4806844684DFE73024022053
:105C2000E87001E00824EF702E7105E00320E870B1
:105C3000E87A4024401C28710021012005F00EFB69
:105C400023480146401E80B20029FAD11F48203067
:105C5000007C012806D0022808D003280BD0042895
:105C60000FD018E0EF702E710F2414E00220E870BE
:105C70002E7137240FE00320E870E87A287107249A
:105C800009E00420E870E87F022814D0FF24AE77F2
:105C9000C934052004430D492046FFF733FD002099
:105CA00006F0C4FF094802F0D1FF08480AF0DEFA06
:105CB0000AF05EFDF8BDFF24AF77F134E9E700009C
:105CC000C818002005030000CA0700002820002093
:105CD00010270000FEB506F0C7FD7D2742066021B3
:105CE000FF000126A74D002A09DA82061AD588434B
:105CF00004466879022829D009F0B6F926E0820620
:105D000010D588430446687901281FD06E71287821
:105D100000281ED13A460121287DFFF7B9FA09F083
:105D2000B9FD13E0884304460B2005F053FA002820
:105D30000CD06879002809D009F0FAFD28780028ED
:105D400007D10A220121287DFFF7A2FA287800282E
:105D50000AD00121287DFFF7A7FA002804D13A468E
:105D60000121287DFFF794FA687A0027002875D072
:105D7000E1070CD0A878401CC0B2A870322803D923
:105D8000AF70002000F0F0FF401CA87068E0A97818
:105D9000002964D0012802D0022842D05CE0A87A11
:105DA000002859D1687BA97B0840E97B0840297C01
:105DB000084251D001F0ECFF00900AF03DF9044692
:105DC000714900984018FA28A87C09D3002802D10C
:105DD000032002F039FF022002F036FFAE7405E026
:105DE000002803D0032002F02FFFAF746000000EE4
:105DF0000FD066482118664881420AD3A87C002843
:105E000002D1032002F020FF012002F01DFFAE743A
:105E100022E0A87C00281FD10B20A872FFF7DEFC2F
:105E20001AE008220021502001F050F8687BA97B7D
:105E30000840E97B0840297C08420DD00922002156
:105E4000502001F043F853A003C8019100900621AF
:105E5000684605F085FF6E74AF70FEBD42E0AF701E
:105E6000A87A00281FD120070DD5E87A32280AD257
:105E7000401CC2B2EA720221642001F027F8E87ADD
:105E8000282800D96E73E0060DD5E87A0A280AD9C9
:105E9000401EC2B2EA720221642001F017F8E87ACB
:105EA000142800D2AE73687A03285FD1A87A02283A
:105EB00001D3E88A2883288BFEF7E9FF02462020D9
:105EC000009000230221242002F0BFFE002CC4D049
:105ED000E00701D0142200E096220421287DFFF77C
:105EE000D7F9BAE7E0070ED0A878411CA97032288C
:105EF0001CD9AF702878002802D0FFF7DDFDACE791
:105F0000FFF73CFEA9E7E87C00280FD16846078030
:105F1000A878002809D02878002806D01F48407AA1
:105F2000002802D0684606F00BFCAF7028780028E5
:105F30001CD0E87C002819D1684607802007E87843
:105F400017D5411CE970142804D91520E87068465B
:105F500006F068FBE00628790FD5411C297114284A
:105F600004D914202871684606F0DCFA002CB1D15F
:105F700073E70028EF70EAD1ECE700282F71F2D127
:105F8000F4E70000C8180020CAEFFFFF000090BE31
:105F90000100B00002800102C00A00002820002099
:105FA00010B5034A1321034800F0E4FD10BD0000C2
:105FB00088170020241A0020FFB595B00025109501
:105FC00010AA119500F098F806460A287CD20446DB
:105FD0000620444320462030C0B26A460E2107F016
:105FE000F1FC002802D168468089C5B21798139049
:105FF000404818990078022813D0002012900829F0
:1060000011D020462130C7B21C2200216846FFF77C
:1060100051F96A461C21384607F0D4FC002805D007
:1060200010E00120EAE720462230ECE76846807E57
:10603000C01F092806D8E907C90F6A46129B1398A2
:10604000FFF73EF91422002107A8FFF733F9204695
:106050002430C0B207AA102107F0B4FC002812D1E6
:106060001022FF2107A8FFF731F900280BD12534B2
:10607000E0B20BAA042107F0A5FCE907C90F07AAA3
:106080001798FFF729F97036F0B20CAA102107F023
:1060900099FC002811D10CA803F0C7FB00240CAE1A
:1060A000A00080190188002903D08278179800F099
:1060B000BDFD641CE4B2042CF2D3A80704D50D483E
:1060C000017B179800F0A0FD189804280FD109490A
:1060D000087802280BD10A791798002A00D00122EB
:1060E0004978002900D004211143FFF7FBF8002074
:1060F00019B0F0BD3C1C0020F0B50A2485B015464F
:106100000F46002806D0012804D0022810D003280A
:1061100046D11FE0084603F055FB04460A283FD24B
:10612000002D3DD0062239462846FFF7E1F837E03A
:106130001D4E00240E206043801906223946801D22
:10614000FFF7DCF8002823D1641CE4B20A2CF1D359
:106150000A241DE000242046062148432330C0B213
:106160006A46102107F02EFC00280CD11022FF21D6
:106170006846FFF7ABF8002805D139466846FFF7B7
:10618000C3F8002804D0641CE4B20A2CE3D3DFE790
:106190000A2C05D2002D03D02946204603F02AFB05
:1061A000204605B0F0BD00007229002070B50C46F5
:1061B0000146032000020A1A002534481300FFF7A5
:1061C00061F81D1012151C1F2326282C303234387C
:1061D0003A3C3E40424446484A4E50525A54565821
:1061E0005A00C07911E01022294902E02849102202
:1061F00010312046FFF77CF845E0C06A206042E09D
:10620000224906223C31F4E7007820703BE0808987
:1062100036E01E4942784231EBE71D4982781F394A
:10622000E7E7007AF1E7407AEFE7184906223031D4
:10623000DFE7807AE9E7C07AE7E7C08920E0808A73
:106240001EE0C0781CE0C08A1AE0008B18E0408B8A
:1062500016E0808B14E00D4906223631C9E7C08B69
:106260000EE0008C0CE0408C0AE08079CDE7008ADB
:1062700006E0408A04E0272904D20846FFF74AF8DE
:10628000208000E00225284670BD0000D81B0020B9
:106290004129002070B50E4C00256071A571691E62
:1062A000E181FFF73DF80420E07110220021094848
:1062B000FFF700F80748102200211030FEF7FAFF20
:1062C000E562257265720720A072E57270BD00005C
:1062D000D81B002041290020FEB53B4D0C46080488
:1062E0000CD56879FFF722F8050004D003F0A6FB6F
:1062F0002846FFF721F80120C00360E0600403D5C1
:10630000012080034840FEBD2F48E1070126807927
:1063100000292AD02978002920D0052821D0287AE0
:1063200069460870687A4870274900A8062230310B
:106330000230FEF7DDFFA87A69460872E87A4872F3
:106340006879FEF7FFFF002808D00720A871696A66
:10635000002903D00968002900D0884720467040F2
:10636000FEBD032069460870E5E7A1070DD50528A5
:1063700009D1E889FEF7ECFFAA8A002A03D002219E
:106380006879FEF785FF022019E0600704D5002038
:1063900003F0ACFB042012E0200712D52879012875
:1063A00002D002280AD107E00096AB8B6A8B298BBA
:1063B000E88A00F00BF801E000F05AF9082060408C
:1063C000FEBD0020FEBD0000D81B0020F8B5134C18
:1063D000069DA679052E01D01420F8BD104F861F0A
:1063E000BE4219D2062917D3BE1DB14214D2FF27CF
:1063F000F537BA4210D20A2B0ED3B3420CD2E08248
:1064000021836283A383284603F070FB0421607913
:10641000FEF744FF0020F8BD1820F8BDD81B00206F
:106420007A0C0000F7B50C468049009816464218D1
:106430007F4F00257879B9791300FEF723FF190EF5
:10644000141BE92040455970777E888FE996A2A9F0
:10645000B4BFC8E9E9E9E9D3E900102C76D11022EC
:10646000314674486FE0102C70D1724810223146CA
:10647000103068E0042C69D13068F862CEE0012C5D
:1064800064D13B7832783A70002B0AD0002A07D1C9
:10649000022903D0062901D0042901D1FEF75EFFAD
:1064A000BCE0002A0AD0012905D0032903D0052920
:1064B00001D0042902D10121FEF756FFAEE0022CE3
:1064C00044D13088B881A9E01F2C3FD858481F22FA
:1064D00000214230FEF7EEFE55482246314642305A
:1064E000FEF706FF524B7C7042332246012112E038
:1064F0001F2C7CD84F481F2200211F38FEF7DAFEE0
:106500004C48224631461F38FEF7F2FE494BBC701C
:106510001F3B224600217879FEF72CFF83E0012CF7
:1065200065D13078042862D8387277E0012C5ED1CA
:10653000307803285BD8787270E0062C57D13C483D
:10654000062231463030FEF7D3FE67E04FE0012CE3
:106550004DD1307807284AD8B8725FE0012C46D177
:106560003078032843D8F87258E0022C3FD13288A3
:10657000BA82002A52D0052950D10221FEF788FEA6
:106580004CE0012C33D13078012830D8F87045E048
:106590003088022C2BD1062829D31921C901884221
:1065A00025D8F8823AE03088022C20D106281ED364
:1065B0001921C90188421AD838832FE03088022C6B
:1065C00015D1FF21F531884211D2788326E0308839
:1065D000022C0CD10A280AD31921C901884206D8F5
:1065E000B8831BE03178012C01D1012901D0182595
:1065F00014E00821FEF758FE002801D016250DE012
:10660000002003F073FA04217879FEF747FE05E0D5
:106610000098272801D2022C02D002252846FEBD70
:106620003188FEF7ADFE0546F8E70000FFFCFFFFEE
:10663000D81B0020412900201CB50B4CA179002952
:1066400001D011201CBD002800D060620649074817
:106650002C31034601910090103B0022E1796079D2
:1066600000F016F800201CBDD81B00205129002086
:1066700010B506488179052901D0122010BDC189C5
:1066800013224079FEF782FE10BD0000D81B0020C7
:10669000F8B51D460224069F079E0B00FEF7F2FD8B
:1066A0000A1508060608150615060615002C0CD155
:1066B000FEF772FE040008D1324639462846FEF73E
:1066C00071FEFEF775FEFEF779FE2046F8BD08B5AF
:1066D00000206946009005204A1C09F0A3F968468D
:1066E000407800090300FEF7CDFD0906080A060CF4
:1066F0000E1114170600502008BD202008BD2820C8
:1067000008BDA02008BDFF20913008BD1920400120
:1067100008BD1920800108BD1920C00108BD08B5B9
:1067200000206946009005204A1C09F07BF9684664
:1067300040780007000F0300FEF7A4FD0A06080AD0
:10674000060C0F1215181B06A02008BD302008BD2E
:10675000502008BDFF20413008BD1920400108BD70
:106760001920800108BD1920C00108BD19200002B0
:1067700008BD7D20C00108BD10B5002309E01C0143
:106780002418E468944202D11901081810BD5B1C5A
:106790009BB28B42F3D3002010BD000070B50F4DAB
:1067A0000F4CA87029461431204600F01DF8002136
:1067B00028460B460C30CA0084521218491C0906A0
:1067C0005360090EF7D0012003F0ACFDA878FEF766
:1067D000FBFD0448FEF7FEFD70BD0000601C0020BC
:1067E000FFFF0000B59BFF1F70B50A4C0025A042BB
:1067F00009D1002082008C525218401CC0B2957002
:106800000228F7D370BD03F0A4F90028FAD0048061
:10681000857070BDFFFF0000F8B50E46074606996B
:1068200000240798002902D00B242046F8BD022B33
:1068300001D00D24F9E711785278120289188DB22F
:106840002946814301D08024EFE73846F16800F003
:1068500089F9A842E9D02A463846F16800F014FACE
:106860000400E2D171892A46384600F0B1F9DCE72C
:10687000FFB50025C1B02E464198B1000C18218803
:106880001E48814232D0A07800282FD0429A4A99DF
:106890004498FFF771FF070028D0194803A9007832
:1068A0000231C01EC0B202900022009144980192B1
:1068B00042894B1C2088394600F040F8002815D149
:1068C000788969468881A078C00705D0208803A907
:1068D000439AFEF785FD0543A078800706D52088FA
:1068E00003A94B9B439AFEF781FD0543761CF6B244
:1068F000022EC1D3284645B0F0BD0000FFFF0000C6
:10690000EC10FF1F70B50C46080412D50A488078B9
:10691000FEF70CFD050008D02878B02802D12846E3
:1069200003F032FA2846FEF707FD0120C00360405D
:1069300070BD002070BD0000601C0020FFB583B05A
:10694000087A00250C9E1C460F46C0060DD50598FA
:1069500003F0F8F8030006D00A2239460398984756
:10696000050035D101E00E2532E0387802281DD12E
:10697000786829220178407812020002081881B252
:10698000881A91427ED009DC7348081A23D0012866
:1069900021D002284FD0032808D125E0012872D049
:1069A000022871D003286DD004286ED0059803F01A
:1069B000F1F800286AD00568002DD4D00E990D9802
:1069C000019100903346224639460398A847054670
:1069D000284607B0F0BD0D98002872D1F8680178FC
:1069E00031700278416896E00D98002869D1012045
:1069F0003070F8680021007820707889401C80B2DF
:106A0000FEF7FAFC00280DD0317802788918891C2D
:106A10003170817A61704189090AA17002784168F8
:106A2000E01C79E030780422001D30700021601CE9
:106A3000FEF740FCCCE70D98002875D1F86802A954
:106A40000088009004203070009820700098000AA0
:106A500060700098FEF7D0FC070029D0F86800901D
:106A60006846028901AB3D493846FEF7CBFC002859
:106A700010D13B7802213A487A68FEF7C9FC002819
:106A800008D104E026E030E01CE04AE062E0334850
:106A9000694688800098007802280CD1009802226C
:106AA0004168201DFEF724FC3078801C307002E025
:106AB00069460098888068468088A070000AE07067
:106AC00086E731E00D9800282ED1F968039800F090
:106AD00049F804E00D98002826D1F86800880221C2
:106AE00031702070000A607072E7F868FEF796FC5B
:106AF0000D99C0B2814212D8814201D1002206E034
:106B00000E9A8918814202D30D99401AC2B232708E
:106B1000F9680D9809182046FEF7EAFB58E70725A3
:106B200056E70D98002801D00B2551E70721F8689A
:106B3000317001782170417861708178A17041884D
:106B4000090AE1700179217181796171C088000AB7
:106B5000A0713DE700252FE700280000FFFF00009F
:106B60001E7C010010B502F0F4FF002800D08078F0
:106B700010BD00007CB51546040019D0684601948C
:106B80000180FEF751FC03001DD1002D1BD064894C
:106B9000002C0DD00C20FEF74DFC00280AD000235D
:106BA00003608480094A85605168002904D006E0AA
:106BB000022308E0132306E0506004E011460A684F
:106BC000002AFBD1086018467CBD0000601C002034
:106BD000F8B50C4C0746207815460E46FF280FD016
:106BE0000A20FEF72DFC01000AD0B1200870002019
:106BF000487008714F80CE800D812078FEF726FC0A
:106C0000F8BD0000601C002070B50C460546064922
:106C1000FFF7A8FF800704D521462846FEF71CFC95
:106C200070BD012070BD0000741C00201CB56B46B7
:106C30001A71120A5A7100220092022301AA00F06E
:106C400001F81CBDFFB583B008461F4601A90C9E84
:106C5000FEF7D2FB050014D06846808802F09AFF48
:106C600000280AD04468002C09D000963B462946EB
:106C7000059A0398A04707B0F0BD0024F3E70E2063
:106C8000F9E70120F7E7000070B514460E46054607
:106C900002F05FFF002806D13146054802F059FF97
:106CA000002803D005808470002070BD112070BDC5
:106CB000FFFF0000014610B50020C90704D0034AB9
:106CC00007210348FFF756FF10BD00009C17002066
:106CD000641B002070B50D46164600241D490300B4
:106CE000FEF7D0FA08051234341934222934152D50
:106CF00023D8162200211848FEF7DCFA2A4631462E
:106D00001548FEF7F5FA22E0022D16D11149108838
:106D1000103908801BE0082D0FD10E48082231469B
:106D20000838FDF7E5FD12E0012D06D1CA690949D1
:106D30003078283107E0012D01D0182407E0CA6B14
:106D400004493078483103F092FC00E002242046E8
:106D500070BD0000641B00200C2900200148007851
:106D60007047000094180020002801D008F028FE89
:106D70000021132004F072FAFEE70000F8B5454F39
:106D80000A4639788446092948D00A2946D00B2971
:106D900044D00C2942D00D2940D03F4C607A0028C5
:106DA00001D001281AD12078002801D0012815D15E
:106DB00065893A482B1F834210D2A3891E1F864241
:106DC0000CD2AB420AD8002A01D0012A06D1604673
:106DD000334B344D00282DD0012801D01220F8BDAE
:106DE000207A01281AD025200126002904D007295D
:106DF0000AD0082908D011E0E671E273A0740520DA
:106E00003870FEF72FFB13E06A68928D520605D5A5
:106E10001A78002A04D024A000F0CAF92120F8BD75
:106E2000A07427481E70012109030078FEF79CFA20
:106E300026722CE072B60026052904D0072907D057
:106E4000082905D005E03E701E20FEF711FB00E08A
:106E50001E7026725820FEF711FB62B6FEF714FB77
:106E6000184E194CA8600FE0FEF70EFBA968884287
:106E700001D3401A01E0711A0818E8607D2269699F
:106E8000D2005143814202D320680128ECD0002077
:106E9000F8BD00001D12FF1F421DFF1FFD3F000037
:106EA0002312FF1F0C1F00205B4C4C5F4442475DC8
:106EB000202530325820253032580A0D00000000BD
:106EC0001C12FF1F40420F005812FF1F0020704786
:106ED00070470000F8B50446002003460A5C8507A9
:106EE000ED0EAA401343401C0428F7DB01F0E4F840
:106EF0000028FBD101F0B6FF21022004090E08434F
:106F0000FF273F0221463940084372B600211A4D3F
:106F1000A960194E0002803E801C3060336062B66A
:106F200001F0CAF80028FBD101F07EFE1120000616
:106F3000201869462A695207FCD572B60422AA6055
:106F400004020204240E2243384002431002C01CF3
:106F5000306062B628694007FCD530780870307818
:106F60004870307888703078C8700098984201D0A6
:106F70000020F8BD0120F8BD8000081170B505465D
:106F8000002409490948FFF72FFC0948FEF722FAB7
:106F9000E80706D00448074A15210830FFF7EAFD44
:106FA0000446204670BD0000501D0020FFFF000079
:106FB00009F4FF1F0C18002010B50B4600240E49E1
:106FC000002806D0022809D005280FD00224204628
:106FD00010BD488810700246084903E0C888107048
:106FE000074902461846FEF783F9F0E788891070D2
:106FF00002460449F6E70000341D0020F02C002072
:10700000F0300020F0360020002803D0024908614B
:107010000020704711207047341D0020FEB5174630
:107020000246012000244002814201D91820FEBD01
:107030002148FF2515261300FEF724F90604091040
:107040001524293A41800A4639461C4803E08180CC
:107050000A4639461A48FEF74BF92AE0C1800A462B
:1070600039461848F7E701810A4639461648FEF7BF
:107070003FF9114B0022243318461349103800966B
:10708000019512E041810A4639461048E3E78181C3
:107090000A4639460E48FEF72BF9074B00222433E7
:1070A00018460B49083800960195FFF7E1FB00E010
:1070B00002242046FEBD0000341D0020F02C0020DC
:1070C000F02E0020F0300020F0320020F0340020BC
:1070D000F0360020024901480860704740787D0181
:1070E000081F002030B587B00446412801D0422C4B
:1070F00023D118216846FDF714FCFF2217216846AA
:10710000FDF708FC00256846412C02D0422C05D032
:107110000CE0122504702A460A4904E012250949A8
:1071200004702A461231401CFDF7E2FB6A462946EC
:107130000520FFF773FF002802D0002007B030BD04
:107140000120FBE7D60C002010B57D21C003C9004B
:10715000FEF792F800F002F810BD0000F8B5064600
:107160000027FEF797F904460648051B06E0FEF7E0
:1071700091F9A04201D3071B00E02F18B742F6D3C4
:10718000F8BD0000FFFFFF00CB0776220748002B69
:1071900002D0C260012004E0CB0504D5C260FF200C
:1071A0000130484070470020704700000020004038
:1071B0000FB410B503A9044B044A029800F0D2F8AA
:1071C00010BC08BC04B018475D97FF1F2C1F00209F
:1071D0000FB410B504A9074B02AA039800F0C2F837
:1071E000044602A9002000F0F7FA204610BC08BCB3
:1071F00004B01847D977FF1F2021020C01D01021BD
:107200001046020A01D010460839020901D0104682
:10721000091F820801D01046891E420801D0881E2D
:107220007047081A70470000002805DBC106C90E28
:1072300001208840014908607047000000E100E03B
:107240008307FF22DB0E9A408907090E9940002828
:1072500008DB830809489B001818036893430B4315
:10726000036070470007000F0838830804489B003C
:107270001818C36993430B43C361704700E400E0EF
:1072800000ED00E08307FF22DB0E9A408907090E1C
:107290009940002808DB830809489B0018180368F8
:1072A00093430B43036070470007000F08388308BF
:1072B00004489B001818C36993430B43C36170478C
:1072C00000E400E000ED00E08307FF22DB0E9A40BF
:1072D0008907090E9940002808DB830809489B00AC
:1072E0001818036893430B43036070470007000FAF
:1072F0000838830804489B001818C36993430B435C
:10730000C361704700E400E000ED00E0BFF34F8F81
:1073100004490348C860BFF34F8F00BFFDE700007A
:107320000400FA0500ED00E0BFF34F8F0449034865
:10733000C860BFF34F8F00BFFDE700000400FA05EF
:1073400000ED00E002E008C8121F08C1002AFAD1CF
:1073500070477047002001E001C1121F002AFBD1D5
:1073600070470000FFB591B00F460546002606E0C5
:1073700025280AD0149A139990476D1C761C2878FA
:107380000028F5D1304615B0F0BD0024009401214D
:10739000F34A029400E004436D1C2B780846203B1E
:1073A00098401042F7D128782A280ED00221287858
:1073B0000246303A092A15D8009A0A235A43303A2D
:1073C00080180C436D1C0090F1E701CF009000285D
:1073D00005DA012040030443009840420090022057
:1073E00004436D1C28782E2815D1042004436878A6
:1073F0006D1C2A280AD101CF6D1C02900BE0029966
:107400000A225143303940186D1C029028780146F9
:1074100030390929F3D928786C2810D006DC4C289B
:107420001AD068280ED06A2817D104E0742813D027
:107430007A2812D110E00120400504430CE001211C
:10744000090501E0032109050C436978814203D154
:107450000120000524186D1C6D1C287803906E28EF
:107460001ED00CDC632831D004DC00288AD05828D8
:1074700011D1B2E064287BD069280CD178E0732860
:107480002DD004DC6F2870D0702804D1A7E07528B7
:107490006CD078286BD0149A13999047761C62E0D0
:1074A0006002400F022807D003280AD00428386859
:1074B0000AD006603F1D56E03868F117066041604B
:1074C000F8E738680680F5E70670F3E7387869462C
:1074D00008740020487404A80390012003E0386871
:1074E00003900020C0433F1D61070FD5002101E03C
:1074F0000199491C029A0191914213DA8142F7DB0A
:10750000019A0399895C0029F2D10BE0002101E086
:107510000199491C01918142FADB019A0399895C26
:107520000029F5D101990098139A401A009021463C
:10753000149B00F03BF901998019461807E0039865
:1075400003990078491C0391149A13999047019864
:10755000401E0190401CF2D12146149B139A0098C2
:1075600000F014F986196D1C09E741E033E034E0BE
:107570000A200021049005916002410F022905D0E4
:1075800001CFC2179446032905D007E0FF1DFF086D
:10759000FF0003CF06E000B2C2179446042902D1CF
:1075A00040B2C1178C4600226146944506DA0A466D
:1075B0000021404291418C462D2102E0210504D555
:1075C0002B216A461176012103E0E10701D0202139
:1075D000F7E7019154E00A200BE0102009E01020A9
:1075E000049000210420044308200591029003E048
:1075F00008200021059104906002410F022905D066
:1076000001CF00229446032906D006E0FF1DFF08A3
:10761000FF0003CF8C4603E080B2042900D1C0B242
:107620000021019121072BD50399702906D0049AD6
:107630001021059B4A401A4305D00EE040216A46BE
:107640001176012108E06146014306D030216A46E7
:1076500011760399517602210191049A0821059B24
:107660004A401A430CD16146014301D1610707D555
:1076700030216A461176012101910299491E029139
:107680000399582904D037A103910FA90F910DE058
:1076900039A1F9E76146059B049AFDF7ABFC039B12
:1076A0008C469B5C0F9A521E0F92137061460143E9
:1076B000F0D10F9807A9081A20300390600704D56D
:1076C000012000048443029801E001200290039904
:1076D000884201DD401A00E0002041180290019824
:1076E00009180098401A0090E00306D42146149B24
:1076F000139A009800F05AF886190020049008E0C8
:1077000006A9085C149A139990470498401C761CAB
:10771000049001998842F3DBE0030CD52146149BC9
:10772000139A009800F042F8861904E0149A302069
:1077300013999047761C0299481E02900029F5DCA7
:1077400008E00F980F990078491C0F91149A13992B
:107750009047761C0399481E03900029F1DCFBE654
:107760000928010030313233343536373839616217
:1077700063646566000000003031323334353637DB
:10778000383941424344454600000000F8B50446FC
:1077900000251E461746880404D405E039462020FB
:1077A000B0476D1C641EF9D52846F8BDFFB50446E8
:1077B000002581B01E46C80301D5302700E02027F0
:1077C000880404D505E038460399B0476D1C641E53
:1077D000F9D5284605B0F0BD0A68531C0B6010703F
:1077E0007047000004490868FF22120290430122FA
:1077F000D2031043086070471CE400E010B5FDF7A9
:107800004FFE0120FDF752FEFDF756FE002010BD91
:10781000F0B500248E464A1E12E0714600230D1B6F
:107820006D1E0AE09E0031188C46875949688F42C8
:1078300002D9815161464F605B1C9D42F2D8641CA5
:107840009442EAD3F0BD000010B500F09BFAFDF7BA
:1078500039FB0022074BFDF719FA0022064BFDF712
:107860007DFA0022054BFDF779FAFDF74DFBC0B21A
:1078700010BD000000689040000059400000244006
:10788000F8B5069800261D461446002801D00B20A6
:10789000F8BD4868012702784078000210181B4A9A
:1078A00080B2904202D1FFF7CFFF14E0174A521C7A
:1078B00090421DD102F056FE1549FDF7ADF8FDF7D7
:1078C00041FB0022134BFDF7D3F90022124BFDF7C9
:1078D00045FAFDF719FB1149087005202870087852
:1078E000207067704A20A070E770B32020710BE011
:1078F0000B4A904207D1022018700246C968204600
:10790000FDF7F6FC00E00A263046F8BD1A2A000012
:1079100000007A4400C8A9400000244080190020DB
:1079200008290000F0B5044685B000267B48019682
:10793000407901281BD10B2003F04CFC002816D104
:1079400001A8216802F098FD0198FDF7FBFA744A3E
:10795000744BFDF79BF905460F462068FDF7F2FAD8
:107960002A463B46FDF784F9FDF714FB206002F040
:10797000FFFD002842D06C48457A002DFAD0014620
:1079800020310F7C032F7CD268492068FDF744F832
:10799000674D022F33D0012F7ED8FDF7D3FA06466C
:1079A00028460F46C088FDF78DFA624A624BFDF704
:1079B0006DF932463B46FDF7D1F902460B460020F1
:1079C0000146FDF7B1F8FDF7E5FA0546584800898C
:1079D000FDF778FA594A5A4BFDF758F932463B46BB
:1079E000FDF7BCF906460F462846FDF7ABFA3246CE
:1079F0003B46FDF799F8FDF7CDFA06464CE0FDF75A
:107A0000A1FA064602910F462888FDF75BFA4D4A17
:107A10004D4BFDF73BF932463B46FDF79FF90246D9
:107A20000B4600200146FDF77FF8FDF7B3FA009002
:107A30006888029FFDF746FA444A454BFDF726F950
:107A400032463B46FDF78AF9074603910098FDF759
:107A500079FA3A46039BFDF767F8FDF79BFA009029
:107A6000A888029FFDF72EFA2D4A3A4B5242FDF7A5
:107A70000DF932463B46FDF771F905460E46009872
:107A800000E004E0FDF75EFA2A463346B1E73249EA
:107A9000032F16D0042F23D03046FDF753FA2F4A78
:107AA0002F4BFDF7F3F805460E462068FDF74AFA1E
:107AB0002A463346FDF738F8FDF76CFA206005B02A
:107AC000F0BD007E03280ED908280CD206280AD063
:107AD00016E0FDF7DBF832463B46FDF73FF98AE753
:107AE000807F00280CD02068FCF796FFFDF72AFA6B
:107AF00006460F462846FDF7E5F90E4A0E4BE8E725
:107B00002068FCF789FFFDF71DFA06460F46284658
:107B1000FDF7D8F9024A0F4B5242DAE7C8180020A5
:107B20000AD7A3703D0AC73F282000200000484420
:107B3000A0200020D7A3703D0AD71440333333333D
:107B40003333154052B81E85EB5102405C8FC2F5AD
:107B5000285C0540C2F506400000C8427B14AE47D1
:107B6000E17AB43F7CB54C68154622786478069E6D
:107B700024021219104C92B2E24209D10122019260
:107B8000DBB200962A46FEF747FE040003D000E071
:107B90000A2420467CBD69782878090240180749E4
:107BA00080B249680029F4D0002802D0012088471B
:107BB000EFE70220FBE70000FED6FFFF8019002060
:107BC00003B56946044809780170694649884180CF
:107BD0006946898881800CBDB818002038B50168D5
:107BE0001C4C012903D01CA006F038F838BD1949F7
:107BF0001039CA788978D206C906C90F0091D30F07
:107C0000027B8168042003F057F9124DFF21C9055A
:107C1000083DC84209D3A9882878FDF73FFBA98809
:107C200028780522FDF734FB38BD0F49FCF7F4FE38
:107C30000021C943FCF76BFF0C49096AFCF793FE6E
:107C400001466060206800F069F869882878FDF7CF
:107C50008BFB38BDC01800200A5F5F41444320659C
:107C600072726F720A00000000004041282000205C
:107C700010B502F093FB134C002815D01348124A9C
:107C800001210078FDF704FB2078411CC9B2217066
:107C90000A2803D80EA005F0E1FF0EE011A005F0C0
:107CA000DDFF0120FFF760F81A481B49006802F069
:107CB00023FF03F069F8002801D0112010BD002037
:107CC000207010BDEC180020E2030000DC1800203A
:107CD000200A206164206275737920622564202067
:107CE0000A000000200A205F5F5F5F5F5F5F5F5FE9
:107CF0005F616463206D6F64756C65207265736588
:107D0000745F5F5F5F5F5F5F5F5F5F5F5F5F2020EC
:107D10000A000000B0180020DD7BFF1F10B50846E8
:107D20001149FCF779FEFDF7DBF880B20F4C1049E2
:107D30006080884201D9642003E00E49884202D263
:107D40000020207010BDFDF7BDF800220A4BFCF7A3
:107D50008FFF0022094BFCF799FF0022084BFCF72C
:107D6000FDFFFDF7D1F8ECE700007A44B4180020DD
:107D7000FE100000E40C000000C8A94000005940BB
:107D8000006890400148007870470000B418002057
:107D90000148408870470000B418002010B504481E
:107DA0000021016141610D2003F0F8F9002010BDB0
:107DB000B018002010B5FFF75BFF10BD7CB504467E
:107DC000042800D90424354E06237B221946672057
:107DD000009604F0CFFD662212230721104600967C
:107DE00004F0C8FD13237B2219466720009604F097
:107DF000C1FD7C22122307211046009604F0BAFD33
:107E00007E220F230A211046009604F0B3FD7F2244
:107E10000F230A211046009604F0ACFD0025002C2B
:107E20000BD012236C22082168200096019504F0E3
:107E300061FE012C09D9009608E0009512236C22FE
:107E400008216820019504F055FE00951223712247
:107E500008216D20019504F04DFE022C0AD9122351
:107E60007622082172200096019504F043FE042C2E
:107E700011D007E000951223762208217220019587
:107E800004F038FE009512237B220821772001950B
:107E900004F030FE7CBD0096F5E700009E4E000029
:107EA00070B59CB0584D0024687018A90C7320213F
:107EB00013A8FCF736FD13AA1BA9032007F0B2FD97
:107EC00018A913AA097B5148FEF7ACFA10A90C7245
:107ED00020210AA8FCF725FD0AAA12A9042007F010
:107EE000A1FD10A961200AAA097AC000FEF79AFA3A
:107EF000FEF715FC064601460620FDF741FA31461D
:107F00000720FDF73DFA31460820FDF739FA3146E2
:107F10000920FDF735FA69463C488C8307AA0221FF
:107F2000401EFEF77FFA694638480C7606AA012102
:107F3000801CFEF777FA694634480C7505AA0121C2
:107F4000801EFEF76FFAFEF7C2FB694688832F4852
:107F50000A1F02210A30FEF765FA2C4807AA0221FF
:107F60000B30FEF75FFA694628480C8306AA022107
:107F70000C30FEF757FA4B20C00069468882C520B6
:107F800005AA02218000FEF74DFA01206946087417
:107F90000146312004AA0001FEF744FA06211F2001
:107FA000FDF7EEF969460C77182101A8FCF7B9FC3A
:107FB00001AA07A9022007F035FD694601AA097F39
:107FC0000020FEF787FE641E2046FEF773FEFDF7D5
:107FD00087FBFDF7E5FF2046FEF7D0FF281DFFF7E2
:107FE00013F805F0A7FD687808A908700120800340
:107FF000694648840999089804F02AFC01216878A8
:10800000FDF7B2F91CB070BD941800200703000002
:1080100010B50C4608040AD50E484078FDF786F9DD
:10802000002801D0FDF788F90120C0030DE0E0072A
:1080300005D008480830FEF7FFFA012005E060048B
:1080400005D504F08DFB01208003604010BD0020A9
:1080500010BD000094180020064AD088642807D27A
:10806000117A491CC9B21172814201D3906900474B
:10807000704700008020002010B50020054CFF2133
:108080002218401C51704028FADB06F059FB207082
:1080900010BD00000051002010B50020054CFF214C
:1080A0002218401C51700628FADB06F067FB20708E
:1080B00010BD0000251F0020084801694907FCD5B4
:1080C000012181600549052280390A700269520741
:1080D000FCD50878C007C00F704700008000081169
:1080E000F0B58646080CFF268446002388B2374642
:1080F0001C46194601228A4005461540CD402C19E0
:10810000A4B2FF2F02D1012C00D18FB265462A40C4
:10811000CA40D21893B2FF2E02D1012B00D18EB2E9
:10812000491C1029E6DB012C02D0102C08D009E0F4
:10813000012B07D13001C019714608700220F0BD33
:10814000102B01D00320F0BD0120F0BDF3B5414A52
:108150000E46117B83B08B000398114620390068CE
:108160005B185860107B0024401CC0B2384D10735F
:1081700023460A2800D31373107C002808D1507CB2
:10818000401CC0B25074052802D3012010745374EF
:1081900031480078002819D08878401CC0B2887017
:1081A0000A2810D98B702B48A10020380F182846B8
:1081B0007968FCF715FF00D27D68641C0A2CF2DB9D
:1081C0000398056042E0337005B0F0BDD07B002815
:1081D0000AD0107C002839D0002000900190107B3C
:1081E000002805D0401E04E00120D0733070EBE77A
:1081F0000920C0B2002702900298C01B00D50930A8
:108200000006810D134820380C1828466168FCF7D9
:10821000E7FE00D2656861680098FCF7D7FE01D2DE
:108220006068009061680198FCF79DFB7F1CFFB2BD
:108230000190052FE0D30099FCF7E6FB2946FCF7F7
:10824000E3FB0649FCF725FC039908600120CDE714
:108250000000A040082000201C1900200000404021
:1082600010B528210148FCF75CFB10BD3828002020
:10827000032806D3012189078B680122824093439A
:108280008B607047032806D3012189078B68012280
:10829000824013438B6070470148006870470000BC
:1082A0001010FF1F012292071368012181408B43A8
:1082B0001360106808431060704700007CB5274CBD
:1082C0006A462075107002205080012090800021A5
:1082D000132002F037FF0121132002F05FFF00217D
:1082E000052002F02FFF0121052002F057FF342165
:1082F0001B48FCF716FB1A48042620304673FFF78C
:108300004DFD01990098FFF75BFC207D6A461070D7
:10831000F00150804510958007F094FE0199009877
:1083200007F0BAFD7D22D2002946207DFCF7B0FF80
:108330006A4656800199009804F07EFA00F062FDCA
:1083400000221146272003F0E7F904F021F8E07439
:1083500006F0B6F9FDF712FC7CBD0000C81800203D
:10836000E81F0020F0B5FD4F87B00C46080409D582
:10837000387DFCF7DBFF002801D0FCF7DDFF012092
:10838000C00384E2A0040025002816DAFEF7E6FC0C
:108390000126760305280AD0684605706A46012141
:1083A000EF48FEF73FF82046704007B0F0BD0522C9
:1083B0003146387DFCF76CFFF5E7A00603D504F0E5
:1083C00009FE202063E2E0070126002802D0FFF723
:1083D000F1FCE8E7A00776D5FFF7D4FC0390FFF7A0
:1083E000D7FC0290787A002812D0032810D0029887
:1083F000FCF768FDDB4ADC4BFCF748FCFCF7CAFDE8
:1084000002467620002100900223084600F01DFC61
:10841000D2480178D548049007460D3F002977D00F
:1084200014210398FCF728FF694608750298FCF7A9
:1084300049FDCC4ACC4BFCF729FCFCF7ABFD009086
:1084400069460D7101A96846FFF780FE6946087903
:10845000002803D005A8049A06F090FDBF4E0098AE
:10846000F061C3497A7B8A70C2490978002903D038
:1084700069460979002912D0BF4988420EDCB87BD1
:10848000401CC0B2B873012809D93078002806D042
:10849000BAA005F0E3FBFDF70FFB00E0BD737079B8
:1084A000022811D0012814D0B0482D38057007F0EB
:1084B0003FFA787BFFF782FCA94A0121DD32307D4B
:1084C000FCF7E6FEDFE0F3E00420A949787388704A
:1084D000F0E7F079002813D1A44D2D3D287800282D
:1084E00004D1787B002801D0401E28702878411CD8
:1084F0002970FFF763FC2878042800D90020287031
:10850000974A0121DD32307DFCF7C2FED4E7FFE758
:1085100092484079022807D0012845D093482D3849
:10852000017800297ED094E08C48407800281ED144
:10853000062002F04FFE002819D006F077F8002040
:1085400004F074FB854D01216E70152002F086FE4B
:108550000420FFF733FC8648797B81700121287D58
:10856000FCF79CFE7E4A287DDD3201210DE00620CD
:1085700002F030FE002803D0784EB078002807D0F3
:10858000774A7648DD320121007DFCF79BFF6AE0E7
:1085900076482D380178002900D1057004F0E4FCFC
:1085A00075700121307D5CE06C48407800280DD169
:1085B00006F03CF8002004F039FB684801214670C1
:1085C000152002F04BFE69482D38057014210398E0
:1085D000FCF752FE694608750298FCF773FC614A85
:1085E000614BFCF753FBFCF7D5FC009069460D711D
:1085F00001A96846FFF7AAFD69460879002804D05A
:1086000005A8049A06F0BAFCB874B87C632801D9AE
:108610006320B874554D2D3D2878002806D1787B0D
:10862000002800E014E001D0401E28702878411C8A
:108630002970FFF7C3FB2878042800D90020287090
:10864000474A4648DD320121007DFCF721FE0AE061
:10865000057004F089FC414B5D7007F069F9012158
:10866000187DFCF71BFE3D48407901280BD10C20FA
:1086700002F0B0FD002806D00B2002F0ABFD002870
:1086800001D106F0F1FC0B2002F0A4FD00280DD072
:10869000324B5879002809D007F04AF91878002899
:1086A00004D164220121187DFCF7F2FD0220EEE0E6
:1086B0007879002802D0012812D020E00B2002F0A7
:1086C00089FD00281BD17E710121387DFCF7E6FD74
:1086D00064220121387DFCF7DBFD07F0DBF80EE0BA
:1086E000387800280BD00C2002F074FD002806D04A
:1086F0000B2002F06FFD002801D106F0B5FC0B2025
:1087000002F068FD00280CD07879002809D007F025
:108710000FF93878002804D164220121387DFCF754
:10872000B7FD600703D5FDF7D5FA0420AFE0E006FA
:1087300032D5387800280FD0FEF710FB052829D055
:10874000B879FF227040B871F5321021387DFCF7FE
:108750009FFDB87907F0CAFD102098E0C8180020E6
:1087600005030000FCA9F1D24D62503F1520002006
:10877000282000201C1900203333534020200A20D9
:108780005F5F6576656E74206F66665F5F200A20A6
:1087900020000000BE71DCE7E00513D507F066FCA1
:1087A000F879FF250135002801D03B4A03E03878ED
:1087B000002804D0394A2946387DFCF769FD204657
:1087C0006840F2E5A00555D507F036FC0190787AAF
:1087D000002809D0032807D03D200090012306215E
:1087E0005020019A00F031FA387800281DD02C4929
:1087F0000198884202DDFDF75FF916E00146294A3B
:108800002948914214DDF97900292FD1FE712749B9
:10881000016007202649FCF775FF27E03D72002024
:1088200001E03E72012008F01DF8012040022EE018
:10883000204A914217DAF9790029F6D07F21FD719B
:10884000C9050160387A002803D03D72002008F085
:1088500009F81748FD718078FFF7B0FA072014492E
:10886000FCF750FFE1E7F8790028DED0387A0028DD
:10887000D7D0D3E7E00404D5FDF7F2F801200003D8
:1088800005E0600405D5FCF7A9FF012080036040E6
:108890008BE5002089E50000F3030000DD07000000
:1088A00000008442000070422C190020CDCC4C3FC7
:1088B000282000200000504210B504460D48407AA0
:1088C000002813D0FCF7E3FA0B49FCF7A5F80B4995
:1088D000FCF7DFF80A49FCF746F80A49FCF79CF870
:1088E0002146FCF799F8FCF7FBFA80B206F0FAFB98
:1088F00010BD0000282000200000C04200401C469F
:108900000AD7233D0000484410B5134C0A20E17EED
:1089100041437D20C000FCF7AFFC1049487010486F
:108920008078C00703D0607E02280AD00BE0A07FC9
:108930000028094802D008F045F810BD07F084FD72
:1089400010BDFFF789FBA07F002802D007F0B0FB25
:1089500010BD07F0A5FB10BD282000201C19002029
:108960008020002010B50E48422101710D4941615F
:108970000D49816100210D4A4180D37E0C4C5B0082
:108980005B1E0380937EC3800172094BC360012389
:10899000E41E237053770177FFF7B6FF10BD000088
:1089A000802000200989FF1FB589FF1F2820002093
:1089B0001F19002010B500F0C7F810BD70B51C4C91
:1089C00000252146658020311A4804F039FE4320F5
:1089D0002071194860611948A0612572154D7D21EB
:1089E000E87EC90048430A21FCF746FC401E20806F
:1089F000A87EE08012481249E0600120091F08703B
:108A00006877207720460A212A30FBF78AFF204624
:108A10002030014602880A310A8042884A808288D2
:108A20008A80C288CA800089088100F00BF870BD76
:108A30008020002028200020458AFF1F498BFF1F2F
:108A40002019002070B539490120394E4870358809
:108A50002846FCF737FA02460B4636483649FCF7FB
:108A60007DF9FCF797FA0446690870887F25ED05C3
:108A7000884211D8FCF70BFA2146FBF7CDFFFCF733
:108A800061FA2E4A2E4BFCF74FF8FCF783FA0446A6
:108A9000A8420BDD2C4609E0401AFCF7EDF921460F
:108AA000FBF7BAFF2946FBF7B3FF04462548204DE4
:108AB000807F2A35002821D02888FCF7E8F9214654
:108AC000FBF7AAFFFCF70CFA80B206F007FC6888F7
:108AD000FCF7DDF92146FBF79FFFFCF701FA80B2B6
:108AE00006F036FBA888FCF7D2F92146FBF794FF85
:108AF000FCF7F6F980B206F0DFFA70BDE888FCF703
:108B0000C6F92146FBF788FFFCF7EAF980B206F0C8
:108B1000E9FA2889FCF7BBF92146FBF77DFFFCF752
:108B2000DFF980B206F0F6FB70BD00001C190020D2
:108B300080200020666666666666FE3FA099999969
:108B40009999A93F2820002010B5124CA07F002839
:108B500009D0002006F0C2FB002006F0F9FA002040
:108B600006F0AAFA05E0002006F0BCFA002006F0A4
:108B7000D1FB06F0F3FE084900200870074908728F
:108B80004880607720710348E17F2030017404F051
:108B900043FB10BD282000201C190020802000204D
:108BA00070B54868002501784078000208181C4913
:108BB00080B2441A884223D009DC1A49441811D0E3
:108BC000012C12D0022C15D0032C08D115E0012C59
:108BD00019D0022C1AD0032C1BD0292C1CD00A250A
:108BE000284670BD1946002001E01946062006F00F
:108BF00019FFF5E719460720F9E719460820F6E7B7
:108C000019460920F3E719460A20F0E719460B2018
:108C1000EDE719460C20EAE719460D20E7E70000CA
:108C2000272A0000DDD5FFFF064801694907FCD56A
:108C300000218160034A0421803A117001694907CB
:108C4000FCD570478000081170477047FEB5044698
:108C5000007800280FD003280CD155A004F0FEFFA7
:108C60001F2003F0E3FFA078FFF7A8F801211520EB
:108C700002F0F4FAFEBD04F02BFDA078FFF79EF899
:108C8000514D1723812219460B20009503F072FEE7
:108C90001823812219460F20009503F06BFE19233B
:108CA000812219461320009503F064FE47A0494E27
:108CB0000090002332461C210A2003F001FE46A04A
:108CC0000090002332462C210A2003F0F9FD43488E
:108CD0000025102302901A462C21009601951A2097
:108CE00003F0BDFE3D483E49203010230091029024
:108CF0001A46019503210A2003F0B1FE39A0009025
:108D0000002332462C21272003F0DAFD36A0009004
:108D1000002332463C210A2003F0D2FD34A000900B
:108D2000002332464C210A2003F0CAFD32A00090F5
:108D3000002332465C210A2003F0C2FD30A00090DF
:108D4000002332465C212B2003F0BAFD1F20C00215
:108D5000012500908323292270210195092003F029
:108D6000C9FE3F20400100908323532270210195CA
:108D7000332003F0BFFE1F20009083237D2270214B
:108D800001955D2003F0B6FE607A00280CD02046E5
:108D900007F0D2FB0121204607F066FD204607F0D0
:108DA00069FE204607F080FE204607F0A1FA5DE745
:108DB0000A2073797374656D206F6666204368615D
:108DC0007267696E670A0000E0FF00004C65766517
:108DD0006C0000009E4E0000546500001913002036
:108DE00089BF0000702E0000436F6C6F720000009E
:108DF0005363656E650000005374726F00000000DD
:108E00006265000010B515480221C1700021FF22E3
:108E100001716932C2807F22D2054262017005224F
:108E200042726424047203464170012220331A7492
:108E30002B238372C1720173417304238370847383
:108E4000074B0362C273FF230374428201764276AA
:108E50008376C17601774177817710BD2820002085
:108E6000CDCCCC3D064801694907FCD50021816085
:108E7000034A0621803A117001694907FCD5704701
:108E80008000081170B5104C01252570002060711C
:108E900004F07AF865700121122002F053F90121E3
:108EA000122002F0DBF97D22D2002902207DFCF79E
:108EB000EFF964220821207DFCF7EAF903A20221E0
:108EC0001420FEF705F870BDC8180020523A0000C3
:108ED0007CB5294E69463046FDF768F9684600784A
:108EE0000125002806D1684605706A4601213046F2
:108EF000FDF798FA214C01A925703046FDF756F987
:108F000068460079002806D16846057101AA01214A
:108F10003046FDF787FA25700026667104F034F8B4
:108F200065700121122002F00DF90121122002F0DA
:108F300095F97D22FF21D2000131207DFCF7A8F9AF
:108F400064220821207DFCF7A3F9FEF733FFE07CC3
:108F5000002804D066720A4807F088F97CBD07F043
:108F6000E3FDE27A02216420FDF7B0FF227B0421B9
:108F70006420FDF7ABFF7CBD05030000C81800208E
:108F80002820002010B5064A012351729072D37038
:108F9000002111710F201146FCF7B4FB10BD000039
:108FA0002820002010B5074A5172D080642010722A
:108FB0000220D0700021117137201146FCF7A2FB6E
:108FC00010BD000028200020F0B5FD4DFD4FE868E1
:108FD0008DB00078787068880026411C69802988E7
:108FE000884200D36E80F848F649407ACC68002861
:108FF0000CD0FBF74CFFF549FBF70EFDF449FBF7EE
:1090000048FDF449FBF7AFFC206100E02661688869
:10901000F14D152848D8C6B22069FBF793FF0746E3
:10902000029130460191FBF74DFF0646EB4AEC4BAF
:109030000091FBF72BFEEB4AEB4BFBF775FD3A4635
:10904000019BFBF723FE00222B46FBF71FFEFBF7DD
:109050005BFFA0803D463046E44AE54B029F009905
:10906000FBF714FEDD4AE34BFBF75EFD2A463B4669
:10907000FBF70CFE0022D84BFBF708FEFBF744FF82
:10908000E080204607F0CEFCCE48C0680069FBF7C0
:1090900059FF0D4604463046D74AD84B0099FBF796
:1090A000F5FDD74AD74B86E11A282ED82069FBF761
:1090B00049FF0F460646D44AD44BFBF7E7FD002292
:1090C0002B46FBF7E3FDFBF71FFFA0803046394638
:1090D000CF4AD04BFBF7DAFD00222B46FBF7D6FD3B
:1090E000FBF712FFE08030463946CB4ACB4BFBF70B
:1090F000CDFD00222B46FBF7C9FDFBF705FF2081C4
:10910000204607F077F90DB0F0BD25287ED81A3833
:10911000C0B200902069FBF715FF0A900B910098F0
:10912000FBF7D0FEAD4ABE4B05910490FBF7AEFDB8
:10913000B34A009101905242BA4B02910390FBF75F
:10914000F3FC0B9B0A9AFBF7A1FD0022A24BFBF755
:109150009DFDFBF7D9FEA080B34AB44B029903985A
:10916000FBF704FF19D2FA6802921069FBF7EAFED6
:109170000D460446AC4AAD4B00990198FBF77EFDC5
:1091800022462B46FBF782FD0022934BFBF77EFD28
:10919000FBF7BAFE029AD08001E0F868C680A24AC6
:1091A000A34B00990198FBF7E1FE17D2FE683069E6
:1091B000FBF7C8FE04460D469B4A9D4B009901985B
:1091C000FBF75CFD22462B46FBF760FD0022824B3D
:1091D000FBF75CFDFBF798FE308101E0F868068143
:1091E000F86807F01FFCF8680069FBF7ABFE04465F
:1091F0000D46904A904B05990498FBF747FD22468F
:109200002B46FBF743FD0022734B00E007E0FBF722
:109210003DFDFBF779FE80B206F07CF873E7352858
:1092200060D82538C0B200902069FBF78BFE06900D
:1092300007910098FBF746FE00910190674A784B32
:1092400002910390FBF722FD7C4A7D4BFBF76CFCFF
:10925000079B069AFBF71AFD00225F4BFBF716FDF2
:10926000FBF752FEA080774A774B02990398FBF7F1
:109270000DFD654A754B04910390FBF777FE19D2FB
:10928000F96802910869FBF75DFE0D4604465E4AE7
:109290006E4B04990398FBF7F1FC22462B46FBF733
:1092A000F5FC00224C4BFBF7F1FCFBF72DFE02997D
:1092B000C88001E0F868C680F96808460E8107F0AA
:1092C000B1FBF8680069FBF73DFE04460D46604AB5
:1092D000604B00990198FBF7D9FC5F4A5F4BFBF7A5
:1092E00023FC8CE73A281BD8372897D82069FBF74E
:1092F00029FE3C4A3C4BFBF7C9FC00222B46FBF7FE
:10930000C5FCFBF701FEA080E6802681204607F021
:1093100089FBF8680069FBF715FE4F4A4F4BD0E018
:1093200045284BD83A38C0B200902069FBF70AFEB6
:109330000746059104910098FBF7C4FD2E4A484B5F
:1093400003910290FBF7A2FC464A474B0191009023
:10935000FBF7EAFB3A46049BFBF798FC00221E4B06
:10936000FBF794FCFBF7D0FDA0803D461B4A1C4B4D
:10937000059F01990098FBF7D7FB2A463B46FBF770
:1093800085FC0022144BFBF781FCFBF7BDFDE08060
:109390002681204607F046FB0A48C0680069FBF7B3
:1093A000D1FD0D4604462A4A2A4B03990298FBF741
:1093B0006DFC294A294BFBF761FC20E756E00000D1
:1093C000802000201C190020282000200000B64228
:1093D00000401C46EC51B83D000089407B14AE476C
:1093E000E17A843FAE47E17A14AEE33F92CB7F4807
:1093F000BF7D6D3FE17AA43FFA7E6ABC7493583F0B
:109400000AD7A3703D0AA73F9A9999999999C93F9C
:10941000333333333333B33F54E3A59BC420B03FDE
:10942000E17A743FC2F5D83F295C8FC2F528BC3F72
:10943000F528AC3FFCA9F1D24D62703F3D0AD7A39D
:10944000703DE23F462575029A086B3F9999A93F06
:10945000F168E388B5F8343F1A2FDD240681A53F73
:109460007493683F8FC2F5285C8FE23F502800D983
:1094700049E6462812D82069FBF764FD134A144BCD
:10948000FBF704FC00222B46FBF700FCFBF73CFD3E
:10949000A080E6802681204606F0ACFFF8680069CF
:1094A000FBF750FD04460E460098FBF70BFD094AFA
:1094B000094BFBF7EBFB094A094BFBF7DFFB2246A5
:1094C0003346FBF7E3FB00222B469EE6A4703D0AE1
:1094D000D7A3E03FC7BAB88D06F0463F1A2FDD2468
:1094E0000681A53F70B5164DFF22EC686932608990
:1094F0000021401C80B26081904200D361817F20B6
:10950000C005E0600F48407A00280CD0FBF7BFFC94
:109510000D49FBF781FA0D49FBF7BBFA0C49FBF744
:1095200022FA206100E02161204602F0B3FCE868E5
:1095300006F060FF0748C0680078687070BD0000E2
:109540001C190020282000200000B64200401C46C4
:10955000EC51B83D802000200E4910B5884201D959
:109560000A2010BD0C49884201D20C480EE00C497B
:10957000884201D20B4809E00B49884201D20B48CE
:1095800004E00449C91C884202D2094800F062F88C
:10959000002010BDFC3F0000FF0F00000050001134
:1095A000FF1F000000600011FF2F0000007000117D
:1095B000008000110449884202D90020C04370474E
:1095C0000249401800687047FC3F0000005000113D
:1095D000F0B504461E480E46844204D8A1198142C3
:1095E00001D8A00701D00A20F0BD0023B7080CE085
:1095F0009D002819FFF7DEFF5055010AAD1869706C
:10960000010C000EA970E8705B1C9F42F0D89B0013
:10961000F01A032804D002280CD0012812D015E03B
:109620001819FFF7C7FFD054040A99184C70000CA2
:1096300088700BE01819FFF7BDFFD054000A991885
:10964000487003E01819FFF7B5FFD0540020F0BDB3
:10965000FC3F000003460002012100B5000A490357
:1096600088421BD3FEF728FD0028FBD1FFF7FAFB49
:109670000B490020886019021804090E0843FF21D5
:1096800009020B4018430649000280392030086067
:10969000FEF712FD0028FBD1FFF7C6FA00BD00005F
:1096A000800008110B4A08B5904201D8820701D00A
:1096B0000A2008BD00910521090340180002000A94
:1096C00004226946FDF706FC002801D0002008BDF1
:1096D000012008BDFC3F0000F7B505461E4882B0DA
:1096E0001646854205D803996918814201D8A80712
:1096F00002D00A2005B0F0BD039800248008009035
:109700000CE0A700B819401CFBF723F90102F05D3B
:1097100001437819FFF7C6FF0098641CA042F0D8F7
:109720000398A400001B032804D0022808D00128B5
:109730000CD00FE0A019FBF70CF90102090A06E0B2
:10974000A019417800780902014300E0315D6019F9
:10975000FFF7A8FF0020CDE7FC3F000038B5044626
:109760006846047069460320ABBE204638BD000041
:1097700010B5002823D0124B0022001F196803E007
:10978000814203D80A4649680029F9D1002A0AD043
:109790001368841A9C4204D100681818106010469F
:1097A00002E0506000E01860002907D002680B1A40
:1097B000934203D10B68D21802604968416010BD22
:1097C000301F002070B50A4D064600240E2060436D
:1097D000401906223146FBF791FD002801D02046B2
:1097E00070BD641CE4B20A2CF0D30A2070BD0000E6
:1097F000722900207FB50D460A280CD2002D0AD010
:10980000062148432030C0B26A460E2104F0DAF83F
:10981000040003D007E0022004B070BD06226946B0
:109820002846FBF765FD2046F6E700218A00835AAB
:10983000491CDB43835212189378C9B2DB439370FF
:109840000429F3D370470000F8B5074600200090C4
:10985000784CB978054607266079A2790B00FBF7AA
:1098600011FD0805DD1A36365E98C1DD78780028CE
:109870005AD170480622F91C3C30FBF739FD012013
:10988000A0716C4B0146423362786079FBF772FD40
:10989000002849D1C5E07978002945D1F978002917
:1098A00006D0654BA2780021FBF764FD78700AE0D2
:1098B000022A0BD00121FBF7F7FC002803D101217C
:1098C0006079FBF751FD787800282DD1F8BD7B78C1
:1098D000002B29D1032909D0A289002A0CD0217894
:1098E00000290AD00121FBF7D3FC06E0052A01D0AC
:1098F000022012E0062010E02570A079062802D090
:10990000042802D008E0052007E00120207001466D
:109910006079FBF729FD84E00320A07181E078786D
:10992000002803D0312832D0A6717AE041480622BF
:10993000391D3630FBF7DCFC7889E081B88920825C
:10994000F88960820520A071A28A002A03D0022132
:109950006079FBF79DFCB889E083F8892084388A18
:109960006084E07801280AD11F20FBF7D3FC7D2119
:10997000C9004843024604216079FBF789FC7A89D3
:10998000F8780423391DFCF717FB257049E0257092
:10999000C2E72848062200213630FBF78BFCE5831E
:1099A0002584658404216079FBF778FC08216079BF
:1099B000FBF774FCB879082808D00320A071207840
:1099C000002805D06079FBF7C9FC07E00420F5E723
:1099D0000120207001466079FBF7C6FC0020C043DF
:1099E000E0811EE00821FBF759FC7878002800D0C0
:1099F0006CE7F888E08338892084788960840421C2
:109A00006079FBF751FC0028F2D1A06A0028EFD062
:109A10000368628C218CE08B9847F8BD0098002881
:109A2000FBD0606A0028F8D001680029F5D0A07941
:109A30008847F8BDD81B00202229002010B50178E6
:109A4000224C912906D0A22926D0D02901D1FFF796
:109A5000FBFE10BD41780E29FBD181881C4A914242
:109A60000FD1816803200856A1790529F1D17F28FB
:109A7000EFD0616A0029ECD049680029E9D0884715
:109A800010BD144A9142FBD18068837842780178F6
:109A900011A004F0E3F810BD41791329FBD100892E
:109AA000012802D12079022808D00520FBF732FCDA
:109AB000024608216079FBF7EBFB10BD08216079B5
:109AC000FBF7ECFBFCF7D4FD10BD0000D81B002019
:109AD00005140000222000005B48434920444C4507
:109AE0005D25642025642025640A00007CB5144CA3
:109AF0000546E08BE18A88420AD3218B884207D849
:109B0000208C618B884203D1608CA18B884216D057
:109B10000520FBF7FFFB0646E08A69460880208B9C
:109B20004880608B8880A08BC8806279E089FBF7D1
:109B3000CFFC2571324608216079FBF7A9FB7CBD7B
:109B4000D81B002010B500F025F8002800D0806850
:109B500010BD00229300CB5A834202D190004018DE
:109B60007047521CD2B2022AF4D300207047000082
:109B7000074A0021CB00D35A834202D1C800801883
:109B80007047491C0906090EF4D0002070470000F8
:109B90006C1C00200649496805E08A88824201D190
:109BA0008868704709680029F7D1002070470000D5
:109BB000601C0020F8B50746012906D0022924D1EF
:109BC0000121FBF78BFC00281FD13846FFF7D0FF9F
:109BD000050015D000240D4E0CE0F82069686043A4
:109BE00008180188002908D0F8220021FBF762FB41
:109BF000641CE4B270788442EFD30020C043288014
:109C0000024938461431FCF7EFFDF8BD601C002016
:109C1000F3B5074683B00830029000267888FFF736
:109C2000A7FF019000282FD0002523E0019841686C
:109C3000F82068430C18218800291FD0029800786A
:109C400001280ED16088009023797888621DFCF786
:109C5000F9FF060005D002990020087004982188B9
:109C60000180F82200212046FBF724FB00206D1C18
:109C70002080EDB2074840788542D7D30021C94300
:109C80000198002E018002D17888FBF72DFC304628
:109C900005B0F0BD601C0020F3B50546364C074604
:109CA00085B00835162200212046FBF703FB03A8E8
:109CB00000902B79698828886A1DFBF71BFC0646F3
:109CC00044E02E482E4900780022C01FC0B2009107
:109CD00001920290284B69468A897888F63B314682
:109CE000FCF72CFE002812D12548E979C01EC27865
:109CF00091420CD120492846F6390830FBF7FEFA8C
:109D0000002804D0217870898900091948806846A4
:109D10008289698804AB3046FBF774FB21780646DC
:109D2000880000194288002A10D0002E05D06A460B
:109D3000128A491C217082800AE00A060020920DD6
:109D4000C0431219491C2170908006E0002E04D0F7
:109D50000C48217800888142B3D32078002806D0AF
:109D600078882146FBF7CCFB002007B0F0BD0698B1
:109D7000298801800A20F8E7F62B0020EC10FF1F4D
:109D8000631C0020F410FF1FF0B585B004460025C9
:109D90006846858120790E287ED00EDC082822D0E6
:109DA00004DC022812D006286ED117E026460836B9
:109DB0000A281ED00C2867D138E0102879D0122844
:109DC0007CD016287FD018285ED181E044484349D2
:109DD000008808806088FBF799FB55E003A92046BE
:109DE000FFF75AFF03E003A9204600F06DF905468E
:109DF0003BE0308804A9FBF7FFFA010014D0394892
:109E0000364F00780097401EC0B2019502906A4616
:109E100060887B1C128AFCF791FD05001DD16088CB
:109E20003946FBF779FB20E0012516E0308804A9CC
:109E3000FBF7E2FA0100F7D02A4872880078274F32
:109E4000401EC0B20192009702906A466088128A52
:109E50007B1CFCF773FD050003D0308869468881C0
:109E600003E060883946FBF75DFB002D0CD060787D
:109E7000142809D0194920790870684680894880DB
:109E80000D716088FBF754FB2046FBF757FB164823
:109E90008168002906D003E006E00AE00EE012E047
:109EA0002046884705B0F0BD03A9204600F098F988
:109EB0009DE703A9204600F06BF898E703A9204628
:109EC00000F0F2F993E703A9204600F00FF88EE7BF
