:020000041FFFDC
:1008000000000000A9DEFF1F3C1300207013002031
:10081000BC1F0020000000000000000000000000DD
:1008200000000000000000000000000000000000C8
:1008300000000000000000000000000000000000B8
:1008400000000000000000000000000000000000A8
:100850000000000000000000000000000000000098
:100860000000000000000000000000000000000088
:100870000000000000000000000000000000000078
:100880000000000000000000000000000000000068
:100890000000000000000000000000000000000058
:1008A0000000000000000000000000000000000048
:1008B0000000000000000000000000000000000038
:1008C0000000000000000000000000000000000028
:1008D0000000000000000000000000000000000018
:1008E0000000000000000000000000000000000008
:1008F00000000000000000000000000000000000F8
:1009000000000000000000000000000000000000E7
:1009100000000000000000000000000000000000D7
:1009200000000000000000000000000000000000C7
:1009300000000000000000000000000000000000B7
:1009400000000000000000000000000000000000A7
:100950000000000000000000000000000000000097
:100960000000000000000000000000000000000087
:100970000000000000000000000000000000000077
:100980000000000000000000000000000000000067
:1009900071BCFF1F05BDFF1FD9F2FF1F0000000043
:1009A0000000000000000000000000000000000047
:1009B0000000000000000000000000000000000037
:1009C0000000000000000000000000000000000027
:1009D0000000000000000000000000000000000017
:1009E0000000000000000000000000000000000007
:1009F00000000000000000000000000000000000F7
:100A000000000000000000000000000000000000E6
:100A100000000000000000000000000000000000D6
:100A200000000000000000000000000000000000C6
:100A300000000000000000000000000000000000B6
:100A400000000000000000000000000000000000A6
:100A50000000000000000000000000000000000096
:100A60000000000000000000000000000000000086
:100A70000000000000000000000000000000000076
:100A80000000000000000000000000000000000066
:100A90000000000000000000000000000000000056
:100AA0000000000000000000000000000000000046
:100AB0000000000000000000000000000000000036
:100AC0000000000000000000000000000000000026
:100AD0000000000000000000000000000000000016
:100AE0000000000000000000000000000000000006
:100AF00000000000000000000000000000000000F6
:100B000000000000000000000000000000000000E5
:100B100000000000000000000000000000000000D5
:100B200000000000000000000000000000000000C5
:100B300000000000000000000000000000000000B5
:100B400000000000000000000000000000000000A5
:100B50000000000000000000000000000000000095
:100B60000000000000000000000000000000000085
:100B700039C3FF1F0000000000000000000000005B
:100B80000000000000000000000000000000000065
:100B90000000000000000000000000000000000055
:100BA000000000000000000000000000CDAFFF1FAB
:100BB00000000000000000005DAFFF1F95AFFF1FA9
:100BC00045AFFF1F00000000000000000000000013
:100BD0000000000000000000000000000000000015
:100BE0000000000000000000000000000000000005
:100BF0000000000079AEFF1F0000000000000000B0
:0C0C000001FF01FF01FF01FF41000000A7
:020000041FFFDC
:10480000A8610020D548FF1FDD48FF1FDF48FF1FBC
:104810000000000000000000000000000000000098
:10482000000000000000000000000000E148FF1F41
:104830000000000000000000E348FF1FE548FF1FE4
:104840000000000000000000000000000000000068
:104850000000000000000000000000000000000058
:104860000000000000000000000000000000000048
:104870000000000000000000000000000000000038
:104880000000000000000000000000000000000028
:104890000000000000000000000000000000000018
:1048A0000000000000000000000000000000000008
:1048B00000000000000000000000000000000000F8
:1048C0000348854600F09AFC00480047A9DCFF1F1A
:1048D000A86100200448804704480047FEE7FEE73F
:1048E000FEE7FEE7FEE7FEE7F970FF1FC148FF1F86
:1048F00003460B439B0703D009E008C9121F08C0F9
:10490000042AFAD203E00B780370401C491C521EA3
:10491000F9D27047D2B201E00270401C491EFBD2AE
:1049200070470022F6E710B513460A4604461946BA
:10493000FFF7F0FF204610BD30B5044600200346C7
:1049400000E05B1C934203D2E05CCD5C401BF8D0DE
:1049500030BD0321001D401E037812021A43491E78
:10496000F9D510467047F8B502464A40D40F4200C8
:104970004B0052085B089A4202D202460846114692
:104980004A0023D0C30D4A00DDB2120EAD1A202D0D
:1049900035DA49020126490AF6058A19002C00D0A9
:1049A000524220214F1B1146B9402A411018C20D16
:1049B0009A4221D0002C17D0012D08DCDA05801A8C
:1049C000D20F8019D207DBB200F080FBF8BDDA0508
:1049D000801A012340001B06C01880185A42801814
:1049E000CA0F1043490007E04908C2071143DA051E
:1049F000801A80194008801800F060FBF8BD610043
:104A00000122511A001BF7E70122D2075140AAE701
:104A10000122D2075040A6E7024670B54A40D30FA4
:104A2000DB0740002DD04A002AD0010E140E0002F0
:104A300012020919400A520A8418E5010446544337
:104A4000000A120A2E045043A4194219200CC5432F
:104A5000AA18120C0125AD03521C521912047F39F9
:104A6000240400D0521C104301D44000491EC2B29D
:104A70000C06C0092018401C4008802A02D003E020
:104A8000002070BD40084000002900DA00201843D3
:104A900070BD70B502464A40D50F40004A00ED0790
:104AA00040085208002814D0002A12D0C40DD30D9B
:104AB00041020120C0055202490A520AE41A0918AB
:104AC00012187D34914201D3641C00E04900002C8F
:104AD00001DA002070BD0023914201D3891A0343FB
:104AE000400849000028F7D100290AD0914202D19C
:104AF0000121C90705E0914201D2012101E0012114
:104B0000C943E005C018401900F0D8FA70BD420052
:104B100005D04200120E52428A4201DB002070474B
:104B2000C905081870470000F0B507460846584008
:104B300087B0C00F049048000E465900400849084D
:104B4000BC1A884105D2384631461E4617460B46E8
:104B500002465800400810434CD0300D03904005E9
:104B60005900400D490D0590401A0290402872DA14
:104B700018030121000B09050843019004980092D5
:104B8000002805D0019952420020884100920190EE
:104B9000029840210A1A0199009800F05BFA054634
:104BA0000C466B4607CB00F076FAC0197141039AA8
:104BB0000E0D0023D71756401A467A40164344D0AC
:104BC000049A002A2DD0029A012A039A15DC1205B4
:104BD000C01A914101263605001C7141D20F059E75
:104BE000D2070093019202962A46234600F0B4FAB7
:104BF00007B0F0BD38463146FAE71605224A0F469F
:104C0000B218C01AB74101210905001C4F41001814
:104C10007F41114618187941E20F10436D19644124
:104C200013E0E2076D0815436408C2071443039AB2
:104C300001261205C01A91413605001C7141CE07AC
:104C4000400830434908C01851412A46234600F025
:104C500076FACDE7FFE7049801224000C117121A47
:104C600000238B4104983146C417381AA141EEE75E
:104C700030B40124E407634030BC55E730B401246C
:104C8000E407614030BC4FE70000E0FFF0B51FB41F
:104C900088B00B990998002448400999C00F490031
:104CA00049080991C0070B990090490049080B91E8
:104CB00009990898A64608431CD00B990A980843FE
:104CC00018D0099801244000420D4800410D099870
:104CD00024050003000B204309900B980003000BF0
:104CE00020430B9050181C49401800220190144694
:104CF000104605E0002001460DB0F0BD032801DAA2
:104D0000034600E003239C46C11A0AAE0AE05F0096
:104D100008ADED5B4F00F75B7D430027AA187C418F
:104D2000491C5B1E6145F2DD410004AB5A5221046F
:104D3000120C0A43240C401C0828DFDB0198029067
:104D40000099704601910090059B049A0799069876
:104D500000F002FAD0E700000DFCFFFFF0B50C46B2
:104D60005C4085B0E40FE40703944C00002664081F
:104D700059009446490802460296224321D06246D1
:104D80000A431ED06200570D4A000E032303550D3F
:104D9000012402462C492405781B1B0B360B4018B6
:104DA00023432643614600901C46501AB44103D366
:104DB0000098401C009002E0921800985B41002887
:104DC00003DA0020014605B0F0BD002001210905ED
:104DD0000746864611E064461D46141BB54106D3BE
:104DE0006546521BB341744607430C43A646CD07A4
:104DF00040084908284392185B4105460D43EAD113
:104E00001046184313D0604619465040714008437D
:104E100006D06046101AB34106D20122002306E0F4
:104E200000220123DB0702E00122D2435310009845
:104E300074460105381C6141029C039D00196941BB
:104E400000F07DF9BFE70000FD03000070B54B00E6
:104E50005B0803430BD04B005C0D002633466542D4
:104E6000B341D417AD1AA34102DB0020014670BD47
:104E700012053018514170BDC217C10F504010B516
:104E80004018CA079623002100F020F910BD10B584
:104E900000229623114600F019F910BD0EB5C21775
:104EA000C10F5040CA0740180021054B02930192E0
:104EB00000910A460B4600F04FF903B000BD000018
:104EC000330400000EB505490291002100910A4605
:104ED0000B46019100F040F903B000BD330400001F
:104EE000410040020122400AD205090E80187F29A4
:104EF00001DA00207047962903DC9622511AC84037
:104F000070479639884070474A0009030123090B0E
:104F10001B051943094B10B5520D9A4201DA0020C6
:104F200010BD064B34339A4203DC9A1A00F0A2F803
:104F300010BD03495118884010BD0000FF03000058
:104F4000CDFBFFFFC20FD207400040080BD0C10DC0
:104F50000723DB01C91840020905400A1143C208B2
:104F600040071143704700200146704710B50029E3
:104F700004DB0124E40740428C412146002B04DB82
:104F80001C460123DB075242A3418B4200D18242DF
:104F900010BD0000CB0FDB07490010B549080246E1
:104FA0000A4307D00A0D07240903E401090B121B69
:104FB000002A01DC002010BDC900440F0C43C100D1
:104FC000E018D205801800F079F810BD0122D20750
:104FD000002800DB101A002900DB511A81427047BB
:104FE0000122D207002800DB101A002900DB511A29
:104FF00088427047F0B51FB40646002082B00546CF
:105000004024019100901BE0019922460F46304652
:1050100000F030F8049A059B801A994110D310468D
:105020001946224600F016F8361A8F41019722469B
:1050300001200021009F00F00DF838184D4100902C
:105040002046641E0028DFDC019B0098294632467A
:1050500007B0F0BD10B5202A04DB0146203A91408C
:10506000002010BD914020239C1A0346E3401943C1
:10507000904010BD10B5202A04DB0846203AD040ED
:10508000002110BD0B46D340D0402024A21A9140ED
:105090000843194610BD10B5202A06DBCB17084679
:1050A000203A1041C1170B4306E00B461341D04094
:1050B0002024A21A91400843194610BD002904DAA1
:1050C000401C490001D140084000704770B40024E2
:1050D000050C05D11024000402D1002921D011248F
:1050E000050E01D100020834050F01D10001241D75
:1050F000850F01D18000A41C002801DB4000641C46
:10510000002908D020252E1B0D46F540A14000D0D7
:1051100001212943084301061B1B000ADB1D02D5A0
:10512000002070BC7047DB05181880180029F8DAD9
:10513000401C4900F5D170BC40084000704710B5D4
:10514000002B08DA0024401C614192185B411A438D
:1051500001D14008400010BDF0B51FB482B0054633
:105160000C0003D0084602F059F802E002F056F8AD
:1051700020300246009021462846FFF76BFF049B33
:10518000059A04460F4618431143084314D01846A5
:1051900010431BD0009840210A1A18460599FFF7C2
:1051A00069FF05460E46009A05990498FFF752FFDD
:1051B000084305D0012004E02046394607B0F0BD81
:1051C0000020C11705430E432C43374300990E9826
:1051D0006305401A7905E40A00220C43FD0A0A30EF
:1051E00002D500200146E9E70105101969410C9C30
:1051F0000D9D00196941FFF7A2FFDFE7064C01256D
:10520000064E05E0E36807CC2B430C3C984710346E
:10521000B442F7D3FFF758FB6C1F0020BC1F0020DF
:1052200070B58C180578401C6B075B0F01D10378B3
:10523000401C2A1106D10278401C03E006780E704B
:10524000401C491C5B1EF9D12B0705D40023521EBC
:105250000DD40B70491CFAE70378401CCB1A921C42
:1052600003E01D780D70491C5B1C521EF9D5A1424C
:10527000D8D3002070BD000003B40148019001BDE7
:105280006902000003B40148019001BD7181000072
:1052900003B40148019001BDB142010003B40148CB
:1052A000019001BDD542010003B40148019001BD48
:1052B0007942010003B40148019001BD593A01004F
:1052C00003B40148019001BDED3C010003B4014865
:1052D000019001BD1910000003B40148019001BD07
:1052E000C93A010003B40148019001BD55180000FE
:1052F00003B40148019001BD8117000003B40148C7
:10530000019001BDC13C010003B40148019001BD01
:10531000A53C010003B40148019001BD391700000C
:1053200003B40148019001BD3914000003B40148E1
:10533000019001BD1117000003B40148019001BDA7
:10534000F13E010003B40148019001BD1B3D010085
:1053500003B40148019001BD7114000003B4014879
:10536000019001BDC131000003B40148019001BDAD
:10537000C912000003B40148019001BD3D42010083
:1053800003B40148019001BD5D19000003B4014858
:10539000019001BD3518000003B40148019001BD22
:1053A000C118000003B40148019001BD351500008B
:1053B00003B40148019001BD4117000003B4014846
:1053C000019001BDE915000003B40148019001BD41
:1053D000897B000003B40148019001BDD520000085
:1053E00003B40148019001BDA5E5000003B40148E4
:1053F000019001BDC91F000003B40148019001BD27
:10540000B51E000003B40148019001BD3D1C000021
:1054100003B40148019001BD0D1D000003B4014813
:10542000019001BD8306000003B40148019001BD55
:105430000143010003B40148019001BDE1200000D7
:1054400003B40148019001BDED3A010003B40148E5
:10545000019001BDF53C010003B40148019001BD7C
:105460005D3F010003B40148019001BDDD21000052
:1054700003B40148019001BD5171000003B401481B
:10548000019001BD9D19010003B40148019001BDC7
:105490003921010003B40148019001BD8D44010090
:1054A00003B40148019001BD5590000003B40148C8
:1054B000019001BD7D3A010003B40148019001BD96
:1054C000913F010003B40148019001BDA9420100D0
:1054D00003B40148019001BDD136000003B4014876
:1054E000019001BD01E6000003B40148019001BD37
:1054F000BD07000003B40148019001BD891C0000F4
:1055000003B40148019001BDE907000003B401485C
:10551000019001BD6D07000003B40148019001BD79
:10552000FD0E000003B40148019001BD2D0E0000E6
:1055300003B40148019001BD3D07000003B40148D8
:10554000019001BD211A000003B40148019001BD82
:10555000050E000003B40148019001BD892200003E
:1055600003B40148019001BD610E000003B401487D
:10557000019001BD9D0E000003B40148019001BDE2
:10558000D50E000003B40148019001BD610F000079
:1055900003B40148019001BD9502000003B4014825
:1055A000019001BD3543010003B40148019001BDE4
:1055B000E997000003B40148019001BD3D98000047
:1055C00003B40148019001BDE58D000003B401481A
:1055D000019001BD4977010003B40148019001BD6C
:1055E000E91D010003B40148019001BD1120010033
:1055F00003B40148019001BD4920010003B40148F2
:10560000019001BDF504010003B40148019001BD02
:105610004112010003B40148019001BDFD0A0100DF
:1056200003B40148019001BDD90E010003B4014843
:10563000019001BDCD1C010003B40148019001BDE2
:105640004956010003B40148019001BD8D3C0100A1
:1056500003B40148019001BDE55B000003B40148BB
:10566000019001BDE129000003B40148019001BD92
:105670009937000003B40148019001BD51140000A6
:1056800003B40148019001BD091F000003B40148A3
:10569000019001BDA579000003B40148019001BD4E
:1056A0004103000003B40148019001BDF161000015
:1056B00030B50023094D0CE00C785B1C24092C5DEF
:1056C00004700C78DBB22407240F2C5D4470801C1E
:1056D000491C9342F0D3002030BD0000622000201E
:1056E00010B50549054801F091F80348044A08211E
:1056F000083001F051FA10BDBC200020FFFF00006F
:105700008C1E0020F0B585B00E4605461421684673
:10571000FFF707F904200543A806800F01D03020C9
:1057200005436F46280A787003243946BD70E807A0
:1057300002D0F078C8700424A80702D53079385513
:10574000641C680716D52448C079002806D0A8052F
:1057500001D5307D00E0707A502105E0A80501D523
:10576000307D00E0707A642148436421FFF784FDB6
:105770003855641C280702D5B07A3855641CE806F1
:1057800006D5F088000A3855B079641C3855641C79
:10579000A80603D5307A3855641CE4B2680603D5F0
:1057A000F07B3855641CE4B2280603D5307C3855AC
:1057B000641CE4B2E80503D5B07C3855641CE4B23F
:1057C000A80503D5707D3855641CE4B268460470A2
:1057D00007F01AFF05B0F0BDF41F0020FEB5994C8C
:1057E0000A25607A21460427897A01280ED00328E9
:1057F0001BD120462026407D0B00FFF743FD0B7A8E
:10580000818C9CA7B7C2D2DEFDF77A000B00FFF7B0
:1058100039FD120A0D141F24292F34394045494FF0
:10582000555B6167EF0A03F075FDFEBD09F076F97F
:1058300018200AF0A1F8022018E000200AF09CF8D5
:10584000032023E001218903607DFFF721FDFEBDD8
:10585000182009F0CBFFA772E3E0002009F0C6FF93
:10586000052013E0182009F075FF0620A072D8E08B
:10587000002009F06FFF072008E0182009F080FFE2
:105880000820F3E7002009F07BFF0920A0720A221C
:10589000D8E718200AF08CF8A572C2E000200AF0C0
:1058A00087F8FEBD6421002003F09EFD0C2023E05C
:1058B0006421782003F098FD0D201DE06421F02084
:1058C00003F092FD0E2017E06421382003F07CFDE8
:1058D0000F2011E06421382003F076FD10200BE04A
:1058E00059A003C800900191684607F08DFE112071
:1058F00002E003F0E9FC01207D22A0721201A1E781
:1059000009F00CF96421002003F06EFD0220A07262
:10591000E08A208385E07D220121D2008903FFF700
:10592000B7FC208B002856D0401E0004000C2083BA
:1059300051D103205EE046A20221142001F0DAFAE0
:105940006421782003F050FDA7725FE07D220121E1
:10595000D2008903FFF79CFC208B00283BD0401E1F
:105960000004000C208336D1052043E039A2022137
:10597000142001F0BFFA6421F02003F035FD062069
:1059800019E07D220121D2008903FFF781FC208BE1
:10599000002820D0401E0004000C20831BD10720CB
:1059A00028E02DA20221142001F0A4FA642138205D
:1059B00003F00AFD0820A07228E07D220121D20018
:1059C0008903FFF765FC208B002804D0401E0004EB
:1059D000000C20830DD080B2FFF759FA0246002355
:1059E00002212420009603F04EFBFEBD1CE003E0E4
:1059F00024E00920A072F8E718A20221142001F087
:105A000079FA6421202003F0DFFCA572E08A20836C
:105A1000FFF73DFA0246002302212420009603F0FE
:105A200032FB7D22D2000DE7208B002804D0401EDF
:105A30000004000C208301D080B2E9E7002001F0CF
:105A4000A5F90000F41F002005000300000000007D
:105A5000473A0000423A0000433A0000573A00003B
:105A600002484079002800D001207047F41F002030
:105A700000B585B014216846FEF753FF10486A460A
:105A8000C178117001795170417A9170817AD17029
:105A9000C1881171090A5171017A9171C17BD1716B
:105AA000017C1172807C50720A21032001F0C8FA37
:105AB000002802D0002005B000BD0120FBE7000057
:105AC0005C27002001207047FEB52C4C0025257076
:105AD000A571E57165722A4809F064FF7F202949A4
:105AE000C005086000F0D6FD012105224903607D54
:105AF000FFF7CEFB244E6946304600F069FB68464E
:105B00000078012806D1684605706A4601213046B2
:105B100000F09AFC1021607DFFF7C0FB1B48C570A8
:105B20001BA003C80190029101A807F06DFD0AF0C7
:105B3000FDFD6079012805D007F0B6FC657009F01D
:105B400017FA0AE00021152005F012FE002007F0E8
:105B50000DFB0121152005F00BFEFF210131607DB9
:105B6000FFF79CFB01214902607DFFF797FB0121B4
:105B70008902607DFFF792FBFEBD0000F41F00204C
:105B80000000204158200020050300005C27002071
:105B90000500030000000000F8B502F005F90AF066
:105BA000ADFD504C504D012727706946284600F046
:105BB0000FFB68460078002806D1684607706A46E1
:105BC0000121284600F040FC6078002802D167706F
:105BD00009F07AF8A7717D22D2001021607DFFF7CD
:105BE00057FB6079002601281DD0404A0121607DC5
:105BF000FFF74EFB09F0BCF93B4A3A48FF21EE3271
:105C00000131407DFFF744FB394D6878042801D30A
:105C1000022068700024C0B202280ED0012810D0E3
:105C2000032812D017E0304A0121DD32607DFFF7F2
:105C30002FFB2C4806844684DEE730240220E870DF
:105C400001E00824EF702E7105E00320E870E87A87
:105C50004024401C28710021012005F089FD2448C2
:105C60002030007C012806D0022808D003280BD061
:105C700004280FD018E0EF702E710F2414E00220DA
:105C8000E8702E7137240FE00320E870E87A28715D
:105C9000072409E00420E870E87F02281DD0FF24D3
:105CA000AE77C9340520044311492046FFF72AFD89
:105CB000002007F05BFA0E4803F0E6F90C480AF002
:105CC00031FE0BF0B1F80748012132228902407DF4
:105CD000FFF7EAFA07480770F8BDFF24AF77F13401
:105CE000E0E70000F41F002005030000CA070000E1
:105CF0005C2700207C200020FEB507F055F87D27AA
:105D000042066021FF000126A74D002A09DA82061B
:105D10001AD5884304466879022829D009F0F2FC94
:105D200026E0820610D588430446687901281FD0F2
:105D30006E71287800281ED13A460121687DFFF750
:105D4000A7FA0AF0F5F813E0884304460B2005F0A3
:105D5000CBFC00280CD06879002809D00AF03CF967
:105D60002878002807D10A220121687DFFF790FAE0
:105D7000287800280AD00121687DFFF79BFA0028C7
:105D800004D13A460121687DFFF782FA687A00273C
:105D9000002875D0E1070CD0A878401CC0B2A870CC
:105DA000322803D9AF70002000F0F0FF401CA8702B
:105DB00068E0A978002964D0012802D0022842D0E6
:105DC0005CE0A87A002859D1687BA97B0840E97B70
:105DD0000840297C084251D001F0ECFF00900AF005
:105DE00087FC0446714900984018FA28A87C09D31A
:105DF000002802D1032003F045F9022003F042F904
:105E0000AE7405E0002803D0032003F03BF9AF7423
:105E10006000000E0FD066482118664881420AD300
:105E2000A87C002802D1032003F02CF9012003F004
:105E300029F9AE7422E0A87C00281FD10B20A8729B
:105E4000FFF7CCFC1AE008220021502001F050F8A6
:105E5000687BA97B0840E97B0840297C08420DD07B
:105E600009220021502001F043F853A003C80191FA
:105E700000900621684606F0FDF96E74AF70FEBD15
:105E800042E0AF70A87A00281FD120070DD5E87A2C
:105E900032280AD2401CC2B2EA720221642001F008
:105EA00027F8E87A282800D96E73E0060DD5E87A3D
:105EB0000A280AD9401EC2B2EA720221642001F007
:105EC00017F8E87A142800D2AE73687A03285FD1F5
:105ED000A87A022801D3E88A2883288BFEF7D7FF07
:105EE00002462020009000230221242003F0CBF85A
:105EF000002CC4D0E00701D0142200E09622042137
:105F0000687DFFF7C5F9BAE7E0070ED0A878411C15
:105F1000A97032281CD9AF702878002802D0FFF76A
:105F2000D3FDACE7FFF738FEA9E7E87C00280FD1E6
:105F300068460780A878002809D02878002806D06D
:105F40001F48407A002802D0684606F099FEAF70DC
:105F5000287800281CD0E87C002819D168460780E2
:105F60002007E87817D5411CE970142804D91520BA
:105F7000E870684606F0EAFDE00628790FD5411C76
:105F80002971142804D914202871684606F054FD9C
:105F9000002CB1D173E70028EF70EAD1ECE70028BC
:105FA0002F71F2D1F4E70000F41F0020CAEFFFFFC9
:105FB000000090BE0100B00002800102C00A000093
:105FC0005C27002010B5034A1321034800F0E4FDCC
:105FD00010BD0000B41E002058210020FFB595B070
:105FE0000025109510AA119500F098F806460A2889
:105FF0007CD204460620444320462030C0B26A4684
:106000000E2107F095FF002802D168468089C5B2AD
:1060100017981390404818990078022813D0002050
:106020001290082911D020462130C7B21C2200212D
:106030006846FFF745F96A461C21384607F078FFA5
:10604000002805D010E00120EAE720462230ECE7E6
:106050006846807EC01F092806D8E907C90F6A462E
:10606000129B1398FFF732F91422002107A8FFF7BB
:1060700027F920462430C0B207AA102107F058FFA4
:10608000002812D11022FF2107A8FFF725F90028C8
:106090000BD12534E0B20BAA042107F049FFE90730
:1060A000C90F07AA1798FFF71DF97036F0B20CAAAE
:1060B000102107F03DFF002811D10CA803F039FE94
:1060C00000240CAEA00080190188002903D082783A
:1060D000179800F0BDFD641CE4B2042CF2D3A807AD
:1060E00004D50D48017B179800F0A0FD18980428EE
:1060F0000FD10949087802280BD10A791798002A8C
:1061000000D001224978002900D004211143FFF773
:10611000EFF8002019B0F0BD70230020F0B50A247C
:1061200085B015460F46002806D0012804D0022865
:1061300010D0032846D11FE0084603F0C7FD0446EF
:106140000A283FD2002D3DD0062239462846FFF7C7
:10615000D5F837E01D4E00240E206043801906223A
:106160003946801DFFF7D0F8002823D1641CE4B223
:106170000A2CF1D30A241DE00024204606214843BE
:106180002330C0B26A46102107F0D2FE00280CD19D
:106190001022FF216846FFF79FF8002805D13946F5
:1061A0006846FFF7B7F8002804D0641CE4B20A2C54
:1061B000E3D3DFE70A2C05D2002D03D02946204681
:1061C00003F09CFD204605B0F0BD0000D230002059
:1061D00070B50C460146032000020A1A0025344817
:1061E0001300FFF74FF81D1012151C1F2326282C33
:1061F000303234383A3C3E40424446484A4E50528F
:106200005A5456585A00C07911E01022294902E028
:106210002849102210312046FFF770F845E0C06A87
:10622000206042E0224906223C31F4E700782070E9
:106230003BE0808936E01E4942784231EBE71D4958
:1062400082781F39E7E7007AF1E7407AEFE71849EB
:1062500006223031DFE7807AE9E7C07AE7E7C089D4
:1062600020E0808A1EE0C0781CE0C08A1AE0008B23
:1062700018E0408B16E0808B14E00D490622363181
:10628000C9E7C08B0EE0008C0CE0408C0AE08079FE
:10629000CDE7008A06E0408A04E0272904D20846B8
:1062A000FFF73EF8208000E00225284670BD000080
:1062B0000C230020A130002070B50E4C0025607129
:1062C000A571691EE181FFF731F80420E071102209
:1062D00000210948FEF7F4FF074810220021103082
:1062E000FEF7EEFFE562257265720720A072E57287
:1062F00070BD00000C230020A1300020FEB53B4DF6
:106300000C4608040CD56879FFF716F8050004D090
:1063100003F018FE2846FFF715F80120C00360E0DF
:10632000600403D5012080034840FEBD2F48E107EB
:106330000126807900292AD02978002920D0052833
:1063400021D0287A69460870687A4870274900A8E1
:10635000062230310230FEF7D1FFA87A6946087272
:10636000E87A48726879FEF7F3FF002808D0072022
:10637000A871696A002903D00968002900D08847FC
:1063800020467040FEBD032069460870E5E7A1077E
:106390000DD5052809D1E889FEF7E0FFAA8A002A71
:1063A00003D002216879FEF773FF022019E060072D
:1063B00004D5002003F01EFE042012E0200712D5B1
:1063C0002879012802D002280AD107E00096AB8B79
:1063D0006A8B298BE88A00F00BF801E000F05AF98B
:1063E00008206040FEBD0020FEBD00000C23002000
:1063F000F8B5134C069DA679052E01D01420F8BDE2
:10640000104F861FBE4219D2062917D3BE1DB142B6
:1064100014D2FF27F537BA4210D20A2B0ED3B3425B
:106420000CD2E08221836283A383284603F0E2FD3D
:1064300004216079FEF732FF0020F8BD1820F8BD76
:106440000C2300207A0C0000F7B50C468049009818
:10645000164642187F4F00257879B9791300FEF768
:1064600011FF190E141BE92040455970777E888F63
:10647000E996A2A9B4BFC8E9E9E9E9D3E900102C7B
:1064800076D11022314674486FE0102C70D17248DA
:1064900010223146103068E0042C69D13068F8626F
:1064A000CEE0012C64D13B7832783A70002B0AD0D0
:1064B000002A07D1022903D0062901D0042901D1DD
:1064C000FEF752FFBCE0002A0AD0012905D00329BB
:1064D00003D0052901D0042902D10121FEF74AFF8A
:1064E000AEE0022C44D13088B881A9E01F2C3FD8FF
:1064F00058481F2200214230FEF7E2FE554822464E
:1065000031464230FEF7FAFE524B7C70423322464F
:10651000012112E01F2C7CD84F481F2200211F3878
:10652000FEF7CEFE4C48224631461F38FEF7E6FE07
:10653000494BBC701F3B224600217879FEF720FFB3
:1065400083E0012C65D13078042862D8387277E076
:10655000012C5ED1307803285BD8787270E0062C6D
:1065600057D13C48062231463030FEF7C7FE67E07F
:106570004FE0012C4DD1307807284AD8B8725FE03F
:10658000012C46D13078032843D8F87258E0022C09
:106590003FD13288BA82002A52D0052950D1022137
:1065A000FEF776FE4CE0012C33D13078012830D84C
:1065B000F87045E03088022C2BD1062829D3192108
:1065C000C901884225D8F8823AE03088022C20D1CF
:1065D00006281ED31921C90188421AD838832FE012
:1065E0003088022C15D1FF21F531884211D27883F1
:1065F00026E03088022C0CD10A280AD31921C901BF
:10660000884206D8B8831BE03178012C01D10129DA
:1066100001D0182514E00821FEF74CFE002801D017
:1066200016250DE0002003F0E5FC04217879FEF743
:1066300035FE05E00098272801D2022C02D0022561
:106640002846FEBD3188FEF7A1FE0546F8E70000AA
:10665000FFFCFFFF0C230020A13000201CB50B4CD9
:10666000A179002901D011201CBD002800D0606252
:10667000064907482C31034601910090103B002247
:10668000E179607900F016F800201CBD0C23002091
:10669000B130002010B506488179052901D01220BB
:1066A00010BDC18913224079FEF776FE10BD0000AF
:1066B0000C230020F8B51D460224069F079E0B0000
:1066C000FEF7E0FD0A15080606081506150606156C
:1066D000002C0CD1FEF766FE040008D13246394684
:1066E0002846FEF765FEFEF769FEFEF76DFE2046C2
:1066F000F8BD08B500206946009005204A1C09F045
:10670000EDFC6846407800090300FEF7BBFD090672
:10671000080A060C0E1114170600502008BD202090
:1067200008BD282008BDA02008BDFF20913008BD6D
:106730001920400108BD1920800108BD1920C001A1
:1067400008BD08B500206946009005204A1C09F0E4
:10675000C5FC684640780007000F0300FEF792FD75
:106760000A06080A060C0F1215181B06A02008BD01
:10677000302008BD502008BDFF20413008BD192041
:10678000400108BD1920800108BD1920C00108BDC5
:106790001920000208BD7D20C00108BD10B50023EE
:1067A00009E01C012418E468944202D11901081878
:1067B00010BD5B1C9BB28B42F3D3002010BD0000C8
:1067C00070B50F4D0F4CA87029461431204600F0CB
:1067D0001DF8002128460B460C30CA0084521218BE
:1067E000491C09065360090EF7D0012004F01EF879
:1067F000A878FEF7EFFD0448FEF7F2FD70BD00003B
:1068000094230020FFFF0000BDA0FF1F70B50A4CBD
:106810000025A04209D1002082008C525218401C51
:10682000C0B295700228F7D370BD03F016FC0028A3
:10683000FAD00480857070BDFFFF0000F8B50E46E9
:106840000746069900240798002902D00B24204609
:10685000F8BD022B01D00D24F9E71178527812020D
:1068600089188DB22946814301D08024EFE738464C
:10687000F16800F089F9A842E9D02A463846F16863
:1068800000F014FA0400E2D171892A46384600F07B
:10689000B1F9DCE7FFB50025C1B02E464198B10043
:1068A0000C1821881E48814232D0A07800282FD0B1
:1068B000429A4A994498FFF771FF070028D0194877
:1068C00003A900780231C01EC0B2029000220091DC
:1068D0004498019242894B1C2088394600F040F8C8
:1068E000002815D1788969468881A078C00705D02D
:1068F000208803A9439AFEF779FD0543A078800715
:1069000006D5208803A94B9B439AFEF775FD0543E6
:10691000761CF6B2022EC1D3284645B0F0BD000069
:10692000FFFF0000EC10FF1F70B50C46080412D5E5
:106930000A488078FEF700FD050008D02878B028C6
:1069400002D1284603F0A4FC2846FEF7FBFC0120F8
:10695000C003604070BD002070BD00009423002083
:10696000FFB583B0087A00250C9E1C460F46C00672
:106970000DD5059803F06AFB030006D00A223946BC
:1069800003989847050035D101E00E2532E03878AC
:1069900002281DD17868292201784078120200026D
:1069A000081881B2881A91427ED009DC7348081A0F
:1069B00023D0012821D002284FD0032808D125E078
:1069C000012872D0022871D003286DD004286ED01F
:1069D000059803F063FB00286AD00568002DD4D029
:1069E0000E990D980191009033462246394603983E
:1069F000A8470546284607B0F0BD0D98002872D17B
:106A0000F868017831700278416896E00D980028A6
:106A100069D101203070F8680021007820707889F1
:106A2000401C80B2FEF7EEFC00280DD031780278D1
:106A30008918891C3170817A61704189090AA170B5
:106A400002784168E01C79E030780422001D307043
:106A50000021601CFEF734FCCCE70D98002875D1AE
:106A6000F86802A900880090042030700098207017
:106A70000098000A60700098FEF7C4FC070029D057
:106A8000F86800906846028901AB3D493846FEF738
:106A9000BFFC002810D13B7802213A487A68FEF703
:106AA000BDFC002808D104E026E030E01CE04AE00C
:106AB00062E03348694688800098007802280CD14B
:106AC000009802224168201DFEF718FC3078801CD7
:106AD000307002E069460098888068468088A0701F
:106AE000000AE07086E731E00D9800282ED1F968A1
:106AF000039800F049F804E00D98002826D1F868C2
:106B00000088022131702070000A607072E7F86816
:106B1000FEF78AFC0D99C0B2814212D8814201D1A0
:106B2000002206E00E9A8918814202D30D99401A7C
:106B3000C2B23270F9680D9809182046FEF7DEFBE4
:106B400058E7072556E70D98002801D00B2551E797
:106B50000721F8683170017821704178617081787F
:106B6000A1704188090AE17001792171817961710F
:106B7000C088000AA0713DE700252FE7002800002B
:106B8000FFFF00001E7C010010B503F066FA00282C
:106B900000D0807810BD00007CB51546040019D0E7
:106BA000684601940180FEF745FC03001DD1002DCD
:106BB0001BD06489002C0DD00C20FEF741FC00286E
:106BC0000AD0002303608480094A85605168002947
:106BD00004D006E0022308E0132306E0506004E03E
:106BE00011460A68002AFBD1086018467CBD0000E7
:106BF00094230020F8B50C4C0746207815460E4625
:106C0000FF280FD00A20FEF721FC01000AD0B12096
:106C100008700020487008714F80CE800D81207868
:106C2000FEF71AFCF8BD00009423002070B50C4656
:106C300005460649FFF7A8FF800704D521462846E8
:106C4000FEF710FC70BD012070BD0000A8230020DD
:106C50001CB56B461A71120A5A7100220092022367
:106C600001AA00F001F81CBDFFB583B008461F461D
:106C700001A90C9EFEF7C6FB050014D0684680886B
:106C800003F00CFA00280AD04468002C09D00096C2
:106C90003B462946059A0398A04707B0F0BD00245B
:106CA000F3E70E20F9E70120F7E7000070B514467E
:106CB0000E46054603F0D1F9002806D131460548B5
:106CC00003F0CBF9002803D005808470002070BD4C
:106CD000112070BDFFFF0000014610B50020C9075C
:106CE00004D0034A07210348FFF756FF10BD0000F8
:106CF000C81E00209822002070B50D4616460024BC
:106D00001D490300FEF7BEFA080512343419342277
:106D10002934152D23D8162200211848FEF7D0FA61
:106D20002A4631461548FEF7E9FA22E0022D16D12F
:106D300011491088103908801BE0082D0FD10E482A
:106D4000082231460838FDF7D3FD12E0012D06D1A7
:106D5000CA6909493078283107E0012D01D018248B
:106D600007E0CA6B04493078483103F00AFF00E0BD
:106D70000224204670BD0000982200206C300020C4
:106D80000148007870470000C01F0020002801D093
:106D900009F072F90021132004F0EAFCFEE700007C
:106DA000F8B5454F0A4639788446092948D00A295A
:106DB00046D00B2944D00C2942D00D2940D03F4C5D
:106DC000607A002801D001281AD12078002801D04B
:106DD000012815D165893A482B1F834210D2A38917
:106DE0001E1F86420CD2AB420AD8002A01D0012ACB
:106DF00006D16046334B344D00282DD0012801D0F8
:106E00001220F8BD207A01281AD025200126002959
:106E100004D007290AD0082908D011E0E671E273EE
:106E2000A07405203870FEF723FB13E06A68928D8A
:106E3000520605D51A78002A04D024A000F0CAF919
:106E40002120F8BDA07427481E7001210903007895
:106E5000FEF790FA26722CE072B60026052904D0BF
:106E6000072907D0082905D005E03E701E20FEF74F
:106E700005FB00E01E7026725820FEF705FB62B687
:106E8000FEF708FB184E194CA8600FE0FEF702FB56
:106E9000A968884201D3401A01E0711A0818E86015
:106EA0007D226969D2005143814202D320680128C2
:106EB000ECD00020F8BD00001D12FF1F421DFF1F77
:106EC000FD3F00002312FF1F402600205B4C4C5F5B
:106ED0004442475D202530325820253032580A0D73
:106EE000000000001C12FF1F40420F005812FF1F3D
:106EF0000020704770470000F8B5044600200346A4
:106F00000A5C8507ED0EAA401343401C0428F7DBFA
:106F100001F0B6FA0028FBD102F0C6F921022004E4
:106F2000090E0843FF273F0221463940084372B645
:106F300000211A4DA960194E0002803E801C30606D
:106F4000336062B601F09CFA0028FBD102F08AF8A7
:106F500011200006201869462A695207FCD572B62E
:106F60000422AA6004020204240E22433840024391
:106F70001002C01C306062B628694007FCD530782A
:106F8000087030784870307888703078C870009811
:106F9000984201D00020F8BD0120F8BD8000081102
:106FA00070B50546002409490948FFF72FFC094838
:106FB000FEF716FAE80706D00448074A15210830FC
:106FC000FFF7EAFD0446204670BD0000842400203F
:106FD000FFFF0000A5FAFF1F381F002010B50B4669
:106FE00000240E49002806D0022809D005280FD019
:106FF0000224204610BD488810700246084903E06C
:10700000C8881070074902461846FEF777F9F0E77E
:107010008889107002460449F6E7000068240020C1
:107020005034002050380020503E0020002803D06B
:107030000249086100207047112070476824002031
:10704000FEB517460246012000244002814201D9C4
:107050001820FEBD2148FF2515261300FEF712F962
:10706000060409101524293A41800A4639461C486D
:1070700003E081800A4639461A48FEF73FF92AE0C4
:10708000C1800A4639461848F7E701810A46394661
:107090001648FEF733F9114B0022243318461349E2
:1070A00010380096019512E041810A463946104891
:1070B000E3E781810A4639460E48FEF71FF9074B80
:1070C0000022243318460B49083800960195FFF733
:1070D000E1FB00E002242046FEBD00006824002001
:1070E000503400205036002050380020503A002004
:1070F000503C0020503E0020024901480860704783
:1071000040787D013C26002030B587B004464128F8
:1071100001D0422C23D118216846FDF702FCFF2242
:1071200017216846FDF7F6FB00256846412C02D082
:10713000422C05D00CE0122504702A460A4904E0CE
:107140001225094904702A461231401CFDF7D0FB74
:107150006A4629460520FFF773FF002802D0002069
:1071600007B030BD0120FBE70214002010B57D21DF
:10717000C003C900FEF780F800F002F810BD00005F
:10718000F8B506460027FEF78BF904460648051BAE
:1071900006E0FEF785F9A04201D3071B00E02F1897
:1071A000B742F6D3F8BD0000FFFFFF00CB07762201
:1071B0000748002B02D0C260012004E0CB0504D5B3
:1071C000C260FF2001304840704700207047000037
:1071D000002000400FB410B503A9044B044A0298E4
:1071E00000F0D2F810BC08BC04B01847A19BFF1FE8
:1071F000602600200FB410B504A9074B02AA03981B
:1072000000F0C2F8044602A9002000F0F7FA204678
:1072100010BC08BC04B01847FD77FF1F2021020CEA
:1072200001D010211046020A01D010460839020987
:1072300001D01046091F820801D01046891E42085D
:1072400001D0881E7047081A70470000002805DB2F
:10725000C106C90E0120884001490860704700003E
:1072600000E100E08307FF22DB0E9A408907090E48
:107270009940002808DB830809489B001818036818
:1072800093430B43036070470007000F08388308DF
:1072900004489B001818C36993430B43C3617047AC
:1072A00000E400E000ED00E08307FF22DB0E9A40DF
:1072B0008907090E9940002808DB830809489B00CC
:1072C0001818036893430B43036070470007000FCF
:1072D0000838830804489B001818C36993430B437C
:1072E000C361704700E400E000ED00E08307FF2287
:1072F000DB0E9A408907090E9940002808DB8308B5
:1073000009489B001818036893430B4303607047B8
:107310000007000F0838830804489B001818C36949
:1073200093430B43C361704700E400E000ED00E0CD
:10733000BFF34F8F04490348C860BFF34F8F00BFAE
:10734000FDE700000400FA0500ED00E0BFF34F8FF9
:1073500004490348C860BFF34F8F00BFFDE700003A
:107360000400FA0500ED00E002E008C8121F08C1A1
:10737000002AFAD170477047002001E001C1121FB6
:10738000002AFBD170470000FFB591B00F460546BB
:10739000002606E025280AD0149A139990476D1C00
:1073A000761C28780028F5D1304615B0F0BD0024B1
:1073B00000940121F34A029400E004436D1C2B78F1
:1073C0000846203B98401042F7D128782A280ED052
:1073D000022128780246303A092A15D8009A0A2351
:1073E0005A43303A80180C436D1C0090F1E701CFEE
:1073F0000090002805DA0120400304430098404231
:107400000090022004436D1C28782E2815D10420FA
:10741000044368786D1C2A280AD101CF6D1C0290A4
:107420000BE002990A225143303940186D1C02903A
:107430002878014630390929F3D928786C2810D0EA
:1074400006DC4C281AD068280ED06A2817D104E030
:10745000742813D07A2812D110E00120400504438B
:107460000CE00121090501E0032109050C436978BD
:10747000814203D10120000524186D1C6D1C287861
:1074800003906E281ED00CDC632831D004DC002869
:107490008AD0582811D1B2E064287BD069280CD159
:1074A00078E073282DD004DC6F2870D0702804D1C8
:1074B000A7E075286CD078286BD0149A1399904760
:1074C000761C62E06002400F022807D003280AD031
:1074D000042838680AD006603F1D56E03868F11766
:1074E00006604160F8E738680680F5E70670F3E764
:1074F0003878694608740020487404A80390012075
:1075000003E0386803900020C0433F1D61070FD59A
:10751000002101E00199491C029A0191914213DA7C
:107520008142F7DB019A0399895C0029F2D10BE0D3
:10753000002101E00199491C01918142FADB019A85
:107540000399895C0029F5D101990098139A401A92
:1075500000902146149B00F03BF9019980194618D0
:1075600007E0039803990078491C0391149A139932
:1075700090470198401E0190401CF2D12146149B77
:10758000139A009800F014F986196D1C09E741E080
:1075900033E034E00A200021049005916002410F9D
:1075A000022905D001CFC2179446032905D007E070
:1075B000FF1DFF08FF0003CF06E000B2C21794468C
:1075C000042902D140B2C1178C460022614694457D
:1075D00006DA0A460021404291418C462D2102E004
:1075E000210504D52B216A461176012103E0E1072C
:1075F00001D02021F7E7019154E00A200BE0102090
:1076000009E0102004900021042004430820059183
:10761000029003E008200021059104906002410FD0
:10762000022905D001CF00229446032906D006E0A6
:10763000FF1DFF08FF0003CF8C4603E080B2042942
:1076400000D1C0B20021019121072BD503997029E7
:1076500006D0049A1021059B4A401A4305D00EE03B
:1076600040216A461176012108E06146014306D0B7
:1076700030216A4611760399517602210191049ACC
:107680000821059B4A401A430CD16146014301D1B0
:10769000610707D530216A461176012101910299CF
:1076A000491E02910399582904D037A103910FA9CB
:1076B0000F910DE039A1F9E76146059B049AFDF7AA
:1076C00099FC039B8C469B5C0F9A521E0F92137081
:1076D00061460143F0D10F9807A9081A20300390A2
:1076E000600704D5012000048443029801E00120D2
:1076F00002900399884201DD401A00E00020411801
:107700000290019809180098401A0090E00306D4EE
:107710002146149B139A009800F05AF8861900200D
:10772000049008E006A9085C149A139990470498FD
:10773000401C761C049001998842F3DBE0030CD5D1
:107740002146149B139A009800F042F8861904E031
:10775000149A302013999047761C0299481E029083
:107760000029F5DC08E00F980F990078491C0F916B
:10777000149A13999047761C0399481E0390002988
:10778000F1DCFBE60928010030313233343536377D
:10779000383961626364656600000000303132335D
:1077A00034353637383941424344454600000000FD
:1077B000F8B5044600251E461746880404D405E0A3
:1077C00039462020B0476D1C641EF9D52846F8BD07
:1077D000FFB50446002581B01E46C80301D53027F9
:1077E00000E02027880404D505E038460399B04717
:1077F0006D1C641EF9D5284605B0F0BD0A68531CFF
:107800000B6010707047000004490868FF221202E4
:1078100090430122D2031043086070471CE400E04B
:1078200010B5FDF743FE0120FDF746FEFDF74AFEC9
:10783000002010BDF0B500248E464A1E12E07146AD
:1078400000230D1B6D1E0AE09E0031188C468759DF
:1078500049688F4202D9815161464F605B1C9D424D
:10786000F2D8641C9442EAD3F0BD000010B500F0D9
:107870009BFAFDF727FB0022074BFDF707FA0022D2
:10788000064BFDF76BFA0022054BFDF767FAFDF793
:107890003BFBC0B210BD00000068904000005940A2
:1078A00000002440F8B5069800261D46144600281E
:1078B00001D00B20F8BD486801270278407800020B
:1078C00010181B4A80B2904202D1FFF7CFFF14E09C
:1078D000174A521C90421DD103F0C8F81549FDF714
:1078E0009BF8FDF72FFB0022134BFDF7C1F9002297
:1078F000124BFDF733FAFDF707FB1149087005201D
:1079000028700878207067704A20A070E770B32054
:1079100020710BE00B4A904207D1022018700246FA
:10792000C9682046FDF7EAFC00E00A263046F8BDAB
:107930001A2A000000007A4400C8A9400000244030
:10794000B420002008290000F0B5044685B00026C8
:107950007B480196407901281BD10B2003F0C4FE1F
:10796000002816D101A8216803F00AF80198FDF754
:10797000E9FA744A744BFDF789F905460F46206809
:10798000FDF7E0FA2A463B46FDF772F9FDF702FBE8
:10799000206003F071F8002842D06C48457A002D31
:1079A000FAD0014620310F7C032F7DD26849206830
:1079B000FDF732F8674D022F33D0012F7FD8FDF746
:1079C000C1FA064628460F46C088FDF77BFA624A90
:1079D000624BFDF75BF932463B46FDF7BFF90246C5
:1079E0000B4600200146FDF79FF8FDF7D3FA054648
:1079F00058480089FDF766FA574A584BFDF746F993
:107A000032463B46FDF7AAF906460F462846FDF7E3
:107A100099FA32463B46FDF787F8FDF7BBFA064672
:107A20004DE0FDF78FFA064602910F462888FDF7D4
:107A300049FA4B4A4B4BFDF729F932463B46FDF7D5
:107A40008DF902460B4600200146FDF76DF8FDF763
:107A5000A1FA00906888029FFDF734FA3E4A424B33
:107A60005242FDF713F932463B46FDF777F90746D8
:107A700003910098FDF766FA3A46039BFDF754F828
:107A8000FDF788FA0090A888029FFDF71BFA2D4A9F
:107A9000364B5242FDF7FAF832463B46FDF75EF9A7
:107AA00005460E46009800E004E0FDF74BFA2A4632
:107AB0003346B0E72E49032F16D0042F23D030468B
:107AC000FDF740FA2B4A2C4BFDF7E0F805460E4631
:107AD0002068FDF737FA2A463346FDF725F8FDF70B
:107AE00059FA206005B0F0BD007E03280ED90828A1
:107AF0000CD206280AD016E0FDF7C8F832463B46FD
:107B0000FDF72CF989E7807F00280CD02068FCF76E
:107B100083FFFDF717FA06460F462846FDF7D2F910
:107B2000084A164BE8E72068FCF776FFFDF70AFAEB
:107B300006460F462846FDF7C5F9114A114BDBE70B
:107B4000F41F00200AD7A3703D0AC73F5C2700201E
:107B500000004844D4270020A4703D0AD7232040C9
:107B600052B81E85EB510240285C0540C2F5064024
:107B70000000C8427B14AE47E17AB43F3D3A1A4058
:107B800048E17A14AEA702407CB54C6815462278CD
:107B90006478069E24021219104C92B2E24209D176
:107BA00001220192DBB200962A46FEF747FE04004E
:107BB00003D000E00A2420467CBD697828780902B9
:107BC0004018074980B249680029F4D0002802D043
:107BD00001208847EFE70220FBE70000FED6FFFF09
:107BE000B420002003B5694604480978017069464D
:107BF000498841806946898881800CBDE41F002046
:107C000038B501681C4C012903D01CA006F0DCFA31
:107C100038BD19491039CA788978D206C906C90F02
:107C20000091D30F027B8168042003F0CFFB124D3B
:107C3000FF21C905083DC84209D3A9882878FDF766
:107C40002DFBA98828780522FDF722FB38BD0F49B6
:107C5000FCF7E2FE0021C943FCF759FF0C49096A11
:107C6000FCF781FE01466060206800F069F86988D1
:107C70002878FDF77FFB38BDEC1F00200A5F5F41CD
:107C80004443206572726F720A0000000000404198
:107C90005C27002010B502F005FE134C002815D01B
:107CA0001348124A01210078FDF7F2FA2078411CAE
:107CB000C9B221700A2803D80EA006F085FA0EE09A
:107CC00011A006F081FA0120FFF760F81A481B495D
:107CD000006803F09BF903F0E1FA002801D01120BD
:107CE00010BD0020207010BD18200020E20300000D
:107CF00009200020200A20616420627573792062C7
:107D0000256420200A000000200A205F5F5F5F5F7B
:107D10005F5F5F5F5F616463206D6F64756C65209A
:107D200072657365745F5F5F5F5F5F5F5F5F5F5F1B
:107D30005F5F20200A000000DC1F0020017CFF1F85
:107D400010B508461149FCF767FEFDF7C9F880B287
:107D50000F4C10496080884201D9642003E00E492D
:107D6000884202D20020207010BDFDF7ABF800223F
:107D70000A4BFCF77DFF0022094BFCF787FF00222E
:107D8000084BFCF7EBFFFDF7BFF8ECE700007A4487
:107D9000E01F0020FE100000E40C000000C8A94015
:107DA000000059400068904001480078704700008A
:107DB000E01F00200148408870470000E01F0020BD
:107DC00010B504480021016141610D2003F070FCF1
:107DD000002010BDDC1F002010B5FFF75BFF10BDB9
:107DE0007CB50446042800D90424354E06237B22A2
:107DF00019466720009605F05DF8662212230721D8
:107E00001046009605F056F813237B22194667208A
:107E1000009605F04FF87C221223072110460096A9
:107E200005F048F87E220F230A211046009605F03F
:107E300041F87F220F230A211046009605F03AF8F8
:107E40000025002C0BD012236C22082168200096FC
:107E5000019505F0EFF8012C09D9009608E000958E
:107E600012236C2208216820019505F0E3F80095A3
:107E70001223712208216D20019505F0DBF8022CF8
:107E80000AD912237622082172200096019505F066
:107E9000D1F8042C11D007E0009512237622082196
:107EA0007220019505F0C6F8009512237B22082167
:107EB0007720019505F0BEF87CBD0096F5E700003F
:107EC0009E4E000070B59CB0584D0024687018A9F3
:107ED0000C73202113A8FCF724FD13AA1BA903206F
:107EE00008F0FCF818A913AA097B5148FEF7ACFA70
:107EF00010A90C7220210AA8FCF713FD0AAA12A9E6
:107F0000042008F0EBF810A961200AAA097AC00041
:107F1000FEF79AFAFEF715FC064601460620FDF725
:107F200035FA31460720FDF731FA31460820FDF7D2
:107F30002DFA31460920FDF729FA69463C488C8321
:107F400007AA0221401EFEF77FFA694638480C76E0
:107F500006AA0121801CFEF777FA694634480C75A1
:107F600005AA0121801EFEF76FFAFEF7C2FB6946E3
:107F700088832F480A1F02210A30FEF765FA2C4831
:107F800007AA02210B30FEF75FFA694628480C83E6
:107F900006AA02210C30FEF757FA4B20C0006946B2
:107FA0008882C52005AA02218000FEF74DFA012033
:107FB000694608740146312004AA0001FEF744FA1C
:107FC00006211F20FDF7E2F969460C77182101A868
:107FD000FCF7A7FC01AA07A9022008F07FF8694670
:107FE00001AA097F0020FEF787FE641E2046FEF7E7
:107FF00073FEFDF775FBFDF7E5FF2046FEF7D0FFAA
:10800000281DFFF713F806F04BF8687808A90870E8
:1080100001208003694648840999089804F0B8FE55
:1080200001216878FDF7A6F91CB070BDC01F0020C3
:108030000703000010B50C4608040AD50E48407826
:10804000FDF77AF9002801D0FDF77CF90120C00383
:108050000DE0E00705D008480830FEF7FFFA0120E0
:1080600005E0600405D504F01BFE0120800360409C
:1080700010BD002010BD0000C01F0020F0B585B06D
:10808000002705460197009702F0FCFC00287DD0F0
:10809000BE4E707A0028FAD002F0E8FC8121C905B2
:1080A000BB4C884215DBBB49884201DD502061E0B2
:1080B000FCF748FF0022B84BFCF7DAFD0022B74B73
:1080C000FCF7E4FDB64AB74BFCF748FE0022B64B7E
:1080D00025E0B64988420FDBFCF734FF0022B44BA1
:1080E000FCF7C6FD0022B34BFCF7D0FD0222FCF7E3
:1080F000ADFE0022B04B12E0B049884212DBFCF723
:1081000021FFAF4AAF4BFCF7B3FD0022A94BFCF7B0
:10811000BDFDAD4AAD4BFCF721FE0022AC4BFCF798
:1081200003FD25E0AB49884210DBFCF70BFFAA4AB0
:10813000AA4BFCF79DFD00229E4BFCF7A7FDA84A29
:10814000A84BFCF70BFE0022944BE8E7A6498842B7
:1081500011DDFCF7F7FEA54AA54BFCF789FD0022CF
:108160008E4BFCF793FD964AA24B921DFCF7F6FD51
:10817000FCF7CAFE6070854820300490007C03281C
:108180003CD29D48C088002817D000E0FBE0FCF7F7
:108190007EFE9A49FCF77DFCFCF7D4FE984A994B89
:1081A000FCF774FDFCF7F6FE07466078FCF76FFEFF
:1081B00001463846FCF76DFC019001A806F032F844
:1081C0008D480089002815D0FCF761FE8B49FCF72B
:1081D00060FCFCF7B7FE8A4A8A4BFCF757FDFCF7B8
:1081E000D9FE07466078FCF752FE01463846FCF798
:1081F00050FC0090684606F015F874E0032802D0A1
:1082000004283FD06FE0F07A002804D001280FD076
:1082100002281BD034E0607864214843FCF752FE0A
:1082200003910290707AFCF74DFE654A714B1AE09B
:10823000607864214843FCF745FE03910290707A10
:10824000FCF740FE644A704B52420CE060786421B7
:108250004843FCF737FE03910290707AFCF732FE38
:108260004F4A6A4B521FFCF711FD654A654BFCF7FC
:108270000DFD039B029AFCF771FDFCF78BFE01904C
:10828000009730E0F07A002804D0022802D00128BC
:108290000ED028E0607864214843FCF713FE039178
:1082A0000290707AFCF70EFE504A594B5242DAE7C0
:1082B000607864214843FCF705FE03910290707AD0
:1082C000FCF700FE494A524B5242FCF7DFFC4C4A95
:1082D0004C4BFCF7DBFC039B029AFCF73FFDFCF7E1
:1082E00059FE019700902A484078FCF7EBFD0246C2
:1082F0000B4648484849FCF731FD04460F460098B4
:10830000FCF720FE22463B46FCF70EFCFCF742FE43
:10831000014600900198FCF726FBFCF713FE02468D
:108320000B4600203D49FCF719FDFCF7EDFD84B23A
:10833000707A642806D10498007C032802D2502C5D
:1083400000D35024FDF78CFB002800D00125104EEF
:10835000B088A0420FD0002D08D1FDF781FB002886
:108360000ED1B08800280BD0A04209D9204608F0D1
:10837000B5FEB48004E0002D02D0204608F0AEFE29
:10838000204605B0F0BD0020FBE700005C27002080
:108390007C200020B81E85400000104000002440D2
:1083A0008014AE47E17AC43F008051400000704025
:1083B00000000E400000344000004940EC5168408D
:1083C0000AD7A3703D0A0D40C01E85EB51B8BE3FD1
:1083D00000003E4052B85E40D7A3703D0AD70B4024
:1083E000303333333333C33F3333534066666666CB
:1083F00066660A403D0AC73FD42700200000484473
:10840000143BB1133BB1F33FF528CC3FE17AB43FC5
:108410009999E13F20F8811FF881AF3F0000F03FBC
:10842000064AD088642807D2117A491CC9B2117251
:10843000814201D39069004770470000B4270020B3
:1084400010B50020054CFF212218401C5170402817
:10845000FADB06F0C3FC207010BD0000605800205D
:1084600010B50020054CFF212218401C5170062831
:10847000FADB06F0D1FC207010BD00005926002068
:10848000084801694907FCD5012181600549052299
:1084900080390A7002695207FCD50878C007C00FFE
:1084A0007047000080000811F0B58646080CFF26D2
:1084B0008446002388B237461C46194601228A406A
:1084C00005461540CD402C19A4B2FF2F02D1012C36
:1084D00000D18FB265462A40CA40D21893B2FF2E0F
:1084E00002D1012B00D18EB2491C1029E6DB012CF0
:1084F00002D0102C08D009E0012B07D13001C0199F
:10850000714608700220F0BD102B01D00320F0BD91
:108510000120F0BDF3B5414A0E46117B83B08B00BC
:1085200003981146203900685B185860107B0024BE
:10853000401CC0B2384D107323460A2800D3137371
:10854000107C002808D1507C401CC0B25074052813
:1085500002D301201074537431480078002819D0D8
:108560008878401CC0B288700A2810D98B702B48BC
:10857000A10020380F1828467968FCF731FD00D299
:108580007D68641C0A2CF2DB0398056042E03370BE
:1085900005B0F0BDD07B00280AD0107C002839D06F
:1085A000002000900190107B002805D0401E04E0C0
:1085B0000120D0733070EBE70920C0B20027029091
:1085C0000298C01B00D509300006810D13482038E1
:1085D0000C1828466168FCF703FD00D265686168E5
:1085E0000098FCF7F3FC01D2606800906168019884
:1085F000FCF7B9F97F1CFFB20190052FE0D3009979
:10860000FCF702FA2946FCF7FFF90649FCF741FAA4
:10861000039908600120CDE70000A0403C2700201E
:10862000482000200000404010B528210148FCF7F8
:1086300078F910BD982F0020032806D3012189075F
:108640008B680122824093438B607047032806D3D6
:10865000012189078B680122824013438B60704798
:1086600001480068704700001010FF1F01229207A8
:108670001368012181408B43136010680843106028
:10868000704700007CB5274C6A4660751070022068
:108690005080012090800021132002F0DDFF012195
:1086A000132003F005F80021052002F0D5FF012179
:1086B000052002F0FDFF34211B48FCF732F91A486F
:1086C000042620304673FFF77BFB01990098FFF7E3
:1086D00089FA607D6A461070F001508045109580DF
:1086E00008F00CF80199009807F032FF7D22D200C3
:1086F0002946607DFCF7CCFD6A46568001990098BA
:1087000004F03AFB00F0A0FD00221146272003F000
:108710008DFA04F0C7F8E07406F020FBFDF73CFA90
:108720007CBD0000F41F00201C270020F0B587B09E
:108730000C460804FE4F09D5787DFCF7FDFD0028A6
:1087400001D0FCF7FFFD0120C003BCE2A00400251E
:10875000002816DAFEF714FB0126760305280AD056
:10876000684605706A460121F248FDF76DFE204615
:10877000704007B0F0BD05223146787DFCF788FDDA
:10878000F5E7A00603D504F0C5FE20209BE2E848EB
:108790006105007823D500281ED0E748017800291C
:1087A00011D0F9694900090E0DD00570E348057034
:1087B000E348417A002903D00120FFF75FFC02E083
:1087C000C08A08F08BFC387D401CC0B23875142874
:1087D00002D13D7501F018FA0120800273E2E10731
:1087E0000126002902D0FFF7F7FAC0E7A10778D5E4
:1087F000FFF7DAFA0390FFF7DDFA0290787A0028A3
:1088000012D0032810D00298FCF75CFBCD4ACE4B67
:10881000FCF73CFAFCF7BEFB0246762000210090F4
:108820000223084600F02FFCC1480178C748049095
:1088300007460D3F002979D014210398FCF71CFD51
:10884000694608750298FCF73DFBBE4ABE4BFCF733
:108850001DFAFCF79FFB009069460D7101A968465F
:10886000FFF758FE69460879002803D005A8049A46
:1088700006F0D2FEAE4E0098F061B1497A7B8A7064
:10888000B3490978002903D069460979002912D033
:10889000B04988420EDCB87B401CC0B2B8730128D6
:1088A00009D93078002806D0ABA005F08DFCFDF783
:1088B0000BF900E0BD737079022813D0012816D09F
:1088C000A2492D390D70002801D007F085FB787B77
:1088D000FFF786FA974A0121DD32707DFCF7D8FC5C
:1088E000DDE0F1E00420964978738870F0E7F079D4
:1088F000002813D1954D2D3D2878002804D1787B90
:10890000002801D0401E28702878411C2970FFF7EC
:1089100067FA2878042800D900202870854A0121A8
:10892000DD32707DFCF7B4FCD4E7FFE78048407986
:10893000022807D0012843D084482D380178002927
:108940007ED092E07A48407800281ED1062002F0BE
:10895000CBFE002819D006F0B7F9002004F006FC81
:10896000734D01216E70152002F002FF0420FFF705
:1089700037FA7348797B81700121687DFCF78EFCA2
:108980006C4A687DDD3201210DE0062002F0ACFE6C
:10899000002803D0664EB078002807D0654A6448A6
:1089A000DD320121407DFCF77FFC68E067482D380F
:1089B0000178002900D1057004F076FD75705AE049
:1089C0005B48407800280DD106F07EF9002004F0C5
:1089D000CDFB574801214670152002F0C9FE5B48C7
:1089E0002D38057014210398FCF746FC694608757C
:1089F0000298FCF767FA534A534BFCF747F9FCF728
:108A0000C9FA009069460D7101A96846FFF782FD19
:108A100069460879002804D005A8049A06F0FCFDF0
:108A2000B874B87C632801D96320B874474D2D3DD4
:108A30002878002806D1787B002803D0401E00E06B
:108A400012E028702878411C2970FFF7C9F92878AE
:108A5000042800D900202870364A3548DD3201212B
:108A6000407DFCF715FC0AE0057004F01DFD304E5A
:108A7000757007F0B1FA0121707DFCF70FFC2C48EE
:108A8000407901280BD10C2002F02EFE002806D0E0
:108A90000B2002F029FE002801D106F033FE0B2046
:108AA00002F022FE00280DD0214D6879002809D05F
:108AB00007F092FA2878002804D164220121687D09
:108AC000FCF7E6FB0220FEE019494979002902D0B3
:108AD000012913D020E00B2002F006FE00281BD154
:108AE000134F01217E71787DFCF7D8FB64220121B0
:108AF000787DFCF7CDFB07F01BFA0DE000280BD0CA
:108B00000C2002F0F1FD002806D00B2002F0ECFD55
:108B1000002801D106F0F6FD0B2002F0E5FD00284B
:108B20002ED0034F787900282AD007F055FA1FE09D
:108B3000F41F0020050300007C2000207E20002080
:108B40005C270020FCA9F1D24D62503F492700204C
:108B5000482000203333534020200A205F5F657691
:108B6000656E74206F66665F5F200A20200000003B
:108B70003878002804D164220121787DFCF788FB35
:108B8000600703D5FDF7B8F804209CE0E00617D590
:108B90004F4D287800280FD0FEF7F2F805280DD0A9
:108BA000A879FF227040A871F5321021687DFCF78A
:108BB0006FFBA87907F0F6FE102084E0AE71F8E7AD
:108BC000E00514D507F0AEFD4148FF25C179013518
:108BD000002901D03F4A03E00178002904D03E4A31
:108BE0002946407DFCF754FB20466840C1E5A005BE
:108BF0005CD507F07DFD07463548407A002809D04E
:108C0000032807D03D20009001233A46062150203A
:108C100000F039FA2E490878002844D02F488742BE
:108C200002DDFCF751FF3EE02D4A2E48974211DD50
:108C30000F46C979002906D1FE712B490160072032
:108C40002A49FCF75FFD387A002801D03D7224E004
:108C50003E7225E0264A974218DACA79002A22D0C5
:108C60000F46CD717F21C9050160387A002803D0F5
:108C70003D72002008F052F91C48FD718078FFF722
:108C8000AFF807201949FCF73DFD0CE0C879002832
:108C900009D0087A002802D00D72002001E00E727F
:108CA000012008F03BF9012040020CE0E00404D56B
:108CB000FCF7DEFE0120000305E0600405D5FCF7AB
:108CC0008DFD01208003604053E5002051E5000048
:108CD000F41F0020F3030000DD07000000008442C1
:108CE0000000704258200020CDCC4C3F5C27002073
:108CF0000000504210B504460D48407A002813D0B9
:108D0000FCF7C5F80B49FBF787FE0B49FBF7C1FEE3
:108D10000A49FBF728FE0A49FBF77EFE2146FBF7CE
:108D20007BFEFCF7DDF880B206F02AFD10BD0000E6
:108D30005C2700200000C04200401C460AD7233DAB
:108D40000000484410B5134C0A20E17E41437D20C9
:108D5000C000FCF791FA1049487010488078C007AD
:108D600003D0607E02280AD00BE0A07F00280948CB
:108D700002D008F083F910BD07F0C2FE10BDFFF766
:108D80004FFBA07F002802D007F0EEFC10BD07F0DB
:108D9000E3FC10BD5C27002048200020B427002001
:108DA00010B50E48422101710D4941610D498161A3
:108DB00000210D4A4180D37E0C4C5B005B1E03807A
:108DC000937EC3800172094BC3600123E41E2370AC
:108DD00053770177FFF7B6FF10BD0000B4270020DE
:108DE000458DFF1FF18DFF1F5C2700204B200020C9
:108DF00010B500F0C7F810BD70B51C4C0025214619
:108E0000658020311A4804F0BBFE432020711948C8
:108E100060611948A0612572154D7D21E87EC90069
:108E200048430A21FCF728FA401E2080A87EE080F3
:108E300012481249E0600120091F08706877207706
:108E400020460A212A30FBF76CFD204620300146DF
:108E500002880A310A8042884A8082888A80C288D1
:108E6000CA800089088100F00BF870BDB42700208B
:108E70005C270020818EFF1F858FFF1F4C20002064
:108E800070B539490120394E487035882846FCF7BD
:108E900019F802460B4636483649FBF75FFFFCF7E8
:108EA00079F80446690870887F25ED05884211D855
:108EB000FBF7EDFF2146FBF7AFFDFCF743F82E4A29
:108EC0002E4BFBF731FEFCF765F80446A8420BDD9C
:108ED0002C4609E0401AFBF7CFFF2146FBF79CFD2B
:108EE0002946FBF795FD04462548204D807F2A350D
:108EF000002821D02888FBF7CAFF2146FBF78CFD0C
:108F0000FBF7EEFF80B206F037FD6888FBF7BFFF86
:108F10002146FBF781FDFBF7E3FF80B206F066FC1C
:108F2000A888FBF7B4FF2146FBF776FDFBF7D8FFD7
:108F300080B206F00FFC70BDE888FBF7A8FF214661
:108F4000FBF76AFDFBF7CCFF80B206F019FC28891D
:108F5000FBF79DFF2146FBF75FFDFBF7C1FF80B2EA
:108F600006F026FD70BD000048200020B427002038
:108F7000666666666666FE3FA09999999999A93FCB
:108F80005C27002010B5124CA07F002809D00020DB
:108F900006F0F2FC002006F029FC002006F0DAFBC7
:108FA00005E0002006F0ECFB002006F001FD07F0D4
:108FB00031F8084900200870074908724880607736
:108FC00020710348E17F2030017404F0C5FB10BD1F
:108FD0005C27002048200020B427002070B5486896
:108FE000002501784078000208181C4980B2441A14
:108FF000884223D009DC1A49441811D0012C12D020
:10900000022C15D0032C08D115E0012C19D0022C0C
:109010001AD0032C1BD0292C1CD00A25284670BD41
:109020001946002001E01946062007F057F8F5E739
:1090300019460720F9E719460820F6E719460920DE
:10904000F3E719460A20F0E719460B20EDE7194629
:109050000C20EAE719460D20E7E70000272A000068
:10906000DDD5FFFF064801694907FCD50021816075
:10907000034A0421803A117001694907FCD5704701
:109080008000081170477047FEB50446007800283C
:109090000FD003280CD157A005F096F81F2004F03C
:1090A00065F8A078FEF79CFE0121152002F060FB18
:1090B000FEBD04F0ADFDA078FEF792FE5348544982
:1090C00000261023009102901A46019603210A20DF
:1090D00003F065FFE08A08F001F84E4D1723812266
:1090E00019460B20009503F0E5FE1823812219464E
:1090F0000F20009503F0DEFE19238122194613206C
:10910000009503F0D7FE44A0454D009000232A4669
:109110001C210A2003F074FE42A0009000232A467E
:109120002C210A2003F06CFE3848102320380290CE
:109130001A462C21019600951A2003F030FF3AA020
:10914000009000232A462C21272003F059FE37A047
:10915000009000232A463C210A2003F051FE35A04E
:10916000009000232A464C210A2003F049FE33A038
:10917000009000232A465C210A2003F041FE31A022
:10918000009000232A465C212B2003F039FE1F208B
:10919000C002012500908323292270210195092016
:1091A00003F048FF3F2040010090832353227021A9
:1091B0000195332003F03EFF1F20009083237D2282
:1091C000702101955D2003F035FF607A00280CD0F6
:1091D000204607F00DFD0121204607F0A1FE2046A4
:1091E00007F0DEFF204607F0F5FF204607F0DCFB26
:1091F0005AE700000A2073797374656D206F666604
:10920000204368617267696E670A0000651A002072
:1092100089BF0000E0FF00004C6576656C0000002F
:109220009E4E000054650000702E0000436F6C6F6E
:10923000720000005363656E650000005374726F26
:10924000000000006265000010B515480221C170E1
:109250000021FF2201716932C2807F22D205426261
:109260000170052242726424047203464170012297
:1092700020331A742B238372C17201734173042348
:1092800083708473074B0362C273FF2303744282AB
:10929000017642768376C17601774177817710BD7A
:1092A0005C270020CDCCCC3D064801694907FCD5A0
:1092B00000218160034A0621803A11700169490743
:1092C000FCD570478000081170B5104C0125257041
:1092D0000020607104F0F8F865700121122002F09E
:1092E000BBF90121122002F043FA7D22D2002902AB
:1092F000607DFBF7CDFF64220821607DFBF7C8FF8E
:1093000003A202211420FDF7F5FD70BDF41F00201B
:10931000523A00007CB5294E69463046FCF758FFAA
:10932000684600780125002806D1684605706A461F
:1093300001213046FDF788F8214C01A925703046FF
:10934000FCF746FF68460079002806D1684605719B
:1093500001AA01213046FDF777F8257000266671D5
:1093600004F0B2F865700121122002F075F90121B4
:10937000122002F0FDF97D22FF21D2000131607D33
:10938000FBF786FF64220821607DFBF781FFFEF773
:1093900023FDE07C002804D066720A4807F0C2FA78
:1093A0007CBD07F057FFE27A02216420FDF7A0FDA3
:1093B000227B04216420FDF79BFD7CBD050300009A
:1093C000F41F00205C27002010B5064A01235172CB
:1093D0009072D370002111710F201146FCF792F9A1
:1093E00010BD00005C27002010B5074A5172D080E4
:1093F000642010720220D0700021117137201146B4
:10940000FCF780F910BD00005C270020F0B5FD4D91
:10941000FD4FE8688DB00078787068880026411CA0
:1094200069802988884200D36E80F848F649407ADE
:10943000CC6800280CD0FBF72AFDF549FBF7ECFAC5
:10944000F449FBF726FBF449FBF78DFA206100E0B5
:1094500026616888F14D152848D8C6B22069FBF707
:1094600071FD0746029130460191FBF72BFD064640
:10947000EB4AEC4B0091FBF709FCEB4AEB4BFBF79B
:1094800053FB3A46019BFBF701FC00222B46FBF7FE
:10949000FDFBFBF739FDA0803D463046E44AE54B35
:1094A000029F0099FBF7F2FBDD4AE34BFBF73CFB25
:1094B0002A463B46FBF7EAFB0022D84BFBF7E6FBCC
:1094C000FBF722FDE080204607F042FECE48C06850
:1094D0000069FBF737FD0D4604463046D74AD84BA6
:1094E0000099FBF7D3FBD74AD74B86E11A282ED831
:1094F0002069FBF727FD0F460646D44AD44BFBF7FD
:10950000C5FB00222B46FBF7C1FBFBF7FDFCA0804F
:1095100030463946CF4AD04BFBF7B8FB00222B46EA
:10952000FBF7B4FBFBF7F0FCE08030463946CB4A52
:10953000CB4BFBF7ABFB00222B46FBF7A7FBFBF764
:10954000E3FC2081204607F0B1FA0DB0F0BD2528DC
:109550007ED81A38C0B200902069FBF7F3FC0A905D
:109560000B910098FBF7AEFCAD4ABE4B0591049001
:10957000FBF78CFBB34A009101905242BA4B029127
:109580000390FBF7D1FA0B9B0A9AFBF77FFB0022B3
:10959000A24BFBF77BFBFBF7B7FCA080B34AB44BB5
:1095A00002990398FBF7E2FC19D2FA68029210695B
:1095B000FBF7C8FC0D460446AC4AAD4B0099019838
:1095C000FBF75CFB22462B46FBF760FB0022934B2C
:1095D000FBF75CFBFBF798FC029AD08001E0F8688F
:1095E000C680A24AA34B00990198FBF7BFFC17D293
:1095F000FE683069FBF7A6FC04460D469B4A9D4B6E
:1096000000990198FBF73AFB22462B46FBF73EFBFD
:109610000022824BFBF73AFBFBF776FC308101E03E
:10962000F8680681F86807F093FDF8680069FBF7B1
:1096300089FC04460D46904A904B05990498FBF727
:1096400025FB22462B46FBF721FB0022734B00E053
:1096500007E0FBF71BFBFBF757FC80B206F0A8F90D
:1096600073E7352860D82538C0B200902069FBF731
:1096700069FC069007910098FBF724FC009101908B
:10968000674A784B02910390FBF700FB7C4A7D4BC5
:10969000FBF74AFA079B069AFBF7F8FA00225F4BA2
:1096A000FBF7F4FAFBF730FCA080774A774B02997E
:1096B0000398FBF7EBFA654A754B04910390FBF7AF
:1096C00055FC19D2F96802910869FBF73BFC0D467D
:1096D00004465E4A6E4B04990398FBF7CFFA224684
:1096E0002B46FBF7D3FA00224C4BFBF7CFFAFBF7E4
:1096F0000BFC0299C88001E0F868C680F96808464A
:109700000E8107F025FDF8680069FBF71BFC044695
:109710000D46604A604B00990198FBF7B7FA5F4A23
:109720005F4BFBF701FA8CE73A281BD8372897D80C
:109730002069FBF707FC3C4A3C4BFBF7A7FA0022E9
:109740002B46FBF7A3FAFBF7DFFBA080E680268120
:10975000204607F0FDFCF8680069FBF7F3FB4F4A71
:109760004F4BD0E045284BD83A38C0B20090206922
:10977000FBF7E8FB0746059104910098FBF7A2FB75
:109780002E4A484B03910290FBF780FA464A474B1A
:1097900001910090FBF7C8F93A46049BFBF776FA73
:1097A00000221E4BFBF772FAFBF7AEFBA0803D4692
:1097B0001B4A1C4B059F01990098FBF7B5F92A46F7
:1097C0003B46FBF763FA0022144BFBF75FFAFBF70B
:1097D0009BFBE0802681204607F0BAFC0A48C0685F
:1097E0000069FBF7AFFB0D4604462A4A2A4B039952
:1097F0000298FBF74BFA294A294BFBF73FFA20E77F
:1098000056E00000B4270020482000205C270020FC
:109810000000B64200401C46EC51B83D00008940B3
:109820007B14AE47E17A843FAE47E17A14AEE33F62
:1098300092CB7F48BF7D6D3FE17AA43FFA7E6ABC40
:109840007493583F0AD7A3703D0AA73F9A999999F4
:109850009999C93F333333333333B33F54E3A59B33
:10986000C420B03FE17A743FC2F5D83F295C8FC273
:10987000F528BC3FF528AC3FFCA9F1D24D62703F02
:109880003D0AD7A3703DE23F462575029A086B3F1B
:109890009999A93FF168E388B5F8343F1A2FDD2480
:1098A0000681A53F7493683F8FC2F5285C8FE23F25
:1098B000502800D949E6462812D82069FBF742FB18
:1098C000134A144BFBF7E2F900222B46FBF7DEF9B3
:1098D000FBF71AFBA080E6802681204607F0E6F819
:1098E000F8680069FBF72EFB04460E460098FBF76C
:1098F000E9FA094A094BFBF7C9F9094A094BFBF791
:10990000BDF922463346FBF7C1F900222B469EE6FD
:10991000A4703D0AD7A3E03FC7BAB88D06F0463F12
:109920001A2FDD240681A53F70B5164DFF22EC6885
:10993000693260890021401C80B26081904200D36E
:1099400061817F20C005E0600F48407A00280CD07C
:10995000FBF79DFA0D49FBF75FF80D49FBF799F806
:109960000C49FBF700F8206100E02161204602F07D
:109970001BFDE86807F09AF80748C068007868702F
:1099800070BD0000482000205C2700200000B64287
:1099900000401C46EC51B83DB42700200E4910B5DC
:1099A000884201D90A2010BD0C49884201D20C48D6
:1099B0000EE00C49884201D20B4809E00B4988426D
:1099C00001D20B4804E00449C91C884202D209486C
:1099D00000F062F8002010BDFC3F0000FF0F000007
:1099E00000500011FF1F000000600011FF2F000059
:1099F00000700011008000110449884202D9002043
:109A0000C04370470249401800687047FC3F00009F
:109A100000500011F0B504461E480E46844204D89A
:109A2000A119814201D8A00701D00A20F0BD00236E
:109A3000B7080CE09D002819FFF7DEFF5055010A1A
:109A4000AD186970010C000EA970E8705B1C9F4294
:109A5000F0D89B00F01A032804D002280CD001286B
:109A600012D015E01819FFF7C7FFD054040A99184F
:109A70004C70000C88700BE01819FFF7BDFFD05434
:109A8000000A9918487003E01819FFF7B5FFD05481
:109A90000020F0BDFC3F000003460002012100B59C
:109AA000000A490388421BD3FEF7EAFC0028FBD1D9
:109AB000FFF7FAFB0B490020886019021804090E11
:109AC0000843FF2109020B40184306490002803970
:109AD00020300860FEF7D4FC0028FBD1FFF7C2FA63
:109AE00000BD0000800008110B4A08B5904201D863
:109AF000820701D00A2008BD009105210903401802
:109B00000002000A04226946FDF7F6F9002801D098
:109B1000002008BD012008BDFC3F0000F7B5054648
:109B20001E4882B01646854205D8039969188142BD
:109B300001D8A80702D00A2005B0F0BD0398002480
:109B4000800800900CE0A700B819401CFAF701FF4C
:109B50000102F05D01437819FFF7C6FF0098641C0D
:109B6000A042F0D80398A400001B032804D00228C8
:109B700008D001280CD00FE0A019FAF7EAFE010284
:109B8000090A06E0A019417800780902014300E0C3
:109B9000315D6019FFF7A8FF0020CDE7FC3F000012
:109BA00038B504466846047069460320ABBE2046BB
:109BB00038BD000010B5002823D0124B0022001F32
:109BC000196803E0814203D80A4649680029F9D19F
:109BD000002A0AD01368841A9C4204D1006818181D
:109BE0001060104602E0506000E01860002907D0C5
:109BF00002680B1A934203D10B68D21802604968BD
:109C0000416010BD64260020F8B52C4E0625307842
:109C100000284ED100F02AFF04460A21B078FBF755
:109C20002BFB880026490C50B078401CC0B2B070A5
:109C300000270A2800D3B77000F024FF002838D08E
:109C40002048407A002834D00A21B078FBF714FB72
:109C500009292ED10A211A4804F084F80090B4880A
:109C60000020FEF70BFA184A009991420DDC1549C5
:109C7000497A232909D3A04207D9011B062901DD0E
:109C8000082502E0032900DD0725002812D08442C0
:109C900010D8F088401C80B2F080A84209D3F78029
:109CA000002C02D0641EB48000E0B780B08807F0BA
:109CB00015FAF8BD8442FCD9F780F8BD7C2000205D
:109CC0008C2800205C27002000C0734570B50A4D29
:109CD000064600240E206043401906223146FBF759
:109CE00013FB002801D0204670BD641CE4B20A2C8E
:109CF000F0D30A2070BD0000D23000207FB50D46A1
:109D00000A280CD2002D0AD0062148432030C0B2C8
:109D10006A460E2104F00CF9040003D007E002208B
:109D200004B070BD062269462846FBF7E7FA2046D4
:109D3000F6E700218A00835A491CDB43835212183C
:109D40009378C9B2DB4393700429F3D370470000C2
:109D5000F8B5074600200090784CB97805460726EC
:109D60006079A2790B00FBF78DFA0805DD1A36360B
:109D70005E98C1DD787800285AD170480622F91C17
:109D80003C30FBF7BBFA0120A0716C4B014642331B
:109D900062786079FBF7F4FA002849D1C5E0797858
:109DA000002945D1F978002906D0654BA278002119
:109DB000FBF7E6FA78700AE0022A0BD00121FBF7E4
:109DC00079FA002803D101216079FBF7D3FA78787A
:109DD00000282DD1F8BD7B78002B29D1032909D08B
:109DE000A289002A0CD0217800290AD00121FBF792
:109DF0004FFA06E0052A01D0022012E0062010E00A
:109E00002570A079062802D0042802D008E0052099
:109E100007E00120207001466079FBF7ABFA84E08F
:109E20000320A07181E07878002803D0312832D057
:109E3000A6717AE041480622391D3630FBF75EFAFA
:109E40007889E081B8892082F88960820520A07134
:109E5000A28A002A03D002216079FBF719FAB88997
:109E6000E083F8892084388A6084E07801280AD168
:109E70001F20FBF755FA7D21C90048430246042103
:109E80006079FBF705FA7A89F8780423391DFCF725
:109E9000A5F8257049E02570C2E728480622002170
:109EA0003630FBF70DFAE58325846584042160795B
:109EB000FBF7F4F908216079FBF7F0F9B879082885
:109EC00008D00320A0712078002805D06079FBF726
