:020000041FFFDC
:1008000000000000E9D8FF1F000C0020340C00207D
:100810006018002000000000000000000000000040
:1008200000000000000000000000000000000000C8
:1008300000000000000000000000000000000000B8
:1008400000000000000000000000000000000000A8
:100850000000000000000000000000000000000098
:100860000000000000000000000000000000000088
:100870000000000000000000000000000000000078
:100880000000000000000000000000000000000068
:100890000000000000000000000000000000000058
:1008A0000000000000000000000000000000000048
:1008B0000000000000000000000000000000000038
:1008C0000000000000000000000000000000000028
:1008D0000000000000000000000000000000000018
:1008E0000000000000000000000000000000000008
:1008F00000000000000000000000000000000000F8
:1009000000000000000000000000000000000000E7
:1009100000000000000000000000000000000000D7
:1009200000000000000000000000000000000000C7
:1009300000000000000000000000000000000000B7
:1009400000000000000000000000000000000000A7
:100950000000000000000000000000000000000097
:100960000000000000000000000000000000000087
:100970000000000000000000000000000000000077
:100980000000000000000000000000000000000067
:1009900049B7FF1FDDB7FF1F25ECFF1F0000000058
:1009A0000000000000000000000000000000000047
:1009B0000000000000000000000000000000000037
:1009C0000000000000000000000000000000000027
:1009D0000000000000000000000000000000000017
:1009E0000000000000000000000000000000000007
:1009F00000000000000000000000000000000000F7
:100A000000000000000000000000000000000000E6
:100A100000000000000000000000000000000000D6
:100A200000000000000000000000000000000000C6
:100A300000000000000000000000000000000000B6
:100A400000000000000000000000000000000000A6
:100A50000000000000000000000000000000000096
:100A60000000000000000000000000000000000086
:100A70000000000000000000000000000000000076
:100A80000000000000000000000000000000000066
:100A90000000000000000000000000000000000056
:100AA0000000000000000000000000000000000046
:100AB0000000000000000000000000000000000036
:100AC0000000000000000000000000000000000026
:100AD0000000000000000000000000000000000016
:100AE0000000000000000000000000000000000006
:100AF00000000000000000000000000000000000F6
:100B000000000000000000000000000000000000E5
:100B100000000000000000000000000000000000D5
:100B200000000000000000000000000000000000C5
:100B300000000000000000000000000000000000B5
:100B400000000000000000000000000000000000A5
:100B50000000000000000000000000000000000095
:100B60000000000000000000000000000000000085
:100B700011BEFF1F00000000000000000000000088
:100B80000000000000000000000000000000000065
:100B90000000000000000000000000000000000055
:100BA000000000000000000000000000A5AAFF1FD8
:100BB000000000000000000035AAFF1F6DAAFF1F03
:100BC0001DAAFF1F00000000000000000000000040
:100BD0000000000000000000000000000000000015
:100BE0000000000000000000000000000000000005
:100BF0000000000051A9FF1F0000000000000000DD
:0C0C000001FF01FF01FF01FF41000000A7
:020000041FFFDC
:10480000185A0020D548FF1FDD48FF1FDF48FF1F53
:104810000000000000000000000000000000000098
:10482000000000000000000000000000E148FF1F41
:104830000000000000000000E348FF1FE548FF1FE4
:104840000000000000000000000000000000000068
:104850000000000000000000000000000000000058
:104860000000000000000000000000000000000048
:104870000000000000000000000000000000000038
:104880000000000000000000000000000000000028
:104890000000000000000000000000000000000018
:1048A0000000000000000000000000000000000008
:1048B00000000000000000000000000000000000F8
:1048C0000348854600F09AFC0048004715D7FF1FB3
:1048D000185A00200448804704480047FEE7FEE7D6
:1048E000FEE7FEE7FEE7FEE7D970FF1FC148FF1FA6
:1048F00003460B439B0703D009E008C9121F08C0F9
:10490000042AFAD203E00B780370401C491C521EA3
:10491000F9D27047D2B201E00270401C491EFBD2AE
:1049200070470022F6E710B513460A4604461946BA
:10493000FFF7F0FF204610BD30B5044600200346C7
:1049400000E05B1C934203D2E05CCD5C401BF8D0DE
:1049500030BD0321001D401E037812021A43491E78
:10496000F9D510467047F8B502464A40D40F4200C8
:104970004B0052085B089A4202D202460846114692
:104980004A0023D0C30D4A00DDB2120EAD1A202D0D
:1049900035DA49020126490AF6058A19002C00D0A9
:1049A000524220214F1B1146B9402A411018C20D16
:1049B0009A4221D0002C17D0012D08DCDA05801A8C
:1049C000D20F8019D207DBB200F080FBF8BDDA0508
:1049D000801A012340001B06C01880185A42801814
:1049E000CA0F1043490007E04908C2071143DA051E
:1049F000801A80194008801800F060FBF8BD610043
:104A00000122511A001BF7E70122D2075140AAE701
:104A10000122D2075040A6E7024670B54A40D30FA4
:104A2000DB0740002DD04A002AD0010E140E0002F0
:104A300012020919400A520A8418E5010446544337
:104A4000000A120A2E045043A4194219200CC5432F
:104A5000AA18120C0125AD03521C521912047F39F9
:104A6000240400D0521C104301D44000491EC2B29D
:104A70000C06C0092018401C4008802A02D003E020
:104A8000002070BD40084000002900DA00201843D3
:104A900070BD70B502464A40D50F40004A00ED0790
:104AA00040085208002814D0002A12D0C40DD30D9B
:104AB00041020120C0055202490A520AE41A0918AB
:104AC00012187D34914201D3641C00E04900002C8F
:104AD00001DA002070BD0023914201D3891A0343FB
:104AE000400849000028F7D100290AD0914202D19C
:104AF0000121C90705E0914201D2012101E0012114
:104B0000C943E005C018401900F0D8FA70BD420052
:104B100005D04200120E52428A4201DB002070474B
:104B2000C905081870470000F0B507460846584008
:104B300087B0C00F049048000E465900400849084D
:104B4000BC1A884105D2384631461E4617460B46E8
:104B500002465800400810434CD0300D03904005E9
:104B60005900400D490D0590401A0290402872DA14
:104B700018030121000B09050843019004980092D5
:104B8000002805D0019952420020884100920190EE
:104B9000029840210A1A0199009800F05BFA054634
:104BA0000C466B4607CB00F076FAC0197141039AA8
:104BB0000E0D0023D71756401A467A40164344D0AC
:104BC000049A002A2DD0029A012A039A15DC1205B4
:104BD000C01A914101263605001C7141D20F059E75
:104BE000D2070093019202962A46234600F0B4FAB7
:104BF00007B0F0BD38463146FAE71605224A0F469F
:104C0000B218C01AB74101210905001C4F41001814
:104C10007F41114618187941E20F10436D19644124
:104C200013E0E2076D0815436408C2071443039AB2
:104C300001261205C01A91413605001C7141CE07AC
:104C4000400830434908C01851412A46234600F025
:104C500076FACDE7FFE7049801224000C117121A47
:104C600000238B4104983146C417381AA141EEE75E
:104C700030B40124E407634030BC55E730B401246C
:104C8000E407614030BC4FE70000E0FFF0B51FB41F
:104C900088B00B990998002448400999C00F490031
:104CA00049080991C0070B990090490049080B91E8
:104CB00009990898A64608431CD00B990A980843FE
:104CC00018D0099801244000420D4800410D099870
:104CD00024050003000B204309900B980003000BF0
:104CE00020430B9050181C49401800220190144694
:104CF000104605E0002001460DB0F0BD032801DAA2
:104D0000034600E003239C46C11A0AAE0AE05F0096
:104D100008ADED5B4F00F75B7D430027AA187C418F
:104D2000491C5B1E6145F2DD410004AB5A5221046F
:104D3000120C0A43240C401C0828DFDB0198029067
:104D40000099704601910090059B049A0799069876
:104D500000F002FAD0E700000DFCFFFFF0B50C46B2
:104D60005C4085B0E40FE40703944C00002664081F
:104D700059009446490802460296224321D06246D1
:104D80000A431ED06200570D4A000E032303550D3F
:104D9000012402462C492405781B1B0B360B4018B6
:104DA00023432643614600901C46501AB44103D366
:104DB0000098401C009002E0921800985B41002887
:104DC00003DA0020014605B0F0BD002001210905ED
:104DD0000746864611E064461D46141BB54106D3BE
:104DE0006546521BB341744607430C43A646CD07A4
:104DF00040084908284392185B4105460D43EAD113
:104E00001046184313D0604619465040714008437D
:104E100006D06046101AB34106D20122002306E0F4
:104E200000220123DB0702E00122D2435310009845
:104E300074460105381C6141029C039D00196941BB
:104E400000F07DF9BFE70000FD03000070B54B00E6
:104E50005B0803430BD04B005C0D002633466542D4
:104E6000B341D417AD1AA34102DB0020014670BD47
:104E700012053018514170BDC217C10F504010B516
:104E80004018CA079623002100F020F910BD10B584
:104E900000229623114600F019F910BD0EB5C21775
:104EA000C10F5040CA0740180021054B02930192E0
:104EB00000910A460B4600F04FF903B000BD000018
:104EC000330400000EB505490291002100910A4605
:104ED0000B46019100F040F903B000BD330400001F
:104EE000410040020122400AD205090E80187F29A4
:104EF00001DA00207047962903DC9622511AC84037
:104F000070479639884070474A0009030123090B0E
:104F10001B051943094B10B5520D9A4201DA0020C6
:104F200010BD064B34339A4203DC9A1A00F0A2F803
:104F300010BD03495118884010BD0000FF03000058
:104F4000CDFBFFFFC20FD207400040080BD0C10DC0
:104F50000723DB01C91840020905400A1143C208B2
:104F600040071143704700200146704710B50029E3
:104F700004DB0124E40740428C412146002B04DB82
:104F80001C460123DB075242A3418B4200D18242DF
:104F900010BD0000CB0FDB07490010B549080246E1
:104FA0000A4307D00A0D07240903E401090B121B69
:104FB000002A01DC002010BDC900440F0C43C100D1
:104FC000E018D205801800F079F810BD0122D20750
:104FD000002800DB101A002900DB511A81427047BB
:104FE0000122D207002800DB101A002900DB511A29
:104FF00088427047F0B51FB40646002082B00546CF
:105000004024019100901BE0019922460F46304652
:1050100000F030F8049A059B801A994110D310468D
:105020001946224600F016F8361A8F41019722469B
:1050300001200021009F00F00DF838184D4100902C
:105040002046641E0028DFDC019B0098294632467A
:1050500007B0F0BD10B5202A04DB0146203A91408C
:10506000002010BD914020239C1A0346E3401943C1
:10507000904010BD10B5202A04DB0846203AD040ED
:10508000002110BD0B46D340D0402024A21A9140ED
:105090000843194610BD10B5202A06DBCB17084679
:1050A000203A1041C1170B4306E00B461341D04094
:1050B0002024A21A91400843194610BD002904DAA1
:1050C000401C490001D140084000704770B40024E2
:1050D000050C05D11024000402D1002921D011248F
:1050E000050E01D100020834050F01D10001241D75
:1050F000850F01D18000A41C002801DB4000641C46
:10510000002908D020252E1B0D46F540A14000D0D7
:1051100001212943084301061B1B000ADB1D02D5A0
:10512000002070BC7047DB05181880180029F8DAD9
:10513000401C4900F5D170BC40084000704710B5D4
:10514000002B08DA0024401C614192185B411A438D
:1051500001D14008400010BDF0B51FB482B0054633
:105160000C0003D0084602F049F802E002F046F8CD
:1051700020300246009021462846FFF76BFF049B33
:10518000059A04460F4618431143084314D01846A5
:1051900010431BD0009840210A1A18460599FFF7C2
:1051A00069FF05460E46009A05990498FFF752FFDD
:1051B000084305D0012004E02046394607B0F0BD81
:1051C0000020C11705430E432C43374300990E9826
:1051D0006305401A7905E40A00220C43FD0A0A30EF
:1051E00002D500200146E9E70105101969410C9C30
:1051F0000D9D00196941FFF7A2FFDFE7064C01256D
:10520000064E05E0E36807CC2B430C3C984710346E
:10521000B442F7D3FFF758FB1018002060180020A5
:1052200070B58C180578401C6B075B0F01D10378B3
:10523000401C2A1106D10278401C03E006780E704B
:10524000401C491C5B1EF9D12B0705D40023521EBC
:105250000DD40B70491CFAE70378401CCB1A921C42
:1052600003E01D780D70491C5B1C521EF9D5A1424C
:10527000D8D3002070BD000003B40148019001BDE7
:105280006902000003B40148019001BD7181000072
:1052900003B40148019001BDB142010003B40148CB
:1052A000019001BDD542010003B40148019001BD48
:1052B000593A010003B40148019001BDED3C0100E1
:1052C00003B40148019001BD1910000003B4014866
:1052D000019001BDC93A010003B40148019001BD2C
:1052E0005518000003B40148019001BD811700006A
:1052F00003B40148019001BDC13C010003B4014861
:10530000019001BDA53C010003B40148019001BD1D
:105310003917000003B40148019001BD39140000A1
:1053200003B40148019001BD1117000003B4014806
:10533000019001BDF13E010003B40148019001BD9F
:105340001B3D010003B40148019001BD7114000030
:1053500003B40148019001BDC131000003B401480C
:10536000019001BDC912000003B40148019001BDC4
:105370003D42010003B40148019001BD5D190000E8
:1053800003B40148019001BD3518000003B4014881
:10539000019001BDC118000003B40148019001BD96
:1053A0003515000003B40148019001BD411700000C
:1053B00003B40148019001BDE915000003B40148A0
:1053C000019001BD897B000003B40148019001BD3B
:1053D000D520000003B40148019001BDA5E50000FF
:1053E00003B40148019001BDC91F000003B4014886
:1053F000019001BDB51E000003B40148019001BD3C
:105400003D1C000003B40148019001BD0D1D0000CA
:1054100003B40148019001BD8306000003B40148B4
:10542000019001BD0143010003B40148019001BD99
:10543000E120000003B40148019001BDED3A0100F4
:1054400003B40148019001BDF53C010003B40148DB
:10545000019001BD5D3F010003B40148019001BD11
:10546000DD21000003B40148019001BD517100002D
:1054700003B40148019001BD9D19010003B4014826
:10548000019001BD3921010003B40148019001BD23
:105490008D44010003B40148019001BD5590000006
:1054A00003B40148019001BD7D3A010003B40148F5
:1054B000019001BD913F010003B40148019001BD7D
:1054C000A942010003B40148019001BD79420100E5
:1054D00003B40148019001BDD136000003B4014876
:1054E000019001BD01E6000003B40148019001BD37
:1054F000BD07000003B40148019001BD891C0000F4
:1055000003B40148019001BDE907000003B401485C
:10551000019001BD6D07000003B40148019001BD79
:10552000FD0E000003B40148019001BD2D0E0000E6
:1055300003B40148019001BD3D07000003B40148D8
:10554000019001BD211A000003B40148019001BD82
:10555000050E000003B40148019001BD892200003E
:1055600003B40148019001BD610E000003B401487D
:10557000019001BD9D0E000003B40148019001BDE2
:10558000D50E000003B40148019001BD610F000079
:1055900003B40148019001BD9502000003B4014825
:1055A000019001BD3543010003B40148019001BDE4
:1055B000E997000003B40148019001BD3D98000047
:1055C00003B40148019001BDE58D000003B401481A
:1055D000019001BD4977010003B40148019001BD6C
:1055E000E91D010003B40148019001BD1120010033
:1055F00003B40148019001BD4920010003B40148F2
:10560000019001BDF504010003B40148019001BD02
:105610004112010003B40148019001BDFD0A0100DF
:1056200003B40148019001BDD90E010003B4014843
:10563000019001BDCD1C010003B40148019001BDE2
:105640004956010003B40148019001BD8D3C0100A1
:1056500003B40148019001BDE55B000003B40148BB
:10566000019001BDE129000003B40148019001BD92
:105670009937000003B40148019001BD51140000A6
:1056800003B40148019001BD091F000003B40148A3
:10569000019001BDA579000003B40148019001BD4E
:1056A0004103000003B40148019001BDF161000015
:1056B00030B50023094D0CE00C785B1C24092C5DEF
:1056C00004700C78DBB22407240F2C5D4470801C1E
:1056D000491C9342F0D3002030BD00000619002081
:1056E00010B50549054801F081F80348044A08212E
:1056F000083001F041FA10BD58190020FFFF0000EA
:1057000030170020F0B585B00E46054614216846D6
:10571000FFF707F904200543A806800F01D03020C9
:1057200005436F46280A787003243946BD70E807A0
:1057300002D0F078C8700424A80702D53079385513
:10574000641C680716D52448C079002806D0A8052F
:1057500001D5307D00E0707A502105E0A80501D523
:10576000307D00E0707A642148436421FFF784FDB6
:105770003855641C280702D5B07A3855641CE806F1
:1057800006D5F088000A3855B079641C3855641C79
:10579000A80603D5307A3855641CE4B2680603D5F0
:1057A000F07B3855641CE4B2280603D5307C3855AC
:1057B000641CE4B2E80503D5B07C3855641CE4B23F
:1057C000A80503D5707D3855641CE4B268460470A2
:1057D00007F054FC05B0F0BD98180020FEB59A4CB7
:1057E0000A25607A092701280DD003281BD1A07A49
:1057F00020260300FFF746FD0B7B828D9EA9BAC6CB
:10580000D8E3FCFB7B00A07A0300FFF73BFD120A04
:105810000D141F252B30353A4045494F555B6167C4
:10582000F20A03F04BFBFEBD08F01EFE182009F043
:1058300049FD02200EE0002009F044FD03200FE0A6
:1058400001218903207DFFF723FDFEBD182009F00B
:1058500073FC0420A072E7E0002009F06DFC052035
:10586000A07212E0182009F01BFC0620F2E70020CD
:1058700009F016FC0720F3E7182009F027FC0820A0
:10588000E8E7002009F022FCA7720A22D8E71820D6
:1058900009F034FDA572C7E0002009F02FFDFEBD20
:1058A0006421002003F074FB0C2023E064217820A5
:1058B00003F06EFB0D201DE06421F02003F068FB77
:1058C0000E2017E06421382003F052FB0F2011E076
:1058D0006421382003F04CFB10200BE05BA003C8D0
:1058E00000900191684607F0C9FB112002E003F027
:1058F000BFFA01207D22A0721201A1E708F0B4FDD9
:105900006421002003F044FB0220A072E08A20837F
:105910008AE07D220121D2008903207DFFF7B8FCB7
:10592000208B00285AD0401E0004000C208355D143
:10593000032037E047A20221142001F0CBFA6421B2
:10594000782003F025FB04201AE07D220121D200FB
:105950008903207DFFF79CFC208B00283ED0401E51
:105960000004000C208339D105201BE03AA202215B
:10597000142001F0AFFA6421F02003F009FB0620A7
:10598000A07246E07D220121D2008903207DFFF72D
:105990007FFC208B002821D0401E0004000C2083B7
:1059A0001CD10720A072FEBD2CA20221142001F000
:1059B00091FA6421382003F0DBFA0820E0E77D2229
:1059C0000121D2008903207DFFF762FC208B002893
:1059D00004D0401E0004000C20830ED080B2FFF7DC
:1059E00056FA0246002302212420009602E01EE01F
:1059F00005E026E003F02DF9FEBDA772FEBD18A25A
:105A00000221142001F066FA6421202003F0B0FA8C
:105A1000A572E08A2083FFF73AFA024600230221AA
:105A20002420009603F015F97D22D20008E7208B90
:105A3000002804D0401E0004000C208301D080B256
:105A4000E9E7002001F092F9981800200500030012
:105A500000000000473A0000423A0000433A0000CC
:105A6000573A000000B585B014216846FEF759FF8B
:105A700010486A46C178117001795170417A91706D
:105A8000817AD170C1881171090A5171017A9171BD
:105A9000C17BD171017C1172807C50720A2103207C
:105AA00001F0BEFA002802D0002005B000BD0120A0
:105AB000FBE70000F81F002001207047FEB5294CCD
:105AC00000252570A571E5716572274809F010FC65
:105AD0007F202649C005086000F0CCFD0121052289
:105AE0004903207DFFF7D4FB214E6946304600F084
:105AF0005FFB68460078012806D1684605706A4653
:105B00000121304600F090FC1021207DFFF7C6FBFC
:105B10001848C57018A003C80190029101A807F0A9
:105B2000ADFA0AF09FFA6079012805D007F0F6F97E
:105B3000657008F0C3FE0AE00021152005F084FB23
:105B4000002007F04DF80121152005F07DFBFF2115
:105B50000131207DFFF7A2FB01214902207DFFF7E3
:105B60009DFBFEBD9818002000002041FC1800207D
:105B700005030000F81F00200500030000000000DE
:105B8000F8B502F0FDF80AF055FA4E4C4E4D0127DB
:105B900027706946284600F00BFB6846007800280D
:105BA00006D1684607706A460121284600F03CFC91
:105BB0006078002802D1677008F02CFDA7717D2263
:105BC000D2001021207DFFF763FB607900260128B9
:105BD0001CD03E4A0121207DFFF75AFB08F06EFEE3
:105BE000394AFF21EE320131207DFFF751FB384D5C
:105BF0006878042801D3022068700024C0B202280B
:105C00000ED0012810D0032812D017E02E4A01210F
:105C1000DD32207DFFF73CFB2A4806844684DFE71F
:105C200030240220E87001E00824EF702E7105E0B6
:105C30000320E870E87A4024401C287100210120EC
:105C400005F002FB23480146401E80B20029FAD12C
:105C50001F482030007C012806D0022808D00328E5
:105C60000BD004280FD018E0EF702E710F2414E031
:105C70000220E8702E7137240FE00320E870E87AE4
:105C80002871072409E00420E870E87F022814D076
:105C9000FF24AE77C934052004430D492046FFF7A1
:105CA00031FD002006F09CFF094802F0D3FF0848B0
:105CB0000AF0D4FA0AF054FDF8BDFF24AF77F134AE
:105CC000E9E700009818002005030000CA0700005B
:105CD000F81F002010270000FEB506F09FFD7D276D
:105CE00042066021FF000126A74D002A09DA82063C
:105CF0001AD5884304466879022829D009F0A8F902
:105D000026E0820610D588430446687901281FD012
:105D10006E71287800281ED13A460121287DFFF7B0
:105D2000B7FA09F0ABFD13E0884304460B2005F0F9
:105D300047FA00280CD06879002809D009F0EAFD5C
:105D40002878002807D10A220121287DFFF7A0FA30
:105D5000287800280AD00121287DFFF7A5FA00281D
:105D600004D13A460121287DFFF792FA687A00278C
:105D7000002875D0E1070CD0A878401CC0B2A870EC
:105D8000322803D9AF70002000F0F0FF401CA8704B
:105D900068E0A978002964D0012802D0022842D006
:105DA0005CE0A87A002859D1687BA97B0840E97B90
:105DB0000840297C084251D001F0E8FF00900AF029
:105DC00033F90446714900984018FA28A87C09D391
:105DD000002802D1032002F03BFF022002F038FF2E
:105DE000AE7405E0002803D0032002F031FFAF7449
:105DF0006000000E0FD066482118664881420AD321
:105E0000A87C002802D1032002F022FF012002F02A
:105E10001FFFAE7422E0A87C00281FD10B20A872BF
:105E2000FFF7DCFC1AE008220021502001F050F8B6
:105E3000687BA97B0840E97B0840297C08420DD09B
:105E400009220021502001F043F853A003C801911A
:105E500000900621684605F079FF6E74AF70FEBDB4
:105E600042E0AF70A87A00281FD120070DD5E87A4C
:105E700032280AD2401CC2B2EA720221642001F028
:105E800027F8E87A282800D96E73E0060DD5E87A5D
:105E90000A280AD9401EC2B2EA720221642001F027
:105EA00017F8E87A142800D2AE73687A03285FD115
:105EB000A87A022801D3E88A2883288BFEF7E7FF17
:105EC00002462020009000230221242002F0C1FE7F
:105ED000002CC4D0E00701D0142200E09622042157
:105EE000287DFFF7D5F9BAE7E0070ED0A878411C66
:105EF000A97032281CD9AF702878002802D0FFF78B
:105F0000DDFDACE7FFF73CFEA9E7E87C00280FD1F8
:105F100068460780A878002809D02878002806D08D
:105F20001F48407A002802D0684606F0E3FBAF70B5
:105F3000287800281CD0E87C002819D16846078002
:105F40002007E87817D5411CE970142804D91520DA
:105F5000E870684606F050FBE00628790FD5411C32
:105F60002971142804D914202871684606F0D0FA43
:105F7000002CB1D173E70028EF70EAD1ECE70028DC
:105F80002F71F2D1F4E7000098180020CAEFFFFF4C
:105F9000000090BE0100B00002800102C00A0000B3
:105FA000F81F002010B5034A1321034800F0E4FD58
:105FB00010BD000058170020F4190020FFB595B05F
:105FC0000025109510AA119500F098F806460A28A9
:105FD0007CD204460620444320462030C0B26A46A4
:105FE0000E2107F0C5FC002802D168468089C5B2A1
:105FF00017981390404818990078022813D0002071
:106000001290082911D020462130C7B21C2200214D
:106010006846FFF74FF96A461C21384607F0A8FC8E
:10602000002805D010E00120EAE720462230ECE706
:106030006846807EC01F092806D8E907C90F6A464E
:10604000129B1398FFF73CF91422002107A8FFF7D1
:1060500031F920462430C0B207AA102107F088FC8D
:10606000002812D11022FF2107A8FFF72FF90028DE
:106070000BD12534E0B20BAA042107F079FCE90723
:10608000C90F07AA1798FFF727F97036F0B20CAAC4
:10609000102107F06DFC002811D10CA803F0BBFB08
:1060A00000240CAEA00080190188002903D082785A
:1060B000179800F0BDFD641CE4B2042CF2D3A807CD
:1060C00004D50D48017B179800F0A0FD189804280E
:1060D0000FD10949087802280BD10A791798002AAC
:1060E00000D001224978002900D004211143FFF794
:1060F000F9F8002019B0F0BD0C1C0020F0B50A24FE
:1061000085B015460F46002806D0012804D0022885
:1061100010D0032846D11FE0084603F049FB04468F
:106120000A283FD2002D3DD0062239462846FFF7E7
:10613000DFF837E01D4E00240E2060438019062250
:106140003946801DFFF7DAF8002823D1641CE4B239
:106150000A2CF1D30A241DE00024204606214843DE
:106160002330C0B26A46102107F002FC00280CD18F
:106170001022FF216846FFF7A9F8002805D139460B
:106180006846FFF7C1F8002804D0641CE4B20A2C6A
:10619000E3D3DFE70A2C05D2002D03D029462046A1
:1061A00003F01EFB204605B0F0BD00004229002090
:1061B00070B50C460146032000020A1A0025344837
:1061C0001300FFF75FF81D1012151C1F2326282C43
:1061D000303234383A3C3E40424446484A4E5052AF
:1061E0005A5456585A00C07911E01022294902E049
:1061F0002849102210312046FFF77AF845E0C06A9E
:10620000206042E0224906223C31F4E70078207009
:106210003BE0808936E01E4942784231EBE71D4978
:1062200082781F39E7E7007AF1E7407AEFE718490B
:1062300006223031DFE7807AE9E7C07AE7E7C089F4
:1062400020E0808A1EE0C0781CE0C08A1AE0008B43
:1062500018E0408B16E0808B14E00D4906223631A1
:10626000C9E7C08B0EE0008C0CE0408C0AE080791E
:10627000CDE7008A06E0408A04E0272904D20846D8
:10628000FFF748F8208000E00225284670BD000096
:10629000A81B00201129002070B50E4C002560714C
:1062A000A571691EE181FFF73BF80420E07110221F
:1062B00000210948FEF7FEFF074810220021103098
:1062C000FEF7F8FFE562257265720720A072E5729D
:1062D00070BD0000A81B002011290020FEB53B4D19
:1062E0000C4608040CD56879FFF720F8050004D0A7
:1062F00003F09AFB2846FFF71FF80120C00360E077
:10630000600403D5012080034840FEBD2F48E1070B
:106310000126807900292AD02978002920D0052853
:1063200021D0287A69460870687A4870274900A801
:10633000062230310230FEF7DBFFA87A6946087288
:10634000E87A48726879FEF7FDFF002808D0072038
:10635000A871696A002903D00968002900D088471C
:1063600020467040FEBD032069460870E5E7A1079E
:106370000DD5052809D1E889FEF7EAFFAA8A002A87
:1063800003D002216879FEF783FF022019E060073D
:1063900004D5002003F0A0FB042012E0200712D552
:1063A0002879012802D002280AD107E00096AB8B99
:1063B0006A8B298BE88A00F00BF801E000F05AF9AB
:1063C00008206040FEBD0020FEBD0000A81B00208C
:1063D000F8B5134C069DA679052E01D01420F8BD02
:1063E000104F861FBE4219D2062917D3BE1DB142D7
:1063F00014D2FF27F537BA4210D20A2B0ED3B3427C
:106400000CD2E08221836283A383284603F064FBDD
:1064100004216079FEF742FF0020F8BD1820F8BD86
:10642000A81B00207A0C0000F7B50C4680490098A4
:10643000164642187F4F00257879B9791300FEF788
:1064400021FF190E141BE92040455970777E888F73
:10645000E996A2A9B4BFC8E9E9E9E9D3E900102C9B
:1064600076D11022314674486FE0102C70D17248FA
:1064700010223146103068E0042C69D13068F8628F
:10648000CEE0012C64D13B7832783A70002B0AD0F0
:10649000002A07D1022903D0062901D0042901D1FD
:1064A000FEF75CFFBCE0002A0AD0012905D00329D1
:1064B00003D0052901D0042902D10121FEF754FFA0
:1064C000AEE0022C44D13088B881A9E01F2C3FD81F
:1064D00058481F2200214230FEF7ECFE5548224664
:1064E00031464230FEF704FF524B7C704233224665
:1064F000012112E01F2C7CD84F481F2200211F3899
:10650000FEF7D8FE4C48224631461F38FEF7F0FE13
:10651000494BBC701F3B224600217879FEF72AFFC9
:1065200083E0012C65D13078042862D8387277E096
:10653000012C5ED1307803285BD8787270E0062C8D
:1065400057D13C48062231463030FEF7D1FE67E095
:106550004FE0012C4DD1307807284AD8B8725FE05F
:10656000012C46D13078032843D8F87258E0022C29
:106570003FD13288BA82002A52D0052950D1022157
:10658000FEF786FE4CE0012C33D13078012830D85C
:10659000F87045E03088022C2BD1062829D3192128
:1065A000C901884225D8F8823AE03088022C20D1EF
:1065B00006281ED31921C90188421AD838832FE032
:1065C0003088022C15D1FF21F531884211D2788311
:1065D00026E03088022C0CD10A280AD31921C901DF
:1065E000884206D8B8831BE03178012C01D10129FB
:1065F00001D0182514E00821FEF756FE002801D02E
:1066000016250DE0002003F067FA04217879FEF7E3
:1066100045FE05E00098272801D2022C02D0022571
:106620002846FEBD3188FEF7ABFE0546F8E70000C0
:10663000FFFCFFFFA81B0020112900201CB50B4CFC
:10664000A179002901D011201CBD002800D0606272
:10665000064907482C31034601910090103B002267
:10666000E179607900F016F800201CBDA81B00201D
:106670002129002010B506488179052901D0122072
:1066800010BDC18913224079FEF780FE10BD0000C5
:10669000A81B0020F8B51D460224069F079E0B008C
:1066A000FEF7F0FD0A15080606081506150606157C
:1066B000002C0CD1FEF770FE040008D1324639469A
:1066C0002846FEF76FFEFEF773FEFEF777FE2046C4
:1066D000F8BD08B500206946009005204A1C09F065
:1066E00099F96846407800090300FEF7CBFD0906DA
:1066F000080A060C0E1114170600502008BD2020B1
:1067000008BD282008BDA02008BDFF20913008BD8D
:106710001920400108BD1920800108BD1920C001C1
:1067200008BD08B500206946009005204A1C09F004
:1067300071F9684640780007000F0300FEF7A2FDDC
:106740000A06080A060C0F1215181B06A02008BD21
:10675000302008BD502008BDFF20413008BD192061
:10676000400108BD1920800108BD1920C00108BDE5
:106770001920000208BD7D20C00108BD10B500230E
:1067800009E01C012418E468944202D11901081898
:1067900010BD5B1C9BB28B42F3D3002010BD0000E8
:1067A00070B50F4D0F4CA87029461431204600F0EB
:1067B0001DF8002128460B460C30CA0084521218DE
:1067C000491C09065360090EF7D0012003F0A0FD13
:1067D000A878FEF7F9FD0448FEF7FCFD70BD000047
:1067E000301C0020FFFF0000A19BFF1F70B50A4C6A
:1067F0000025A04209D1002082008C525218401C72
:10680000C0B295700228F7D370BD03F098F9002844
:10681000FAD00480857070BDFFFF0000F8B50E4609
:106820000746069900240798002902D00B24204629
:10683000F8BD022B01D00D24F9E71178527812022D
:1068400089188DB22946814301D08024EFE738466C
:10685000F16800F089F9A842E9D02A463846F16883
:1068600000F014FA0400E2D171892A46384600F09B
:10687000B1F9DCE7FFB50025C1B02E464198B10063
:106880000C1821881E48814232D0A07800282FD0D1
:10689000429A4A994498FFF771FF070028D0194897
:1068A00003A900780231C01EC0B2029000220091FC
:1068B0004498019242894B1C2088394600F040F8E8
:1068C000002815D1788969468881A078C00705D04D
:1068D000208803A9439AFEF783FD0543A07880072B
:1068E00006D5208803A94B9B439AFEF77FFD0543FD
:1068F000761CF6B2022EC1D3284645B0F0BD00008A
:10690000FFFF0000EC10FF1F70B50C46080412D505
:106910000A488078FEF70AFD050008D02878B028DC
:1069200002D1284603F026FA2846FEF705FD01208D
:10693000C003604070BD002070BD0000301C00200E
:10694000FFB583B0087A00250C9E1C460F46C00692
:106950000DD5059803F0ECF8030006D00A2239465D
:1069600003989847050035D101E00E2532E03878CC
:1069700002281DD17868292201784078120200028D
:10698000081881B2881A91427ED009DC7348081A2F
:1069900023D0012821D002284FD0032808D125E098
:1069A000012872D0022871D003286DD004286ED03F
:1069B000059803F0E5F800286AD00568002DD4D0CA
:1069C0000E990D980191009033462246394603985E
:1069D000A8470546284607B0F0BD0D98002872D19B
:1069E000F868017831700278416896E00D980028C7
:1069F00069D101203070F868002100782070788912
:106A0000401C80B2FEF7F8FC00280DD031780278E7
:106A10008918891C3170817A61704189090AA170D5
:106A200002784168E01C79E030780422001D307063
:106A30000021601CFEF73EFCCCE70D98002875D1C4
:106A4000F86802A900880090042030700098207037
:106A50000098000A60700098FEF7CEFC070029D06D
:106A6000F86800906846028901AB3D493846FEF758
:106A7000C9FC002810D13B7802213A487A68FEF719
:106A8000C7FC002808D104E026E030E01CE04AE022
:106A900062E03348694688800098007802280CD16B
:106AA000009802224168201DFEF722FC3078801CED
:106AB000307002E069460098888068468088A0703F
:106AC000000AE07086E731E00D9800282ED1F968C1
:106AD000039800F049F804E00D98002826D1F868E2
:106AE0000088022131702070000A607072E7F86837
:106AF000FEF794FC0D99C0B2814212D8814201D1B7
:106B0000002206E00E9A8918814202D30D99401A9C
:106B1000C2B23270F9680D9809182046FEF7E8FBFA
:106B200058E7072556E70D98002801D00B2551E7B7
:106B30000721F8683170017821704178617081789F
:106B4000A1704188090AE17001792171817961712F
:106B5000C088000AA0713DE700252FE7002800004B
:106B6000FFFF00001E7C010010B502F0E8FF0028C6
:106B700000D0807810BD00007CB51546040019D007
:106B8000684601940180FEF74FFC03001DD1002DE3
:106B90001BD06489002C0DD00C20FEF74BFC002884
:106BA0000AD0002303608480094A85605168002967
:106BB00004D006E0022308E0132306E0506004E05E
:106BC00011460A68002AFBD1086018467CBD000007
:106BD000301C0020F8B50C4C0746207815460E46B0
:106BE000FF280FD00A20FEF72BFC01000AD0B120AD
:106BF00008700020487008714F80CE800D81207889
:106C0000FEF724FCF8BD0000301C002070B50C46D7
:106C100005460649FFF7A8FF800704D52146284608
:106C2000FEF71AFC70BD012070BD0000441C00205E
:106C30001CB56B461A71120A5A7100220092022387
:106C400001AA00F001F81CBDFFB583B008461F463D
:106C500001A90C9EFEF7D0FB050014D06846808881
:106C600002F08EFF00280AD04468002C09D000965C
:106C70003B462946059A0398A04707B0F0BD00247B
:106C8000F3E70E20F9E70120F7E7000070B514469E
:106C90000E46054602F053FF002806D1314605484E
:106CA00002F04DFF002803D005808470002070BDE5
:106CB000112070BDFFFF0000014610B50020C9077C
:106CC00004D0034A07210348FFF756FF10BD000018
:106CD0006C170020341B002070B50D4616460024AA
:106CE0001D490300FEF7CEFA080512343419342288
:106CF0002934152D23D8162200211848FEF7DAFA78
:106D00002A4631461548FEF7F3FA22E0022D16D145
:106D100011491088103908801BE0082D0FD10E484A
:106D2000082231460838FDF7E3FD12E0012D06D1B7
:106D3000CA6909493078283107E0012D01D01824AB
:106D400007E0CA6B04493078483103F086FC00E064
:106D50000224204670BD0000341B0020DC280020E7
:106D6000014800787047000064180020002801D016
:106D700008F01EFE0021132004F066FAFEE7000072
:106D8000F8B5454F0A4639788446092948D00A297A
:106D900046D00B2944D00C2942D00D2940D03F4C7D
:106DA000607A002801D001281AD12078002801D06B
:106DB000012815D165893A482B1F834210D2A38937
:106DC0001E1F86420CD2AB420AD8002A01D0012AEB
:106DD00006D16046334B344D00282DD0012801D018
:106DE0001220F8BD207A01281AD02520012600297A
:106DF00004D007290AD0082908D011E0E671E2730F
:106E0000A07405203870FEF72DFB13E06A68928DA0
:106E1000520605D51A78002A04D024A000F0CAF939
:106E20002120F8BDA07427481E70012109030078B5
:106E3000FEF79AFA26722CE072B60026052904D0D5
:106E4000072907D0082905D005E03E701E20FEF76F
:106E50000FFB00E01E7026725820FEF70FFB62B693
:106E6000FEF712FB184E194CA8600FE0FEF70CFB62
:106E7000A968884201D3401A01E0711A0818E86035
:106E80007D226969D2005143814202D320680128E2
:106E9000ECD00020F8BD00001D12FF1F421DFF1F97
:106EA000FD3F00002312FF1FDC1E00205B4C4C5FE7
:106EB0004442475D202530325820253032580A0D93
:106EC000000000001C12FF1F40420F005812FF1F5D
:106ED0000020704770470000F8B5044600200346C4
:106EE0000A5C8507ED0EAA401343401C0428F7DB1B
:106EF00001F0E0F80028FBD101F0AAFF21022004F4
:106F0000090E0843FF273F0221463940084372B665
:106F100000211A4DA960194E0002803E801C30608D
:106F2000336062B601F0C6F80028FBD101F080FEA4
:106F300011200006201869462A695207FCD572B64E
:106F40000422AA6004020204240E224338400243B1
:106F50001002C01C306062B628694007FCD530784A
:106F6000087030784870307888703078C870009831
:106F7000984201D00020F8BD0120F8BD8000081122
:106F800070B50546002409490948FFF72FFC094858
:106F9000FEF720FAE80706D00448074A1521083012
:106FA000FFF7EAFD0446204670BD0000201D0020CA
:106FB000FFFF0000F1F3FF1FDC17002010B50B46A8
:106FC00000240E49002806D0022809D005280FD039
:106FD0000224204610BD488810700246084903E08C
:106FE000C8881070074902461846FEF781F9F0E795
:106FF0008889107002460449F6E70000041D00204D
:10700000C02C0020C0300020C0360020002803D053
:10701000024908610020704711207047041D0020BC
:10702000FEB517460246012000244002814201D9E4
:107030001820FEBD2148FF2515261300FEF722F972
:10704000060409101524293A41800A4639461C488D
:1070500003E081800A4639461A48FEF749F92AE0DA
:10706000C1800A4639461848F7E701810A46394681
:107070001648FEF73DF9114B0022243318461349F8
:1070800010380096019512E041810A4639461048B1
:10709000E3E781810A4639460E48FEF729F9074B96
:1070A0000022243318460B49083800960195FFF753
:1070B000E1FB00E002242046FEBD0000041D00208C
:1070C000C02C0020C02E0020C0300020C032002084
:1070D000C0340020C03600200249014808607047D3
:1070E00040787D01D81E002030B587B00446412885
:1070F00001D0422C23D118216846FDF712FCFF2253
:1071000017216846FDF706FC00256846412C02D091
:10711000422C05D00CE0122504702A460A4904E0EE
:107120001225094904702A461231401CFDF7E0FB84
:107130006A4629460520FFF773FF002802D0002089
:1071400007B030BD0120FBE7C60C002010B57D2143
:10715000C003C900FEF790F800F002F810BD00006F
:10716000F8B506460027FEF795F904460648051BC4
:1071700006E0FEF78FF9A04201D3071B00E02F18AD
:10718000B742F6D3F8BD0000FFFFFF00CB07762221
:107190000748002B02D0C260012004E0CB0504D5D3
:1071A000C260FF2001304840704700207047000057
:1071B000002000400FB410B503A9044B044A029804
:1071C00000F0D2F810BC08BC04B018474997FF1F64
:1071D000FC1E00200FB410B504A9074B02AA0398A7
:1071E00000F0C2F8044602A9002000F0F7FA204699
:1071F00010BC08BC04B01847DD77FF1F2021020C2B
:1072000001D010211046020A01D0104608390209A7
:1072100001D01046091F820801D01046891E42087D
:1072200001D0881E7047081A70470000002805DB4F
:10723000C106C90E0120884001490860704700005E
:1072400000E100E08307FF22DB0E9A408907090E68
:107250009940002808DB830809489B001818036838
:1072600093430B43036070470007000F08388308FF
:1072700004489B001818C36993430B43C3617047CC
:1072800000E400E000ED00E08307FF22DB0E9A40FF
:107290008907090E9940002808DB830809489B00EC
:1072A0001818036893430B43036070470007000FEF
:1072B0000838830804489B001818C36993430B439C
:1072C000C361704700E400E000ED00E08307FF22A7
:1072D000DB0E9A408907090E9940002808DB8308D5
:1072E00009489B001818036893430B4303607047D9
:1072F0000007000F0838830804489B001818C3696A
:1073000093430B43C361704700E400E000ED00E0ED
:10731000BFF34F8F04490348C860BFF34F8F00BFCE
:10732000FDE700000400FA0500ED00E0BFF34F8F19
:1073300004490348C860BFF34F8F00BFFDE700005A
:107340000400FA0500ED00E002E008C8121F08C1C1
:10735000002AFAD170477047002001E001C1121FD6
:10736000002AFBD170470000FFB591B00F460546DB
:10737000002606E025280AD0149A139990476D1C20
:10738000761C28780028F5D1304615B0F0BD0024D1
:1073900000940121F34A029400E004436D1C2B7811
:1073A0000846203B98401042F7D128782A280ED072
:1073B000022128780246303A092A15D8009A0A2371
:1073C0005A43303A80180C436D1C0090F1E701CF0E
:1073D0000090002805DA0120400304430098404251
:1073E0000090022004436D1C28782E2815D104201B
:1073F000044368786D1C2A280AD101CF6D1C0290C5
:107400000BE002990A225143303940186D1C02905A
:107410002878014630390929F3D928786C2810D00A
:1074200006DC4C281AD068280ED06A2817D104E050
:10743000742813D07A2812D110E0012040050443AB
:107440000CE00121090501E0032109050C436978DD
:10745000814203D10120000524186D1C6D1C287881
:1074600003906E281ED00CDC632831D004DC002889
:107470008AD0582811D1B2E064287BD069280CD179
:1074800078E073282DD004DC6F2870D0702804D1E8
:10749000A7E075286CD078286BD0149A1399904780
:1074A000761C62E06002400F022807D003280AD051
:1074B000042838680AD006603F1D56E03868F11786
:1074C00006604160F8E738680680F5E70670F3E784
:1074D0003878694608740020487404A80390012095
:1074E00003E0386803900020C0433F1D61070FD5BB
:1074F000002101E00199491C029A0191914213DA9D
:107500008142F7DB019A0399895C0029F2D10BE0F3
:10751000002101E00199491C01918142FADB019AA5
:107520000399895C0029F5D101990098139A401AB2
:1075300000902146149B00F03BF9019980194618F0
:1075400007E0039803990078491C0391149A139952
:1075500090470198401E0190401CF2D12146149B97
:10756000139A009800F014F986196D1C09E741E0A0
:1075700033E034E00A200021049005916002410FBD
:10758000022905D001CFC2179446032905D007E090
:10759000FF1DFF08FF0003CF06E000B2C2179446AC
:1075A000042902D140B2C1178C460022614694459D
:1075B00006DA0A460021404291418C462D2102E024
:1075C000210504D52B216A461176012103E0E1074C
:1075D00001D02021F7E7019154E00A200BE01020B0
:1075E00009E01020049000210420044308200591A4
:1075F000029003E008200021059104906002410FF1
:10760000022905D001CF00229446032906D006E0C6
:10761000FF1DFF08FF0003CF8C4603E080B2042962
:1076200000D1C0B20021019121072BD50399702907
:1076300006D0049A1021059B4A401A4305D00EE05B
:1076400040216A461176012108E06146014306D0D7
:1076500030216A4611760399517602210191049AEC
:107660000821059B4A401A430CD16146014301D1D0
:10767000610707D530216A461176012101910299EF
:10768000491E02910399582904D037A103910FA9EB
:107690000F910DE039A1F9E76146059B049AFDF7CA
:1076A000A9FC039B8C469B5C0F9A521E0F92137091
:1076B00061460143F0D10F9807A9081A20300390C2
:1076C000600704D5012000048443029801E00120F2
:1076D00002900399884201DD401A00E00020411821
:1076E0000290019809180098401A0090E00306D40F
:1076F0002146149B139A009800F05AF8861900202E
:10770000049008E006A9085C149A1399904704981D
:10771000401C761C049001998842F3DBE0030CD5F1
:107720002146149B139A009800F042F8861904E051
:10773000149A302013999047761C0299481E0290A3
:107740000029F5DC08E00F980F990078491C0F918B
:10775000149A13999047761C0399481E03900029A8
:10776000F1DCFBE60928010030313233343536379D
:10777000383961626364656600000000303132337D
:10778000343536373839414243444546000000001D
:10779000F8B5044600251E461746880404D405E0C3
:1077A00039462020B0476D1C641EF9D52846F8BD27
:1077B000FFB50446002581B01E46C80301D5302719
:1077C00000E02027880404D505E038460399B04737
:1077D0006D1C641EF9D5284605B0F0BD0A68531C1F
:1077E0000B6010707047000004490868FF22120205
:1077F00090430122D2031043086070471CE400E06C
:1078000010B5FDF74DFE0120FDF750FEFDF754FECB
:10781000002010BDF0B500248E464A1E12E07146CD
:1078200000230D1B6D1E0AE09E0031188C468759FF
:1078300049688F4202D9815161464F605B1C9D426D
:10784000F2D8641C9442EAD3F0BD000010B500F0F9
:1078500097FAFDF737FB0022074BFDF717FA0022D6
:10786000064BFDF77BFA0022054BFDF777FAFDF793
:107870004BFBC0B210BD00000068904000005940B2
:1078800000002440F8B5069800261D46144600283E
:1078900001D00B20F8BD486801270278407800022B
:1078A00010181B4A80B2904202D1FFF7CFFF14E0BC
:1078B000174A521C90421DD102F04AFE1549FDF7AD
:1078C000ABF8FDF73FFB0022134BFDF7D1F9002287
:1078D000124BFDF743FAFDF717FB1149087005201D
:1078E00028700878207067704A20A070E770B32075
:1078F00020710BE00B4A904207D10220187002461B
:10790000C9682046FDF7F4FC00E00A263046F8BDC1
:107910001A2A000000007A4400C8A9400000244050
:107920005019002008290000F0B5044685B0002653
:107930007A480196407901281BD10B2003F040FCC6
:10794000002816D101A8216802F08CFD0198FDF7EE
:10795000F9FA734A734BFDF799F905460F4620680B
:10796000FDF7F0FA2A463B46FDF782F9FDF712FBD8
:10797000206002F0F3FD002842D06B48457A002DCC
:10798000FAD0014620310F7C032F7DD26749206851
:10799000FDF742F8664D022F33D0012F7DD8FDF759
:1079A000D1FA064628460F46C088FDF78BFA614A91
:1079B000614BFDF76BF932463B46FDF7CFF90246C6
:1079C0000B4600200146FDF7AFF8FDF7E3FA054648
:1079D00057480089FDF776FA584A594BFDF756F992
:1079E00032463B46FDF7BAF906460F462846FDF7F4
:1079F000A9FA32463B46FDF797F8FDF7CBFA064663
:107A00004BE0FDF79FFA064602910F462888FDF7E6
:107A100059FA4C4A4C4BFDF739F932463B46FDF7D3
:107A20009DF902460B4600200146FDF77DF8FDF763
:107A3000B1FA00906888029FFDF744FA434A444B2C
:107A4000FDF724F932463B46FDF788F907460391D6
:107A50000098FDF777FA3A46039BFDF765F8FDF7C6
:107A600099FA0090A888029FFDF72CFA394A3A4B00
:107A7000FDF70CF932463B46FDF770F905460E4618
:107A80000098FDF75FFA00E002E02A463346B2E7CD
:107A90003249032F16D0042F23D03046FDF752FA77
:107AA0001F4A204BFDF7F2F805460E462068FDF709
:107AB00049FA2A463346FDF737F8FDF76BFA20609E
:107AC00005B0F0BD007E03280ED908280CD2062888
:107AD0000AD016E0FDF7DAF832463B46FDF73EF9EC
:107AE0008BE7807F00280CD02068FCF795FFFDF71E
:107AF00029FA06460F462846FDF7E4F90D4A0E4BD3
:107B0000E8E72068FCF788FFFDF71CFA06460F46F9
:107B10002846FDF7D7F90F4A0F4BDBE798180020EE
:107B20007B14AE47E17AB43FF81F002000004844C0
:107B300070200020D7A3703D0AD71440333333336D
:107B40003333154052B81E85EB5102405C8FC2F5AD
:107B5000285C0540F6285C8FC2F506400000C8424C
:107B60007CB54C68154622786478069E240212196A
:107B7000104C92B2E24209D101220192DBB200968E
:107B80002A46FEF74BFE040003D000E00A242046FC
:107B90007CBD6978287809024018074980B2496895
:107BA0000029F4D0002802D001208847EFE7022006
:107BB000FBE70000FED6FFFF5019002003B5694621
:107BC0000448097801706946498841806946898876
:107BD00081800CBD8818002038B501681C4C012933
:107BE00003D01CA006F010F838BD19491039CA7826
:107BF0008978D206C906C90F0091D30F027B81682C
:107C0000042003F04FF9124DFF21C905083DC84279
:107C100009D3A9882878FDF741FBA988287805228F
:107C2000FDF736FB38BD0F49FCF7F6FE0021C943CE
:107C3000FCF76DFF0C49096AFCF795FE0146606090
:107C4000206800F069F869882878FDF78DFB38BD59
:107C5000901800200A5F5F414443206572726F7282
:107C60000A00000000004041F81F002010B502F09B
:107C70008BFB134C002815D01348124A01210078C1
:107C8000FDF706FB2078411CC9B221700A2803D8F1
:107C90000EA005F0B9FF0EE011A005F0B5FF012020
:107CA000FFF764F81A481B49006802F01BFF03F055
:107CB00061F8002801D0112010BD0020207010BDF7
:107CC000BC180020E2030000AC180020200A20614C
:107CD0006420627573792062256420200A00000008
:107CE000200A205F5F5F5F5F5F5F5F5F5F6164636C
:107CF000206D6F64756C652072657365745F5F5F7E
:107D00005F5F5F5F5F5F5F5F5F5F20200A00000073
:107D100080180020D97BFF1F10B508461149FCF7D9
:107D20007BFEFDF7DDF880B20F4C10496080884281
:107D300001D9642003E00E49884202D2002020705D
:107D400010BDFDF7BFF800220A4BFCF791FF00229F
:107D5000094BFCF79BFF0022084BFCF7FFFFFDF7E8
:107D6000D3F8ECE700007A4484180020FE100000ED
:107D7000E40C000000C8A940000059400068904091
:107D800001480078704700008418002001484088AE
:107D9000704700008418002010B5044800210161DC
:107DA00041610D2003F0F0F9002010BD8018002083
:107DB00010B5FFF75BFF10BD7CB50446042800D961
:107DC0000424354E06237B2219466720009604F0D2
:107DD000ABFD6622122307211046009604F0A4FD95
:107DE00013237B2219466720009604F09DFD7C2218
:107DF000122307211046009604F096FD7E220F23E1
:107E00000A211046009604F08FFD7F220F230A21DD
:107E10001046009604F088FD0025002C0BD012239C
:107E20006C22082168200096019504F03DFE012C8B
:107E300009D9009608E0009512236C2208216820D9
:107E4000019504F031FE00951223712208216D2066
:107E5000019504F029FE022C0AD91223762208216A
:107E600072200096019504F01FFE042C11D007E04B
:107E700000951223762208217220019504F014FE49
:107E8000009512237B2208217720019504F00CFE37
:107E90007CBD0096F5E70000FFFF000070B59CB0C8
:107EA000584D0024687018A90C73202113A8FCF702
:107EB00038FD13AA1BA9032007F0ACFD18A913AACB
:107EC000097B5148FEF7B0FA10A90C7220210AA8CC
:107ED000FCF727FD0AAA12A9042007F09BFD10A9B0
:107EE00061200AAA097AC000FEF79EFAFEF719FC83
:107EF000064601460620FDF743FA31460720FDF706
:107F00003FFA31460820FDF73BFA31460920FDF7DC
:107F100037FA69463C488C8307AA0221401EFEF7C7
:107F200083FA694638480C7606AA0121801CFEF7C0
:107F30007BFA694634480C7505AA0121801EFEF7BC
:107F400073FAFEF7C6FB694688832F480A1F022191
:107F50000A30FEF769FA2C4807AA02210B30FEF717
:107F600063FA694628480C8306AA02210C30FEF702
:107F70005BFA4B20C00069468882C52005AA022111
:107F80008000FEF751FA012069460874014631204D
:107F900004AA0001FEF748FA06211F20FDF7F0F9B8
:107FA00069460C77182101A8FCF7BBFC01AA07A9B8
:107FB000022007F02FFD694601AA097F0020FEF785
:107FC0008BFE641E2046FEF777FEFDF789FBFDF76A
:107FD000E9FF2046FEF7D4FF281DFFF717F805F04C
:107FE0007FFD687808A908700120800369464884ED
:107FF0000999089804F006FC01216878FDF7B4F9A6
:108000001CB070BD641800200703000010B50C46BA
:1080100008040AD50E484078FDF788F9002801D0F9
:10802000FDF78AF90120C0030DE0E00705D00848FC
:108030000830FEF703FB012005E0600405D504F0DD
:1080400069FB01208003604010BD002010BD0000CE
:1080500064180020064AD088642807D2117A491C87
:10806000C9B21172814201D3906900477047000084
:108070005020002010B50020054CFF212218401C84
:1080800051704028FADB06F04FFB207010BD000055
:10809000D050002010B50020054CFF212218401CB4
:1080A00051700628FADB06F05DFB207010BD000061
:1080B000F51E0020084801694907FCD501218160AF
:1080C0000549052280390A7002695207FCD50878F3
:1080D000C007C00F7047000080000811F0B5864649
:1080E000080CFF268446002388B237461C461946F2
:1080F00001228A4005461540CD402C19A4B2FF2F1D
:1081000002D1012C00D18FB265462A40CA40D21854
:1081100093B2FF2E02D1012B00D18EB2491C10293F
:10812000E6DB012C02D0102C08D009E0012B07D18E
:108130003001C019714608700220F0BD102B01D02B
:108140000320F0BD0120F0BDF3B5414A0E46117B7E
:1081500083B08B0003981146203900685B18586083
:10816000107B0024401CC0B2384D107323460A28EF
:1081700000D31373107C002808D1507C401CC0B27F
:108180005074052802D301201074537431480078CC
:10819000002819D08878401CC0B288700A2810D9ED
:1081A0008B702B48A10020380F1828467968FCF7FF
:1081B00017FF00D27D68641C0A2CF2DB039805606F
:1081C00042E0337005B0F0BDD07B00280AD0107CAF
:1081D000002839D0002000900190107B002805D0A5
:1081E000401E04E00120D0733070EBE70920C0B2DC
:1081F000002702900298C01B00D509300006810DAF
:10820000134820380C1828466168FCF7E9FE00D2B4
:10821000656861680098FCF7D9FE01D2606800903B
:1082200061680198FCF79FFB7F1CFFB20190052F4E
:10823000E0D30099FCF7E8FB2946FCF7E5FB06498B
:10824000FCF727FC039908600120CDE70000A0405F
:10825000D81F0020EC1800200000404010B5282155
:108260000148FCF75EFB10BD08280020032806D358
:10827000012189078B680122824093438B607047FC
:10828000032806D3012189078B680122824013430A
:108290008B60704701480068704700001010FF1F96
:1082A000012292071368012181408B4313601068FB
:1082B00008431060704700007CB52A4C6A46207560
:1082C000107002205080012090800021132002F0C5
:1082D0002FFF0121132002F057FF0021052002F09B
:1082E00027FF0121052002F04FFF34211E48FCF733
:1082F00018FB1D48042620304673FFF74DFD0199F9
:108300000098FFF75BFC207D6A461070F0015080FA
:108310004510958007F08EFE0199009807F0B4FD96
:108320007D22D2002946207DFCF7B2FF6A465680A6
:108330000199009804F05AFA00F05AFD0022114603
:10834000272003F0DFF904F019F8E07406F0ACF927
:108350002078002802D0FDF713FC7CBDFDF7AEFBB2
:108360007CBD000098180020B81F0020F0B5FD4F1C
:1083700087B00C46080409D5387DFCF7D7FF0028E4
:1083800001D0FCF7D9FF0120C00384E2A00400253E
:10839000002816DAFEF7E4FC0126760305280AD049
:1083A000684605706A460121EF48FEF73DF8204611
:1083B000704007B0F0BD05223146387DFCF768FFFC
:1083C000F5E7A00603D504F0DFFD202063E2E00717
:1083D0000126002802D0FFF7EBFCE8E7A00776D5DE
:1083E000FFF7CEFC0390FFF7D1FC0290787A0028CB
:1083F00012D0032810D00298FCF764FDDB4ADC4B56
:10840000FCF744FCFCF7C6FD0246762000210090F4
:108410000223084600F01DFCD2480178D54804909C
:1084200007460D3F002977D014210398FCF724FF5D
:10843000694608750298FCF745FDCC4ACC4BFCF721
:1084400025FCFCF7A7FD009069460D7101A968465F
:10845000FFF77AFE69460879002803D005A8049A38
:1084600006F080FDBF4E0098F061C3497A7B8A70A8
:10847000C2490978002903D069460979002912D038
:10848000BF4988420EDCB87B401CC0B2B8730128DB
:1084900009D93078002806D0BAA005F0B5FBFDF761
:1084A0000DFB00E0BD737079022811D0012814D0B3
:1084B000B0482D38057007F02DFA787BFFF77CFC6B
:1084C000A94A0121DD32307DFCF7E2FEDFE0F3E076
:1084D0000420A94978738870F0E7F079002813D157
:1084E000A44D2D3D2878002804D1787B002801D0A8
:1084F000401E28702878411C2970FFF75DFC287801
:10850000042800D900202870974A0121DD32307DEF
:10851000FCF7BEFED4E7FFE792484079022807D077
:10852000012845D093482D38017800297ED094E069
:108530008C48407800281ED1062002F041FE002819
:1085400019D006F067F8002004F04AFB854D0121A0
:108550006E70152002F078FE0420FFF72DFC86488F
:10856000797B81700121287DFCF798FE7E4A287D69
:10857000DD3201210DE0062002F022FE002803D0AA
:10858000784EB078002807D0774A7648DD3201214E
:10859000007DFCF797FF6AE076482D3801780029C6
:1085A00000D1057004F0BAFC75700121307D5CE0EB
:1085B0006C48407800280DD106F02CF8002004F01B
:1085C0000FFB684801214670152002F03DFE694806
:1085D0002D38057014210398FCF74EFE6946087586
:1085E0000298FCF76FFC614A614BFCF74FFBFCF70C
:1085F000D1FC009069460D7101A96846FFF7A4FD02
:1086000069460879002804D005A8049A06F0AAFC57
:10861000B874B87C632801D96320B874554D2D3DDA
:108620002878002806D1787B002800E014E001D0EB
:10863000401E28702878411C2970FFF7BDFB287860
:10864000042800D900202870474A4648DD3201211D
:10865000007DFCF71DFE0AE0057004F05FFC414B55
:108660005D7007F057F90121187DFCF717FE3D48B2
:10867000407901280BD10C2002F0A2FD002806D081
:108680000B2002F09DFD002801D106F0E1FC0B203B
:1086900002F096FD00280DD0324B5879002809D001
:1086A00007F038F91878002804D164220121187DD8
:1086B000FCF7EEFD0220EEE07879002802D00128D8
:1086C00012D020E00B2002F07BFD00281BD17E7130
:1086D0000121387DFCF7E2FD64220121387DFCF7A1
:1086E000D7FD07F0CBF80EE0387800280BD00C202F
:1086F00002F066FD002806D00B2002F061FD002884
:1087000001D106F0A5FC0B2002F05AFD00280CD088
:108710007879002809D007F0FDF83878002804D1CE
:1087200064220121387DFCF7B3FD600703D5FDF716
:10873000D3FA0420AFE0E00632D5387800280FD015
:10874000FEF70EFB052829D0B879FF227040B871DA
:10875000F5321021387DFCF79BFDB87907F0BEFD9E
:10876000102098E09818002005030000FCA9F1D221
:108770004D62503FE51F0020F81F0020EC1800203C
:108780003333534020200A205F5F6576656E742086
:108790006F66665F5F200A2020000000BE71DCE784
:1087A000E00513D507F05AFCF879FF2501350028BC
:1087B00001D03B4A03E03878002804D0394A2946E2
:1087C000387DFCF765FD20466840F2E5A00555D5EB
:1087D00007F02AFC0190787A002809D0032807D0F6
:1087E0003D200090012306215020019A00F031FA2B
:1087F000387800281DD02C490198884202DDFDF709
:108800005DF916E00146294A2948914214DDF979BB
:1088100000292FD1FE712749016007202649FCF766
:1088200071FF27E03D72002001E03E72012008F058
:1088300011F8012040022EE0204A914217DAF9791E
:108840000029F6D07F21FD71C9050160387A002822
:1088500003D03D72002007F0FDFF1748FD718078BE
:10886000FFF7AAFA07201449FCF74CFFE1E7F87973
:108870000028DED0387A0028D7D0D3E7E00404D52A
:10888000FDF7F0F80120000305E0600405D5FCF7D2
:10889000A5FF0120800360408BE5002089E50000F2
:1088A000F3030000DD070000000084420000704276
:1088B000FC180020CDCC4C3FF81F00200000504297
:1088C00010B504460D48407A002813D0FCF7DFFAB3
:1088D0000B49FCF7A1F80B49FCF7DBF80A49FCF758
:1088E00042F80A49FCF798F82146FCF795F8FCF79E
:1088F000F7FA80B206F0EAFB10BD0000F81F002076
:108900000000C04200401C460AD7233D00004844F6
:1089100010B5134C0A20E17E41437D20C000FCF7D6
:10892000ABFC1049487010488078C00703D0607EC7
:1089300002280AD00BE0A07F0028094802D008F0E6
:1089400039F810BD07F078FD10BDFFF783FBA07F5D
:10895000002802D007F0A4FB10BD07F099FB10BD62
:10896000F81F0020EC1800205020002010B50E4801
:10897000422101710D4941610D49816100210D4A7A
:108980004180D37E0C4C5B005B1E0380937EC380D2
:108990000172094BC3600123E41E237053770177F2
:1089A000FFF7B6FF10BD0000502000201189FF1F07
:1089B000BD89FF1FF81F0020EF18002010B500F040
:1089C000C7F810BD70B51C4C0025214665802031CC
:1089D0001A4804F00FFE43202071194860611948BD
:1089E000A0612572154D7D21E87EC90048430A210A
:1089F000FCF742FC401E2080A87EE080124812490D
:108A0000E0600120091F08706877207720460A215E
:108A10002A30FBF786FF20462030014602880A31C3
:108A20000A8042884A8082888A80C288CA800089F7
:108A3000088100F00BF870BD50200020F81F0020C6
:108A40004D8AFF1F518BFF1FF018002070B5394968
:108A50000120394E487035882846FCF733FA024623
:108A60000B4636483649FCF779F9FCF793FA044689
:108A7000690870887F25ED05884211D8FCF707FA50
:108A80002146FBF7C9FFFCF75DFA2E4A2E4BFCF797
:108A90004BF8FCF77FFA0446A8420BDD2C4609E0B0
:108AA000401AFCF7E9F92146FBF7B6FF2946FBF728
:108AB000AFFF04462548204D807F2A35002821D06D
:108AC0002888FCF7E4F92146FBF7A6FFFCF708FA33
:108AD00080B206F0F7FB6888FCF7D9F92146FBF76E
:108AE0009BFFFCF7FDF980B206F026FBA888FCF797
:108AF000CEF92146FBF790FFFCF7F2F980B206F0C1
:108B0000CFFA70BDE888FCF7C2F92146FBF784FF75
:108B1000FCF7E6F980B206F0D9FA2889FCF7B7F934
:108B20002146FBF779FFFCF7DBF980B206F0E6FBA4
:108B300070BD0000EC1800205020002066666666BC
:108B40006666FE3FA09999999999A93FF81F002060
:108B500010B5124CA07F002809D0002006F0B2FB0F
:108B6000002006F0E9FA002006F09AFA05E000205D
:108B700006F0ACFA002006F0C1FB06F0E1FE084961
:108B80000020087007490872488060772071034808
:108B9000E17F2030017404F019FB10BDF81F0020A4
:108BA000EC1800205020002070B54868002501789E
:108BB0004078000208181C4980B2441A884223D029
:108BC00009DC1A49441811D0012C12D0022C15D0FE
:108BD000032C08D115E0012C19D0022C1AD0032C3B
:108BE0001BD0292C1CD00A25284670BD1946002010
:108BF00001E01946062006F00DFFF5E719460720AB
:108C0000F9E719460820F6E719460920F3E719465F
:108C10000A20F0E719460B20EDE719460C20EAE799
:108C200019460D20E7E70000272A0000DDD5FFFFE9
:108C3000064801694907FCD500218160034A0421E7
:108C4000803A117001694907FCD57047800008110E
:108C5000704770473EB50446007800280FD00328BF
:108C60000CD150A004F0D0FF1F2003F0B9FFA07872
:108C7000FFF7A2F80121152002F0E6FA3EBD04F04C
:108C800001FDA078FFF798F84C4D17238122194673
:108C90000B20009503F048FE1823812219460F206F
:108CA000009503F041FE19238122194613200095F7
:108CB00003F03AFE414D42A01F35009000232A46A2
:108CC0001C210A2003F0D6FD3FA0009000232A4675
:108CD0002C210A2003F0CEFD3C48002110230191F5
:108CE00002901A4600952C211A2003F092FE38A01B
:108CF000009000232A462C21272003F0BBFD35A03D
:108D0000009000232A463C210A2003F0B3FD33A043
:108D1000009000232A464C210A2003F0ABFD31A02D
:108D2000009000232A465C210A2003F0A3FD2FA017
:108D3000009000232A465C212B2003F09BFD1F207E
:108D4000C00201250090832329227021019509206A
:108D500003F0AAFE3F20400100908323532270219C
:108D60000195332003F0A0FE1F20009083237D2275
:108D7000702101955D2003F097FE607A00280CD0E9
:108D8000204607F0D1FB0121204607F065FD204673
:108D900007F068FE204607F07FFE204607F0A0FAA5
:108DA00068E700000A2073797374656D206F66664A
:108DB000204368617267696E670A0000E0FF000087
:108DC0004C6576656C0000005465000009130020B6
:108DD000702E0000436F6C6F720000005363656E6D
:108DE000650000005374726F0000000062650000AF
:108DF00010B515480221C1700021FF2201716932AE
:108E0000C2807F22D2054262017005224272642430
:108E1000047203464170012220331A742B2383729B
:108E2000C17201734173042383708473074B03621F
:108E3000C273FF2303744282017642768376C17641
:108E400001774177817710BDF81F0020CDCCCC3D54
:108E5000064801694907FCD500218160034A0621C3
:108E6000803A117001694907FCD5704780000811EC
:108E700070B5104C012525700020607104F05EF87B
:108E800065700121122002F053F90121122002F035
:108E9000DBF97D22D2002902207DFCF7F9F964225A
:108EA0000821207DFCF7F4F903A202211420FEF72B
:108EB00011F870BD98180020523A00007CB5294E78
:108EC00069463046FDF774F96846007801250028A8
:108ED00006D1684605706A4601213046FDF7A4FABE
:108EE000214C01A925703046FDF762F968460079EA
:108EF000002806D16846057101AA01213046FDF718
:108F000093FA25700026667104F018F86570012147
:108F1000122002F00DF90121122002F095F97D22B4
:108F2000FF21D2000131207DFCF7B2F96422082133
:108F3000207DFCF7ADF9FEF73BFFE07C002804D074
:108F400066720A4807F08AF97CBD07F0E5FDE27A0F
:108F500002216420FDF7BCFF227B04216420FDF781
:108F6000B7FF7CBD0503000098180020F81F002003
:108F700010B5064A012351729072D370002111710D
:108F80000F201146FCF7BEFB10BD0000F81F0020AB
:108F900010B5074A5172D080642010720220D07040
:108FA0000021117137201146FCF7ACFB10BD000009
:108FB000F81F0020F0B5FD4DFD4FE8688DB000783A
:108FC000787068880026411C69802988884200D30F
:108FD0006E80F848F649407ACC6800280CD0FBF740
:108FE00056FFF549FBF718FDF449FBF752FDF4492C
:108FF000FBF7B9FC206100E026616888F14D152877
:1090000048D8C6B22069FBF79DFF0746029130465B
:109010000191FBF757FF0646EB4AEC4B0091FBF73B
:1090200035FEEB4AEB4BFBF77FFD3A46019BFBF726
:109030002DFE00222B46FBF729FEFBF765FFA080E3
:109040003D463046E44AE54B029F0099FBF71EFE81
:10905000DD4AE34BFBF768FD2A463B46FBF716FE6D
:109060000022D84BFBF712FEFBF74EFFE0802046B4
:1090700007F0D0FCCE48C0680069FBF763FF0D46DF
:1090800004463046D74AD84B0099FBF7FFFDD74A34
:10909000D74B86E11A282ED82069FBF753FF0F46DD
:1090A0000646D44AD44BFBF7F1FD00222B46FBF7D2
:1090B000EDFDFBF729FFA08030463946CF4AD04B63
:1090C000FBF7E4FD00222B46FBF7E0FDFBF71CFF5E
:1090D000E08030463946CB4ACB4BFBF7D7FD002228
:1090E0002B46FBF7D3FDFBF70FFF2081204607F04F
:1090F00079F90DB0F0BD25287ED81A38C0B200909D
:109100002069FBF71FFF0A900B910098FBF7DAFE2E
:10911000AD4ABE4B05910490FBF7B8FDB34A0091F0
:1091200001905242BA4B02910390FBF7FDFC0B9B5E
:109130000A9AFBF7ABFD0022A24BFBF7A7FDFBF75A
:10914000E3FEA080B34AB44B02990398FBF70EFFED
:1091500019D2FA6802921069FBF7F4FE0D46044634
:10916000AC4AAD4B00990198FBF788FD22462B468F
:10917000FBF78CFD0022934BFBF788FDFBF7C4FE49
:10918000029AD08001E0F868C680A24AA34B0099F9
:109190000198FBF7EBFE17D2FE683069FBF7D2FEB1
:1091A00004460D469B4A9D4B00990198FBF766FDCE
:1091B00022462B46FBF76AFD0022824BFBF766FD39
:1091C000FBF7A2FE308101E0F8680681F86807F03D
:1091D00021FCF8680069FBF7B5FE04460D46904A8D
:1091E000904B05990498FBF751FD22462B46FBF75F
:1091F0004DFD0022734B00E007E0FBF747FDFBF756
:1092000083FE80B206F07AF873E7352860D82538F7
:10921000C0B200902069FBF795FE06900791009878
:10922000FBF750FE00910190674A784B0291039042
:10923000FBF72CFD7C4A7D4BFBF776FC079B069ADF
:10924000FBF724FD00225F4BFBF720FDFBF75CFEE4
:10925000A080774A774B02990398FBF717FD654A80
:10926000754B04910390FBF781FE19D2F9680291C6
:109270000869FBF767FE0D4604465E4A6E4B04998B
:109280000398FBF7FBFC22462B46FBF7FFFC002272
:109290004C4BFBF7FBFCFBF737FE0299C88001E063
:1092A000F868C680F96808460E8107F0B3FBF868D5
:1092B0000069FBF747FE04460D46604A604B009983
:1092C0000198FBF7E3FC5F4A5F4BFBF72DFC8CE753
:1092D0003A281BD8372897D82069FBF733FE3C4A39
:1092E0003C4BFBF7D3FC00222B46FBF7CFFCFBF7F4
:1092F0000BFEA080E6802681204607F08BFBF868F5
:109300000069FBF71FFE4F4A4F4BD0E045284BD872
:109310003A38C0B200902069FBF714FE0746059169
:1093200004910098FBF7CEFD2E4A484B0391029022
:10933000FBF7ACFC464A474B01910090FBF7F4FB6E
:109340003A46049BFBF7A2FC00221E4BFBF79EFC57
:10935000FBF7DAFDA0803D461B4A1C4B059F019997
:109360000098FBF7E1FB2A463B46FBF78FFC002207
:10937000144BFBF78BFCFBF7C7FDE08026812046F2
:1093800007F048FB0A48C0680069FBF7DBFD0D46A3
:1093900004462A4A2A4B03990298FBF777FC294A8C
:1093A000294BFBF76BFC20E756E000005020002023
:1093B000EC180020F81F00200000B64200401C46B8
:1093C000EC51B83D000089407B14AE47E17A843F00
:1093D000AE47E17A14AEE33F92CB7F48BF7D6D3F4D
:1093E000E17AA43FFA7E6ABC7493583F0AD7A3700F
:1093F0003D0AA73F9A9999999999C93F33333333D5
:109400003333B33F54E3A59BC420B03FE17A743FAC
:10941000C2F5D83F295C8FC2F528BC3FF528AC3F88
:10942000FCA9F1D24D62703F3D0AD7A3703DE23FE7
:10943000462575029A086B3F9999A93FF168E38820
:10944000B5F8343F1A2FDD240681A53F7493683F99
:109450008FC2F5285C8FE23F502800D949E64628A4
:1094600012D82069FBF76EFD134A144BFBF70EFC74
:1094700000222B46FBF70AFCFBF746FDA080E680A6
:109480002681204606F0AEFFF8680069FBF75AFD1A
:1094900004460E460098FBF715FD094A094BFBF7F9
:1094A000F5FB094A094BFBF7E9FB22463346FBF77C
:1094B000EDFB00222B469EE6A4703D0AD7A3E03FB9
:1094C000C7BAB88D06F0463F1A2FDD240681A53FA6
:1094D00070B5164DFF22EC68693260890021401C8E
:1094E00080B26081904200D361817F20C005E0603E
:1094F0000F48407A00280CD0FBF7C9FC0D49FBF758
:109500008BFA0D49FBF7C5FA0C49FBF72CFA2061E1
:1095100000E02161204602F0B3FCE86806F062FF3B
:109520000748C0680078687070BD0000EC18002023
:10953000F81F00200000B64200401C46EC51B83D28
:10954000502000200E4910B5884201D90A2010BDD4
:109550000C49884201D20C480EE00C49884201D2E5
:109560000B4809E00B49884201D20B4804E004494A
:10957000C91C884202D2094800F062F8002010BDE0
:10958000FC3F0000FF0F000000500011FF1F000013
:1095900000600011FF2F000000700011008000111A
:1095A0000449884202D90020C0437047024940184C
:1095B00000687047FC3F000000500011F0B5044601
:1095C0001E480E46844204D8A119814201D8A00742
:1095D00001D00A20F0BD0023B7080CE09D00281937
:1095E000FFF7DEFF5055010AAD186970010C000E3F
:1095F000A970E8705B1C9F42F0D89B00F01A03280A
:1096000004D002280CD0012812D015E01819FFF759
:10961000C7FFD054040A99184C70000C88700BE0F6
:109620001819FFF7BDFFD054000A9918487003E0DD
:109630001819FFF7B5FFD0540020F0BDFC3F000023
:1096400003460002012100B5000A490388421BD3EA
:10965000FEF730FD0028FBD1FFF7FAFB0B49002095
:10966000886019021804090E0843FF2109020B4003
:10967000184306490002803920300860FEF71AFDC1
:109680000028FBD1FFF7D4FA00BD000080000811CC
:109690000B4A08B5904201D8820701D00A2008BDC4
:1096A00000910521090340180002000A04226946BE
:1096B000FDF712FC002801D0002008BD012008BDE4
:1096C000FC3F0000F7B505461E4882B016468542AD
:1096D00005D803996918814201D8A80702D00A2049
:1096E00005B0F0BD03980024800800900CE0A700AE
:1096F000B819401CFBF72DF90102F05D0143781900
:10970000FFF7C6FF0098641CA042F0D80398A4009D
:10971000001B032804D0022808D001280CD00FE039
:10972000A019FBF716F90102090A06E0A019417811
:1097300000780902014300E0315D6019FFF7A8FFDE
:109740000020CDE7FC3F000038B5044668460470B1
:1097500069460320ABBE204638BD000010B5002886
:1097600023D0124B0022001F196803E0814203D866
:109770000A4649680029F9D1002A0AD01368841AD8
:109780009C4204D1006818181060104602E0506036
:1097900000E01860002907D002680B1A934203D139
:1097A0000B68D21802604968416010BD001F00209C
:1097B00070B50A4D064600240E206043401906226B
:1097C0003146FBF79BFD002801D0204670BD641C8C
:1097D000E4B20A2CF0D30A2070BD00004229002018
:1097E0007FB50D460A280CD2002D0AD00621484329
:1097F0002030C0B26A460E2104F0BAF8040003D04B
:1098000007E0022004B070BD062269462846FBF737
:109810006FFD2046F6E700218A00835A491CDB438E
:10982000835212189378C9B2DB4393700429F3D39F
:1098300070470000F8B5074600200090784CB978D2
:10984000054607266079A2790B00FBF71BFD08058A
:10985000DD1A36365E98C1DD787800285AD1704816
:109860000622F91C3C30FBF743FD0120A0716C4B34
:109870000146423362786079FBF77CFD002849D1CC
:10988000C5E07978002945D1F978002906D0654BE3
:10989000A2780021FBF76EFD78700AE0022A0BD057
:1098A0000121FBF701FD002803D101216079FBF7BD
:1098B0005BFD787800282DD1F8BD7B78002B29D16D
:1098C000032909D0A289002A0CD0217800290AD0C6
:1098D0000121FBF7DDFC06E0052A01D0022012E0A1
:1098E000062010E02570A079062802D0042802D0B6
:1098F00008E0052007E00120207001466079FBF7B1
:1099000033FD84E00320A07181E07878002803D043
:10991000312832D0A6717AE041480622391D36300E
:10992000FBF7E6FC7889E081B8892082F8896082BB
:109930000520A071A28A002A03D002216079FBF7DA
:10994000A7FCB889E083F8892084388A6084E078AD
:1099500001280AD11F20FBF7DDFC7D21C900484307
:10996000024604216079FBF793FC7A89F878042396
:10997000391DFCF723FB257049E02570C2E7284814
:10998000062200213630FBF795FCE58325846584AB
:1099900004216079FBF782FC08216079FBF77EFCEB
:1099A000B879082808D00320A0712078002805D0B5
:1099B0006079FBF7D3FC07E00420F5E70120207075
:1099C00001466079FBF7D0FC0020C043E0811EE037
:1099D0000821FBF763FC7878002800D06CE7F88852
:1099E000E083388920847889608404216079FBF7DA
:1099F0005BFC0028F2D1A06A0028EFD00368628CDB
:109A0000218CE08B9847F8BD00980028FBD0606A55
:109A10000028F8D001680029F5D0A0798847F8BD62
:109A2000A81B0020F228002010B50178224C9129B3
:109A300006D0A22926D0D02901D1FFF7FBFE10BD08
:109A400041780E29FBD181881C4A91420FD181684F
:109A500003200856A1790529F1D17F28EFD0616A4A
:109A60000029ECD049680029E9D0884710BD144A84
:109A70009142FBD1806883784278017811A004F08C
:109A8000C3F810BD41791329FBD10089012802D107
:109A90002079022808D00520FBF73CFC024608216B
:109AA0006079FBF7F5FB10BD08216079FBF7F6FB49
:109AB000FCF7E0FD10BD0000A81B0020051400000D
:109AC000222000005B48434920444C455D2564202A
:109AD00025642025640A00007CB5144C0546E08B03
:109AE000E18A88420AD3218B884207D8208C618B77
:109AF000884203D1608CA18B884216D00520FBF7E9
:109B000009FC0646E08A69460880208B4880608B05
:109B10008880A08BC8806279E089FBF7D9FC257129
:109B2000324608216079FBF7B3FB7CBDA81B0020FF
:109B300010B500F025F8002800D0806810BD002284
:109B40009300CB5A834202D1900040187047521CB8
:109B5000D2B2022AF4D3002070470000074A002145
:109B6000CB00D35A834202D1C80080187047491CE9
:109B70000906090EF4D00020704700003C1C0020AC
:109B80000649496805E08A88824201D188687047A1
:109B900009680029F7D1002070470000301C002020
:109BA000F8B50746012906D0022924D10121FBF787
:109BB00095FC00281FD13846FFF7D0FF050015D0CF
:109BC00000240D4E0CE0F8206968604308180188F5
:109BD000002908D0F8220021FBF76CFB641CE4B2DA
:109BE00070788442EFD30020C04328800249384671
:109BF0001431FCF7FBFDF8BD301C0020F3B507461F
:109C000083B00830029000267888FFF7A7FF019004
:109C100000282FD0002523E001984168F8206843F0
:109C20000C18218800291FD00298007801280ED135
:109C30006088009023797888621DFDF705F806009A
:109C400005D0029900200870049821880180F8222C
:109C500000212046FBF72EFB00206D1C2080EDB27A
:109C6000074840788542D7D30021C9430198002E88
:109C7000018002D17888FBF737FC304605B0F0BD93
:109C8000301C0020F3B50546364C074685B0083534
:109C9000162200212046FBF70DFB03A800902B792C
:109CA000698828886A1DFBF725FC064644E02E4893
:109CB0002E4900780022C01FC0B20091019202908C
:109CC000284B69468A897888F63B3146FCF738FE8E
:109CD000002812D12548E979C01EC27891420CD1E2
:109CE00020492846F6390830FBF708FB002804D045
:109CF00021787089890009194880684682896988B5
:109D000004AB3046FBF77EFB21780646880000193D
:109D10004288002A10D0002E05D06A46128A491CBB
:109D2000217082800AE00A060020920DC0431219B9
:109D3000491C2170908006E0002E04D00C48217848
:109D400000888142B3D32078002806D07888214645
:109D5000FBF7D6FB002007B0F0BD069829880180EC
:109D60000A20F8E7C62B0020EC10FF1F331C002050
:109D7000F410FF1FF0B585B00446002568468581C4
:109D800020790E287ED00EDC082822D004DC0228A0
:109D900012D006286ED117E0264608360A281ED0B3
:109DA0000C2867D138E0102879D012287CD01628EA
:109DB0007FD018285ED181E044484349008808805C
:109DC0006088FBF7A3FB55E003A92046FFF75AFF85
:109DD00003E003A9204600F06DF905463BE030881A
:109DE00004A9FBF709FB010014D03948364F00786D
:109DF0000097401EC0B2019502906A4660887B1CA5
:109E0000128AFCF79DFD05001DD160883946FBF7DD
:109E100083FB20E0012516E0308804A9FBF7ECFA6B
:109E20000100F7D02A4872880078274F401EC0B240
:109E30000192009702906A466088128A7B1CFCF7A8
:109E40007FFD050003D030886946888103E0608883
:109E50003946FBF767FB002D0CD06078142809D039
:109E60001949207908706846808948800D7160889A
:109E7000FBF75EFB2046FBF761FB16488168002973
:109E800006D003E006E00AE00EE012E02046884734
:109E900005B0F0BD03A9204600F098F99DE703A99D
:109EA000204600F06BF898E703A9204600F0F2F98D
:109EB00093E703A9204600F00FF88EE703A9204698
:109EC000FFF79CFE89E70000C62B0020EE10FF1F65
