:020000041FFFDC
:1008000000000000C1E3FF1F5418002088180020DA
:10081000D4240020000000000000000000000000C0
:1008200000000000000000000000000000000000C8
:1008300000000000000000000000000000000000B8
:1008400000000000000000000000000000000000A8
:100850000000000000000000000000000000000098
:100860000000000000000000000000000000000088
:100870000000000000000000000000000000000078
:100880000000000000000000000000000000000068
:100890000000000000000000000000000000000058
:1008A0000000000000000000000000000000000048
:1008B0000000000000000000000000000000000038
:1008C0000000000000000000000000000000000028
:1008D0000000000000000000000000000000000018
:1008E0000000000000000000000000000000000008
:1008F00000000000000000000000000000000000F8
:1009000000000000000000000000000000000000E7
:1009100000000000000000000000000000000000D7
:1009200000000000000000000000000000000000C7
:1009300000000000000000000000000000000000B7
:1009400000000000000000000000000000000000A7
:100950000000000000000000000000000000000097
:100960000000000000000000000000000000000087
:100970000000000000000000000000000000000077
:100980000000000000000000000000000000000067
:1009900089C1FF1F1DC2FF1FF1F7FF1F00000000EC
:1009A0000000000000000000000000000000000047
:1009B0000000000000000000000000000000000037
:1009C0000000000000000000000000000000000027
:1009D0000000000000000000000000000000000017
:1009E0000000000000000000000000000000000007
:1009F00000000000000000000000000000000000F7
:100A000000000000000000000000000000000000E6
:100A100000000000000000000000000000000000D6
:100A200000000000000000000000000000000000C6
:100A300000000000000000000000000000000000B6
:100A400000000000000000000000000000000000A6
:100A50000000000000000000000000000000000096
:100A60000000000000000000000000000000000086
:100A70000000000000000000000000000000000076
:100A80000000000000000000000000000000000066
:100A90000000000000000000000000000000000056
:100AA0000000000000000000000000000000000046
:100AB0000000000000000000000000000000000036
:100AC0000000000000000000000000000000000026
:100AD0000000000000000000000000000000000016
:100AE0000000000000000000000000000000000006
:100AF00000000000000000000000000000000000F6
:100B000000000000000000000000000000000000E5
:100B100000000000000000000000000000000000D5
:100B200000000000000000000000000000000000C5
:100B300000000000000000000000000000000000B5
:100B400000000000000000000000000000000000A5
:100B50000000000000000000000000000000000095
:100B60000000000000000000000000000000000085
:100B700051C8FF1F0000000000000000000000003E
:100B80000000000000000000000000000000000065
:100B90000000000000000000000000000000000055
:100BA000000000000000000000000000E5B4FF1F8E
:100BB000000000000000000075B4FF1FADB4FF1F6F
:100BC0005DB4FF1F000000000000000000000000F6
:100BD0000000000000000000000000000000000015
:100BE0000000000000000000000000000000000005
:100BF0000000000091B3FF1F000000000000000093
:0C0C000001FF01FF01FF01FF41000000A7
:020000041FFFDC
:10480000C0660020D548FF1FDD48FF1FDF48FF1F9F
:104810000000000000000000000000000000000098
:10482000000000000000000000000000E148FF1F41
:104830000000000000000000E348FF1FE548FF1FE4
:104840000000000000000000000000000000000068
:104850000000000000000000000000000000000058
:104860000000000000000000000000000000000048
:104870000000000000000000000000000000000038
:104880000000000000000000000000000000000028
:104890000000000000000000000000000000000018
:1048A0000000000000000000000000000000000008
:1048B00000000000000000000000000000000000F8
:1048C0000348854600F0CEFC00480047C1E1FF1FC9
:1048D000C06600200448804704480047FEE7FEE722
:1048E000FEE7FEE7FEE7FEE75971FF1FC148FF1F25
:1048F00003460B439B0703D009E008C9121F08C0F9
:10490000042AFAD203E00B780370401C491C521EA3
:10491000F9D27047D2B201E00270401C491EFBD2AE
:1049200070470022F6E710B513460A4604461946BA
:10493000FFF7F0FF204610BD30B5044600200346C7
:1049400000E05B1C934203D2E05CCD5C401BF8D0DE
:1049500030BD0321001D401E037812021A43491E78
:10496000F9D510467047F8B502464A40D40F4200C8
:104970004B0052085B089A4202D202460846114692
:104980004A0023D0C30D4A00DDB2120EAD1A202D0D
:1049900035DA49020126490AF6058A19002C00D0A9
:1049A000524220214F1B1146B9402A411018C20D16
:1049B0009A4221D0002C17D0012D08DCDA05801A8C
:1049C000D20F8019D207DBB200F080FBF8BDDA0508
:1049D000801A012340001B06C01880185A42801814
:1049E000CA0F1043490007E04908C2071143DA051E
:1049F000801A80194008801800F060FBF8BD610043
:104A00000122511A001BF7E70122D2075140AAE701
:104A10000122D2075040A6E7024670B54A40D30FA4
:104A2000DB0740002DD04A002AD0010E140E0002F0
:104A300012020919400A520A8418E5010446544337
:104A4000000A120A2E045043A4194219200CC5432F
:104A5000AA18120C0125AD03521C521912047F39F9
:104A6000240400D0521C104301D44000491EC2B29D
:104A70000C06C0092018401C4008802A02D003E020
:104A8000002070BD40084000002900DA00201843D3
:104A900070BD70B502464A40D50F40004A00ED0790
:104AA00040085208002814D0002A12D0C40DD30D9B
:104AB00041020120C0055202490A520AE41A0918AB
:104AC00012187D34914201D3641C00E04900002C8F
:104AD00001DA002070BD0023914201D3891A0343FB
:104AE000400849000028F7D100290AD0914202D19C
:104AF0000121C90705E0914201D2012101E0012114
:104B0000C943E005C018401900F0D8FA70BD420052
:104B100005D04200120E52428A4201DB002070474B
:104B2000C905081870470000F0B507460846584008
:104B300087B0C00F049048000E465900400849084D
:104B4000BC1A884105D2384631461E4617460B46E8
:104B500002465800400810434CD0300D03904005E9
:104B60005900400D490D0590401A0290402872DA14
:104B700018030121000B09050843019004980092D5
:104B8000002805D0019952420020884100920190EE
:104B9000029840210A1A0199009800F05BFA054634
:104BA0000C466B4607CB00F076FAC0197141039AA8
:104BB0000E0D0023D71756401A467A40164344D0AC
:104BC000049A002A2DD0029A012A039A15DC1205B4
:104BD000C01A914101263605001C7141D20F059E75
:104BE000D2070093019202962A46234600F0B4FAB7
:104BF00007B0F0BD38463146FAE71605224A0F469F
:104C0000B218C01AB74101210905001C4F41001814
:104C10007F41114618187941E20F10436D19644124
:104C200013E0E2076D0815436408C2071443039AB2
:104C300001261205C01A91413605001C7141CE07AC
:104C4000400830434908C01851412A46234600F025
:104C500076FACDE7FFE7049801224000C117121A47
:104C600000238B4104983146C417381AA141EEE75E
:104C700030B40124E407634030BC55E730B401246C
:104C8000E407614030BC4FE70000E0FFF0B51FB41F
:104C900088B00B990998002448400999C00F490031
:104CA00049080991C0070B990090490049080B91E8
:104CB00009990898A64608431CD00B990A980843FE
:104CC00018D0099801244000420D4800410D099870
:104CD00024050003000B204309900B980003000BF0
:104CE00020430B9050181C49401800220190144694
:104CF000104605E0002001460DB0F0BD032801DAA2
:104D0000034600E003239C46C11A0AAE0AE05F0096
:104D100008ADED5B4F00F75B7D430027AA187C418F
:104D2000491C5B1E6145F2DD410004AB5A5221046F
:104D3000120C0A43240C401C0828DFDB0198029067
:104D40000099704601910090059B049A0799069876
:104D500000F002FAD0E700000DFCFFFFF0B50C46B2
:104D60005C4085B0E40FE40703944C00002664081F
:104D700059009446490802460296224321D06246D1
:104D80000A431ED06200570D4A000E032303550D3F
:104D9000012402462C492405781B1B0B360B4018B6
:104DA00023432643614600901C46501AB44103D366
:104DB0000098401C009002E0921800985B41002887
:104DC00003DA0020014605B0F0BD002001210905ED
:104DD0000746864611E064461D46141BB54106D3BE
:104DE0006546521BB341744607430C43A646CD07A4
:104DF00040084908284392185B4105460D43EAD113
:104E00001046184313D0604619465040714008437D
:104E100006D06046101AB34106D20122002306E0F4
:104E200000220123DB0702E00122D2435310009845
:104E300074460105381C6141029C039D00196941BB
:104E400000F07DF9BFE70000FD03000070B54B00E6
:104E50005B0803430BD04B005C0D002633466542D4
:104E6000B341D417AD1AA34102DB0020014670BD47
:104E700012053018514170BDC217C10F504010B516
:104E80004018CA079623002100F020F910BD10B584
:104E900000229623114600F019F910BD0EB5C21775
:104EA000C10F5040CA0740180021054B02930192E0
:104EB00000910A460B4600F04FF903B000BD000018
:104EC000330400000EB505490291002100910A4605
:104ED0000B46019100F040F903B000BD330400001F
:104EE000410040020122400AD205090E80187F29A4
:104EF00001DA00207047962903DC9622511AC84037
:104F000070479639884070474A0009030123090B0E
:104F10001B051943094B10B5520D9A4201DA0020C6
:104F200010BD064B34339A4203DC9A1A00F0A2F803
:104F300010BD03495118884010BD0000FF03000058
:104F4000CDFBFFFFC20FD207400040080BD0C10DC0
:104F50000723DB01C91840020905400A1143C208B2
:104F600040071143704700200146704710B50029E3
:104F700004DB0124E40740428C412146002B04DB82
:104F80001C460123DB075242A3418B4200D18242DF
:104F900010BD0000CB0FDB07490010B549080246E1
:104FA0000A4307D00A0D07240903E401090B121B69
:104FB000002A01DC002010BDC900440F0C43C100D1
:104FC000E018D205801800F079F810BD0122D20750
:104FD000002800DB101A002900DB511A81427047BB
:104FE0000122D207002800DB101A002900DB511A29
:104FF00088427047F0B51FB40646002082B00546CF
:105000004024019100901BE0019922460F46304652
:1050100000F030F8049A059B801A994110D310468D
:105020001946224600F016F8361A8F41019722469B
:1050300001200021009F00F00DF838184D4100902C
:105040002046641E0028DFDC019B0098294632467A
:1050500007B0F0BD10B5202A04DB0146203A91408C
:10506000002010BD914020239C1A0346E3401943C1
:10507000904010BD10B5202A04DB0846203AD040ED
:10508000002110BD0B46D340D0402024A21A9140ED
:105090000843194610BD10B5202A06DBCB17084679
:1050A000203A1041C1170B4306E00B461341D04094
:1050B0002024A21A91400843194610BD002904DAA1
:1050C000401C490001D140084000704770B40024E2
:1050D000050C05D11024000402D1002921D011248F
:1050E000050E01D100020834050F01D10001241D75
:1050F000850F01D18000A41C002801DB4000641C46
:10510000002908D020252E1B0D46F540A14000D0D7
:1051100001212943084301061B1B000ADB1D02D5A0
:10512000002070BC7047DB05181880180029F8DAD9
:10513000401C4900F5D170BC40084000704710B5D4
:10514000002B08DA0024401C614192185B411A438D
:1051500001D14008400010BDF0B51FB482B0054633
:105160000C0003D0084602F089F802E002F086F84D
:1051700020300246009021462846FFF76BFF049B33
:10518000059A04460F4618431143084314D01846A5
:1051900010431BD0009840210A1A18460599FFF7C2
:1051A00069FF05460E46009A05990498FFF752FFDD
:1051B000084305D0012004E02046394607B0F0BD81
:1051C0000020C11705430E432C43374300990E9826
:1051D0006305401A7905E40A00220C43FD0A0A30EF
:1051E00002D500200146E9E70105101969410C9C30
:1051F0000D9D00196941FFF7A2FFDFE74A0009038F
:105200000123090B1B0519430A4B10B5520D9A4295
:1052100002DA0020014610BD064B34339A4203DC0B
:105220009A1AFFF727FF10BD034BD218FFF712FFA2
:1052300010BD0000FF030000CDFBFFFF10B50029EB
:1052400004DB0124E40740428C412146002B04DBAF
:105250001C460123DB075242A341994200D19042F0
:1052600010BD0000064C0125064E05E0E36807CCA2
:105270002B430C3C98471034B442F7D3FFF724FB80
:1052800084240020D424002070B58C180578401C9C
:105290006B075B0F01D10378401C2A1106D10278FD
:1052A000401C03E006780E70401C491C5B1EF9D1BF
:1052B0002B0705D40023521E0DD40B70491CFAE7AE
:1052C0000378401CCB1A921C03E01D780D70491C1A
:1052D0005B1C521EF9D5A142D8D3002070BD00003E
:1052E00003B40148019001BD6902000003B4014804
:1052F000019001BD7181000003B40148019001BD1E
:10530000B142010003B40148019001BDD542010042
:1053100003B40148019001BD7942010003B4014882
:10532000019001BD593A010003B40148019001BD4B
:10533000ED3C010003B40148019001BD19100000CB
:1053400003B40148019001BDC93A010003B401480A
:10535000019001BD5518000003B40148019001BD42
:105360008117000003B40148019001BDC13C010058
:1053700003B40148019001BDA53C010003B40148FC
:10538000019001BD3917000003B40148019001BD2F
:105390003914000003B40148019001BD1117000049
:1053A00003B40148019001BDF13E010003B401487E
:1053B000019001BD1B3D010003B40148019001BDF6
:1053C0007114000003B40148019001BDC131000017
:1053D00003B40148019001BDC912000003B40148A3
:1053E000019001BD3D42010003B40148019001BD9F
:1053F0005D19000003B40148019001BD351800009B
:1054000003B40148019001BDC118000003B4014874
:10541000019001BD3515000003B40148019001BDA4
:105420004117000003B40148019001BDE9150000D7
:1054300003B40148019001BD897B000003B4014819
:10544000019001BDD520000003B40148019001BDC9
:10545000A5E5000003B40148019001BDC91F00008B
:1054600003B40148019001BDB51E000003B401481A
:10547000019001BD3D1C000003B40148019001BD35
:105480000D1D000003B40148019001BD830600001A
:1054900003B40148019001BD0143010003B4014878
:1054A000019001BDE120000003B40148019001BD5D
:1054B000ED3A010003B40148019001BDF53C010043
:1054C00003B40148019001BD5D3F010003B40148F0
:1054D000019001BDDD21000003B40148019001BD30
:1054E0005171000003B40148019001BD9D190100F4
:1054F00003B40148019001BD3921010003B4014802
:10550000019001BD8D44010003B40148019001BD2B
:105510005590000003B40148019001BD7D3A01009F
:1055200003B40148019001BD913F010003B401485B
:10553000019001BDA942010003B40148019001BDE1
:10554000D136000003B40148019001BD01E600001E
:1055500003B40148019001BDBD07000003B4014838
:10556000019001BD891C000003B40148019001BDF8
:10557000E907000003B40148019001BD6D07000078
:1055800003B40148019001BDFD0E000003B40148C1
:10559000019001BD2D0E000003B40148019001BD32
:1055A0003D07000003B40148019001BD211A00002D
:1055B00003B40148019001BD050E000003B4014889
:1055C000019001BD8922000003B40148019001BD92
:1055D000610E000003B40148019001BD9D0E000062
:1055E00003B40148019001BDD50E000003B4014889
:1055F000019001BD610F000003B40148019001BD9D
:105600009502000003B40148019001BD354301003B
:1056100003B40148019001BDE997000003B40148BB
:10562000019001BD3D98000003B40148019001BD07
:10563000E58D000003B40148019001BD49770100E8
:1056400003B40148019001BDE91D010003B4014804
:10565000019001BD1120010003B40148019001BD7A
:105660004920010003B40148019001BDF504010087
:1056700003B40148019001BD4112010003B4014887
:10568000019001BDFD0A010003B40148019001BD74
:10569000D90E010003B40148019001BDCD1C0100E9
:1056A00003B40148019001BD4956010003B401480B
:1056B000019001BD8D3C010003B40148019001BD82
:1056C000E55B000003B40148019001BDE129000041
:1056D00003B40148019001BD9937000003B40148AB
:1056E000019001BD5114000003B40148019001BDB7
:1056F000091F000003B40148019001BDA579000015
:1057000003B40148019001BD4103000003B4014806
:10571000019001BDF161000030B50023094D0CE09E
:105720000C785B1C24092C5D04700C78DBB2240718
:10573000240F2C5D4470801C491C9342F0D3002040
:1057400030BD00007A25002010B50549054801F05C
:105750008DF80348044A0821083001F04DFA10BDC5
:10576000D4250020FFFF0000A4230020F0B585B061
:105770000E46054614216846FFF7D3F8042005437A
:10578000A806800F01D0302005436F46280A7870A4
:1057900003243946BD70E80702D0F078C8700424AD
:1057A000A80702D530793855641C680716D52448F7
:1057B000C079002806D0A80501D5307D00E0707AB8
:1057C000502105E0A80501D5307D00E0707A642104
:1057D00048436421FFF784FD3855641C280702D52F
:1057E000B07A3855641CE80606D5F088000A3855AA
:1057F000B079641C3855641CA80603D5307A385536
:10580000641CE4B2680603D5F07B3855641CE4B22E
:10581000280603D5307C3855641CE4B2E80503D56E
:10582000B07C3855641CE4B2A80503D5707D3855AA
:10583000641CE4B26846047008F072F905B0F0BD6B
:105840000C250020FEB5994C0A25607A21460427D4
:10585000897A01280ED003281BD120462026407DBE
:105860000B00FFF743FD0B7A818C9CA7B7C2D2DEF9
:10587000FDF77A000B00FFF739FD120A0D141F2403
:10588000292F34394045494F555B6167EF0A03F0D2
:10589000E3FFFEBD09F0CEFB18200AF0F9FA022062
:1058A00018E000200AF0F4FA032023E00121890324
:1058B000607DFFF721FDFEBD18200AF023FAA772D4
:1058C000E3E000200AF01EFA052013E018200AF099
:1058D000CDF90620A072D8E000200AF0C7F9072011
:1058E00008E018200AF0D8F90820F3E700200AF0B1
:1058F000D3F90920A0720A22D8E718200AF0E4FAA6
:10590000A572C2E000200AF0DFFAFEBD642100208B
:1059100004F00CF80C2023E06421782004F006F851
:105920000D201DE06421F02004F000F80E2017E0A7
:105930006421382003F0EAFF0F2011E064213820B1
:1059400003F0E4FF10200BE059A003C80090019180
:10595000684608F0E5F8112002E003F057FF012047
:105960007D22A0721201A1E709F064FB64210020EE
:1059700003F0DCFF0220A072E08A208385E07D2214
:105980000121D2008903FFF7B7FC208B002856D0F5
:10599000401E0004000C208351D103205EE046A28B
:1059A0000221142001F0D6FA6421782003F0BEFF12
:1059B000A7725FE07D220121D2008903FFF79CFCE2
:1059C000208B00283BD0401E0004000C208336D1E1
:1059D000052043E039A20221142001F0BBFA642122
:1059E000F02003F0A3FF062019E07D220121D20060
:1059F0008903FFF781FC208B002820D0401E000483
:105A0000000C20831BD1072028E02DA202211420A6
:105A100001F0A0FA6421382003F078FF0820A0727A
:105A200028E07D220121D2008903FFF765FC208B4D
:105A3000002804D0401E0004000C20830DD080B24A
:105A4000FFF725FA0246002302212420009603F0E6
:105A500099FDFEBD1CE003E024E00920A072F8E7F8
:105A600018A20221142001F075FA6421202003F00D
:105A70004DFFA572E08A2083FFF709FA0246002352
:105A800002212420009603F07DFD7D22D2000DE747
:105A9000208B002804D0401E0004000C208301D07D
:105AA00080B2E9E7002001F0A1F900000C250020F8
:105AB0000500030000000000473A0000423A0000E1
:105AC000433A0000573A000002484079002800D0CD
:105AD000012070470C25002000B585B014216846D0
:105AE000FEF71FFF10486A46C178117001795170A6
:105AF000417A9170817AD170C1881171090A51710E
:105B0000017A9171C17BD171017C1172807C5072DC
:105B10000A21032001F0C4FA002802D0002005B0B9
:105B200000BD0120FBE70000742C0020012070471D
:105B3000FEB52C4C00252570A571E57165722A48CB
:105B40000AF0BCF97F202949C005086000F0D2FDA9
:105B5000012105224903607DFFF7CEFB244E6946F3
:105B6000304600F065FB68460078012806D168469B
:105B700005706A460121304600F096FC1021607DD8
:105B8000FFF7C0FB1B48C5701BA003C80190029122
:105B900001A807F0C5FF0BF055F86079012805D082
:105BA00007F00EFF657009F06FFC0AE00021152078
:105BB00006F06AF8002007F065FD0121152006F0C7
:105BC00063F8FF210131607DFFF79CFB0121490251
:105BD000607DFFF797FB01218902607DFFF792FB53
:105BE000FEBD00000C250020000020417025002093
:105BF00005030000742C00200500030000000000D5
:105C0000F8B502F01DFB0BF005F84F4C4F4D012786
:105C100027706946284600F00BFB6846007800288C
:105C200006D1684607706A460121284600F03CFC10
:105C30006078002802D1677009F0D2FAA7717D223E
:105C4000D2001021607DFFF757FB60790026012804
:105C50001DD03F4A0121607DFFF74EFB09F014FC87
:105C60003A4A3948FF21EE320131407DFFF744FBCB
:105C7000384D6878042801D3022068700024C0B22F
:105C800002280ED0012810D0032812D017E02F4A86
:105C90000121DD32607DFFF72FFB2B48068446840F
:105CA000DEE730240220E87001E00824EF702E7156
:105CB00005E00320E870E87A4024401C28710021A8
:105CC000012005F0E1FF23482030007C012806D0A8
:105CD000022808D003280BD004280FD018E0EF705A
:105CE0002E710F2414E00220E8702E7137240FE08B
:105CF0000320E870E87A2871072409E00420E8709E
:105D0000E87F02281BD0FF24AE77C9340520044366
:105D100010492046FFF72AFD002007F0B3FC0D488C
:105D200003F054FC0B480BF089F80BF009FB064814
:105D3000012132228902407DFFF7EAFAF8BDFF24F3
:105D4000AF77F134E2E700000C25002005030000E6
:105D5000CA070000742C0020FEB507F0B1FA7D27B9
:105D600042066021FF000126A74D002A09DA8206BB
:105D70001AD5884304466879022829D009F04EFFD5
:105D800026E0820610D588430446687901281FD092
:105D90006E71287800281ED13A460121687DFFF7F0
:105DA000ABFA0AF051FB13E0884304460B2005F0E0
:105DB00027FF00280CD06879002809D00AF098FB4A
:105DC0002878002807D10A220121687DFFF794FA7C
:105DD000287800280AD00121687DFFF79FFA002863
:105DE00004D13A460121687DFFF786FA687A0027D8
:105DF000002875D0E1070CD0A878401CC0B2A8706C
:105E0000322803D9AF70002000F0F0FF401CA870CA
:105E100068E0A978002964D0012802D0022842D085
:105E20005CE0A87A002859D1687BA97B0840E97B0F
:105E30000840297C084251D002F008FA00900AF08C
:105E4000E3FE0446714900984018FA28A87C09D35B
:105E5000002802D1032003F093FB022003F090FB03
:105E6000AE7405E0002803D0032003F089FBAF7473
:105E70006000000E0FD066482118664881420AD3A0
:105E8000A87C002802D1032003F07AFB012003F054
:105E900077FBAE7422E0A87C00281FD10B20A872EB
:105EA000FFF7D0FC1AE008220021502001F050F842
:105EB000687BA97B0840E97B0840297C08420DD01B
:105EC00009220021502001F043F853A003C801919A
:105ED00000900621684606F059FC6E74AF70FEBD56
:105EE00042E0AF70A87A00281FD120070DD5E87ACC
:105EF00032280AD2401CC2B2EA720221642001F0A8
:105F000027F8E87A282800D96E73E0060DD5E87ADC
:105F10000A280AD9401EC2B2EA720221642001F0A6
:105F200017F8E87A142800D2AE73687A03285FD194
:105F3000A87A022801D3E88A2883288BFEF7A7FFD6
:105F400002462020009000230221242003F01AFBA7
:105F5000002CC4D0E00701D0142200E096220421D6
:105F6000687DFFF7C9F9BAE7E0070ED0A878411CB1
:105F7000A97032281CD9AF702878002802D0FFF70A
:105F8000D7FDACE7FFF73CFEA9E7E87C00280FD17E
:105F900068460780A878002809D02878002806D00D
:105FA0001F48407A002802D0684607F0F5F8AF7025
:105FB000287800281CD0E87C002819D16846078082
:105FC0002007E87817D5411CE970142804D915205A
:105FD000E870684607F046F8E00628790FD5411CBE
:105FE0002971142804D914202871684606F0B0FFDE
:105FF000002CB1D173E70028EF70EAD1ECE700285C
:106000002F71F2D1F4E700000C250020CAEFFFFF4A
:10601000000090BE0100B00002800102C00A000032
:10602000742C002010B5034A1321034800F0E4FD4E
:1060300010BD0000CC23002070260020FFB595B0D5
:106040000025109510AA119500F098F806460A2828
:106050007CD204460620444320462030C0B26A4623
:106060000E2108F0F1F9002802D168468089C5B2F6
:1060700017981390404818990078022813D00020F0
:106080001290082911D020462130C7B21C220021CD
:106090006846FFF749F96A461C21384608F0D4F9EA
:1060A000002805D010E00120EAE720462230ECE786
:1060B0006846807EC01F092806D8E907C90F6A46CE
:1060C000129B1398FFF736F91422002107A8FFF757
:1060D0002BF920462430C0B207AA102108F0B4F9E9
:1060E000002812D11022FF2107A8FFF729F9002864
:1060F0000BD12534E0B20BAA042108F0A5F9E90779
:10610000C90F07AA1798FFF721F97036F0B20CAA49
:10611000102108F099F9002811D10CA804F095F885
:1061200000240CAEA00080190188002903D08278D9
:10613000179800F0BDFD641CE4B2042CF2D3A8074C
:1061400004D50D48017B179800F0A0FD189804288D
:106150000FD10949087802280BD10A791798002A2B
:1061600000D001224978002900D004211143FFF713
:10617000F3F8002019B0F0BD88280020F0B50A24FB
:1061800085B015460F46002806D0012804D0022805
:1061900010D0032846D11FE0084604F023F8044637
:1061A0000A283FD2002D3DD0062239462846FFF767
:1061B000D9F837E01D4E00240E20604380190622D6
:1061C0003946801DFFF7D4F8002823D1641CE4B2BF
:1061D0000A2CF1D30A241DE000242046062148435E
:1061E0002330C0B26A46102108F02EF900280CD1E5
:1061F0001022FF216846FFF7A3F8002805D1394691
:106200006846FFF7BBF8002804D0641CE4B20A2CEF
:10621000E3D3DFE70A2C05D2002D03D02946204620
:1062200003F0F8FF204605B0F0BD0000EA3500207D
:1062300070B50C460146032000020A1A00253448B6
:106240001300FFF753F81D1012151C1F2326282CCE
:10625000303234383A3C3E40424446484A4E50522E
:106260005A5456585A00C07911E01022294902E0C8
:106270002849102210312046FFF774F845E0C06A23
:10628000206042E0224906223C31F4E70078207089
:106290003BE0808936E01E4942784231EBE71D49F8
:1062A00082781F39E7E7007AF1E7407AEFE718498B
:1062B00006223031DFE7807AE9E7C07AE7E7C08974
:1062C00020E0808A1EE0C0781CE0C08A1AE0008BC3
:1062D00018E0408B16E0808B14E00D490622363121
:1062E000C9E7C08B0EE0008C0CE0408C0AE080799E
:1062F000CDE7008A06E0408A04E0272904D2084658
:10630000FFF742F8208000E00225284670BD00001B
:1063100024280020B935002070B50E4C002560718E
:10632000A571691EE181FFF735F80420E0711022A4
:1063300000210948FEF7F8FF07481022002110301D
:10634000FEF7F2FFE562257265720720A072E57222
:1063500070BD000024280020B9350020FEB53B4D5B
:106360000C4608040CD56879FFF71AF8050004D02C
:1063700004F074F82846FFF719F80120C00360E024
:10638000600403D5012080034840FEBD2F48E1078B
:106390000126807900292AD02978002920D00528D3
:1063A00021D0287A69460870687A4870274900A881
:1063B000062230310230FEF7D5FFA87A694608720E
:1063C000E87A48726879FEF7F7FF002808D00720BE
:1063D000A871696A002903D00968002900D088479C
:1063E00020467040FEBD032069460870E5E7A1071E
:1063F0000DD5052809D1E889FEF7E4FFAA8A002A0D
:1064000003D002216879FEF777FF022019E06007C8
:1064100004D5002004F07AF8042012E0200712D5F9
:106420002879012802D002280AD107E00096AB8B18
:106430006A8B298BE88A00F00BF801E000F05AF92A
:1064400008206040FEBD0020FEBD00002428002082
:10645000F8B5134C069DA679052E01D01420F8BD81
:10646000104F861FBE4219D2062917D3BE1DB14256
:1064700014D2FF27F537BA4210D20A2B0ED3B342FB
:106480000CD2E08221836283A383284604F03EF885
:1064900004216079FEF736FF0020F8BD1820F8BD12
:1064A000242800207A0C0000F7B50C46804900989B
:1064B000164642187F4F00257879B9791300FEF708
:1064C00015FF190E141BE92040455970777E888FFF
:1064D000E996A2A9B4BFC8E9E9E9E9D3E900102C1B
:1064E00076D11022314674486FE0102C70D172487A
:1064F00010223146103068E0042C69D13068F8620F
:10650000CEE0012C64D13B7832783A70002B0AD06F
:10651000002A07D1022903D0062901D0042901D17C
:10652000FEF756FFBCE0002A0AD0012905D0032956
:1065300003D0052901D0042902D10121FEF74EFF25
:10654000AEE0022C44D13088B881A9E01F2C3FD89E
:1065500058481F2200214230FEF7E6FE55482246E9
:1065600031464230FEF7FEFE524B7C7042332246EB
:10657000012112E01F2C7CD84F481F2200211F3818
:10658000FEF7D2FE4C48224631461F38FEF7EAFE9F
:10659000494BBC701F3B224600217879FEF724FF4F
:1065A00083E0012C65D13078042862D8387277E016
:1065B000012C5ED1307803285BD8787270E0062C0D
:1065C00057D13C48062231463030FEF7CBFE67E01B
:1065D0004FE0012C4DD1307807284AD8B8725FE0DF
:1065E000012C46D13078032843D8F87258E0022CA9
:1065F0003FD13288BA82002A52D0052950D10221D7
:10660000FEF77AFE4CE0012C33D13078012830D8E7
:10661000F87045E03088022C2BD1062829D31921A7
:10662000C901884225D8F8823AE03088022C20D16E
:1066300006281ED31921C90188421AD838832FE0B1
:106640003088022C15D1FF21F531884211D2788390
:1066500026E03088022C0CD10A280AD31921C9015E
:10666000884206D8B8831BE03178012C01D101297A
:1066700001D0182514E00821FEF750FE002801D0B3
:1066800016250DE0002003F041FF04217879FEF784
:1066900039FE05E00098272801D2022C02D00225FD
:1066A0002846FEBD3188FEF7A5FE0546F8E7000046
:1066B000FFFCFFFF24280020B93500201CB50B4C3F
:1066C000A179002901D011201CBD002800D06062F2
:1066D000064907482C31034601910090103B0022E7
:1066E000E179607900F016F800201CBD2428002014
:1066F000C935002010B506488179052901D012203E
:1067000010BDC18913224079FEF77AFE10BD00004A
:1067100024280020F8B51D460224069F079E0B0082
:10672000FEF7E4FD0A150806060815061506061507
:10673000002C0CD1FEF76AFE040008D1324639461F
:106740002846FEF769FEFEF76DFEFEF771FE204655
:10675000F8BD08B500206946009005204A1C09F0E4
:1067600049FF6846407800090300FEF7BFFD0906AF
:10677000080A060C0E1114170600502008BD202030
:1067800008BD282008BDA02008BDFF20913008BD0D
:106790001920400108BD1920800108BD1920C00141
:1067A00008BD08B500206946009005204A1C09F084
:1067B00021FF684640780007000F0300FEF796FDB2
:1067C0000A06080A060C0F1215181B06A02008BDA1
:1067D000302008BD502008BDFF20413008BD1920E1
:1067E000400108BD1920800108BD1920C00108BD65
:1067F0001920000208BD7D20C00108BD10B500238E
:1068000009E01C012418E468944202D11901081817
:1068100010BD5B1C9BB28B42F3D3002010BD000067
:1068200070B50F4D0F4CA87029461431204600F06A
:106830001DF8002128460B460C30CA00845212185D
:10684000491C09065360090EF7D0012004F07AFABA
:10685000A878FEF7F3FD0448FEF7F6FD70BD0000D2
:10686000AC280020FFFF0000D5A5FF1F70B50A4C23
:106870000025A04209D1002082008C525218401CF1
:10688000C0B295700228F7D370BD03F072FE0028E5
:10689000FAD00480857070BDFFFF0000F8B50E4689
:1068A0000746069900240798002902D00B242046A9
:1068B000F8BD022B01D00D24F9E7117852781202AD
:1068C00089188DB22946814301D08024EFE73846EC
:1068D000F16800F089F9A842E9D02A463846F16803
:1068E00000F014FA0400E2D171892A46384600F01B
:1068F000B1F9DCE7FFB50025C1B02E464198B100E3
:106900000C1821881E48814232D0A07800282FD050
:10691000429A4A994498FFF771FF070028D0194816
:1069200003A900780231C01EC0B20290002200917B
:106930004498019242894B1C2088394600F040F867
:10694000002815D1788969468881A078C00705D0CC
:10695000208803A9439AFEF77DFD0543A0788007B0
:1069600006D5208803A94B9B439AFEF779FD054382
:10697000761CF6B2022EC1D3284645B0F0BD000009
:10698000FFFF0000EC10FF1F70B50C46080412D585
:106990000A488078FEF704FD050008D02878B02862
:1069A00002D1284603F000FF2846FEF7FFFC012035
:1069B000C003604070BD002070BD0000AC28002006
:1069C000FFB583B0087A00250C9E1C460F46C00612
:1069D0000DD5059803F0C6FD030006D00A223946FE
:1069E00003989847050035D101E00E2532E038784C
:1069F00002281DD17868292201784078120200020D
:106A0000081881B2881A91427ED009DC7348081AAE
:106A100023D0012821D002284FD0032808D125E017
:106A2000012872D0022871D003286DD004286ED0BE
:106A3000059803F0BFFD00286AD00568002DD4D06A
:106A40000E990D98019100903346224639460398DD
:106A5000A8470546284607B0F0BD0D98002872D11A
:106A6000F868017831700278416896E00D98002846
:106A700069D101203070F868002100782070788991
:106A8000401C80B2FEF7F2FC00280DD0317802786D
:106A90008918891C3170817A61704189090AA17055
:106AA00002784168E01C79E030780422001D3070E3
:106AB0000021601CFEF738FCCCE70D98002875D14A
:106AC000F86802A9008800900420307000982070B7
:106AD0000098000A60700098FEF7C8FC070029D0F3
:106AE000F86800906846028901AB3D493846FEF7D8
:106AF000C3FC002810D13B7802213A487A68FEF79F
:106B0000C1FC002808D104E026E030E01CE04AE0A7
:106B100062E03348694688800098007802280CD1EA
:106B2000009802224168201DFEF71CFC3078801C72
:106B3000307002E069460098888068468088A070BE
:106B4000000AE07086E731E00D9800282ED1F96840
:106B5000039800F049F804E00D98002826D1F86861
:106B60000088022131702070000A607072E7F868B6
:106B7000FEF78EFC0D99C0B2814212D8814201D13C
:106B8000002206E00E9A8918814202D30D99401A1C
:106B9000C2B23270F9680D9809182046FEF7E2FB80
:106BA00058E7072556E70D98002801D00B2551E737
:106BB0000721F8683170017821704178617081781F
:106BC000A1704188090AE1700179217181796171AF
:106BD000C088000AA0713DE700252FE700280000CB
:106BE000FFFF00001E7C010010B503F0C2FC00286E
:106BF00000D0807810BD00007CB51546040019D087
:106C0000684601940180FEF749FC03001DD1002D68
:106C10001BD06489002C0DD00C20FEF745FC002809
:106C20000AD0002303608480094A856051680029E6
:106C300004D006E0022308E0132306E0506004E0DD
:106C400011460A68002AFBD1086018467CBD000086
:106C5000AC280020F8B50C4C0746207815460E46A7
:106C6000FF280FD00A20FEF725FC01000AD0B12032
:106C700008700020487008714F80CE800D81207808
:106C8000FEF71EFCF8BD0000AC28002070B50C46D5
:106C900005460649FFF7A8FF800704D52146284688
:106CA000FEF714FC70BD012070BD0000C02800205C
:106CB0001CB56B461A71120A5A7100220092022307
:106CC00001AA00F001F81CBDFFB583B008461F46BD
:106CD00001A90C9EFEF7CAFB050014D06846808807
:106CE00003F068FC00280AD04468002C09D0009604
:106CF0003B462946059A0398A04707B0F0BD0024FB
:106D0000F3E70E20F9E70120F7E7000070B514461D
:106D10000E46054603F02DFC002806D131460548F5
:106D200003F027FC002803D005808470002070BD8C
:106D3000112070BDFFFF0000014610B50020C907FB
:106D400004D0034A07210348FFF756FF10BD000097
:106D5000E0230020B027002070B50D461646002421
:106D60001D490300FEF7C2FA080512343419342213
:106D70002934152D23D8162200211848FEF7D4FAFD
:106D80002A4631461548FEF7EDFA22E0022D16D1CB
:106D900011491088103908801BE0082D0FD10E48CA
:106DA000082231460838FDF7A3FD12E0012D06D177
:106DB000CA6909493078283107E0012D01D018242B
:106DC00007E0CA6B04493078483104F066F900E006
:106DD0000224204670BD0000B0270020843500202A
:106DE0000148007870470000D8240020002801D016
:106DF00009F0CEFB0021132004F046FFFEE700005F
:106E0000F8B5454F0A4639788446092948D00A29F9
:106E100046D00B2944D00C2942D00D2940D03F4CFC
:106E2000607A002801D001281AD12078002801D0EA
:106E3000012815D165893A482B1F834210D2A389B6
:106E40001E1F86420CD2AB420AD8002A01D0012A6A
:106E500006D16046334B344D00282DD0012801D097
:106E60001220F8BD207A01281AD0252001260029F9
:106E700004D007290AD0082908D011E0E671E2738E
:106E8000A07405203870FEF727FB13E06A68928D26
:106E9000520605D51A78002A04D024A000F0CAF9B9
:106EA0002120F8BDA07427481E7001210903007835
:106EB000FEF794FA26722CE072B60026052904D05B
:106EC000072907D0082905D005E03E701E20FEF7EF
:106ED00009FB00E01E7026725820FEF709FB62B61F
:106EE000FEF70CFB184E194CA8600FE0FEF706FBEE
:106EF000A968884201D3401A01E0711A0818E860B5
:106F00007D226969D2005143814202D32068012861
:106F1000ECD00020F8BD00001D12FF1F421DFF1F16
:106F2000FD3F00002312FF1F582B00205B4C4C5FDD
:106F30004442475D202530325820253032580A0D12
:106F4000000000001C12FF1F40420F005812FF1FDC
:106F50000020704770470000F8B504460020034643
:106F60000A5C8507ED0EAA401343401C0428F7DB9A
:106F700001F000FD0028FBD102F038FC21022004C2
:106F8000090E0843FF273F0221463940084372B6E5
:106F900000211A4DA960194E0002803E801C30600D
:106FA000336062B601F0E6FC0028FBD102F0D8FAAB
:106FB00011200006201869462A695207FCD572B6CE
:106FC0000422AA6004020204240E22433840024331
:106FD0001002C01C306062B628694007FCD53078CA
:106FE000087030784870307888703078C8700098B1
:106FF000984201D00020F8BD0120F8BD80000811A2
:1070000070B50546002409490948FFF72FFC0948D7
:10701000FEF71AFAE80706D00448074A1521083097
:10702000FFF7EAFD0446204670BD00009C290020C1
:10703000FFFF0000BDFFFF1F5024002010B50B46CE
:1070400000240E49002806D0022809D005280FD0B8
:107050000224204610BD488810700246084903E00B
:10706000C8881070074902461846FEF77BF9F0E71A
:107070008889107002460449F6E700008029002044
:1070800068390020683D002068430020002803D0B4
:1070900002490861002070471120704780290020B4
:1070A000FEB517460246012000244002814201D964
:1070B0001820FEBD2148FF2515261300FEF716F9FE
:1070C000060409101524293A41800A4639461C480D
:1070D00003E081800A4639461A48FEF743F92AE060
:1070E000C1800A4639461848F7E701810A46394601
:1070F0001648FEF737F9114B00222433184613497E
:1071000010380096019512E041810A463946104830
:10711000E3E781810A4639460E48FEF723F9074B1B
:107120000022243318460B49083800960195FFF7D2
:10713000E1FB00E002242046FEBD00008029002083
:1071400068390020683B0020683D0020683F00202F
:1071500068410020684300200249014808607047E8
:1071600040787D01542B002030B587B0044641287B
:1071700001D0422C23D118216846FDF7D2FBFF2213
:1071800017216846FDF7C6FB00256846412C02D052
:10719000422C05D00CE0122504702A460A4904E06E
:1071A0001225094904702A461231401CFDF7A0FB44
:1071B0006A4629460520FFF773FF002802D0002009
:1071C00007B030BD0120FBE71A19002010B57D2162
:1071D000C003C900FEF784F800F002F810BD0000FB
:1071E000F8B506460027FEF78FF904460648051B4A
:1071F00006E0FEF789F9A04201D3071B00E02F1833
:10720000B742F6D3F8BD0000FFFFFF00CB077622A0
:107210000748002B02D0C260012004E0CB0504D552
:10722000C260FF20013048407047002070470000D6
:10723000002000400FB410B503A9044B044A029883
:1072400000F08CF910BC08BC04B01847E5A0FF1F83
:10725000782B00200FB410B504A9074B02AA03989D
:1072600000F07CF9044602A9002000F013FD20463E
:1072700010BC08BC04B01847957CFF1F2021020CED
:1072800001D010211046020A01D010460839020927
:1072900001D01046091F820801D01046891E4208FD
:1072A00001D0881E7047081A70470000002805DBCF
:1072B000C106C90E012088400149086070470000DE
:1072C00000E100E08307FF22DB0E9A408907090EE8
:1072D0009940002808DB830809489B0018180368B8
:1072E00093430B43036070470007000F083883087F
:1072F00004489B001818C36993430B43C36170474C
:1073000000E400E000ED00E08307FF22DB0E9A407E
:107310008907090E9940002808DB830809489B006B
:107320001818036893430B43036070470007000F6E
:107330000838830804489B001818C36993430B431B
:10734000C361704700E400E000ED00E08307FF2226
:10735000DB0E9A408907090E9940002808DB830854
:1073600009489B001818036893430B430360704758
:107370000007000F0838830804489B001818C369E9
:1073800093430B43C361704700E400E000ED00E06D
:10739000BFF34F8F04490348C860BFF34F8F00BF4E
:1073A000FDE700000400FA0500ED00E0BFF34F8F99
:1073B00004490348C860BFF34F8F00BFFDE70000DA
:1073C0000400FA0500ED00E002E008C8121F08C141
:1073D000002AFAD170477047002001E001C1121F56
:1073E000002AFBD170470000F0B51FB486B00998A1
:1073F000089A030D0021024314D05148514A18182D
:10740000504305141198012810981AD0281A401CCE
:1074100000264D4F4D49009601910490002812DA44
:10742000444211E01198012449A3012801D1109888
:10743000C1430698119A84600360C26041600BB03A
:10744000F0BD4042E4E70446210500203F4A001C0D
:1074500051410391029012E0E00707D032463B46CB
:1074600001990098FDF712FC0191009032463B46CD
:1074700010461946FDF70AFC06460F466410002C1C
:10748000EAD10498039B0028029A0999089806DA21
:10749000FDF7FCFB019B009AFDF7F8FB05E0FDF70B
:1074A0005DFC019B009AFDF759FC04460E46002244
:1074B000284BFDF7C3FE03D80020C043014607E078
:1074C0000022254B20463146FDF72EFBFDF796FEA8
:1074D000102409E0002C0ADB0A220023FDF78AFDB4
:1074E000079B30321A55641E02460A43F2D111221C
:1074F000641C079B121B1C19119B012B03D0012339
:1075000008430ED10AE0084304D011201090002057
:10751000119077E71098151A6D1E0BE010988242B3
:1075200002DD00236D1C03E0824201DA00236D1EA0
:10753000002BEED0069811998260C16030C07EE7C2
:1075400001FCFFFF104D0000000014400000F03F60
:10755000300000000000F0430000E03FFFB597B0AE
:107560000646002518E2252877D100242746FD4944
:10757000049400E00443761C32780120203A9040C5
:107580000842F7D130782A280ED0022230780146FE
:107590003039092916D804990A235943303940183B
:1075A0001443761C0490F1E7189802C804911890CF
:1075B000002904DA012040030443484204900220D9
:1075C0000443761C30782E2814D1042004437078AC
:1075D000761C2A2809D11898761C80C8189009E0D2
:1075E0000A214F43303FC719761C307801463039A5
:1075F0000929F5D930786C2810D006DC4C281AD02F
:1076000068280ED06A2817D104E0742813D07A288D
:1076100012D110E00120400504430CE001210905CE
:1076200001E0032109050C437178814203D1012057
:1076300000052418761C761C3078119066280BD033
:1076400013DC58287DD009DC00287BD04528F6D0F3
:107650004628F4D047281AD1A5E118E0632835D090
:10766000642870D0652812D19DE170286CD008DCA8
:107670006728F1D069287BD06E280DD06F2806D1FD
:10768000BAE073282ED0752871D0782859D01A9A6C
:10769000199990476D1C7EE16002400F022809D0C5
:1076A00003280DD00428189801680DD00D60001D26
:1076B000189070E11898EA1701680D604A60F6E7C3
:1076C000189801680D80F2E70D70F0E718986A4687
:1076D00001781172001D18900020507202A80090CD
:1076E000012005E0189802C8189000200091C043BE
:1076F00061070DD5002101E00199491C0191B942B2
:1077000012DA8142F8DB009A515C0029F4D10BE0D7
:10771000002101E00199491C01918142FADB019AA3
:107720000099895C0029F5D1019904981A9B471AA0
:1077300021463846199A00F097FA019940194518E0
:107740000BE04FE02CE113E04EE000980099007848
:10775000491C00911A9A199990470198401E01906E
:10776000401CF2D1214638461A9B199A10E137E0A5
:107770000A200021009001916002410F022907D0E8
:10778000189A01CA1892C2179446032908D00AE031
:107790001898C01DC108C90005C91891944607E092
:1077A00000B2C2179446042902D140B2C1178C46D8
:1077B00000226146944506DA0A4600214042914182
:1077C0008C462D2102E0210504D52B216A46117338
:1077D000012103E0E10701D02021F7E7029155E004
:1077E0000A200AE0102008E0102000900021042068
:1077F00004430191082703E0082000210191009033
:107800006002410F022907D0189A01CA189200227B
:107810009446032908D008E01898C01DC108C90083
:1078200005C91891944603E080B2042900D1C0B282
:1078300000210291210729D51199702906D0009ABB
:107840001021019B4A401A4305D00EE040216A46B0
:107850001173012108E06146014306D030216A46D8
:1078600011731199517302210291009A0821019B11
:107870004A401A430AD16146014301D1610705D547
:1078800030216A46117301217F1E029111995829F6
:1078900004D035A10E910DA90D910DE037A1F9E7A6
:1078A0006146019B009AFDF7A5FB0E9B8C469B5CF5
:1078B0000D9A521E0D92137061460143F0D10D983E
:1078C00005A9081A20300190600703D501200004A3
:1078D000844300E001270198874201DD381A00E067
:1078E0000020019900904118029809180498401A44
:1078F0000490E00306D421461A9B199A049800F0DC
:10790000B3F94519002706E003A81A9AC05D199932
:1079100090476D1C7F1C02988742F5DBE0030CD575
:1079200021461A9B199A049800F09EF9451904E023
:107930001A9A3020199990476D1C0099481E0090A2
:107940000029F5DC08E00D980D990078491C0D918F
:107950001A9A199990476D1C0199481E01900029A7
:10796000F1DC63E109280100303132333435363738
:10797000383961626364656600000000303132337B
:10798000343536373839414243444546000000001B
:1079900000F05AF94519761C3078002800D0E2E54D
:1079A00028461BB0F0BD600700D406271898C01DFC
:1079B000C108C90048680A680831C30FDB0718917D
:1079C000190001D09CA108E0210501D59BA104E08C
:1079D000E10701D09AA100E09AA1430011985B0849
:1079E000109165280CD006DC452809D046281DD00A
:1079F000472841D141E0662818D067283CD13CE0B7
:107A00000021112F01DB112000E0781C0191009072
:107A100008A911A8FFF7E8FC139905910021119A14
:107A200015927F1C12980197009150E00120C00729
:107A300003900120019008A9009711A8FFF7D4FC3A
:107A4000139A149905920022119B00921298159393
:107A5000059A0192002901D0104602E0791C4018D5
:107A60000190381A01D5019804E04042401E009070
:107A7000781C0190C01B029043E0012F00DA01271F
:107A80000021112F01DD112000E038460191009006
:107A900008A911A8FFF7A8FC13990591119A0021D4
:107AA000129815920091019721070CD40599B942BB
:107AB00001DB019900E00191012904DD159A491EBD
:107AC000515C302906D0B84201DA011D05DA0121E6
:107AD000029115E00199491EEDE7002805DC0099A7
:107AE000411800910199091A03E0019A411C914241
:107AF00000DD01910099401A401C02900120C0074E
:107B00000390200706D402990198814202DB0020ED
:107B1000C043029000206946C87707AF012103984F
:107B20000337C907884224D0022011902B201290DD
:107B3000039800280CDA404203902D20129007E0B1
:107B40000A210398FDF7CCFB30317F1E039039707A
:107B50001199481E11900029F2DC03980028EFD1FA
:107B6000791E129808703078202108404530BF1ED9
:107B7000387006A8C01BC01D03901098007800281C
:107B800000D00120019941180298C01709180398E4
:107B900009180498401A401E0490E00306D42146B8
:107BA0001A9B199A049800F05FF84519109800780C
:107BB000002803D01A9A199990476D1CE00324D528
:107BC00021461A9B199A049800F04EF845191CE0BA
:107BD0000098002807DB00990598884203DD159876
:107BE000405C199901E0199930201A9A9047009841
:107BF0006D1C401C00900298401E0290002804D189
:107C00001A9A2E20199990476D1C0199481E0190CF
:107C10000029DDDC05E038781A9A7F1C1999904715
:107C20006D1C0399481E03900029F4DC21461A9B21
:107C3000199A0498ACE600002D0000002B0000000B
:107C40002000000000000000F8B5044600251E4694
:107C50001746880404D405E039462020B0476D1C3F
:107C6000641EF9D52846F8BDFFB50446002581B04D
:107C70001E46C80301D5302700E02027880404D51C
:107C800005E038460399B0476D1C641EF9D52846B7
:107C900005B0F0BD0A68531C0B60107070470000FF
:107CA00004490868FF22120290430122D2031043C4
:107CB000086070471CE400E010B5FDF72BFC0120C4
:107CC000FDF72EFCFDF732FC002010BDF0B50024BE
:107CD0008E464A1E12E0714600230D1B6D1E0AE0FF
:107CE0009E0031188C46875949688F4202D98151CC
:107CF00061464F605B1C9D42F2D8641C9442EAD3FB
:107D0000F0BD000010B500F09BFAFDF7DBF8002293
:107D1000074BFCF7BBFF0022064BFDF71FF80022C4
:107D2000054BFDF71BF8FDF7EFF8C0B210BD0000E2
:107D3000006890400000594000002440F8B50698C3
:107D400000261D461446002801D00B20F8BD4868C7
:107D5000012702784078000210181B4A80B2904236
:107D600002D1FFF7CFFF14E0174A521C90421DD1F9
:107D700003F008F91549FCF74FFEFDF7E3F8002280
:107D8000134BFCF775FF0022124BFCF7E7FFFDF7E2
:107D9000BBF81149087005202870087820706770BA
:107DA0004A20A070E770B32020710BE00B4A90428C
:107DB00007D1022018700246C9682046FDF7D2FAA2
:107DC00000E00A263046F8BD1A2A000000007A4476
:107DD00000C8A94000002440CC250020082900004C
:107DE000F0B5044685B000267B480196407901280D
:107DF0001BD10B2003F004FF002816D101A8216835
:107E000003F04CF80198FDF79DF8744A744BFCF7A9
:107E10003DFF05460F462068FDF794F82A463B468D
:107E2000FCF726FFFDF7B6F8206003F0B1F8002854
:107E300042D06C48457A002DFAD0014620310F7CA3
:107E4000032F7DD268492068FCF7E6FD674D022FBD
:107E500033D0012F7FD8FDF775F8064628460F4628
:107E6000C088FDF72FF8624A624BFCF70FFF3246DD
:107E70003B46FCF773FF02460B4600200146FCF729
:107E800053FEFDF787F8054658480089FDF71AF8B4
:107E9000574A584BFCF7FAFE32463B46FCF75EFF6A
:107EA00006460F462846FDF74DF832463B46FCF79E
:107EB0003BFEFDF76FF806464DE0FDF743F806463A
:107EC00002910F462888FCF7FDFF4B4A4B4BFCF70D
:107ED000DDFE32463B46FCF741FF02460B460020E2
:107EE0000146FCF721FEFDF755F800906888029FD7
:107EF000FCF7E8FF3E4A424B5242FCF7C7FE3246CF
:107F00003B46FCF72BFF074603910098FDF71AF854
:107F10003A46039BFCF708FEFDF73CF80090A88862
:107F2000029FFCF7CFFF2D4A364B5242FCF7AEFEC4
:107F300032463B46FCF712FF05460E46009800E02D
:107F400004E0FCF7FFFF2A463346B0E72E49032F33
:107F500016D0042F23D03046FCF7F4FF2B4A2C4BCD
:107F6000FCF794FE05460E462068FCF7EBFF2A4618
:107F70003346FCF7D9FDFDF70DF8206005B0F0BDE4
:107F8000007E03280ED908280CD206280AD016E055
:107F9000FCF77CFE32463B46FCF7E0FE89E7807F3B
:107FA00000280CD02068FCF737FDFCF7CBFF064615
:107FB0000F462846FCF786FF084A164BE8E720687C
:107FC000FCF72AFDFCF7BEFF06460F462846FCF7E5
:107FD00079FF114A114BDBE70C2500200AD7A3706B
:107FE0003D0AC73F742C002000004844EC2C0020C0
:107FF000A4703D0AD723204052B81E85EB510240A1
:10800000285C0540C2F506400000C8427B14AE471C
:10801000E17AB43F3D3A1A4048E17A14AEA70240F3
:108020007CB54C68154622786478069E24021219A5
:10803000104C92B2E24209D101220192DBB20096C9
:108040002A46FEF72BFC040003D000E00A24204659
:108050007CBD6978287809024018074980B24968D0
:108060000029F4D0002802D001208847EFE7022041
:10807000FBE70000FED6FFFFCC25002003B56946D4
:1080800004480978017069464988418069468988B1
:1080900081800CBDFC24002038B501681C4C0129EE
:1080A00003D01CA006F01CFB38BD19491039CA7852
:1080B0008978D206C906C90F0091D30F027B816867
:1080C000042003F00FFC124DFF21C905083DC842F2
:1080D00009D3A9882878FDF715F9A98828780522F9
:1080E000FDF70AF938BD0F49FCF796FC0021C9439A
:1080F000FCF70DFD0C49096AFCF735FC0146606090
:10810000206800F069F869882878FDF767F938BDBC
:10811000042500200A5F5F414443206572726F723C
:108120000A00000000004041742C002010B502F04D
:1081300045FE134C002815D01348124A012100783F
:10814000FDF7DAF82078411CC9B221700A2803D85B
:108150000EA006F0C5FA0EE011A006F0C1FA01204B
:10816000FEF744FE1A481B49006803F0DBF903F0F0
:1081700021FB002801D0112010BD0020207010BD6F
:1081800030250020E203000021250020200A206184
:108190006420627573792062256420200A00000043
:1081A000200A205F5F5F5F5F5F5F5F5F5F616463A7
:1081B000206D6F64756C652072657365745F5F5FB9
:1081C0005F5F5F5F5F5F5F5F5F5F20200A000000AF
:1081D000F42400209980FF1F10B508461149FCF7D0
:1081E0001BFCFCF77DFE80B20F4C1049608088427A
:1081F00001D9642003E00E49884202D20020207099
:1082000010BDFCF75FFE00220A4BFCF731FD002297
:10821000094BFCF73BFD0022084BFCF79FFDFCF7E8
:1082200073FEECE700007A44F8240020FE10000002
:10823000E40C000000C8A9400000594000689040CC
:108240000148007870470000F82400200148408869
:1082500070470000F824002010B504480021016197
:1082600041610D2003F0B0FC002010BDF42400207B
:1082700010B5FFF75BFF10BD7CB50446042800D99C
:108280000424354E06237B2219466720009605F00C
:108290009DF86622122307211046009605F096F8F5
:1082A00013237B2219466720009605F08FF87C2265
:1082B000122307211046009605F088F87E220F232E
:1082C0000A211046009605F081F87F220F230A212B
:1082D0001046009605F07AF80025002C0BD01223EA
:1082E0006C22082168200096019505F02FF9012CD9
:1082F00009D9009608E0009512236C220821682015
:10830000019505F023F900951223712208216D20B3
:10831000019505F01BF9022C0AD9122376220821B7
:1083200072200096019505F011F9042C11D007E098
:1083300000951223762208217220019505F006F996
:10834000009512237B2208217720019505F0FEF885
:108350007CBD0096F5E700009E4E000070B59CB015
:10836000584D0024687018A90C73202113A8FCF73D
:10837000D8FA13AA1BA9032008F03CF918A913AADC
:10838000097B5148FEF790F810A90C7220210AA829
:10839000FCF7C7FA0AAA12A9042008F02BF910A9C1
:1083A00061200AAA097AC000FEF77EF8FEF7F9F903
:1083B000064601460620FDF71DF831460720FDF769
:1083C00019F831460820FDF715F831460920FDF768
:1083D00011F869463C488C8307AA0221401EFEF72B
:1083E00063F8694638480C7606AA0121801CFEF71E
:1083F0005BF8694634480C7505AA0121801EFEF71A
:1084000053F8FEF7A6F9694688832F480A1F022110
:108410000A30FEF749F82C4807AA02210B30FEF774
:1084200043F8694628480C8306AA02210C30FEF75F
:108430003BF84B20C00069468882C52005AA02216E
:108440008000FEF731F801206946087401463120AA
:1084500004AA0001FEF728F806211F20FCF7CAFF36
:1084600069460C77182101A8FCF75BFA01AA07A955
:10847000022008F0BFF8694601AA097F0020FEF734
:108480006BFC641E2046FEF757FCFDF75DF9FDF717
:10849000C9FD2046FEF7B4FD281DFEF7F7FD06F0E6
:1084A0008BF8687808A90870012080036946488421
:1084B0000999089804F0F8FE01216878FCF78EFF0E
:1084C0001CB070BDD82400200703000010B50C4676
:1084D00008040AD50E484078FCF762FF002801D056
:1084E000FCF764FF0120C0030DE0E00705D0084859
:1084F0000830FEF7E3F8012005E0600405D504F03C
:108500005BFE01208003604010BD002010BD000014
:10851000D8240020F0B585B00027054601970097C4
:1085200002F03CFD00287DD0CF4E707A0028FAD0B2
:1085300002F028FD8121C905CC4C884215DBCC49CD
:10854000884201DD502061E0FCF7FCFC0022C94BB1
:10855000FCF78EFB0022C84BFCF798FBC74AC84BC0
:10856000FCF7FCFB0022C74B25E0C74988420FDB24
:10857000FCF7E8FC0022C54BFCF77AFB0022C44B59
:10858000FCF784FB0222FCF761FC0022C14B12E0E5
:10859000C149884212DBFCF7D5FCC04AC04BFCF74E
:1085A00067FB0022BA4BFCF771FBBE4ABE4BFCF7DF
:1085B000D5FB0022BD4BFCF7B7FA25E0BC49884249
:1085C00010DBFCF7BFFCBB4ABB4BFCF751FB0022A6
:1085D000AF4BFCF75BFBB94AB94BFCF7BFFB002282
:1085E000A54BE8E7B749884211DDFCF7ABFCB64A7A
:1085F000B64BFCF73DFB00229F4BFCF747FBA74A1D
:10860000B34B921DFCF7AAFBFCF77EFC607096480A
:1086100020300490007C03285FD2012822D0AD488E
:10862000AD4900E01EE1FCF7B5FC0390AB48AC4956
:10863000FCF7B0FC0746AB48AB49FCF7ABFC02903B
:1086400039460398FCF78FF90299FCF78CF9074635
:108650006078FCF71CFC01463846FCF71AFA0190DA
:1086600001A837E0A148C088002815D0FCF70FFC0E
:108670009F49FCF70EFAFCF765FC9E4A9E4BFCF7FF
:1086800005FBFCF787FC07466078FCF700FC014619
:108690003846FCF7FEF9019001A806F04FF8934820
:1086A0000089002815D0FCF7F2FB9149FCF7F1F99D
:1086B000FCF748FC8F4A904BFCF7E8FAFCF76AFCA1
:1086C00007466078FCF7E3FB01463846FCF7E1F922
:1086D0000090684606F032F874E0032802D00428BF
:1086E0003FD06FE0F07A002804D001280FD0022894
:1086F0001BD034E0607864214843FCF7E3FB03912E
:108700000290707AFCF7DEFB644A714B1AE06078E5
:1087100064214843FCF7D6FB03910290707AFCF782
:10872000D1FB644A754B52420CE0607864214843A7
:10873000FCF7C8FB03910290707AFCF7C3FB4F4A29
:108740006F4B521FFCF7A2FA6A4A6B4BFCF79EFA7A
:10875000039B029AFCF702FBFCF71CFC01900097BC
:1087600030E0F07A002804D0022802D001280ED090
:1087700028E0607864214843FCF7A4FB0391029051
:10878000707AFCF79FFB504A5E4B5242DAE7607802
:1087900064214843FCF796FB03910290707AFCF742
:1087A00091FB494A574B5242FCF770FA514A524BDF
:1087B000FCF76CFA039B029AFCF7D0FAFCF7EAFB91
:1087C0000197009029484078FCF77CFB02460B4655
:1087D0004D484E49FCF7C2FA04460F460098FCF794
:1087E000B1FB3B462246FCF79FF9FCF7D3FB014661
:1087F00000900198FCF7B7F8FCF7A4FB02460B4683
:1088000000204349FCF7AAFAFCF77EFB87B2707A96
:10881000642806D10498007C032802D2502F00D38C
:108820005027FDF751F9002800D001250F4CA088F2
:10883000B8420FD0002D08D1FDF746F900280ED11F
:10884000A08800280BD0B84209D9384608F0D2FEDB
:10885000A78004E0002D02D0384608F0CBFE384651
:1088600005B0F0BD0020FBE7742C0020942500200B
:10887000B81E854000001040000024408014AE4720
:10888000E17AC43F008051400000704000000E407B
:108890000000344000004940EC5168400AD7A37002
:1088A0003D0A0D40C01E85EB51B8BE3F00003E4062
:1088B00052B85E40D7A3703D0AD70B4030333333F4
:1088C0003333C33F333353406666666666660A4099
:1088D0003D0AC73F93E76A393D29D23F3E36238799
:1088E000BA2CD53F206D1895C6C2D63FEC2C00207F
:1088F00000004844143BB1133BB1F33FF528CC3F93
:10890000E17AB43F9999E13F20F8811FF881AF3FA8
:108910000000F03F064AD088642807D2117A491C2B
:10892000C9B21172814201D39069004770470000BB
:10893000CC2C002010B50020054CFF212218401C33
:1089400051704028FADB06F0D5FC207010BD000005
:10895000785D002010B50020054CFF212218401C36
:1089600051700628FADB06F0E3FC207010BD000011
:10897000712B0020084801694907FCD5012181605D
:108980000549052280390A7002695207FCD508782A
:10899000C007C00F7047000080000811F0B5864680
:1089A000080CFF268446002388B237461C46194629
:1089B00001228A4005461540CD402C19A4B2FF2F54
:1089C00002D1012C00D18FB265462A40CA40D2188C
:1089D00093B2FF2E02D1012B00D18EB2491C102977
:1089E000E6DB012C02D0102C08D009E0012B07D1C6
:1089F0003001C019714608700220F0BD102B01D063
:108A00000320F0BD0120F0BDF3B5414A0E46117BB5
:108A100083B08B0003981146203900685B185860BA
:108A2000107B0024401CC0B2384D107323460A2826
:108A300000D31373107C002808D1507C401CC0B2B6
:108A40005074052802D30120107453743148007803
:108A5000002819D08878401CC0B288700A2810D924
:108A60008B702B48A10020380F1828467968FCF736
:108A7000B7FA00D27D68641C0A2CF2DB039805600B
:108A800042E0337005B0F0BDD07B00280AD0107CE6
:108A9000002839D0002000900190107B002805D0DC
:108AA000401E04E00120D0733070EBE70920C0B213
:108AB000002702900298C01B00D509300006810DE6
:108AC000134820380C1828466168FCF789FA00D250
:108AD000656861680098FCF779FA01D260680090D7
:108AE00061680198FBF73FFF7F1CFFB20190052FE3
:108AF000E0D30099FBF788FF2946FBF785FF06497D
:108B0000FBF7C7FF039908600120CDE70000A040F4
:108B1000542C0020602500200000404010B5282182
:108B20000148FBF7FEFE10BDB0340020032806D339
:108B3000012189078B680122824093438B60704733
:108B4000032806D3012189078B6801228240134341
:108B50008B60704701480068704700001010FF1FCD
:108B6000012292071368012181408B431360106832
:108B70000843106070470000FEB5284C69466075D8
:108B800008700220488001268E800021132002F008
:108B9000EFFF0121132003F017F80021052002F058
:108BA000E7FF0121052003F00FF834211C48FBF7F3
:108BB000B8FE1B48042720304773FFF74DFB01998F
:108BC0000098FFF75BFA607D694608707002488084
:108BD00045108D8008F01EF80199009807F044FFB9
:108BE0007D22D2002946607DFCF786FB69464F80D6
:108BF0000199009804F04CFB00F0C8FD094806708C
:108C000000221146272003F09DFA04F0D7F8E07403
:108C100006F030FBFCF7F4FFFEBD00000C25002041
:108C2000342C002094250020F0B587B00C460804B1
:108C3000FE4F09D5787DFCF7B3FB002801D0FCF787
:108C4000B5FB0120C003BCE2A0040025002816DA11
:108C5000FEF7C6F80126760305280AD06846057097
:108C60006A460121F248FDF71FFC2046704007B01C
:108C7000F0BD05223146787DFCF73EFBF5E7A00606
:108C800003D504F0D3FE20209BE2E848610500787C
:108C900023D500281ED0E7480178002911D0F969B2
:108CA0004900090E0DD00570E3480570E348417A8C
:108CB000002903D00120FFF72DFC02E0C08A08F054
:108CC00099FC387D401CC0B23875142802D13D751E
:108CD00001F03CFA0120800273E2E107012600293D
:108CE00002D0FFF7C5FAC0E7A10778D5FFF7A8FAC9
:108CF0000390FFF7ABFA0290787A002812D003288D
:108D000010D00298FCF7DEF8CD4ACE4BFBF7BEFF41
:108D1000FCF740F902467620002100900223084625
:108D200000F030FCC1480178C748049007460D3F69
:108D3000002979D014210398FCF7D2FA6946087506
:108D40000298FCF7BFF8BE4ABE4BFBF79FFFFCF74B
:108D500021F9009069460D7101A96846FFF754FE9C
:108D600069460879002803D005A8049A06F0E0FEB9
:108D7000AE4E0098F061B1497A7B8A70B3490978A8
:108D8000002903D069460979002912D0B0498842E8
:108D90000EDCB87B401CC0B2B873012809D930780A
:108DA000002806D0ABA005F09BFCFCF7C1FE00E05C
:108DB000BD737079022813D0012816D0A2492D392D
:108DC0000D70002801D007F093FB787BFFF754FA71
:108DD000974A0121DD32707DFCF78EFADDE0F1E08B
:108DE0000420964978738870F0E7F079002813D151
:108DF000954D2D3D2878002804D1787B002801D09E
:108E0000401E28702878411C2970FFF735FA287811
:108E1000042800D900202870854A0121DD32707DA8
:108E2000FCF76AFAD4E7FFE780484079022807D0C8
:108E3000012843D084482D38017800297ED092E063
:108E40007A48407800281ED1062002F0D9FE00287A
:108E500019D006F0C5F9002004F014FC734D01216F
:108E60006E70152002F010FF0420FFF705FA73481A
:108E7000797B81700121687DFCF744FA6C4A687D3A
:108E8000DD3201210DE0062002F0BAFE002803D0F9
:108E9000664EB078002807D0654A6448DD3201216B
:108EA000407DFCF735FA68E067482D3801780029E5
:108EB00000D1057004F084FD75705AE05B4840787D
:108EC00000280DD106F08CF9002004F0DBFB574898
:108ED00001214670152002F0D7FE5B482D38057041
:108EE00014210398FCF7FCF9694608750298FBF712
:108EF000E9FF534A534BFBF7C9FEFCF74BF80090D0
:108F000069460D7101A96846FFF77EFD694608793B
:108F1000002804D005A8049A06F00AFEB874B87CAC
:108F2000632801D96320B874474D2D3D2878002867
:108F300006D1787B002803D0401E00E012E02870A4
:108F40002878411C2970FFF797F92878042800D960
:108F500000202870364A3548DD320121407DFCF77B
:108F6000CBF90AE0057004F02BFD304E757007F068
:108F7000BFFA0121707DFCF7C5F92C484079012822
:108F80000BD10C2002F03CFE002806D00B2002F092
:108F900037FE002801D106F041FE0B2002F030FE22
:108FA00000280DD0214D6879002809D007F0A0FADB
:108FB0002878002804D164220121687DFCF79CF9FF
:108FC0000220FEE019494979002902D0012913D075
:108FD00020E00B2002F014FE00281BD1134F0121CA
:108FE0007E71787DFCF78EF964220121787DFCF793
:108FF00083F907F029FA0DE000280BD00C2002F0CD
:10900000FFFD002806D00B2002F0FAFD002801D158
:1090100006F004FE0B2002F0F3FD00282ED0034FD3
:10902000787900282AD007F063FA1FE00C25002089
:10903000050300009425002096250020742C0020B4
:10904000FCA9F1D24D62503F612C00206025002028
:109050003333534020200A205F5F6576656E7420AD
:109060006F66665F5F200A202000000038780028C5
:1090700004D164220121787DFCF73EF9600703D515
:10908000FCF76AFE04209CE0E00617D54F4D2878D7
:1090900000280FD0FDF7A4FE05280DD0A879FF22E7
:1090A0007040A871F5321021687DFCF725F9A87988
:1090B00007F004FF102084E0AE71F8E7E00514D556
:1090C00007F0BCFD4148FF25C1790135002901D0D9
:1090D0003F4A03E00178002904D03E4A2946407DFA
:1090E000FCF70AF920466840C1E5A0055CD507F009
:1090F0008BFD07463548407A002809D0032807D061
:109100003D20009001233A460621502000F03AFA13
:109110002E490878002844D02F48874202DDFCF70A
:1091200007FD3EE02D4A2E48974211DD0F46C979D2
:10913000002906D1FE712B49016007202A49FCF75E
:1091400015FB387A002801D03D7224E03E7225E0FC
:10915000264A974218DACA79002A22D00F46CD71E2
:109160007F21C9050160387A002803D03D720020B4
:1091700008F060F91C48FD718078FFF77DF8072042
:109180001949FCF7F3FA0CE0C879002809D0087AED
:10919000002802D00D72002001E00E72012008F0BC
:1091A00049F9012040020CE0E00404D5FCF794FCEE
:1091B0000120000305E0600405D5FCF743FB012016
:1091C0008003604053E5002051E500000C2500209D
:1091D000F3030000DD07000000008442000070423D
:1091E00070250020CDCC4C3F742C00200000504254
:1091F00010B504460D48407A002813D0FBF747FE0F
:109200000B49FBF709FC0B49FBF743FC0A49FBF749
:10921000AAFB0A49FBF700FC2146FBF7FDFBFBF725
:109220005FFE80B206F038FD10BD0000742C0020F7
:109230000000C04200401C460AD7233D00004844BD
:1092400010B5134C0A20E17E41437D20C000FCF79D
:1092500047F81049487010488078C00703D0607EF6
:1092600002280AD00BE0A07F0028094802D008F0AD
:1092700091F910BD07F0D0FE10BDFFF74BFBA07FAA
:10928000002802D007F0FCFC10BD07F0F1FC10BD77
:10929000742C002060250020CC2C002010B50E4836
:1092A000422101710D4941610D49816100210D4A41
:1092B0004180D37E0C4C5B005B1E0380937EC38099
:1092C0000172094BC3600123E41E237053770177B9
:1092D000FFF7B6FF10BD0000CC2C00204192FF1F0D
:1092E000ED92FF1F742C00206325002010B500F0C4
:1092F000C7F810BD70B51C4C002521466580203193
:109300001A4804F0C9FE43202071194860611948C9
:10931000A0612572154D7D21E87EC90048430A21D0
:10932000FBF7DEFF401E2080A87EE0801248124935
:10933000E0600120091F08706877207720460A2125
:109340002A30FBF7EEFA20462030014602880A3127
:109350000A8042884A8082888A80C288CA800089BE
:10936000088100F00BF870BDCC2C0020742C00207C
:109370007D93FF1F8194FF1F6425002070B539493C
:109380000120394E487035882846FBF79BFD024680
:109390000B4636483649FBF7E1FCFBF7FBFD04467C
:1093A000690870887F25ED05884211D8FBF76FFDAD
:1093B0002146FBF731FBFBF7C5FD2E4A2E4BFBF791
:1093C000B3FBFBF7E7FD0446A8420BDD2C4609E0A2
:1093D000401AFBF751FD2146FBF71EFB2946FBF720
:1093E00017FB04462548204D807F2A35002821D0D0
:1093F0002888FBF74CFD2146FBF70EFBFBF770FDC1
:1094000080B206F045FD6888FBF741FD2146FBF779
:1094100003FBFBF765FD80B206F074FCA888FBF740
:1094200036FD2146FBF7F8FAFBF75AFD80B206F04D
:109430001DFC70BDE888FBF72AFD2146FBF7ECFA1E
:10944000FBF74EFD80B206F027FC2889FBF71FFDD5
:109450002146FBF7E1FAFBF743FD80B206F034FD4D
:1094600070BD000060250020CC2C0020666666667A
:109470006666FE3FA09999999999A93F742C00209E
:1094800010B5124CA07F002809D0002006F000FD86
:10949000002006F037FC002006F0E8FB05E0002085
:1094A00006F0FAFB002006F00FFD07F03FF8084930
:1094B00000200870074908724880607720710348CF
:1094C000E17F2030017404F0D3FB10BD742C002028
:1094D00060250020CC2C002070B54868002501785C
:1094E0004078000208181C4980B2441A884223D0F0
:1094F00009DC1A49441811D0012C12D0022C15D0C5
:10950000032C08D115E0012C19D0022C1AD0032C01
:109510001BD0292C1CD00A25284670BD19460020D6
:1095200001E01946062007F065F8F5E7194607201F
:10953000F9E719460820F6E719460920F3E7194626
:109540000A20F0E719460B20EDE719460C20EAE760
:1095500019460D20E7E70000272A0000DDD5FFFFB0
:10956000064801694907FCD500218160034A0421AE
:10957000803A117001694907FCD5704780000811D5
:1095800070470000F8B50C46054617460A210B48FF
:10959000069EFBF7C6F93846FBF7D4FC02460B469D
:1095A00007A106480096FDF755FE04480090E1002B
:1095B0000023054AE81C03F0AFFEF8BD682C00202C
:1095C000252E3366256300009E4E0000FEB504463E
:1095D000007800280FD003280CD157A005F080F8A0
:1095E0001F2004F04FF8A078FEF746FE0121152059
:1095F00002F04AFBFEBD04F097FDA078FEF73CFEAA
:109600005348544900261023009102901A460196AF
:1096100003210A2003F04FFFE08A07F0EBFF4E4DD5
:109620001723812219460B20009503F0CFFE182343
:10963000812219460F20009503F0C8FE19238122CC
:1096400019461320009503F0C1FE44A0454D00903B
:1096500000232A461C210A2003F05EFE42A000904F
:1096600000232A462C210A2003F056FE38481023F6
:10967000203802901A462C21019600951A2003F0FA
:109680001AFF3AA0009000232A462C21272003F03D
:1096900043FE37A0009000232A463C210A2003F015
:1096A0003BFE35A0009000232A464C210A2003F0FF
:1096B00033FE33A0009000232A465C210A2003F0E9
:1096C0002BFE31A0009000232A465C212B2003F0C2
:1096D00023FE1F20C0020125009083232922702130
:1096E0000195092003F032FF3F20400100908323C1
:1096F000532270210195332003F028FF1F20009092
:1097000083237D22702101955D2003F01FFF607A85
:1097100000280CD0204607F0F7FC0121204607F076
:109720008BFE204607F0C8FF204607F0DFFF2046EB
:1097300007F0C6FB5AE700000A2073797374656D61
:10974000206F6666204368617267696E670A000071
:109750007D1F002089BF0000E0FF00004C6576659A
:109760006C0000009E4E000054650000702E00004A
:10977000436F6C6F720000005363656E65000000FC
:109780005374726F000000006265000010B5154848
:109790000221C1700021FF2201716932C2807F2243
:1097A000D2054262017005224272642404720346AB
:1097B0004170012220331A742B238372C17201730A
:1097C0004173042383708473074B0362C273FF23C6
:1097D00003744282017642768376C17601774177BF
:1097E000817710BD742C0020CDCCCC3D064801699A
:1097F0004907FCD500218160034A0621803A117097
:1098000001694907FCD570478000081170B5104CFC
:10981000012525700020607104F0E2F865700121D7
:10982000122002F0A5F90121122002F02DFA7D226A
:10983000D2002902607DFBF75FFD64220821607D74
:10984000FBF75AFD03A202211420FDF783FB70BD34
:109850000C250020523A00007CB5294E694630465E
:10986000FCF7E6FC684600780125002806D168462A
:1098700005706A4601213046FCF716FE214C01A90D
:1098800025703046FCF7D4FC68460079002806D1E4
:109890006846057101AA01213046FCF705FE2570D6
:1098A0000026667104F09CF865700121122002F018
:1098B0005FF90121122002F0E7F97D22FF21D20099
:1098C0000131607DFBF718FD64220821607DFBF704
:1098D00013FDFEF7CDFCE07C002804D066720A4838
:1098E00007F0ACFA7CBD07F041FFE27A0221642068
:1098F000FDF72EFB227B04216420FDF729FB7CBDB4
:10990000050300000C250020742C002010B5064A29
:10991000012351729072D370002111710F201146F2
:10992000FBF724FF10BD0000742C002010B5074A7F
:109930005172D080642010720220D0700021117109
:1099400037201146FBF712FF10BD0000742C0020D9
:10995000F0B5FD4DFD4FE8688DB0007878706888EF
:109960000026411C69802988884200D36E80F8480F
:10997000F649407ACC6800280CD0FBF788FAF54904
:10998000FBF74AF8F449FBF784F8F449FAF7EBFFE0
:10999000206100E026616888F14D152848D8C6B2DC
:1099A0002069FBF7CFFA0746029130460191FBF799
:1099B00089FA0646EB4AEC4B0091FBF767F9EB4A54
:1099C000EB4BFBF7B1F83A46019BFBF75FF900223E
:1099D0002B46FBF75BF9FBF797FAA0803D46304634
:1099E000E44AE54B029F0099FBF750F9DD4AE34B4F
:1099F000FBF79AF82A463B46FBF748F90022D84B7A
:109A0000FBF744F9FBF780FAE080204607F02CFED4
:109A1000CE48C0680069FBF795FA0D46044630460B
:109A2000D74AD84B0099FBF731F9D74AD74B86E193
:109A30001A282ED82069FBF785FA0F460646D44A25
:109A4000D44BFBF723F900222B46FBF71FF9FBF75A
:109A50005BFAA08030463946CF4AD04BFBF716F967
:109A600000222B46FBF712F9FBF74EFAE080304656
:109A70003946CB4ACB4BFBF709F900222B46FBF7C3
:109A800005F9FBF741FA2081204607F09BFA0DB05B
:109A9000F0BD25287ED81A38C0B200902069FBF7A7
:109AA00051FA0A900B910098FBF70CFAAD4ABE4BA5
:109AB00005910490FBF7EAF8B34A009101905242F5
:109AC000BA4B02910390FBF72FF80B9B0A9AFBF716
:109AD000DDF80022A24BFBF7D9F8FBF715FAA080BE
:109AE000B34AB44B02990398FBF740FA19D2FA68CB
:109AF00002921069FBF726FA0D460446AC4AAD4BBC
:109B000000990198FBF7BAF822462B46FBF7BEF8FE
:109B10000022934BFBF7BAF8FBF7F6F9029AD080D4
:109B200001E0F868C680A24AA34B00990198FBF7B0
:109B30001DFA17D2FE683069FBF704FA04460D4699
:109B40009B4A9D4B00990198FBF798F822462B46BB
:109B5000FBF79CF80022824BFBF798F8FBF7D4F94F
:109B6000308101E0F8680681F86807F07DFDF8684B
:109B70000069FBF7E7F904460D46904A904B0599BA
:109B80000498FBF783F822462B46FBF77FF8002268
:109B9000734B00E007E0FBF779F8FBF7B5F980B20B
:109BA00006F092F973E7352860D82538C0B20090E6
:109BB0002069FBF7C7F9069007910098FBF782F937
:109BC00000910190674A784B02910390FBF75EF891
:109BD0007C4A7D4BFAF7A8FF079B069AFBF756F8DD
:109BE00000225F4BFBF752F8FBF78EF9A080774A13
:109BF000774B02990398FBF749F8654A754B049136
:109C00000390FBF7B3F919D2F96802910869FBF7E1
:109C100099F90D4604465E4A6E4B04990398FBF78A
:109C20002DF822462B46FBF731F800224C4BFBF770
:109C30002DF8FBF769F90299C88001E0F868C68041
:109C4000F96808460E8107F00FFDF8680069FBF718
:109C500079F904460D46604A604B00990198FBF77C
:109C600015F85F4A5F4BFAF75FFF8CE73A281BD87D
:109C7000372897D82069FBF765F93C4A3C4BFBF73E
:109C800005F800222B46FBF701F8FBF73DF9A08011
:109C9000E6802681204607F0E7FCF8680069FBF7BC
:109CA00051F94F4A4F4BD0E045284BD83A38C0B213
:109CB00000902069FBF746F907460591049100984A
:109CC000FBF700F92E4A484B03910290FAF7DEFFAA
:109CD000464A474B01910090FAF726FF3A46049B0B
:109CE000FAF7D4FF00221E4BFAF7D0FFFBF70CF96E
:109CF000A0803D461B4A1C4B059F01990098FAF72E
:109D000013FF2A463B46FAF7C1FF0022144BFAF72D
:109D1000BDFFFBF7F9F8E0802681204607F0A4FCA0
:109D20000A48C0680069FBF70DF90D4604462A4A47
:109D30002A4B03990298FAF7A9FF294A294BFAF707
:109D40009DFF20E756E00000CC2C0020602500207D
:109D5000742C00200000B64200401C46EC51B83D77
:109D6000000089407B14AE47E17A843FAE47E17A38
:109D700014AEE33F92CB7F48BF7D6D3FE17AA43FB5
:109D8000FA7E6ABC7493583F0AD7A3703D0AA73F76
:109D90009A9999999999C93F333333333333B33F00
:109DA00054E3A59BC420B03FE17A743FC2F5D83F8D
:109DB000295C8FC2F528BC3FF528AC3FFCA9F1D245
:109DC0004D62703F3D0AD7A3703DE23F46257502C4
:109DD0009A086B3F9999A93FF168E388B5F8343F39
:109DE0001A2FDD240681A53F7493683F8FC2F528A2
:109DF0005C8FE23F502800D949E6462812D82069F6
:109E0000FBF7A0F8134A144BFAF740FF00222B4649
:109E1000FAF73CFFFBF778F8A080E6802681204621
:109E200007F0D0F8F8680069FBF78CF804460E4696
:109E30000098FBF747F8094A094BFAF727FF094A48
:109E4000094BFAF71BFF22463346FAF71FFF0022A1
:109E50002B469EE6A4703D0AD7A3E03FC7BAB88D53
:109E600006F0463F1A2FDD240681A53F70B5164D3A
:109E7000FF22EC68693260890021401C80B2608159
:109E8000904200D361817F20C005E0600F48407A96
:109E900000280CD0FAF7FBFF0D49FAF7BDFD0D497C
:109EA000FAF7F7FD0C49FAF75EFD206100E0216149
:109EB000204602F005FDE86807F084F80748C0680E
:109EC0000078687070BD000060250020742C0020B0
