:020000041FFFDC
:100800000000000039E5FF1F8C190020C0190020EE
:1008100098260020000000000000000000000000FA
:1008200000000000000000000000000000000000C8
:1008300000000000000000000000000000000000B8
:1008400000000000000000000000000000000000A8
:100850000000000000000000000000000000000098
:100860000000000000000000000000000000000088
:100870000000000000000000000000000000000078
:100880000000000000000000000000000000000068
:100890000000000000000000000000000000000058
:1008A0000000000000000000000000000000000048
:1008B0000000000000000000000000000000000038
:1008C0000000000000000000000000000000000028
:1008D0000000000000000000000000000000000018
:1008E0000000000000000000000000000000000008
:1008F00000000000000000000000000000000000F8
:1009000000000000000000000000000000000000E7
:1009100000000000000000000000000000000000D7
:1009200000000000000000000000000000000000C7
:1009300000000000000000000000000000000000B7
:1009400000000000000000000000000000000000A7
:100950000000000000000000000000000000000097
:100960000000000000000000000000000000000087
:100970000000000000000000000000000000000077
:100980000000000000000000000000000000000067
:1009900011C2FF1FA5C2FF1F0DF9FF1F00000000BD
:1009A0000000000000000000000000000000000047
:1009B0000000000000000000000000000000000037
:1009C0000000000000000000000000000000000027
:1009D0000000000000000000000000000000000017
:1009E0000000000000000000000000000000000007
:1009F00000000000000000000000000000000000F7
:100A000000000000000000000000000000000000E6
:100A100000000000000000000000000000000000D6
:100A200000000000000000000000000000000000C6
:100A300000000000000000000000000000000000B6
:100A400000000000000000000000000000000000A6
:100A50000000000000000000000000000000000096
:100A60000000000000000000000000000000000086
:100A70000000000000000000000000000000000076
:100A80000000000000000000000000000000000066
:100A90000000000000000000000000000000000056
:100AA0000000000000000000000000000000000046
:100AB0000000000000000000000000000000000036
:100AC0000000000000000000000000000000000026
:100AD0000000000000000000000000000000000016
:100AE0000000000000000000000000000000000006
:100AF00000000000000000000000000000000000F6
:100B000000000000000000000000000000000000E5
:100B100000000000000000000000000000000000D5
:100B200000000000000000000000000000000000C5
:100B300000000000000000000000000000000000B5
:100B400000000000000000000000000000000000A5
:100B50000000000000000000000000000000000095
:100B60000000000000000000000000000000000085
:100B7000D9C8FF1F000000000000000000000000B6
:100B80000000000000000000000000000000000065
:100B90000000000000000000000000000000000055
:100BA0000000000000000000000000006DB5FF1F05
:100BB0000000000000000000FDB4FF1F35B5FF1F5E
:100BC000E5B4FF1F0000000000000000000000006E
:100BD0000000000000000000000000000000000015
:100BE0000000000000000000000000000000000005
:100BF0000000000019B4FF1F00000000000000000A
:0C0C000001FF01FF01FF01FF41000000A7
:020000041FFFDC
:1048000080680020D548FF1FDD48FF1FDF48FF1FDD
:104810000000000000000000000000000000000098
:10482000000000000000000000000000E148FF1F41
:104830000000000000000000E348FF1FE548FF1FE4
:104840000000000000000000000000000000000068
:104850000000000000000000000000000000000058
:104860000000000000000000000000000000000048
:104870000000000000000000000000000000000038
:104880000000000000000000000000000000000028
:104890000000000000000000000000000000000018
:1048A0000000000000000000000000000000000008
:1048B00000000000000000000000000000000000F8
:1048C0000348854600F0CEFC0048004739E3FF1F4F
:1048D000806800200448804704480047FEE7FEE760
:1048E000FEE7FEE7FEE7FEE76171FF1FC148FF1F1D
:1048F00003460B439B0703D009E008C9121F08C0F9
:10490000042AFAD203E00B780370401C491C521EA3
:10491000F9D27047D2B201E00270401C491EFBD2AE
:1049200070470022F6E710B513460A4604461946BA
:10493000FFF7F0FF204610BD30B5044600200346C7
:1049400000E05B1C934203D2E05CCD5C401BF8D0DE
:1049500030BD0321001D401E037812021A43491E78
:10496000F9D510467047F8B502464A40D40F4200C8
:104970004B0052085B089A4202D202460846114692
:104980004A0023D0C30D4A00DDB2120EAD1A202D0D
:1049900035DA49020126490AF6058A19002C00D0A9
:1049A000524220214F1B1146B9402A411018C20D16
:1049B0009A4221D0002C17D0012D08DCDA05801A8C
:1049C000D20F8019D207DBB200F080FBF8BDDA0508
:1049D000801A012340001B06C01880185A42801814
:1049E000CA0F1043490007E04908C2071143DA051E
:1049F000801A80194008801800F060FBF8BD610043
:104A00000122511A001BF7E70122D2075140AAE701
:104A10000122D2075040A6E7024670B54A40D30FA4
:104A2000DB0740002DD04A002AD0010E140E0002F0
:104A300012020919400A520A8418E5010446544337
:104A4000000A120A2E045043A4194219200CC5432F
:104A5000AA18120C0125AD03521C521912047F39F9
:104A6000240400D0521C104301D44000491EC2B29D
:104A70000C06C0092018401C4008802A02D003E020
:104A8000002070BD40084000002900DA00201843D3
:104A900070BD70B502464A40D50F40004A00ED0790
:104AA00040085208002814D0002A12D0C40DD30D9B
:104AB00041020120C0055202490A520AE41A0918AB
:104AC00012187D34914201D3641C00E04900002C8F
:104AD00001DA002070BD0023914201D3891A0343FB
:104AE000400849000028F7D100290AD0914202D19C
:104AF0000121C90705E0914201D2012101E0012114
:104B0000C943E005C018401900F0D8FA70BD420052
:104B100005D04200120E52428A4201DB002070474B
:104B2000C905081870470000F0B507460846584008
:104B300087B0C00F049048000E465900400849084D
:104B4000BC1A884105D2384631461E4617460B46E8
:104B500002465800400810434CD0300D03904005E9
:104B60005900400D490D0590401A0290402872DA14
:104B700018030121000B09050843019004980092D5
:104B8000002805D0019952420020884100920190EE
:104B9000029840210A1A0199009800F05BFA054634
:104BA0000C466B4607CB00F076FAC0197141039AA8
:104BB0000E0D0023D71756401A467A40164344D0AC
:104BC000049A002A2DD0029A012A039A15DC1205B4
:104BD000C01A914101263605001C7141D20F059E75
:104BE000D2070093019202962A46234600F0B4FAB7
:104BF00007B0F0BD38463146FAE71605224A0F469F
:104C0000B218C01AB74101210905001C4F41001814
:104C10007F41114618187941E20F10436D19644124
:104C200013E0E2076D0815436408C2071443039AB2
:104C300001261205C01A91413605001C7141CE07AC
:104C4000400830434908C01851412A46234600F025
:104C500076FACDE7FFE7049801224000C117121A47
:104C600000238B4104983146C417381AA141EEE75E
:104C700030B40124E407634030BC55E730B401246C
:104C8000E407614030BC4FE70000E0FFF0B51FB41F
:104C900088B00B990998002448400999C00F490031
:104CA00049080991C0070B990090490049080B91E8
:104CB00009990898A64608431CD00B990A980843FE
:104CC00018D0099801244000420D4800410D099870
:104CD00024050003000B204309900B980003000BF0
:104CE00020430B9050181C49401800220190144694
:104CF000104605E0002001460DB0F0BD032801DAA2
:104D0000034600E003239C46C11A0AAE0AE05F0096
:104D100008ADED5B4F00F75B7D430027AA187C418F
:104D2000491C5B1E6145F2DD410004AB5A5221046F
:104D3000120C0A43240C401C0828DFDB0198029067
:104D40000099704601910090059B049A0799069876
:104D500000F002FAD0E700000DFCFFFFF0B50C46B2
:104D60005C4085B0E40FE40703944C00002664081F
:104D700059009446490802460296224321D06246D1
:104D80000A431ED06200570D4A000E032303550D3F
:104D9000012402462C492405781B1B0B360B4018B6
:104DA00023432643614600901C46501AB44103D366
:104DB0000098401C009002E0921800985B41002887
:104DC00003DA0020014605B0F0BD002001210905ED
:104DD0000746864611E064461D46141BB54106D3BE
:104DE0006546521BB341744607430C43A646CD07A4
:104DF00040084908284392185B4105460D43EAD113
:104E00001046184313D0604619465040714008437D
:104E100006D06046101AB34106D20122002306E0F4
:104E200000220123DB0702E00122D2435310009845
:104E300074460105381C6141029C039D00196941BB
:104E400000F07DF9BFE70000FD03000070B54B00E6
:104E50005B0803430BD04B005C0D002633466542D4
:104E6000B341D417AD1AA34102DB0020014670BD47
:104E700012053018514170BDC217C10F504010B516
:104E80004018CA079623002100F020F910BD10B584
:104E900000229623114600F019F910BD0EB5C21775
:104EA000C10F5040CA0740180021054B02930192E0
:104EB00000910A460B4600F04FF903B000BD000018
:104EC000330400000EB505490291002100910A4605
:104ED0000B46019100F040F903B000BD330400001F
:104EE000410040020122400AD205090E80187F29A4
:104EF00001DA00207047962903DC9622511AC84037
:104F000070479639884070474A0009030123090B0E
:104F10001B051943094B10B5520D9A4201DA0020C6
:104F200010BD064B34339A4203DC9A1A00F0A2F803
:104F300010BD03495118884010BD0000FF03000058
:104F4000CDFBFFFFC20FD207400040080BD0C10DC0
:104F50000723DB01C91840020905400A1143C208B2
:104F600040071143704700200146704710B50029E3
:104F700004DB0124E40740428C412146002B04DB82
:104F80001C460123DB075242A3418B4200D18242DF
:104F900010BD0000CB0FDB07490010B549080246E1
:104FA0000A4307D00A0D07240903E401090B121B69
:104FB000002A01DC002010BDC900440F0C43C100D1
:104FC000E018D205801800F079F810BD0122D20750
:104FD000002800DB101A002900DB511A81427047BB
:104FE0000122D207002800DB101A002900DB511A29
:104FF00088427047F0B51FB40646002082B00546CF
:105000004024019100901BE0019922460F46304652
:1050100000F030F8049A059B801A994110D310468D
:105020001946224600F016F8361A8F41019722469B
:1050300001200021009F00F00DF838184D4100902C
:105040002046641E0028DFDC019B0098294632467A
:1050500007B0F0BD10B5202A04DB0146203A91408C
:10506000002010BD914020239C1A0346E3401943C1
:10507000904010BD10B5202A04DB0846203AD040ED
:10508000002110BD0B46D340D0402024A21A9140ED
:105090000843194610BD10B5202A06DBCB17084679
:1050A000203A1041C1170B4306E00B461341D04094
:1050B0002024A21A91400843194610BD002904DAA1
:1050C000401C490001D140084000704770B40024E2
:1050D000050C05D11024000402D1002921D011248F
:1050E000050E01D100020834050F01D10001241D75
:1050F000850F01D18000A41C002801DB4000641C46
:10510000002908D020252E1B0D46F540A14000D0D7
:1051100001212943084301061B1B000ADB1D02D5A0
:10512000002070BC7047DB05181880180029F8DAD9
:10513000401C4900F5D170BC40084000704710B5D4
:10514000002B08DA0024401C614192185B411A438D
:1051500001D14008400010BDF0B51FB482B0054633
:105160000C0003D0084602F08DF802E002F08AF845
:1051700020300246009021462846FFF76BFF049B33
:10518000059A04460F4618431143084314D01846A5
:1051900010431BD0009840210A1A18460599FFF7C2
:1051A00069FF05460E46009A05990498FFF752FFDD
:1051B000084305D0012004E02046394607B0F0BD81
:1051C0000020C11705430E432C43374300990E9826
:1051D0006305401A7905E40A00220C43FD0A0A30EF
:1051E00002D500200146E9E70105101969410C9C30
:1051F0000D9D00196941FFF7A2FFDFE74A0009038F
:105200000123090B1B0519430A4B10B5520D9A4295
:1052100002DA0020014610BD064B34339A4203DC0B
:105220009A1AFFF727FF10BD034BD218FFF712FFA2
:1052300010BD0000FF030000CDFBFFFF10B50029EB
:1052400004DB0124E40740428C412146002B04DBAF
:105250001C460123DB075242A341994200D19042F0
:1052600010BD0000064C0125064E05E0E36807CCA2
:105270002B430C3C98471034B442F7D3FFF724FB80
:10528000482600209826002070B58C180578401C10
:105290006B075B0F01D10378401C2A1106D10278FD
:1052A000401C03E006780E70401C491C5B1EF9D1BF
:1052B0002B0705D40023521E0DD40B70491CFAE7AE
:1052C0000378401CCB1A921C03E01D780D70491C1A
:1052D0005B1C521EF9D5A142D8D3002070BD00003E
:1052E00003B40148019001BD6902000003B4014804
:1052F000019001BD7181000003B40148019001BD1E
:10530000B142010003B40148019001BDD542010042
:1053100003B40148019001BD593A010003B40148AA
:10532000019001BDED3C010003B40148019001BDB5
:105330001910000003B40148019001BDC93A0100F1
:1053400003B40148019001BD5518000003B40148A1
:10535000019001BD8117000003B40148019001BD17
:10536000C13C010003B40148019001BDA53C01000E
:1053700003B40148019001BD3917000003B401488E
:10538000019001BD3914000003B40148019001BD32
:105390001117000003B40148019001BDF13E010066
:1053A00003B40148019001BD1B3D010003B4014855
:1053B000019001BD7114000003B40148019001BDCA
:1053C000C131000003B40148019001BDC9120000C1
:1053D00003B40148019001BD3D42010003B40148FE
:1053E000019001BD5D19000003B40148019001BDA9
:1053F0003518000003B40148019001BDC118000038
:1054000003B40148019001BD3515000003B4014803
:10541000019001BD4117000003B40148019001BD96
:10542000E915000003B40148019001BD897B00002B
:1054300003B40148019001BDD520000003B4014828
:10544000019001BDA5E5000003B40148019001BD34
:10545000C91F000003B40148019001BDB51E000042
:1054600003B40148019001BD3D1C000003B4014894
:10547000019001BD0D1D000003B40148019001BD64
:105480008306000003B40148019001BD01430100FF
:1054900003B40148019001BDE120000003B40148BC
:1054A000019001BDED3A010003B40148019001BD36
:1054B000F53C010003B40148019001BD5D3F0100CE
:1054C00003B40148019001BDDD21000003B401488F
:1054D000019001BD5171000003B40148019001BD6C
:1054E0009D19010003B40148019001BD392101005B
:1054F00003B40148019001BD8D44010003B401488B
:10550000019001BD5590000003B40148019001BD18
:105510007D3A010003B40148019001BD913F0100B3
:1055200003B40148019001BDA942010003B4014840
:10553000019001BD7942010003B40148019001BD11
:10554000D136000003B40148019001BD01E600001E
:1055500003B40148019001BDBD07000003B4014838
:10556000019001BD891C000003B40148019001BDF8
:10557000E907000003B40148019001BD6D07000078
:1055800003B40148019001BDFD0E000003B40148C1
:10559000019001BD2D0E000003B40148019001BD32
:1055A0003D07000003B40148019001BD211A00002D
:1055B00003B40148019001BD050E000003B4014889
:1055C000019001BD8922000003B40148019001BD92
:1055D000610E000003B40148019001BD9D0E000062
:1055E00003B40148019001BDD50E000003B4014889
:1055F000019001BD610F000003B40148019001BD9D
:105600009502000003B40148019001BD354301003B
:1056100003B40148019001BDE997000003B40148BB
:10562000019001BD3D98000003B40148019001BD07
:10563000E58D000003B40148019001BD49770100E8
:1056400003B40148019001BDE91D010003B4014804
:10565000019001BD1120010003B40148019001BD7A
:105660004920010003B40148019001BDF504010087
:1056700003B40148019001BD4112010003B4014887
:10568000019001BDFD0A010003B40148019001BD74
:10569000D90E010003B40148019001BDCD1C0100E9
:1056A00003B40148019001BD4956010003B401480B
:1056B000019001BD8D3C010003B40148019001BD82
:1056C000E55B000003B40148019001BDE129000041
:1056D00003B40148019001BD9937000003B40148AB
:1056E000019001BD5114000003B40148019001BDB7
:1056F000091F000003B40148019001BDA579000015
:1057000003B40148019001BD4103000003B4014806
:10571000019001BDF161000030B50023094D0CE09E
:105720000C785B1C24092C5D04700C78DBB2240718
:10573000240F2C5D4470801C491C9342F0D3002040
:1057400030BD00003E27002010B50549054801F096
:1057500091F80348044A0821083001F051FA10BDBD
:1057600098270020FFFF000068250020F0B585B0D5
:105770000E46054614216846FFF7D3F8042005437A
:10578000A806800F01D0302005436F46280A7870A4
:1057900003243946BD70E80702D0F078C8700424AD
:1057A000A80702D530793855641C680716D52448F7
:1057B000C079002806D0A80501D5307D00E0707AB8
:1057C000502105E0A80501D5307D00E0707A642104
:1057D00048436421FFF784FD3855641C280702D52F
:1057E000B07A3855641CE80606D5F088000A3855AA
:1057F000B079641C3855641CA80603D5307A385536
:10580000641CE4B2680603D5F07B3855641CE4B22E
:10581000280603D5307C3855641CE4B2E80503D56E
:10582000B07C3855641CE4B2A80503D5707D3855AA
:10583000641CE4B26846047008F028FA05B0F0BDB4
:10584000D0260020FEB59A4C0A25607A0927012847
:105850000DD003281BD1A07A20260300FFF746FDB8
:105860000B7B828D9EA9BAC6D8E3FCFB7B00A07A95
:105870000300FFF73BFD120A0D141F252B30353AAC
:105880004045494F555B6167F20A04F031F8FEBDAF
:1058900009F05EFC18200AF089FB02200EE00020CF
:1058A0000AF084FB03200FE001218903E07DFFF76C
:1058B00023FDFEBD18200AF0B3FA0420A072E7E031
:1058C00000200AF0ADFA0520A07212E018200AF0BC
:1058D0005BFA0620F2E700200AF056FA0720F3E709
:1058E00018200AF067FA0820E8E700200AF062FAB8
:1058F000A7720A22D8E718200AF074FBA572C7E045
:1059000000200AF06FFBFEBD6421002004F05AF86D
:105910000C2023E06421782004F054F80D201DE0D1
:105920006421F02004F04EF80E2017E064213820A6
:1059300004F038F80F2011E06421382004F032F828
:1059400010200BE05BA003C800900191684608F0AE
:105950009DF9112002E003F0A5FF01207D22A07235
:105960001201A1E709F0F4FB6421002004F02AF8F9
:105970000220A072208B60838AE07D220121D20068
:105980008903E07DFFF7B8FC608B00285AD0401EE9
:105990000004000C608355D1032037E047A20221A8
:1059A000142001F0DBFA6421782004F00BF80420C5
:1059B0001AE07D220121D2008903E07DFFF79CFCE3
:1059C000608B00283ED0401E0004000C608339D15B
:1059D00005201BE03AA20221142001F0BFFA642145
:1059E000F02003F0EFFF0620A07246E07D220121A7
:1059F000D2008903E07DFFF77FFC608B002821D077
:105A0000401E0004000C60831CD10720A072FEBD64
:105A10002CA20221142001F0A1FA6421382003F005
:105A2000C1FF0820E0E77D220121D2008903E07D4B
:105A3000FFF762FC608B002804D0401E0004000CBD
:105A400060830ED080B2FFF722FA024600230221C3
:105A50002420009602E01EE005E026E003F0DEFDD3
:105A6000FEBDA772FEBD18A20221142001F076FA35
:105A70006421202003F096FFA572208B6083FFF73E
:105A800006FA0246002302212420009603F0C6FDF8
:105A90007D22D20008E7608B002804D0401E00045D
:105AA000000C608301D080B2E9E7002001F0A2F988
:105AB000D02600200500030000000000473A000047
:105AC000423A0000433A0000573A00000248407949
:105AD000002800D001207047D026002000B585B0F6
:105AE00014216846FEF71DFF10486A46C178117000
:105AF00001795170417A9170817AD170C1881171A8
:105B0000090A5171017A9171C17BD171017C1172C5
:105B1000807C50720A21032001F0C6FA002802D0CE
:105B2000002005B000BD0120FBE70000382E00205A
:105B300001207047FEB52C4C00252570A571E5713C
:105B400065722A480AF048FA7F202949C005086092
:105B500000F0D4FD012105224903E07DFFF7CCFBD5
:105B6000244E6946304600F067FB684600780128FD
:105B700006D1684605706A460121304600F098FC5F
:105B80001021E07DFFF7BEFB1B48C5701BA003C8BA
:105B90000190029101A808F079F80BF0EFF8607914
:105BA000012805D007F0C6FF657009F0FBFC0AE08C
:105BB0000021152006F0ACF8002007F01FFE01219F
:105BC000152006F0A5F8FF210131E07DFFF79AFBD3
:105BD00001214902E07DFFF795FB01218902E07D6B
:105BE000FFF790FBFEBD0000D02600200000204102
:105BF0003427002005030000382E00200500030094
:105C000000000000F8B502F01FFB0BF09FF84F4CAE
:105C10004F4D012727706946284600F00DFB684666
:105C20000078002806D1684607706A460121284698
:105C300000F03EFC6078002802D1677009F05EFB3E
:105C4000A7717D22D2001021E07DFFF755FB60791E
:105C5000002601281DD03F4A0121E07DFFF74CFBC3
:105C600009F0A0FC3A4A3948FF21EE320131C07DEB
:105C7000FFF742FB384D6878042801D30220687092
:105C80000024C0B202280ED0012810D0032812D060
:105C900017E02F4A0121DD32E07DFFF72DFB2B4875
:105CA00006844684DEE730240220E87001E0082400
:105CB000EF702E7105E00320E870E87A4024401C64
:105CC00028710021012006F023F823482030007CB1
:105CD000012806D0022808D003280BD004280FD0B2
:105CE00018E0EF702E710F2414E00220E8702E717E
:105CF00037240FE00320E870E87A2871072409E0D0
:105D00000420E870E87F02281CD0FF24AE77C93455
:105D10000520044310492046FFF728FD002007F026
:105D20006DFD0D4803F09EFC0B480BF023F90BF0C2
:105D3000A3FB064C0121094A8902E07DFFF7DCFA4A
:105D40002775F8BDFF24AF77F134E1E7D0260020B6
:105D500005030000CA070000382E00204C04000094
:105D6000FEB507F009FB7D2742066021FF000126F2
:105D7000A74D002A09DA82061AD5884304466879B5
:105D8000022829D009F0D8FF26E0820610D58843E2
:105D90000446687901281FD06E71287800281ED12A
:105DA0003A460121E87DFFF7A7FA0AF0DBFB13E092
:105DB000884304460B2005F067FF00280CD0687963
:105DC000002809D00AF028FC2878002807D10A22E8
:105DD0000121E87DFFF790FA287800280AD00121F8
:105DE000E87DFFF795FA002804D13A460121E87DC5
:105DF000FFF782FA687A0027002875D0E1070CD0F7
:105E0000A878401CC0B2A870322803D9AF70002017
:105E100000F0F0FF401CA87068E0A978002964D069
:105E2000012802D0022842D05CE0A87A002859D18B
:105E3000687BA97B0840E97B0840297C084251D057
:105E400002F008FA00900AF07BFF044671490098BE
:105E50004018FA28A87C09D3002802D1032003F0B7
:105E6000DBFB022003F0D8FBAE7405E0002803D072
:105E7000032003F0D1FBAF746000000E0FD0664822
:105E80002118664881420AD3A87C002802D1032049
:105E900003F0C2FB012003F0BFFBAE7422E0A87C3C
:105EA00000281FD10B20A872FFF7CCFC1AE00822B3
:105EB0000021502001F050F8687BA97B0840E97B65
:105EC0000840297C08420DD009220021502001F011
:105ED00043F853A003C8019100900621684606F0DC
:105EE00099FC6E74AF70FEBD42E0AF70A87A0028D6
:105EF0001FD120070DD5E87A32280AD2401CC2B241
:105F0000EA720221642001F027F8E87A282800D9F3
:105F10006E73E0060DD5E87A0A280AD9401EC2B28F
:105F2000EA720221642001F017F8E87A142800D2FE
:105F3000AE73687A03285FD1A87A022801D3288B30
:105F40006883688BFEF7A3FF0246202000900023A1
:105F50000221242003F062FB002CC4D0E00701D012
:105F6000142200E096220421E87DFFF7C5F9BAE784
:105F7000E0070ED0A878411CA97032281CD9AF7058
:105F80002878002802D0FFF7D5FDACE7FFF73AFEEE
:105F9000A9E7E87C00280FD168460780A878002888
:105FA00009D02878002806D01F48407A002802D05F
:105FB000684607F04DF9AF70287800281CD0E87CBF
:105FC000002819D1684607802007E87817D5411CBA
:105FD000E970142804D91520E870684607F092F893
:105FE000E00628790FD5411C2971142804D9142002
:105FF0002871684606F0F0FF002CB1D173E7002845
:10600000EF70EAD1ECE700282F71F2D1F4E700003D
:10601000D0260020CAEFFFFF000090BE0100B000B4
:1060200002800102C00A0000382E002010B5034A89
:106030001321034800F0E4FD10BD0000902500206E
:1060400034280020FFB595B00025109510AA1195B1
:1060500000F098F806460A287CD2044606204443FD
:1060600020462030C0B26A460E2108F0A9FA002866
:1060700002D168468089C5B2179813904048189994
:106080000078022813D000201290082911D0204651
:106090002130C7B21C2200216846FFF73FF96A464B
:1060A0001C21384608F08CFA002805D010E00120A9
:1060B000EAE720462230ECE76846807EC01F0928C8
:1060C00006D8E907C90F6A46129B1398FFF72CF907
:1060D0001422002107A8FFF721F920462430C0B27E
:1060E00007AA102108F06CFA002812D11022FF2113
:1060F00007A8FFF71FF900280BD12534E0B20BAA3F
:10610000042108F05DFAE907C90F07AA1798FFF7FD
:1061100017F97036F0B20CAA102108F051FA0028D5
:1061200011D10CA804F0DDF800240CAEA0008019F9
:106130000188002903D08278179800F0BDFD641C07
:10614000E4B2042CF2D3A80704D50D48017B1798BC
:1061500000F0A0FD189804280FD1094908780228FA
:106160000BD10A791798002A00D00122497800291A
:1061700000D004211143FFF7E9F8002019B0F0BD69
:106180004C2A0020F0B50A2485B015460F46002899
:1061900006D0012804D0022810D0032846D11FE0E1
:1061A000084604F06BF804460A283FD2002D3DD083
:1061B000062239462846FFF7CFF837E01D4E002467
:1061C0000E206043801906223946801DFFF7CAF869
:1061D000002823D1641CE4B20A2CF1D30A241DE068
:1061E00000242046062148432330C0B26A461021CD
:1061F00008F0E6F900280CD11022FF216846FFF7CD
:1062000099F8002805D139466846FFF7B1F800280B
:1062100004D0641CE4B20A2CE3D3DFE70A2C05D2D5
:10622000002D03D02946204604F040F8204605B052
:10623000F0BD0000AE37002070B50C4601460320CB
:1062400000020A1A002534481300FFF74FF81D100A
:1062500012151C1F2326282C303234383A3C3E407D
:10626000424446484A4E50525A5456585A00C079F1
:1062700011E01022294902E028491022103120465D
:10628000FFF76AF845E0C06A206042E02249062232
:106290003C31F4E7007820703BE0808936E01E490D
:1062A00042784231EBE71D4982781F39E7E7007AEF
:1062B000F1E7407AEFE7184906223031DFE7807ACC
:1062C000E9E7C07AE7E7C08920E0808A1EE0C0786D
:1062D0001CE0C08A1AE0008B18E0408B16E0808B2F
:1062E00014E00D4906223631C9E7C08B0EE0008C60
:1062F0000CE0408C0AE08079CDE7008A06E0408A15
:1063000004E0272904D20846FFF738F8208000E08F
:106310000225284670BD0000E82900207D370020B6
:1063200070B50E4C00256071A571691EE181FFF703
:106330002BF80420E071102200210948FEF7EEFF3F
:106340000748102200211030FEF7E8FFE5622572B1
:1063500065720720A072E57270BD0000E829002078
:106360007D370020FEB53B4D0C4608040CD56879FE
:10637000FFF710F8050004D004F0BCF82846FFF73A
:106380000FF80120C00360E0600403D50120800302
:106390004840FEBD2F48E1070126807900292AD018
:1063A0002978002920D0052821D0287A694608704C
:1063B000687A4870274900A8062230310230FEF77B
:1063C000CBFFA87A69460872E87A48726879FEF7C6
:1063D000EDFF002808D00720A871696A002903D0C2
:1063E0000968002900D0884720467040FEBD032080
:1063F00069460870E5E7A1070DD5052809D1E889A8
:10640000FEF7DAFFAA8A002A03D002216879FEF794
:1064100073FF022019E0600704D5002004F0C2F8E1
:10642000042012E0200712D52879012802D0022882
:106430000AD107E00096AB8B6A8B298BE88A00F0C3
:106440000BF801E000F05AF908206040FEBD002082
:10645000FEBD0000E8290020F8B5134C069DA67982
:10646000052E01D01420F8BD104F861FBE4219D250
:10647000062917D3BE1DB14214D2FF27F537BA4201
:1064800010D20A2B0ED3B3420CD2E0822183628356
:10649000A383284604F086F804216079FEF732FFD2
:1064A0000020F8BD1820F8BDE82900207A0C000073
:1064B000F7B50C4680490098164642187F4F0025D4
:1064C0007879B9791300FEF711FF190E141BE92032
:1064D00040455970777E888FE996A2A9B4BFC8E974
:1064E000E9E9E9D3E900102C76D11022314674484D
:1064F0006FE0102C70D1724810223146103068E0E5
:10650000042C69D13068F862CEE0012C64D13B786C
:1065100032783A70002B0AD0002A07D1022903D022
:10652000062901D0042901D1FEF74CFFBCE0002A66
:106530000AD0012905D0032903D0052901D0042957
:1065400002D10121FEF744FFAEE0022C44D1308895
:10655000B881A9E01F2C3FD858481F2200214230A3
:10656000FEF7DCFE5548224631464230FEF7F4FE87
:10657000524B7C7042332246012112E01F2C7CD802
:106580004F481F2200211F38FEF7C8FE4C48224604
:1065900031461F38FEF7E0FE494BBC701F3B2246D8
:1065A00000217879FEF71AFF83E0012C65D130785D
:1065B000042862D8387277E0012C5ED13078032845
:1065C0005BD8787270E0062C57D13C4806223146E1
:1065D0003030FEF7C1FE67E04FE0012C4DD130783E
:1065E00007284AD8B8725FE0012C46D130780328DA
:1065F00043D8F87258E0022C3FD13288BA82002A80
:1066000052D0052950D10221FEF776FE4CE0012C34
:1066100033D13078012830D8F87045E03088022C2A
:106620002BD1062829D31921C901884225D8F882FF
:106630003AE03088022C20D106281ED31921C90146
:1066400088421AD838832FE03088022C15D1FF21D8
:10665000F531884211D2788326E03088022C0CD1A3
:106660000A280AD31921C901884206D8B8831BE039
:106670003178012C01D1012901D0182514E008211D
:10668000FEF746FE002801D016250DE0002003F09D
:1066900089FF04217879FEF735FE05E00098272868
:1066A00001D2022C02D002252846FEBD3188FEF719
:1066B0009BFE0546F8E70000FFFCFFFFE8290020ED
:1066C0007D3700201CB50B4CA179002901D0112089
:1066D0001CBD002800D06062064907482C310346E3
:1066E00001910090103B0022E179607900F016F8EA
:1066F00000201CBDE82900208D37002010B5064879
:106700008179052901D0122010BDC1891322407959
:10671000FEF770FE10BD0000E8290020F8B51D4608
:106720000224069F079E0B00FEF7E0FD0A150806EF
:106730000608150615060615002C0CD1FEF760FE9E
:10674000040008D1324639462846FEF75FFEFEF7C0
:1067500063FEFEF767FE2046F8BD08B500206946D7
:10676000009005204A1C09F0E1FF684640780009C6
:106770000300FEF7BBFD0906080A060C0E111417EC
:106780000600502008BD202008BD282008BDA020FC
:1067900008BDFF20913008BD1920400108BD192017
:1067A000800108BD1920C00108BD08B50020694658
:1067B000009005204A1C09F0B9FF684640780007A0
:1067C000000F0300FEF792FD0A06080A060C0F12DE
:1067D00015181B06A02008BD302008BD502008BD9C
:1067E000FF20413008BD1920400108BD192080015B
:1067F00008BD1920C00108BD1920000208BD7D2078
:10680000C00108BD10B5002309E01C012418E4688C
:10681000944202D11901081810BD5B1C9BB28B4237
:10682000F3D3002010BD000070B50F4D0F4CA870C1
:1068300029461431204600F01DF8002128460B4659
:106840000C30CA0084521218491C09065360090E04
:10685000F7D0012004F0C2FAA878FEF7E9FD044859
:10686000FEF7ECFD70BD0000702A0020FFFF000065
:106870006DA6FF1F70B50A4C0025A04209D100206B
:1068800082008C525218401CC0B295700228F7D377
:1068900070BD03F0BAFE0028FAD00480857070BD88
:1068A000FFFF0000F8B50E4607460699002407983A
:1068B000002902D00B242046F8BD022B01D00D2464
:1068C000F9E711785278120289188DB2294681436E
:1068D00001D08024EFE73846F16800F089F9A8423A
:1068E000E9D02A463846F16800F014FA0400E2D1F3
:1068F00071892A46384600F0B1F9DCE7FFB500257A
:10690000C1B02E464198B1000C1821881E48814222
:1069100032D0A07800282FD0429A4A994498FFF7A5
:1069200071FF070028D0194803A900780231C01E62
:10693000C0B20290002200914498019242894B1CFF
:106940002088394600F040F8002815D1788969463A
:106950008881A078C00705D0208803A9439AFEF754
:1069600073FD0543A078800706D5208803A94B9BBB
:10697000439AFEF76FFD0543761CF6B2022EC1D393
:10698000284645B0F0BD0000FFFF0000EC10FF1FDF
:1069900070B50C46080412D50A488078FEF7FAFC58
:1069A000050008D02878B02802D1284603F048FF17
:1069B0002846FEF7F5FC0120C003604070BD0020B2
:1069C00070BD0000702A0020FFB583B0087A002552
:1069D0000C9E1C460F46C0060DD5059803F00EFE12
:1069E000030006D00A22394603989847050035D19E
:1069F00001E00E2532E0387802281DD1786829227E
:106A00000178407812020002081881B2881A914277
:106A10007ED009DC7348081A23D0012821D002282F
:106A20004FD0032808D125E0012872D0022871D068
:106A300003286DD004286ED0059803F007FE0028C7
:106A40006AD00568002DD4D00E990D980191009060
:106A50003346224639460398A8470546284607B0DC
:106A6000F0BD0D98002872D1F86801783170027875
:106A7000416896E00D98002869D101203070F868CF
:106A80000021007820707889401C80B2FEF7E8FC75
:106A900000280DD0317802788918891C3170817AEC
:106AA00061704189090AA17002784168E01C79E0AF
:106AB00030780422001D30700021601CFEF72EFC8F
:106AC000CCE70D98002875D1F86802A900880090DD
:106AD00004203070009820700098000A60700098C0
:106AE000FEF7BEFC070029D0F868009068460289CE
:106AF00001AB3D493846FEF7B9FC002810D13B7880
:106B000002213A487A68FEF7B7FC002808D104E071
:106B100026E030E01CE04AE062E0334869468880C5
:106B20000098007802280CD1009802224168201DAC
:106B3000FEF712FC3078801C307002E06946009845
:106B4000888068468088A070000AE07086E731E09F
:106B50000D9800282ED1F968039800F049F804E058
:106B60000D98002826D1F868008802213170207025
:106B7000000A607072E7F868FEF784FC0D99C0B2F5
:106B8000814212D8814201D1002206E00E9A891872
:106B9000814202D30D99401AC2B23270F9680D9841
:106BA00009182046FEF7D8FB58E7072556E70D9849
:106BB000002801D00B2551E70721F86831700178D2
:106BC0002170417861708178A1704188090AE17073
:106BD0000179217181796171C088000AA0713DE756
:106BE00000252FE700280000FFFF00001E7C0100A9
:106BF00010B503F00AFD002800D0807810BD000019
:106C00007CB51546040019D0684601940180FEF752
:106C10003FFC03001DD1002D1BD06489002C0DD03A
:106C20000C20FEF73BFC00280AD000230360848080
:106C3000094A85605168002904D006E0022308E073
:106C4000132306E0506004E011460A68002AFBD1D5
:106C5000086018467CBD0000702A0020F8B50C4C76
:106C60000746207815460E46FF280FD00A20FEF76B
:106C70001BFC01000AD0B120087000204870087188
:106C80004F80CE800D812078FEF714FCF8BD000007
:106C9000702A002070B50C4605460649FFF7A8FF8C
:106CA000800704D521462846FEF70AFC70BD012066
:106CB00070BD0000842A00201CB56B461A71120AB0
:106CC0005A7100220092022301AA00F001F81CBDB3
:106CD000FFB583B008461F4601A90C9EFEF7C0FB16
:106CE000050014D06846808803F0B0FC00280AD064
:106CF0004468002C09D000963B462946059A039823
:106D0000A04707B0F0BD0024F3E70E20F9E701200B
:106D1000F7E7000070B514460E46054603F075FC13
:106D2000002806D13146054803F06FFC002803D047
:106D300005808470002070BD112070BDFFFF000031
:106D4000014610B50020C90704D0034A07210348B3
:106D5000FFF756FF10BD0000A42500207429002075
:106D600070B50D46164600241D490300FEF7BEFA15
:106D700008051234341934222934152D23D816224B
:106D800000211848FEF7CAFA2A4631461548FEF790
:106D9000E3FA22E0022D16D111491088103908803B
:106DA0001BE0082D0FD10E48082231460838FDF7A8
:106DB0009FFD12E0012D06D1CA69094930782831BA
:106DC00007E0012D01D0182407E0CA6B0449307890
:106DD000483104F0A6F900E00224204670BD00000E
:106DE00074290020483700200148007870470000CF
:106DF0009C260020002801D009F066FC0021132009
:106E000004F086FFFEE70000F8B5454F0A463978E2
:106E10008446092948D00A2946D00B2944D00C2998
:106E200042D00D2940D03F4C607A002801D0012883
:106E30001AD12078002801D0012815D165893A4857
:106E40002B1F834210D2A3891E1F86420CD2AB4255
:106E50000AD8002A01D0012A06D16046334B344DAE
:106E600000282DD0012801D01220F8BD207A012859
:106E70001AD025200126002904D007290AD0082984
:106E800008D011E0E671E273A07405203870FEF7B7
:106E90001DFB13E06A68928D520605D51A78002A08
:106EA00004D024A000F0CAF92120F8BDA07427481E
:106EB0001E70012109030078FEF78AFA26722CE081
:106EC00072B60026052904D0072907D0082905D065
:106ED00005E03E701E20FEF7FFFA00E01E702672ED
:106EE0005820FEF7FFFA62B6FEF702FB184E194C67
:106EF000A8600FE0FEF7FCFAA968884201D3401AA7
:106F000001E0711A0818E8607D226969D2005143D6
:106F1000814202D320680128ECD00020F8BD000097
:106F20001D12FF1F421DFF1FFD3F00002312FF1F08
:106F30001C2D00205B4C4C5F4442475D20253032C5
:106F40005820253032580A0D000000001C12FF1F87
:106F500040420F005812FF1F00207047704700008A
:106F6000F8B50446002003460A5C8507ED0EAA40EA
:106F70001343401C0428F7DB01F028FD0028FBD157
:106F800002F080FC21022004090E0843FF273F0283
:106F900021463940084372B600211A4DA960194EA6
:106FA0000002803E801C3060336062B601F00EFD4E
:106FB0000028FBD102F020FB1120000620186946B2
:106FC0002A695207FCD572B60422AA6004020204A0
:106FD000240E2243384002431002C01C306062B6C7
:106FE00028694007FCD530780870307848703078D0
:106FF00088703078C8700098984201D00020F8BDA1
:107000000120F8BD8000081170B50546002409492B
:107010000948FFF72FFC0948FEF710FAE80706D0E9
:107020000448074A15210830FFF7EAFD04462046C8
:1070300070BD0000602B0020FFFF0000D900002081
:107040001426002010B50B4600240E49002806D057
:10705000022809D005280FD00224204610BD4888F8
:1070600010700246084903E0C888107007490246BC
:107070001846FEF771F9F0E7888910700246044956
:10708000F6E70000442B00202C3B00202C3F002082
:107090002C450020002803D00249086100207047D9
:1070A00011207047442B0020FEB5174602460120F0
:1070B00000244002814201D91820FEBD2148FF254D
:1070C00015261300FEF712F9060409101524293AB3
:1070D00041800A4639461C4803E081800A46394609
:1070E0001A48FEF739F92AE0C1800A46394618489D
:1070F000F7E701810A4639461648FEF72DF9114B8C
:10710000002224331846134910380096019512E0E6
:1071100041810A4639461048E3E781810A463946EB
:107120000E48FEF719F9074B0022243318460B4985
:10713000083800960195FFF7E1FB00E002242046A5
:10714000FEBD0000442B00202C3B00202C3D0020E5
:107150002C3F00202C4100202C4300202C450020F7
:10716000024901480860704740787D01182D0020D1
:1071700030B587B00446412801D0422C23D11821D4
:107180006846FDF7CEFBFF2217216846FDF7C2FBDC
:1071900000256846412C02D0422C05D00CE0122577
:1071A00004702A460A4904E01225094904702A4657
:1071B0001231401CFDF79CFB6A4629460520FFF76B
:1071C00073FF002802D0002007B030BD0120FBE78C
:1071D000521A002010B57D21C003C900FEF780F8C7
:1071E00000F002F810BD0000F8B506460027FEF7D3
:1071F00085F904460648051B06E0FEF77FF9A04224
:1072000001D3071B00E02F18B742F6D3F8BD0000EA
:10721000FFFFFF00CB0776220748002B02D0C26099
:10722000012004E0CB0504D5C260FF2001304840B6
:107230007047002070470000002000400FB410B5D8
:1072400003A9044B044A029800F08CF910BC08BC56
:1072500004B018477DA1FF1F3C2D00200FB410B5CE
:1072600004A9074B02AA039800F07CF9044602A97E
:10727000002000F013FD204610BC08BC04B01847E5
:107280009D7CFF1F2021020C01D010211046020A14
:1072900001D010460839020901D01046091F8208A2
:1072A00001D01046891E420801D0881E7047081A76
:1072B00070470000002805DBC106C90E0120884088
:1072C000014908607047000000E100E08307FF22E9
:1072D000DB0E9A408907090E9940002808DB8308D5
:1072E00009489B001818036893430B4303607047D9
:1072F0000007000F0838830804489B001818C3696A
:1073000093430B43C361704700E400E000ED00E0ED
:107310008307FF22DB0E9A408907090E9940002857
:1073200008DB830809489B001818036893430B4344
:10733000036070470007000F0838830804489B006B
:107340001818C36993430B43C361704700E400E01E
:1073500000ED00E08307FF22DB0E9A408907090E4B
:107360009940002808DB830809489B001818036827
:1073700093430B43036070470007000F08388308EE
:1073800004489B001818C36993430B43C3617047BB
:1073900000E400E000ED00E0BFF34F8F0449034834
:1073A000C860BFF34F8F00BFFDE700000400FA057F
:1073B00000ED00E0BFF34F8F04490348C860BFF3FE
:1073C0004F8F00BFFDE700000400FA0500ED00E06C
:1073D00002E008C8121F08C1002AFAD1704770479E
:1073E000002001E001C1121F002AFBD170470000FC
:1073F000F0B51FB486B00998089A030D0021024326
:1074000014D05148514A18185043051411980128B6
:1074100010981AD0281A401C00264D4F4D4900964E
:1074200001910490002812DA444211E011980124DD
:1074300049A3012801D11098C1430698119A84608C
:107440000360C26041600BB0F0BD4042E4E7044617
:10745000210500203F4A001C51410391029012E097
:10746000E00707D032463B4601990098FDF70EFC35
:107470000191009032463B4610461946FDF706FC46
:1074800006460F466410002CEAD10498039B00289E
:10749000029A0999089806DAFDF7F8FB019B009A11
:1074A000FDF7F4FB05E0FDF759FC019B009AFDF7A1
:1074B00055FC04460E460022284BFDF7BFFE03D8BC
:1074C0000020C043014607E00022254B20463146FC
:1074D000FDF72AFBFDF792FE102409E0002C0ADBE1
:1074E0000A220023FDF786FD079B30321A55641EE1
:1074F00002460A43F2D11122641C079B121B1C197D
:10750000119B012B03D0012308430ED10AE008434D
:1075100004D0112010900020119077E71098151AD0
:107520006D1E0BE01098824202DD00236D1C03E00B
:10753000824201DA00236D1E002BEED006981199CD
:107540008260C16030C07EE701FCFFFF104D00008B
:10755000000014400000F03F300000000000F04345
:107560000000E03FFFB597B00646002518E2252849
:1075700077D100242746FD49049400E00443761C9B
:1075800032780120203A90400842F7D130782A28FA
:107590000ED00222307801463039092916D80499D4
:1075A0000A235943303940181443761C0490F1E7FC
:1075B000189802C804911890002904DA01204003A9
:1075C00004434842049002200443761C30782E285D
:1075D00014D1042004437078761C2A2809D1189805
:1075E000761C80C8189009E00A214F43303FC71924
:1075F000761C3078014630390929F5D930786C2865
:1076000010D006DC4C281AD068280ED06A2817D172
:1076100004E0742813D07A2812D110E0012040052C
:1076200004430CE00121090501E0032109050C4395
:107630007178814203D1012000052418761C761C44
:107640003078119066280BD013DC58287DD009DCE7
:1076500000287BD04528F6D04628F4D047281AD1F8
:10766000A5E118E0632835D0642870D0652812D1D0
:107670009DE170286CD008DC6728F1D069287BD0A8
:107680006E280DD06F2806D1BAE073282ED0752849
:1076900071D0782859D01A9A199990476D1C7EE1BB
:1076A0006002400F022809D003280DD00428189842
:1076B00001680DD00D60001D189070E11898EA1750
:1076C00001680D604A60F6E7189801680D80F2E7DE
:1076D0000D70F0E718986A4601781172001D189035
:1076E0000020507202A80090012005E0189802C8FE
:1076F000189000200091C04361070DD5002101E0E2
:107700000199491C0191B94212DA8142F8DB009AD1
:10771000515C0029F4D10BE0002101E00199491CE2
:1077200001918142FADB019A0099895C0029F5D127
:10773000019904981A9B471A21463846199A00F075
:1077400097FA0199401945180BE04FE02CE113E03E
:107750004EE0009800990078491C00911A9A1999F6
:1077600090470198401E0190401CF2D121463846B6
:107770001A9B199A10E137E00A200021009001912C
:107780006002410F022907D0189A01CA1892C21745
:107790009446032908D00AE01898C01DC108C90002
:1077A00005C91891944607E000B2C217944604290F
:1077B00002D140B2C1178C4600226146944506DAD8
:1077C0000A460021404291418C462D2102E02105CC
:1077D00004D52B216A461173012103E0E10701D092
:1077E0002021F7E7029155E00A200AE0102008E086
:1077F000102000900021042004430191082703E099
:1078000008200021019100906002410F022907D059
:10781000189A01CA189200229446032908D008E059
:107820001898C01DC108C90005C91891944603E005
:1078300080B2042900D1C0B200210291210729D5CC
:107840001199702906D0009A1021019B4A401A43D1
:1078500005D00EE040216A461173012108E061461F
:10786000014306D030216A461173119951730221E8
:107870000291009A0821019B4A401A430AD16146AD
:10788000014301D1610705D530216A4611730121F9
:107890007F1E02911199582904D035A10E910DA98E
:1078A0000D910DE037A1F9E76146019B009AFDF7C4
:1078B000A1FB0E9B8C469B5C0D9A521E0D92137081
:1078C00061460143F0D10D9805A9081A20300190B6
:1078D000600703D501200004844300E001270198DC
:1078E000874201DD381A00E000200199009041181C
:1078F000029809180498401A0490E00306D421461F
:107900001A9B199A049800F0B3F94519002706E06C
:1079100003A81A9AC05D199990476D1C7F1C0298A4
:107920008742F5DBE0030CD521461A9B199A04988F
:1079300000F09EF9451904E01A9A302019999047F1
:107940006D1C0099481E00900029F5DC08E00D9898
:107950000D990078491C0D911A9A199990476D1C40
:107960000199481E01900029F1DC63E1092801001A
:1079700030313233343536373839616263646566A5
:107980000000000030313233343536373839414267
:10799000434445460000000000F05AF94519761CA2
:1079A0003078002800D0E2E528461BB0F0BD600723
:1079B00000D406271898C01DC108C90048680A6885
:1079C0000831C30FDB071891190001D09CA108E012
:1079D000210501D59BA104E0E10701D09AA100E0B7
:1079E0009AA1430011985B08109165280CD006DC21
:1079F000452809D046281DD0472841D141E06628B6
:107A000018D067283CD13CE00021112F01DB112068
:107A100000E0781C0191009008A911A8FFF7E8FC8C
:107A2000139905910021119A15927F1C12980197C4
:107A3000009150E00120C00703900120019008A9A7
:107A4000009711A8FFF7D4FC139A1499059200220D
:107A5000119B009212981593059A0192002901D06A
:107A6000104602E0791C40180190381A01D501989F
:107A700004E04042401E0090781C0190C01B029020
:107A800043E0012F00DA01270021112F01DD112031
:107A900000E038460191009008A911A8FFF7A8FC62
:107AA00013990591119A002112981592009101974E
:107AB00021070CD40599B94201DB019900E001913D
:107AC000012904DD159A491E515C302906D0B842BF
:107AD00001DA011D05DA0121029115E00199491E23
:107AE000EDE7002805DC0099411800910199091A79
:107AF00003E0019A411C914200DD01910099401A76
:107B0000401C02900120C0070390200706D4029970
:107B10000198814202DB0020C043029000206946A8
:107B2000C87707AF012103980337C907884224D0DB
:107B3000022011902B201290039800280CDA40426A
:107B400003902D20129007E00A210398FDF7C8FB4F
:107B500030317F1E039039701199481E1190002911
:107B6000F2DC03980028EFD1791E12980870307863
:107B7000202108404530BF1E387006A8C01BC01D1C
:107B8000039010980078002800D001200199411836
:107B90000298C0170918039809180498401A401E43
:107BA0000490E00306D421461A9B199A049800F029
:107BB0005FF8451910980078002803D01A9A19998F
:107BC00090476D1CE00324D521461A9B199A04980E
:107BD00000F04EF845191CE00098002807DB0099DA
:107BE0000598884203DD1598405C199901E01999C0
:107BF00030201A9A904700986D1C401C0090029803
:107C0000401E0290002804D11A9A2E2019999047FC
:107C10006D1C0199481E01900029DDDC05E03878D3
:107C20001A9A7F1C199990476D1C0399481E03905E
:107C30000029F4DC21461A9B199A0498ACE600004E
:107C40002D0000002B0000002000000000000000BC
:107C5000F8B5044600251E461746880404D405E0FE
:107C600039462020B0476D1C641EF9D52846F8BD62
:107C7000FFB50446002581B01E46C80301D5302754
:107C800000E02027880404D505E038460399B04772
:107C90006D1C641EF9D5284605B0F0BD0A68531C5A
:107CA0000B6010707047000004490868FF22120240
:107CB00090430122D2031043086070471CE400E0A7
:107CC00010B5FDF721FC0120FDF724FCFDF728FC91
:107CD000002010BDF0B500248E464A1E12E0714609
:107CE00000230D1B6D1E0AE09E0031188C4687593B
:107CF00049688F4202D9815161464F605B1C9D42A9
:107D0000F2D8641C9442EAD3F0BD000010B500F034
:107D10009BFAFDF7D7F80022074BFCF7B7FF0022CC
:107D2000064BFDF71BF80022054BFDF717F8FDF792
:107D3000EBF8C0B210BD0000006890400000594050
:107D400000002440F8B5069800261D461446002879
:107D500001D00B20F8BD4868012702784078000266
:107D600010181B4A80B2904202D1FFF7CFFF14E0F7
:107D7000174A521C90421DD103F048F91549FCF7EF
:107D80004BFEFDF7DFF80022134BFCF771FF0022DA
:107D9000124BFCF7E3FFFDF7B7F811490870052017
:107DA00028700878207067704A20A070E770B320B0
:107DB00020710BE00B4A904207D102201870024656
:107DC000C9682046FDF7C8FA00E00A263046F8BD2B
:107DD0001A2A000000007A4400C8A940000024408C
:107DE0009027002008290000F0B5044685B0002641
:107DF0007B480196407901281BD10B2003F044FFFA
:107E0000002816D101A8216803F092F80198FDF727
:107E100099F8744A744BFCF739FF05460F46206801
:107E2000FDF790F82A463B46FCF722FFFDF7B2F833
:107E3000206003F0F1F8002842D06C48457A002D0C
:107E4000FAD0014620310F7C032F7DD2684920688B
:107E5000FCF7E2FD674D022F33D0012F7FD8FDF7ED
:107E600071F8064628460F46C088FDF72BF8624A8F
:107E7000624BFCF70BFF32463B46FCF76FFF0246B6
:107E80000B4600200146FCF74FFEFDF783F8054640
:107E900058480089FDF716F8574A584BFCF7F6FE8C
:107EA00032463B46FCF75AFF06460F462846FDF78A
:107EB00049F832463B46FCF737FEFDF76BF80646BD
:107EC0004DE0FDF73FF8064602910F462888FCF783
:107ED000F9FF4B4A4B4BFCF7D9FE32463B46FCF7C9
:107EE0003DFF02460B4600200146FCF71DFEFDF754
:107EF00051F800906888029FFCF7E4FF3E4A424B2D
:107F00005242FCF7C3FE32463B46FCF727FF0746CA
:107F100003910098FDF716F83A46039BFCF704FE20
:107F2000FDF738F80090A888029FFCF7CBFF2D4A98
:107F3000364B5242FCF7AAFE32463B46FCF70EFF98
:107F400005460E46009800E004E0FCF7FBFF2A46D9
:107F50003346B0E72E49032F16D0042F23D03046E6
:107F6000FCF7F0FF2B4A2C4BFCF790FE05460E4623
:107F70002068FCF7E7FF2A463346FCF7D5FDFDF7FE
:107F800009F8206005B0F0BD007E03280ED908284E
:107F90000CD206280AD016E0FCF778FE32463B46A3
:107FA000FCF7DCFE89E7807F00280CD02068FCF716
:107FB00033FDFCF7C7FF06460F462846FCF782FF55
:107FC000084A164BE8E72068FCF726FDFCF7BAFFE5
:107FD00006460F462846FCF775FF114A114BDBE7B2
:107FE000D02600200AD7A3703D0AC73F382E0020B4
:107FF00000004844B02E0020A4703D0AD723204042
:1080000052B81E85EB510240285C0540C2F506407F
:108010000000C8427B14AE47E17AB43F3D3A1A40B3
:1080200048E17A14AEA702407CB54C681546227828
:108030006478069E24021219104C92B2E24209D1D1
:1080400001220192DBB200962A46FEF72BFC0400C7
:1080500003D000E00A2420467CBD69782878090214
:108060004018074980B249680029F4D0002802D09E
:1080700001208847EFE70220FBE70000FED6FFFF64
:108080009027002003B569460448097801706946C5
:10809000498841806946898881800CBDC0260020BE
:1080A00038B501681C4C012903D01CA006F0D4FB94
:1080B00038BD19491039CA788978D206C906C90F5E
:1080C0000091D30F027B8168042003F04FFC124D16
:1080D000FF21C905083DC84209D3A9882878FDF7C2
:1080E00011F9A98828780522FDF706F938BD0F494E
:1080F000FCF792FC0021C943FCF709FD0C49096A11
:10810000FCF731FC01466060206800F069F869887E
:108110002878FDF75DF938BDC82600200A5F5F4169
:108120004443206572726F720A00000000004041F3
:10813000382E002010B502F08DFE134C002815D00B
:108140001348124A01210078FDF7D6F82078411C27
:10815000C9B221700A2803D80EA006F07DFB0EE0FC
:1081600011A006F079FB0120FEF744FE1A481B49D6
:10817000006803F01BFA03F061FB002801D0112016
:1081800010BD0020207010BDF4260020E203000086
:10819000E7260020200A206164206275737920623E
:1081A000256420200A000000200A205F5F5F5F5FD7
:1081B0005F5F5F5F5F616463206D6F64756C6520F6
:1081C00072657365745F5F5F5F5F5F5F5F5F5F5F77
:1081D0005F5F20200A000000B8260020A180FF1F5A
:1081E00010B508461149FCF717FCFCF779FE80B280
:1081F0000F4C10496080884201D9642003E00E4989
:10820000884202D20020207010BDFCF75BFE0022E5
:108210000A4BFCF72DFD0022094BFCF737FD00222D
:10822000084BFCF79BFDFCF76FFEECE700007A447F
:10823000BC260020FE100000E40C000000C8A9408D
:1082400000005940006890400148007870470000E5
:10825000BC2600200148408870470000BC26002052
:1082600010B504480021016141610D2003F0F0FCCC
:10827000002010BDB826002010B5FFF75BFF10BD31
:108280007CB50446042800D90424354E06237B22FD
:1082900019466720009605F055F96622122307213A
:1082A0001046009605F04EF913237B2219466720ED
:1082B000009605F047F97C2212230721104600960C
:1082C00005F040F97E220F230A211046009605F0A2
:1082D00039F97F220F230A211046009605F032F962
:1082E0000025002C0BD012236C2208216820009658
:1082F000019505F0E7F9012C09D9009608E00095F1
:1083000012236C2208216820019505F0DBF9009505
:108310001223712208216D20019505F0D3F9022C5A
:108320000AD912237622082172200096019505F0C1
:10833000C9F9042C11D007E00095122376220821F8
:108340007220019505F0BEF9009512237B220821C9
:108350007720019505F0B6F97CBD0096F5E70000A1
:108360009E4E000070B59CB0584D0024687018A94E
:108370000C73202113A8FCF7D4FA13AA1BA903201D
:1083800008F0D4F918A913AA097B5148FEF790F810
:1083900010A90C7220210AA8FCF7C3FA0AAA12A994
:1083A000042008F0C3F910A961200AAA097AC000C4
:1083B000FEF77EF8FEF7F9F9064601460620FDF7BE
:1083C00013F831460720FDF70FF831460820FDF776
:1083D0000BF831460920FDF707F869463C488C83C5
:1083E00007AA0221401EFEF763F8694638480C765A
:1083F00006AA0121801CFEF75BF8694634480C751B
:1084000005AA0121801EFEF753F8FEF7A6F969467A
:1084100088832F480A1F02210A30FEF749F82C48AA
:1084200007AA02210B30FEF743F8694628480C835F
:1084300006AA02210C30FEF73BF84B20C00069462B
:108440008882C52005AA02218000FEF731F80120AC
:10845000694608740146312004AA0001FEF728F895
:1084600006211F20FCF7C0FF69460C77182101A8E0
:10847000FCF757FA01AA07A9022008F057F9694644
:1084800001AA097F0020FEF76BFC641E2046FEF760
:1084900057FCFDF759F9FDF7C9FD2046FEF7B4FD7D
:1084A000281DFEF7F7FD06F043F9687808A9087063
:1084B00001208003694648840999089804F050FF18
:1084C00001216878FCF784FF1CB070BD9C26002059
:1084D0000703000010B50C4608040AD50E48407882
:1084E000FCF758FF002801D0FCF75AFF0120C00319
:1084F0000DE0E00705D008480830FEF7E3F801205A
:1085000005E0600405D504F0B3FE0120800360405F
:1085100010BD002010BD00009C260020F0B587B0E3
:10852000002705460197009702F07CFD00287DD0CA
:10853000E04E707A0028FAD002F068FD8121C9056A
:10854000DD4C884215DBDD49884201DD572060E0C3
:10855000FCF7F8FC0022DA4BFCF78AFB0022D94B2F
:10856000FCF794FBD84AD94BFCF7F8FB0022D84B18
:1085700025E0D84988420FDBFCF7E4FC0022D64B0B
:10858000FCF776FB0022D54BFCF780FB0222FCF7C0
:108590005DFC0022D24B12E0D249884212DBFCF78C
:1085A000D1FCD14AD14BFCF763FB0022D04BFCF746
:1085B0006DFBD04AD04BFCF7D1FB0022CF4BFCF730
:1085C000B3FA24E0CE49884210DBFCF7BBFCCD4A6D
:1085D000CD4BFCF74DFB0022CC4BFCF757FBCC4AB4
:1085E000CC4BFCF7BBFB0022C84BE8E7CA498842EA
:1085F00010DDFCF7A7FCC94AC94BFCF739FB002288
:10860000C24BFCF743FBC74AC74BFCF7A7FBFCF781
:108610007BFC6070A74820300490007C03287CD24B
:10862000C24F012840D0C248C24900E03FE1FCF7F8
:10863000B1FC03903888FCF72AFCBF49FCF729FA03
:108640000399FCF7E9F90390BC48BD49FCF7A2FC8B
:1086500002907888FCF71BFCB749FCF71AFA0299DC
:10866000FCF7DAF90290B748B749FCF793FC05909C
:10867000B888FCF70CFCB049FCF70BFA0599FCF73D
:10868000CBF9074602990398FCF76DF93946FCF7D8
:108690006AF907466078FCF7FAFB01463846FCF7B2
:1086A000F8F9019001A837E0A048C088002815D04B
:1086B000FCF7EDFBA049FCF7ECF9FCF743FCA34AFF
:1086C000A34BFCF7E3FAFCF765FC07466078FCF780
:1086D000DEFB01463846FCF7DCF9019001A806F004
:1086E000E9F892480089002815D0FCF7D0FB9249A0
:1086F000FCF7CFF9FCF726FC944A954BFCF7C6FA39
:10870000FCF748FC07466078FCF7C1FB0146384699
:10871000FCF7BFF90090684600E002E006F0CAF8F6
:1087200075E0032802D0042840D070E0F07A0028D9
:1087300004D0012810D002281CD035E060786421D4
:108740004843FCF7BFFB03910290707AFCF7BAFB39
:10875000744A754B921F1AE0607864214843FCF715
:10876000B1FB03910290707AFCF7ACFB654A794B40
:1087700052420CE0607864214843FCF7A3FB03916C
:108780000290707AFCF79EFB4F4A734B521FFCF726
:108790007DFA6E4A6E4BFCF779FA039B029AFCF75E
:1087A000DDFAFCF7F7FB0190009730E0F07A002843
:1087B00004D0022802D001280ED028E0607864217D
:1087C0004843FCF77FFB03910290707AFCF77AFB39
:1087D000484A624B921FDAE7607864214843FCF70D
:1087E00071FB03910290707AFCF76CFB414A5B4B82
:1087F000921FFCF74BFA554A554BFCF747FA039B7F
:10880000029AFCF7ABFAFCF7C5FB019700902A48E7
:108810004078FCF757FB02460B4651485149FCF79C
:108820009DFA04460F460098FCF78CFB22463B4617
:10883000FCF77AF9FCF7AEFB014600900198FCF7D3
:1088400092F8FCF77FFB02460B4600204649FCF7F6
:1088500085FAFCF759FB87B2707A642806D1049830
:10886000007C012802D1572F00D35727FDF72EF99E
:10887000002800D00125104CA088B8420FD0002D50
:1088800008D1FDF723F900280ED1A08800280BD0CD
:10889000B84209D9384608F049FFA78004E0002D06
:1088A00002D0384608F042FF384607B0F0BD00203D
:1088B000FBE70000382E002058270020B81E854016
:1088C00000001040000028408014AE47E17AC43F09
:1088D00000C052400000704000000E400080464042
:1088E00000003E409A9969403333333333330D40AF
:1088F00000003440A09999999999B93F000024400B
:1089000052B85E40D7A3703D0AD70B400000144018
:10891000C0F5285C8FC2C53F333353406666666638
:1089200066660A4010D7A3703D0AC73FB02E0020EC
:1089300093E76A393D29D23F000048443E362387F9
:10894000BA2CD53F206D1895C6C2D63F143BB11343
:108950003BB1F33FF528CC3FE17AB43F9999E13F31
:1089600020F8811FF881AF3F0000F03F064AD08811
:10897000642807D2117A491CC9B21172814201D30D
:108980009069004770470000902E002010B500202D
:10899000054CFF212218401C51704028FADB06F0DC
:1089A00037FD207010BD00003C5F002010B5002096
:1089B000054CFF212218401C51700628FADB06F0F6
:1089C00045FD207010BD0000352D002008480169CC
:1089D0004907FCD5012181600549052280390A70CB
:1089E00002695207FCD50878C007C00F7047000025
:1089F00080000811F0B58646080CFF268446002347
:108A000088B237461C46194601228A400546154061
:108A1000CD402C19A4B2FF2F02D1012C00D18FB26E
:108A200065462A40CA40D21893B2FF2E02D1012BCC
:108A300000D18EB2491C1029E6DB012C02D0102C8B
:108A400008D009E0012B07D13001C0197146087028
:108A50000220F0BD102B01D00320F0BD0120F0BD9D
:108A6000F3B5414A0E46117B83B08B000398114643
:108A7000203900685B185860107B0024401CC0B28D
:108A8000384D107323460A2800D31373107C002836
:108A900008D1507C401CC0B25074052802D301207C
:108AA0001074537431480078002819D08878401C1D
:108AB000C0B288700A2810D98B702B48A1002038CA
:108AC0000F1828467968FCF78BFA00D27D68641C81
:108AD0000A2CF2DB0398056042E0337005B0F0BD6C
:108AE000D07B00280AD0107C002839D000200090CC
:108AF0000190107B002805D0401E04E00120D073B7
:108B00003070EBE70920C0B2002702900298C01B2A
:108B100000D509300006810D134820380C1828466E
:108B20006168FCF75DFA00D2656861680098FCF73F
:108B30004DFA01D26068009061680198FBF713FF5D
:108B40007F1CFFB20190052FE0D30099FBF75CFF7B
:108B50002946FBF759FF0649FBF79BFF039908607D
:108B60000120CDE70000A040182E0020242700207F
:108B70000000404010B528210148FBF7D2FE10BD8F
:108B800074360020032806D3012189078B6801224F
:108B9000824093438B607047032806D301218907E5
:108BA0008B680122824013438B6070470148006844
:108BB000704700001010FF1F012292071368012167
:108BC00081408B43136010680843106070470000B9
:108BD000FEB52B4C6946E0750870022048800126DE
:108BE0008E800021132003F007F80121132003F0E9
:108BF0002FF80021052002F0FFFF0121052003F0DE
:108C000027F834211F48FBF78CFE1E48042720302C
:108C10004773FFF725FB01990098FFF733FAE07DD2
:108C2000694608707002488045108D8008F08EF803
:108C30000199009807F0B4FF7D22D2002946E07D1B
:108C4000FCF75AFB69464F800199009804F07CFBC1
:108C500000F0E8FD0C48067000221146272003F0C2
:108C6000B5FA04F0EFF8E07406F092FB20780028E3
:108C700002D0FCF7C7FFFEBDFCF75CFFFEBD0000A5
:108C8000D0260020F82D002058270020F0B5F94DFF
:108C900087B00C46080409D5E87DFCF77BFB00286B
:108CA00001D0FCF77DFB0120C003D8E2A004002620
:108CB000002813DAFEF798F801277F03052807D06C
:108CC000684606706A460121EB48FDF7F1FB3AE081
:108CD00005223946E87DFCF70FFB34E0A00603D5FA
:108CE00004F05AFF2020BAE2600530D5287D012724
:108CF000BF02002805D02E7532223946E87DFCF7E8
:108D000015FC287800281ED0DC480178002911D0F5
:108D1000E9694900090E0DD00670D9480670D94896
:108D2000417A002903D00120FFF7F8FB02E0C08A56
:108D300008F0FCFCA87D401CC0B2A875142802D124
:108D4000AE7501F04FFA2046784007B0F0BDE0075D
:108D50000127002802D0FFF78FFAF4E7A00778D5A3
:108D6000FFF772FA0390FFF775FA0290687A00280D
:108D700012D0032810D00298FCF7A4F8C24AC34BC3
:108D8000FBF784FFFCF706F90246762000210090ED
:108D90000223084600F042FCB6480178BC48049023
:108DA00005460D3D002979D014210398FCF798FA67
:108DB000694608750298FCF785F8B34AB34BFBF790
:108DC00065FFFCF7E7F8009069460E7101A9684657
:108DD000FFF746FE69460879002803D005A8049AE3
:108DE00006F034FFA34F0098F861A6496A7B8A70A9
:108DF000A8490978002903D069460979002912D0C9
:108E0000A54988420EDCA87B401CC0B2A87301288B
:108E100009D93878002806D0A0A005F01DFDFCF780
:108E200089FE00E0AE737879022813D0012816D0AD
:108E300097492D390E70002801D007F0EDFB687BB3
:108E4000FFF71EFA8C4A0121DD32F87DFCF754FA57
:108E5000F4E008E104208B4968738870F0E7F87942
:108E6000002813D18A4E2D3E3078002804D1687B2B
:108E7000002801D0401E30703078411C3170FFF75F
:108E8000FFF93078042800D9002030707A4A012197
:108E9000DD32F87DFCF730FAD4E7FFE7754840791A
:108EA000022808D07349012855D079482D38027816
:108EB000002A7DD0A6E06F484078002817D1062010
:108EC00002F0E2FE002812D006F018FA002004F0AA
:108ED00095FC684E01217770152002F019FF0420DF
:108EE000FFF7CEF96748697B817077752DE0062022
:108EF00002F0CAFE002803D05E488178002904D021
:108F00005C486C4A0121C07D22E0417D002914D0DB
:108F1000054646755E482D380178002900D1067057
:108F20000021152002F0F4FE63A005F095FC04F08A
:108F300001FE6E700121E87D6EE006464775042053
:108F4000FFF79EF94F48697B81705A4A0121F07DF5
:108F5000FCF7ECFA62E00020487548780E460028DD
:108F60000DD106F0CBF9002004F048FC7770012108
:108F7000152002F0CDFE464900202D39087014213D
:108F80000398FCF7ADF9694608750298FBF79AFF5C
:108F90003D4A3E4BFBF77AFEFBF7FCFF00900020BA
:108FA0006946087101A96846FFF75AFD694600E065
:108FB00027E00879002804D005A8049A06F046FEA8
:108FC000A874A87C632801D96320A874304F2D3F72
:108FD0003878002804D1687B002801D0401E387002
:108FE0003878411C3970FFF74BF93878042800D9DC
:108FF0000020214A3870DD320121F07DFCF77CF938
:109000000CE0067035460E464D7504F093FD757004
:1090100007F002FB0121F07DFCF774F91548407957
:1090200001280BD10C2002F02FFE002806D00B20C7
:1090300002F02AFE002801D106F07EFE0B2002F08D
:1090400023FE00280DD00B4D6879002809D007F0C9
:10905000E3FA2878002804D164220121E87DFCF796
:109060004BF90220FBE0687900282BD001283BD087
:1090700049E00000D026002005030000582700200A
:109080005A270020382E0020FCA9F1D24D62503F13
:10909000252E0020242700203333534020200A208F
:1090A0005F5F6576656E74206F66665F5F200A207D
:1090B00020000000880F00006F6666204C63640A81
:1090C000000000000B2002F0DFFD00281BD16F71B3
:1090D0000121E87DFCF716F964220121E87DFCF707
:1090E0000BF907F03FFA0EE0287800280BD00C208F
:1090F00002F0CAFD002806D00B2002F0C5FD0028B2
:1091000001D106F019FE0B2002F0BEFD00280CD0A4
:109110006879002809D007F07FFA2878002804D160
:1091200064220121E87DFCF7E7F8600703D5FCF72E
:1091300017FE042093E0E00616D5287800280FD00B
:10914000FDF752FE05280DD0A879FF227840A871BE
:10915000F5321021E87DFCF7CFF8A87907F04AFF37
:1091600010207CE0AF71F8E7E00513D507F002FEB0
:10917000E879FF260136002801D03B4A03E0287831
:10918000002804D0394A3146E87DFCF7B5F820467E
:109190007040DAE5A00555D507F0D2FD0190687A58
:1091A000002809D0032807D03D2000900123062184
:1091B0005020019A00F032FA287800281DD02C495E
:1091C0000198884202DDFCF7B5FC16E00146294A09
:1091D0002948914214DDE97900292FD1EF712749FF
:1091E000016007202649FCF7C1FA27E02E72002013
:1091F00001E02F72012008F0B9F9012040022EE0B1
:10920000204A914217DAE9790029F6D07F21EE71E0
:10921000C9050160287A002803D02E72002008F0CA
:10922000A5F91748EE718078FFF72AF8072014494E
:10923000FCF79CFAE1E7E8790028DED0287A0028DC
:10924000D7D0D3E7E00404D5FCF748FC01200003A5
:1092500005E0600405D5FCF7F5FA012080036040C5
:1092600073E5002071E50000F3030000DD07000056
:10927000000084420000704234270020CDCC4C3FD7
:10928000382E00200000504210B504460D48407AA8
:10929000002813D0FBF7FBFD0B49FBF7BDFB0B4987
:1092A000FBF7F7FB0A49FBF75EFB0A49FBF7B4FB48
:1092B0002146FBF7B1FBFBF713FE80B206F07AFD07
:1092C00010BD0000382E00200000C04200401C46A7
:1092D0000AD7233D0000484410B5134C0A20E17E14
:1092E00041437D20C000FBF7FBFF10494870104848
:1092F0008078C00703D0607E02280AD00BE0A07FF0
:109300000028094802D008F0E1F910BD07F020FF5D
:1093100010BDFFF72BFBA07F002802D007F04CFD0B
:1093200010BD07F041FD10BD382E0020242700207D
:10933000902E002010B50E48422101710D49416167
:109340000D49816100210D4A4180D37E0C4C5B00A8
:109350005B1E0380937EC3800172094BC3600123AF
:10936000E41E237053770177FFF7B6FF10BD0000AE
:10937000902E0020D992FF1F8593FF1F382E0020CA
:109380002727002010B500F0C7F810BD70B51C4CA1
:1093900000252146658020311A4804F039FF43201A
:1093A0002071194860611948A0612572154D7D2111
:1093B000E87EC90048430A21FBF792FF401E208047
:1093C000A87EE08012481249E0600120091F087061
:1093D0006877207720460A212A30FBF7A2FA204638
:1093E0002030014602880A310A8042884A808288F9
:1093F0008A80C288CA800089088100F00BF870BD9D
:10940000902E0020382E00201594FF1F1995FF1F65
:109410002827002070B539490120394E4870358819
:109420002846FBF74FFD02460B4636483649FBF708
:1094300095FCFBF7AFFD0446690870887F25ED05B4
:10944000884211D8FBF723FD2146FBF7E5FAFBF72D
:1094500079FD2E4A2E4BFBF767FBFBF79BFD04467D
:10946000A8420BDD2C4609E0401AFBF705FD21461A
:10947000FBF7D2FA2946FBF7CBFA04462548204DE4
:10948000807F2A35002821D02888FBF700FD21465F
:10949000FBF7C2FAFBF724FD80B206F087FD68886F
:1094A000FBF7F5FC2146FBF7B7FAFBF719FD80B295
:1094B00006F0B6FCA888FBF7EAFC2146FBF7ACFAFD
:1094C000FBF70EFD80B206F05FFC70BDE888FBF78D
:1094D000DEFC2146FBF7A0FAFBF702FD80B206F0A6
:1094E00069FC2889FBF7D3FC2146FBF795FAFBF7CB
:1094F000F7FC80B206F076FD70BD00002427002046
:10950000902E0020666666666666FE3FA099999971
:109510009999A93F382E002010B5124CA07F002841
:1095200009D0002006F042FD002006F079FC002062
:1095300006F02AFC05E0002006F03CFC002006F0C6
:1095400051FD07F08FF8084900200870074908729C
:109550004880607720710348E17F2030017404F077
:109560003DFC10BD382E002024270020902E002026
:1095700070B54868002501784078000208181C4939
:1095800080B2441A884223D009DC1A49441811D009
:10959000012C12D0022C15D0032C08D115E0012C7F
:1095A00019D0022C1AD0032C1BD0292C1CD00A2530
:1095B000284670BD1946002001E01946062007F034
:1095C000B5F8F5E719460720F9E719460820F6E748
:1095D00019460920F3E719460A20F0E719460B203F
:1095E000EDE719460C20EAE719460D20E7E70000F1
:1095F000272A0000DDD5FFFF064801694907FCD591
:1096000000218160034A0421803A117001694907F1
:10961000FCD570478000081170470000F8B50C4673
:10962000054617460A210B48069EFBF77AF938468D
:10963000FBF788FC02460B4607A106480096FDF79B
:109640000DFE04480090E1000023054AE81C03F0E9
:10965000BFFEF8BD2C2E0020252E336625630000AA
:109660009E4E0000FEB50446007800280FD0032867
:109670000CD157A005F0F0F81F2004F0BFF8A07837
:10968000FEF7FEFD0121152002F042FBFEBD04F0B5
:1096900007FEA078FEF7F4FD534854490026102336
:1096A000009102901A46019603210A2003F0BFFFA1
:1096B000E08A08F03BF84E4D1723812219460B2013
:1096C000009503F03FFF1823812219460F200095D3
:1096D00003F038FF1923812219461320009503F067
:1096E00031FF44A0454D009000232A461C210A204A
:1096F00003F06EFE42A0009000232A462C210A208F
:1097000003F066FE38481023203802901A462C21B8
:10971000019600951A2003F08AFF3AA000900023DA
:109720002A462C21272003F053FE37A00090002367
:109730002A463C210A2003F04BFE35A0009000236E
:109740002A464C210A2003F043FE33A00090002358
:109750002A465C210A2003F03BFE31A00090002342
:109760002A465C212B2003F033FE1F20C002012576
:1097700000908323292270210195092003F0A2FF84
:109780003F20400100908323532270210195332014
:1097900003F098FF1F20009083237D227021019504
:1097A0005D2003F08FFF607A00280CD0204607F080
:1097B00047FD0121204607F0DBFE204608F018F89F
:1097C000204608F02FF8204607F016FC5AE7000064
:1097D0000A2073797374656D206F66662043686133
:1097E0007267696E670A0000B520002089BF00001B
:1097F000E0FF00004C6576656C0000009E4E0000A6
:1098000054650000702E0000436F6C6F7200000002
:109810005363656E650000005374726F00000000B2
:109820006265000010B515480221C1700021FF22B9
:1098300001716932C2807F22D20542620170052225
:1098400042726424047203464170012220331A7468
:109850002B238372C1720173417304238370847359
:10986000074B0362C273FF23037442820176427680
:109870008376C17601774177817710BD382E00203D
:10988000CDCCCC3D064801694907FCD5002181605B
:10989000034A0621803A117001694907FCD57047D7
:1098A0008000081170B5104C0125257000206071F2
:1098B00004F04CF965700121122002F09DF901219C
:1098C000122002F025FA7D22D2002902E07DFBF76A
:1098D00013FD64220821E07DFBF70EFD03A20221A7
:1098E0001420FDF73BFB70BDD0260020523A00004B
:1098F0007CB5294E69463046FCF79EFC68460078E8
:109900000125002806D1684605706A4601213046C7
:10991000FCF7CEFD214C01A925703046FCF78CFCEC
:1099200068460079002806D16846057101AA012120
:109930003046FCF7BDFD25700026667104F006F97F
:1099400065700121122002F057F90121122002F066
:10995000DFF97D22FF21D2000131E07DFBF7CCFC55
:1099600064220821E07DFBF7C7FCFEF785FCE07C64
:10997000002804D066720A4807F0FCFA7CBD07F0A4
:1099800091FFE27A02216420FDF7E6FA227B0421AE
:109990006420FDF7E1FA7CBD05030000D02600201D
:1099A000382E002010B5064A012351729072D370F0
:1099B000002111710F201146FBF7D8FE10BD0000E9
:1099C000382E002010B5074A5172D08064201072E2
:1099D0000220D0700021117137201146FBF7C6FE1E
:1099E00010BD0000382E0020F0B5FD4DFD4FE86899
:1099F0008DB00078787068880026411C69802988BD
:109A0000884200D36E80F848F649407ACC68002836
:109A10000CD0FBF73CFAF549FAF7FEFFF449FBF7E7
:109A200038F8F449FAF79FFF206100E02661688862
:109A3000F14D152848D8C6B22069FBF783FA0746CE
:109A4000029130460191FBF73DFA0646EB4AEC4B9A
:109A50000091FBF71BF9EB4AEB4BFBF765F83A4635
:109A6000019BFBF713F900222B46FBF70FF9FBF7DD
:109A70004BFAA0803D463046E44AE54B029F0099F0
:109A8000FBF704F9DD4AE34BFBF74EF82A463B4669
:109A9000FBF7FCF80022D84BFBF7F8F8FBF734FA99
:109AA000E080204607F07CFECE48C0680069FBF7E6
:109AB00049FA0D4604463046D74AD84B0099FBF781
:109AC000E5F8D74AD74B86E11A282ED82069FBF74C
:109AD00039FA0F460646D44AD44BFBF7D7F8002292
:109AE0002B46FBF7D3F8FBF70FFAA0803046394638
:109AF000CF4AD04BFBF7CAF800222B46FBF7C6F83B
:109B0000FBF702FAE08030463946CB4ACB4BFBF7F5
:109B1000BDF800222B46FBF7B9F8FBF7F5F92081D9
:109B2000204607F0EBFA0DB0F0BD25287ED81A3894
:109B3000C0B200902069FBF705FA0A900B910098DB
:109B4000FBF7C0F9AD4ABE4B05910490FBF79EF8B8
:109B5000B34A009101905242BA4B02910390FAF736
:109B6000E3FF0B9B0A9AFBF791F80022A24BFBF74D
:109B70008DF8FBF7C9F9A080B34AB44B029903985A
:109B8000FBF7F4F919D2FA6802921069FBF7DAF9D7
:109B90000D460446AC4AAD4B00990198FBF76EF8B0
:109BA00022462B46FBF772F80022934BFBF76EF828
:109BB000FBF7AAF9029AD08001E0F868C680A24AB1
:109BC000A34B00990198FBF7D1F917D2FE683069D1
:109BD000FBF7B8F904460D469B4A9D4B0099019846
:109BE000FBF74CF822462B46FBF750F80022824B3D
:109BF000FBF74CF8FBF788F9308101E0F868068143
:109C0000F86807F0CDFDF8680069FBF79BF904469A
:109C10000D46904A904B05990498FBF737F8224679
:109C20002B46FBF733F80022734B00E007E0FBF70D
:109C30002DF8FBF769F980B206F0D4F973E73528FF
:109C400060D82538C0B200902069FBF77BF90690F8
:109C500007910098FBF736F900910190674A784B1D
:109C600002910390FBF712F87C4A7D4BFAF75CFFF8
:109C7000079B069AFBF70AF800225F4BFBF706F8F2
:109C8000FBF742F9A080774A774B02990398FAF7DD
:109C9000FDFF654A754B04910390FBF767F919D2F4
:109CA000F96802910869FBF74DF90D4604465E4AD2
:109CB0006E4B04990398FAF7E1FF22462B46FAF718
:109CC000E5FF00224C4BFAF7E1FFFBF71DF9029983
:109CD000C88001E0F868C680F96808460E8107F080
:109CE0005FFDF8680069FBF72DF904460D46604AF0
:109CF000604B00990198FAF7C9FF5F4A5F4BFAF78A
:109D000013FF8CE73A281BD8372897D82069FBF730
:109D100019F93C4A3C4BFAF7B9FF00222B46FAF7F7
:109D2000B5FFFBF7F1F8A080E6802681204607F01A
:109D300037FDF8680069FBF705F94F4A4F4BD0E053
:109D400045284BD83A38C0B200902069FBF7FAF8A2
:109D50000746059104910098FBF7B4F82E4A484B4A
:109D600003910290FAF792FF464A474B0191009007
:109D7000FAF7DAFE3A46049BFAF788FF00221E4BF8
:109D8000FAF784FFFBF7C0F8A0803D461B4A1C4B46
:109D9000059F01990098FAF7C7FE2A463B46FAF755
:109DA00075FF0022144BFAF771FFFBF7ADF8E08066
:109DB0002681204607F0F4FC0A48C0680069FBF7DA
:109DC000C1F80D4604462A4A2A4B03990298FAF72D
:109DD0005DFF294A294BFAF751FF20E756E00000C2
:109DE000902E002024270020382E00200000B642AC
:109DF00000401C46EC51B83D000089407B14AE4742
:109E0000E17A843FAE47E17A14AEE33F92CB7F48DC
:109E1000BF7D6D3FE17AA43FFA7E6ABC7493583FE0
:109E20000AD7A3703D0AA73F9A9999999999C93F72
:109E3000333333333333B33F54E3A59BC420B03FB4
:109E4000E17A743FC2F5D83F295C8FC2F528BC3F48
:109E5000F528AC3FFCA9F1D24D62703F3D0AD7A373
:109E6000703DE23F462575029A086B3F9999A93FDC
:109E7000F168E388B5F8343F1A2FDD240681A53F49
:109E80007493683F8FC2F5285C8FE23F502800D959
:109E900049E6462812D82069FBF754F8134A144BB8
:109EA000FAF7F4FE00222B46FAF7F0FEFBF72CF847
:109EB000A080E6802681204607F020F9F868006936
:109EC000FBF740F804460E460098FAF7FBFF094AF4
